{
  "contractName": "Game",
  "abi": [
    {
      "constant": true,
      "inputs": [],
      "name": "name",
      "outputs": [
        {
          "name": "",
          "type": "string"
        }
      ],
      "payable": false,
      "stateMutability": "view",
      "type": "function"
    },
    {
      "constant": true,
      "inputs": [],
      "name": "topPlayerLength",
      "outputs": [
        {
          "name": "",
          "type": "uint32"
        }
      ],
      "payable": false,
      "stateMutability": "view",
      "type": "function"
    },
    {
      "constant": false,
      "inputs": [
        {
          "name": "spender",
          "type": "address"
        },
        {
          "name": "value",
          "type": "uint256"
        }
      ],
      "name": "approve",
      "outputs": [
        {
          "name": "",
          "type": "bool"
        }
      ],
      "payable": false,
      "stateMutability": "nonpayable",
      "type": "function"
    },
    {
      "constant": true,
      "inputs": [
        {
          "name": "",
          "type": "uint256"
        }
      ],
      "name": "games",
      "outputs": [
        {
          "name": "gameId",
          "type": "uint64"
        },
        {
          "name": "amount",
          "type": "uint256"
        },
        {
          "name": "starter",
          "type": "address"
        },
        {
          "name": "player",
          "type": "address"
        },
        {
          "name": "status",
          "type": "uint8"
        },
        {
          "components": [
            {
              "name": "card",
              "type": "uint256"
            },
            {
              "name": "key",
              "type": "string"
            },
            {
              "name": "content",
              "type": "uint8"
            }
          ],
          "name": "starterCard",
          "type": "tuple"
        },
        {
          "components": [
            {
              "name": "card",
              "type": "uint256"
            },
            {
              "name": "key",
              "type": "string"
            },
            {
              "name": "content",
              "type": "uint8"
            }
          ],
          "name": "playerCard",
          "type": "tuple"
        },
        {
          "name": "timeout",
          "type": "uint256"
        },
        {
          "name": "threshold",
          "type": "uint256"
        }
      ],
      "payable": false,
      "stateMutability": "view",
      "type": "function"
    },
    {
      "constant": true,
      "inputs": [],
      "name": "totalSupply",
      "outputs": [
        {
          "name": "",
          "type": "uint256"
        }
      ],
      "payable": false,
      "stateMutability": "view",
      "type": "function"
    },
    {
      "constant": true,
      "inputs": [],
      "name": "maxLimit",
      "outputs": [
        {
          "name": "",
          "type": "uint256"
        }
      ],
      "payable": false,
      "stateMutability": "view",
      "type": "function"
    },
    {
      "constant": true,
      "inputs": [],
      "name": "enabled",
      "outputs": [
        {
          "name": "",
          "type": "bool"
        }
      ],
      "payable": false,
      "stateMutability": "view",
      "type": "function"
    },
    {
      "constant": false,
      "inputs": [
        {
          "name": "sender",
          "type": "address"
        },
        {
          "name": "recipient",
          "type": "address"
        },
        {
          "name": "amount",
          "type": "uint256"
        }
      ],
      "name": "transferFrom",
      "outputs": [
        {
          "name": "",
          "type": "bool"
        }
      ],
      "payable": false,
      "stateMutability": "nonpayable",
      "type": "function"
    },
    {
      "constant": true,
      "inputs": [],
      "name": "decimals",
      "outputs": [
        {
          "name": "",
          "type": "uint8"
        }
      ],
      "payable": false,
      "stateMutability": "view",
      "type": "function"
    },
    {
      "constant": false,
      "inputs": [],
      "name": "enableContract",
      "outputs": [],
      "payable": false,
      "stateMutability": "nonpayable",
      "type": "function"
    },
    {
      "constant": false,
      "inputs": [
        {
          "name": "spender",
          "type": "address"
        },
        {
          "name": "addedValue",
          "type": "uint256"
        }
      ],
      "name": "increaseAllowance",
      "outputs": [
        {
          "name": "",
          "type": "bool"
        }
      ],
      "payable": false,
      "stateMutability": "nonpayable",
      "type": "function"
    },
    {
      "constant": true,
      "inputs": [],
      "name": "timeoutLimit",
      "outputs": [
        {
          "name": "",
          "type": "uint256"
        }
      ],
      "payable": false,
      "stateMutability": "view",
      "type": "function"
    },
    {
      "constant": false,
      "inputs": [],
      "name": "claimOwnership",
      "outputs": [],
      "payable": false,
      "stateMutability": "nonpayable",
      "type": "function"
    },
    {
      "constant": true,
      "inputs": [],
      "name": "viewCountLimit",
      "outputs": [
        {
          "name": "",
          "type": "uint32"
        }
      ],
      "payable": false,
      "stateMutability": "view",
      "type": "function"
    },
    {
      "constant": true,
      "inputs": [],
      "name": "totalGameNumber",
      "outputs": [
        {
          "name": "",
          "type": "uint64"
        }
      ],
      "payable": false,
      "stateMutability": "view",
      "type": "function"
    },
    {
      "constant": true,
      "inputs": [
        {
          "name": "account",
          "type": "address"
        }
      ],
      "name": "balanceOf",
      "outputs": [
        {
          "name": "",
          "type": "uint256"
        }
      ],
      "payable": false,
      "stateMutability": "view",
      "type": "function"
    },
    {
      "constant": false,
      "inputs": [],
      "name": "renounceOwnership",
      "outputs": [],
      "payable": false,
      "stateMutability": "nonpayable",
      "type": "function"
    },
    {
      "constant": false,
      "inputs": [],
      "name": "disableContract",
      "outputs": [],
      "payable": false,
      "stateMutability": "nonpayable",
      "type": "function"
    },
    {
      "constant": true,
      "inputs": [],
      "name": "owner",
      "outputs": [
        {
          "name": "",
          "type": "address"
        }
      ],
      "payable": false,
      "stateMutability": "view",
      "type": "function"
    },
    {
      "constant": true,
      "inputs": [],
      "name": "symbol",
      "outputs": [
        {
          "name": "",
          "type": "string"
        }
      ],
      "payable": false,
      "stateMutability": "view",
      "type": "function"
    },
    {
      "constant": false,
      "inputs": [
        {
          "name": "spender",
          "type": "address"
        },
        {
          "name": "subtractedValue",
          "type": "uint256"
        }
      ],
      "name": "decreaseAllowance",
      "outputs": [
        {
          "name": "",
          "type": "bool"
        }
      ],
      "payable": false,
      "stateMutability": "nonpayable",
      "type": "function"
    },
    {
      "constant": false,
      "inputs": [
        {
          "name": "recipient",
          "type": "address"
        },
        {
          "name": "amount",
          "type": "uint256"
        }
      ],
      "name": "transfer",
      "outputs": [
        {
          "name": "",
          "type": "bool"
        }
      ],
      "payable": false,
      "stateMutability": "nonpayable",
      "type": "function"
    },
    {
      "constant": true,
      "inputs": [
        {
          "name": "",
          "type": "uint256"
        }
      ],
      "name": "topPlayerList",
      "outputs": [
        {
          "name": "",
          "type": "address"
        }
      ],
      "payable": false,
      "stateMutability": "view",
      "type": "function"
    },
    {
      "constant": true,
      "inputs": [
        {
          "name": "owner",
          "type": "address"
        },
        {
          "name": "spender",
          "type": "address"
        }
      ],
      "name": "allowance",
      "outputs": [
        {
          "name": "",
          "type": "uint256"
        }
      ],
      "payable": false,
      "stateMutability": "view",
      "type": "function"
    },
    {
      "constant": true,
      "inputs": [],
      "name": "pendingOwner",
      "outputs": [
        {
          "name": "",
          "type": "address"
        }
      ],
      "payable": false,
      "stateMutability": "view",
      "type": "function"
    },
    {
      "constant": false,
      "inputs": [
        {
          "name": "newOwner",
          "type": "address"
        }
      ],
      "name": "transferOwnership",
      "outputs": [],
      "payable": false,
      "stateMutability": "nonpayable",
      "type": "function"
    },
    {
      "inputs": [],
      "payable": false,
      "stateMutability": "nonpayable",
      "type": "constructor"
    },
    {
      "anonymous": false,
      "inputs": [
        {
          "indexed": true,
          "name": "from",
          "type": "address"
        },
        {
          "indexed": true,
          "name": "to",
          "type": "address"
        },
        {
          "indexed": false,
          "name": "value",
          "type": "uint256"
        }
      ],
      "name": "Transfer",
      "type": "event"
    },
    {
      "anonymous": false,
      "inputs": [
        {
          "indexed": true,
          "name": "owner",
          "type": "address"
        },
        {
          "indexed": true,
          "name": "spender",
          "type": "address"
        },
        {
          "indexed": false,
          "name": "value",
          "type": "uint256"
        }
      ],
      "name": "Approval",
      "type": "event"
    },
    {
      "anonymous": false,
      "inputs": [
        {
          "indexed": true,
          "name": "enabled",
          "type": "bool"
        }
      ],
      "name": "EnableStatusChanged",
      "type": "event"
    },
    {
      "anonymous": false,
      "inputs": [
        {
          "indexed": true,
          "name": "previousOwner",
          "type": "address"
        },
        {
          "indexed": true,
          "name": "newOwner",
          "type": "address"
        }
      ],
      "name": "OwnershipTransferred",
      "type": "event"
    },
    {
      "anonymous": false,
      "inputs": [
        {
          "indexed": false,
          "name": "limit",
          "type": "uint256"
        }
      ],
      "name": "SetMaxLimit",
      "type": "event"
    },
    {
      "anonymous": false,
      "inputs": [
        {
          "indexed": false,
          "name": "limit",
          "type": "uint256"
        }
      ],
      "name": "SetTimeoutLimit",
      "type": "event"
    },
    {
      "anonymous": false,
      "inputs": [
        {
          "indexed": true,
          "name": "gameId",
          "type": "uint64"
        },
        {
          "indexed": false,
          "name": "starter",
          "type": "address"
        },
        {
          "indexed": false,
          "name": "card",
          "type": "uint256"
        },
        {
          "indexed": false,
          "name": "amount",
          "type": "uint256"
        },
        {
          "indexed": false,
          "name": "threshold",
          "type": "uint256"
        }
      ],
      "name": "GameStarted",
      "type": "event"
    },
    {
      "anonymous": false,
      "inputs": [
        {
          "indexed": true,
          "name": "gameId",
          "type": "uint64"
        }
      ],
      "name": "GameCancelled",
      "type": "event"
    },
    {
      "anonymous": false,
      "inputs": [
        {
          "indexed": true,
          "name": "gameId",
          "type": "uint64"
        },
        {
          "indexed": false,
          "name": "player",
          "type": "address"
        },
        {
          "indexed": false,
          "name": "card",
          "type": "uint256"
        },
        {
          "indexed": false,
          "name": "amount",
          "type": "uint256"
        }
      ],
      "name": "GameLocked",
      "type": "event"
    },
    {
      "anonymous": false,
      "inputs": [
        {
          "indexed": true,
          "name": "gameId",
          "type": "uint64"
        },
        {
          "indexed": false,
          "name": "player",
          "type": "address"
        },
        {
          "indexed": false,
          "name": "key",
          "type": "string"
        },
        {
          "indexed": false,
          "name": "content",
          "type": "uint8"
        }
      ],
      "name": "CardOpened",
      "type": "event"
    },
    {
      "anonymous": false,
      "inputs": [
        {
          "indexed": true,
          "name": "gameId",
          "type": "uint64"
        },
        {
          "indexed": false,
          "name": "result",
          "type": "int8"
        }
      ],
      "name": "GameFinished",
      "type": "event"
    },
    {
      "constant": false,
      "inputs": [
        {
          "name": "limit",
          "type": "uint256"
        }
      ],
      "name": "setMaxLimit",
      "outputs": [],
      "payable": false,
      "stateMutability": "nonpayable",
      "type": "function"
    },
    {
      "constant": false,
      "inputs": [
        {
          "name": "limit",
          "type": "uint256"
        }
      ],
      "name": "setTimeoutLimit",
      "outputs": [],
      "payable": false,
      "stateMutability": "nonpayable",
      "type": "function"
    },
    {
      "constant": true,
      "inputs": [],
      "name": "viewTopPlayers",
      "outputs": [
        {
          "name": "",
          "type": "address[]"
        }
      ],
      "payable": false,
      "stateMutability": "view",
      "type": "function"
    },
    {
      "constant": true,
      "inputs": [
        {
          "name": "gameId",
          "type": "uint64"
        }
      ],
      "name": "viewGame",
      "outputs": [
        {
          "name": "",
          "type": "uint256"
        },
        {
          "name": "",
          "type": "uint256"
        },
        {
          "name": "",
          "type": "address"
        },
        {
          "name": "",
          "type": "address"
        },
        {
          "name": "",
          "type": "uint8"
        },
        {
          "name": "",
          "type": "uint256"
        },
        {
          "name": "",
          "type": "uint256"
        },
        {
          "name": "",
          "type": "string"
        },
        {
          "name": "",
          "type": "uint8"
        },
        {
          "name": "",
          "type": "uint256"
        },
        {
          "name": "",
          "type": "string"
        },
        {
          "name": "",
          "type": "uint8"
        }
      ],
      "payable": false,
      "stateMutability": "view",
      "type": "function"
    },
    {
      "constant": true,
      "inputs": [
        {
          "name": "limit",
          "type": "uint64"
        }
      ],
      "name": "viewLatestGames",
      "outputs": [
        {
          "name": "",
          "type": "uint256[]"
        }
      ],
      "payable": false,
      "stateMutability": "view",
      "type": "function"
    },
    {
      "constant": false,
      "inputs": [
        {
          "name": "card",
          "type": "uint256"
        },
        {
          "name": "threshold",
          "type": "uint256"
        }
      ],
      "name": "startGame",
      "outputs": [],
      "payable": true,
      "stateMutability": "payable",
      "type": "function"
    },
    {
      "constant": false,
      "inputs": [
        {
          "name": "gameId",
          "type": "uint64"
        }
      ],
      "name": "cancelGame",
      "outputs": [],
      "payable": false,
      "stateMutability": "nonpayable",
      "type": "function"
    },
    {
      "constant": false,
      "inputs": [
        {
          "name": "gameId",
          "type": "uint64"
        },
        {
          "name": "card",
          "type": "uint256"
        }
      ],
      "name": "joinGame",
      "outputs": [],
      "payable": true,
      "stateMutability": "payable",
      "type": "function"
    },
    {
      "constant": false,
      "inputs": [
        {
          "name": "gameId",
          "type": "uint64"
        },
        {
          "name": "key",
          "type": "string"
        },
        {
          "name": "content",
          "type": "uint8"
        }
      ],
      "name": "openCard",
      "outputs": [],
      "payable": false,
      "stateMutability": "nonpayable",
      "type": "function"
    },
    {
      "constant": false,
      "inputs": [
        {
          "name": "gameId",
          "type": "uint64"
        }
      ],
      "name": "finishTimeoutGame",
      "outputs": [],
      "payable": false,
      "stateMutability": "nonpayable",
      "type": "function"
    }
  ],
  "bytecode": "0x608060405260018060146101000a81548160ff021916908315150217905550683635c9adc5dea000006008556102586009556000600a60006101000a81548167ffffffffffffffff021916908367ffffffffffffffff160217905550600a8060086101000a81548163ffffffff021916908363ffffffff1602179055506003600a600c6101000a81548163ffffffff021916908363ffffffff160217905550348015620000ab57600080fd5b506040805190810160405280600381526020017f52505300000000000000000000000000000000000000000000000000000000008152506040805190810160405280601e81526020017f526f636b2070617065722073636973736f72732067616d652073636f7265000081525060126000336000806101000a81548173ffffffffffffffffffffffffffffffffffffffff021916908373ffffffffffffffffffffffffffffffffffffffff1602179055508360049080519060200190620001749291906200043f565b5082600590805190602001906200018d9291906200043f565b5081600660006101000a81548160ff021916908360ff160217905550620001ca336012600a0a8302620001d4640100000000026401000000009004565b50505050620004ee565b600073ffffffffffffffffffffffffffffffffffffffff168273ffffffffffffffffffffffffffffffffffffffff16141515156200027a576040517f08c379a000000000000000000000000000000000000000000000000000000000815260040180806020018281038252601f8152602001807f45524332303a206d696e7420746f20746865207a65726f20616464726573730081525060200191505060405180910390fd5b6200029f81600754620003b46401000000000262005051179091906401000000009004565b6007819055506200030781600260008573ffffffffffffffffffffffffffffffffffffffff1673ffffffffffffffffffffffffffffffffffffffff16815260200190815260200160002054620003b46401000000000262005051179091906401000000009004565b600260008473ffffffffffffffffffffffffffffffffffffffff1673ffffffffffffffffffffffffffffffffffffffff168152602001908152602001600020819055508173ffffffffffffffffffffffffffffffffffffffff16600073ffffffffffffffffffffffffffffffffffffffff167fddf252ad1be2c89b69c2b068fc378daa952ba7f163c4a11628f55a4df523b3ef836040518082815260200191505060405180910390a35050565b600080828401905083811015151562000435576040517f08c379a000000000000000000000000000000000000000000000000000000000815260040180806020018281038252601b8152602001807f536166654d6174683a206164646974696f6e206f766572666c6f77000000000081525060200191505060405180910390fd5b8091505092915050565b828054600181600116156101000203166002900490600052602060002090601f016020900481019282601f106200048257805160ff1916838001178555620004b3565b82800160010185558215620004b3579182015b82811115620004b257825182559160200191906001019062000495565b5b509050620004c29190620004c6565b5090565b620004eb91905b80821115620004e7576000816000905550600101620004cd565b5090565b90565b615c6380620004fe6000396000f3006080604052600436106101c2576000357c0100000000000000000000000000000000000000000000000000000000900463ffffffff16806306fdde03146101c7578063093a25c014610257578063095ea7b31461028e5780630d53be48146102f3578063117a5b901461032a57806318160ddd146104155780631a861d26146104405780631eb447f91461046b578063238dafe0146104a257806323b872dd146104d157806329eaa1ab14610556578063313ce567146105e2578063367edd3214610613578063395093511461062a5780633b59034f1461068f57806349bcaf5f1461085b5780634a307a84146108885780634e71e0c8146108b35780635c3f2965146108ca57806362212e4b146109015780636fcfca041461095d57806370a082311461099c578063715018a6146109f3578063730b838114610a0a578063894ba83314610a345780638da5cb5b14610a4b57806395d89b4114610aa25780639d65a67e14610b32578063a457c2d714610b66578063a9059cbb14610bcb578063bf8bcee414610c30578063d252682d14610c5d578063dcdb1f3a14610cca578063dd62ed3e14610d36578063e30c397814610dad578063f2fde38b14610e04575b600080fd5b3480156101d357600080fd5b506101dc610e47565b6040518080602001828103825283818151815260200191508051906020019080838360005b8381101561021c578082015181840152602081019050610201565b50505050905090810190601f1680156102495780820380516001836020036101000a031916815260200191505b509250505060405180910390f35b34801561026357600080fd5b5061026c610ee9565b604051808263ffffffff1663ffffffff16815260200191505060405180910390f35b34801561029a57600080fd5b506102d9600480360381019080803573ffffffffffffffffffffffffffffffffffffffff16906020019092919080359060200190929190505050610eff565b604051808215151515815260200191505060405180910390f35b3480156102ff57600080fd5b50610328600480360381019080803567ffffffffffffffff169060200190929190505050610f16565b005b34801561033657600080fd5b50610355600480360381019080803590602001909291905050506112af565b604051808a67ffffffffffffffff1667ffffffffffffffff1681526020018981526020018873ffffffffffffffffffffffffffffffffffffffff1673ffffffffffffffffffffffffffffffffffffffff1681526020018773ffffffffffffffffffffffffffffffffffffffff1673ffffffffffffffffffffffffffffffffffffffff1681526020018660ff1660ff168152602001858152602001848152602001838152602001828152602001995050505050505050505060405180910390f35b34801561042157600080fd5b5061042a611515565b6040518082815260200191505060405180910390f35b34801561044c57600080fd5b5061045561151f565b6040518082815260200191505060405180910390f35b34801561047757600080fd5b506104a0600480360381019080803567ffffffffffffffff169060200190929190505050611525565b005b3480156104ae57600080fd5b506104b7611c14565b604051808215151515815260200191505060405180910390f35b3480156104dd57600080fd5b5061053c600480360381019080803573ffffffffffffffffffffffffffffffffffffffff169060200190929190803573ffffffffffffffffffffffffffffffffffffffff16906020019092919080359060200190929190505050611c27565b604051808215151515815260200191505060405180910390f35b34801561056257600080fd5b5061058b600480360381019080803567ffffffffffffffff169060200190929190505050611cd8565b6040518080602001828103825283818151815260200191508051906020019060200280838360005b838110156105ce5780820151818401526020810190506105b3565b505050509050019250505060405180910390f35b3480156105ee57600080fd5b506105f7612303565b604051808260ff1660ff16815260200191505060405180910390f35b34801561061f57600080fd5b5061062861231a565b005b34801561063657600080fd5b50610675600480360381019080803573ffffffffffffffffffffffffffffffffffffffff16906020019092919080359060200190929190505050612438565b604051808215151515815260200191505060405180910390f35b34801561069b57600080fd5b506106c4600480360381019080803567ffffffffffffffff1690602001909291905050506124dd565b604051808d81526020018c81526020018b73ffffffffffffffffffffffffffffffffffffffff1673ffffffffffffffffffffffffffffffffffffffff1681526020018a73ffffffffffffffffffffffffffffffffffffffff1673ffffffffffffffffffffffffffffffffffffffff1681526020018960ff1660ff168152602001888152602001878152602001806020018660ff1660ff168152602001858152602001806020018460ff1660ff168152602001838103835288818151815260200191508051906020019080838360005b838110156107ae578082015181840152602081019050610793565b50505050905090810190601f1680156107db5780820380516001836020036101000a031916815260200191505b50838103825285818151815260200191508051906020019080838360005b838110156108145780820151818401526020810190506107f9565b50505050905090810190601f1680156108415780820380516001836020036101000a031916815260200191505b509e50505050505050505050505050505060405180910390f35b34801561086757600080fd5b506108866004803603810190808035906020019092919050505061292a565b005b34801561089457600080fd5b5061089d612a2f565b6040518082815260200191505060405180910390f35b3480156108bf57600080fd5b506108c8612a35565b005b3480156108d657600080fd5b506108df612c3d565b604051808263ffffffff1663ffffffff16815260200191505060405180910390f35b34801561090d57600080fd5b5061095b600480360381019080803567ffffffffffffffff169060200190929190803590602001908201803590602001919091929391929390803560ff169060200190929190505050612c53565b005b34801561096957600080fd5b50610972613258565b604051808267ffffffffffffffff1667ffffffffffffffff16815260200191505060405180910390f35b3480156109a857600080fd5b506109dd600480360381019080803573ffffffffffffffffffffffffffffffffffffffff169060200190929190505050613272565b6040518082815260200191505060405180910390f35b3480156109ff57600080fd5b50610a086132bb565b005b610a32600480360381019080803590602001909291908035906020019092919050505061338b565b005b348015610a4057600080fd5b50610a496137fa565b005b348015610a5757600080fd5b50610a60613919565b604051808273ffffffffffffffffffffffffffffffffffffffff1673ffffffffffffffffffffffffffffffffffffffff16815260200191505060405180910390f35b348015610aae57600080fd5b50610ab761393e565b6040518080602001828103825283818151815260200191508051906020019080838360005b83811015610af7578082015181840152602081019050610adc565b50505050905090810190601f168015610b245780820380516001836020036101000a031916815260200191505b509250505060405180910390f35b610b64600480360381019080803567ffffffffffffffff169060200190929190803590602001909291905050506139e0565b005b348015610b7257600080fd5b50610bb1600480360381019080803573ffffffffffffffffffffffffffffffffffffffff16906020019092919080359060200190929190505050613eae565b604051808215151515815260200191505060405180910390f35b348015610bd757600080fd5b50610c16600480360381019080803573ffffffffffffffffffffffffffffffffffffffff16906020019092919080359060200190929190505050613f53565b604051808215151515815260200191505060405180910390f35b348015610c3c57600080fd5b50610c5b60048036038101908080359060200190929190505050613f6a565b005b348015610c6957600080fd5b50610c88600480360381019080803590602001909291905050506140ef565b604051808273ffffffffffffffffffffffffffffffffffffffff1673ffffffffffffffffffffffffffffffffffffffff16815260200191505060405180910390f35b348015610cd657600080fd5b50610cdf61412d565b6040518080602001828103825283818151815260200191508051906020019060200280838360005b83811015610d22578082015181840152602081019050610d07565b505050509050019250505060405180910390f35b348015610d4257600080fd5b50610d97600480360381019080803573ffffffffffffffffffffffffffffffffffffffff169060200190929190803573ffffffffffffffffffffffffffffffffffffffff1690602001909291905050506141bb565b6040518082815260200191505060405180910390f35b348015610db957600080fd5b50610dc2614242565b604051808273ffffffffffffffffffffffffffffffffffffffff1673ffffffffffffffffffffffffffffffffffffffff16815260200191505060405180910390f35b348015610e1057600080fd5b50610e45600480360381019080803573ffffffffffffffffffffffffffffffffffffffff169060200190929190505050614268565b005b606060048054600181600116156101000203166002900480601f016020809104026020016040519081016040528092919081815260200182805460018160011615610100020316600290048015610edf5780601f10610eb457610100808354040283529160200191610edf565b820191906000526020600020905b815481529060010190602001808311610ec257829003601f168201915b5050505050905090565b600a600c9054906101000a900463ffffffff1681565b6000610f0c338484614370565b6001905092915050565b600081600a60009054906101000a900467ffffffffffffffff1667ffffffffffffffff168167ffffffffffffffff16101515610fba576040517f08c379a000000000000000000000000000000000000000000000000000000000815260040180806020018281038252600d8152602001807f77726f6e672067616d652069640000000000000000000000000000000000000081525060200191505060405180910390fd5b823373ffffffffffffffffffffffffffffffffffffffff16600c8267ffffffffffffffff16815481101515610feb57fe5b90600052602060002090600c020160020160009054906101000a900473ffffffffffffffffffffffffffffffffffffffff1673ffffffffffffffffffffffffffffffffffffffff161415156110a8576040517f08c379a00000000000000000000000000000000000000000000000000000000081526004018080602001828103825260118152602001807f6e6565642067616d65207374617274657200000000000000000000000000000081525060200191505060405180910390fd5b8360008060ff16600c8367ffffffffffffffff168154811015156110c857fe5b90600052602060002090600c020160030160149054906101000a900460ff1660ff1614151561115f576040517f08c379a00000000000000000000000000000000000000000000000000000000081526004018080602001828103825260118152602001807f77726f6e672067616d652073746174757300000000000000000000000000000081525060200191505060405180910390fd5b85611169816145f1565b15156111dd576040517f08c379a00000000000000000000000000000000000000000000000000000000081526004018080602001828103825260128152602001807f6e6565642067616d652074696d65206f7574000000000000000000000000000081525060200191505060405180910390fd5b600c8767ffffffffffffffff168154811015156111f657fe5b90600052602060002090600c0201955060038660030160146101000a81548160ff021916908360ff1602179055503373ffffffffffffffffffffffffffffffffffffffff166108fc87600101549081150290604051600060405180830381858888f1935050505015801561126e573d6000803e3d6000fd5b508667ffffffffffffffff167fa77d020ec6193b836dd9686343fd6244891812d0d63f6b8567734bf69298985860405160405180910390a250505050505050565b600c818154811015156112be57fe5b90600052602060002090600c02016000915090508060000160009054906101000a900467ffffffffffffffff16908060010154908060020160009054906101000a900473ffffffffffffffffffffffffffffffffffffffff16908060030160009054906101000a900473ffffffffffffffffffffffffffffffffffffffff16908060030160149054906101000a900460ff1690806004016060604051908101604052908160008201548152602001600182018054600181600116156101000203166002900480601f0160208091040260200160405190810160405280929190818152602001828054600181600116156101000203166002900480156114045780601f106113d957610100808354040283529160200191611404565b820191906000526020600020905b8154815290600101906020018083116113e757829003601f168201915b505050505081526020016002820160009054906101000a900460ff1660ff1660ff168152505090806007016060604051908101604052908160008201548152602001600182018054600181600116156101000203166002900480601f0160208091040260200160405190810160405280929190818152602001828054600181600116156101000203166002900480156114de5780601f106114b3576101008083540402835291602001916114de565b820191906000526020600020905b8154815290600101906020018083116114c157829003601f168201915b505050505081526020016002820160009054906101000a900460ff1660ff1660ff16815250509080600a01549080600b0154905089565b6000600754905090565b60085481565b61152d615a36565b611535615ac8565b61153d615ac8565b83600a60009054906101000a900467ffffffffffffffff1667ffffffffffffffff168167ffffffffffffffff161015156115df576040517f08c379a000000000000000000000000000000000000000000000000000000000815260040180806020018281038252600d8152602001807f77726f6e672067616d652069640000000000000000000000000000000000000081525060200191505060405180910390fd5b843373ffffffffffffffffffffffffffffffffffffffff16600c8267ffffffffffffffff1681548110151561161057fe5b90600052602060002090600c020160020160009054906101000a900473ffffffffffffffffffffffffffffffffffffffff1673ffffffffffffffffffffffffffffffffffffffff1614806116d957503373ffffffffffffffffffffffffffffffffffffffff16600c8267ffffffffffffffff1681548110151561168f57fe5b90600052602060002090600c020160030160009054906101000a900473ffffffffffffffffffffffffffffffffffffffff1673ffffffffffffffffffffffffffffffffffffffff16145b151561174d576040517f08c379a00000000000000000000000000000000000000000000000000000000081526004018080602001828103825260108152602001807f6e6565642067616d6520706c617965720000000000000000000000000000000081525060200191505060405180910390fd5b8560018060ff16600c8367ffffffffffffffff1681548110151561176d57fe5b90600052602060002090600c020160030160149054906101000a900460ff1660ff16141515611804576040517f08c379a00000000000000000000000000000000000000000000000000000000081526004018080602001828103825260118152602001807f77726f6e672067616d652073746174757300000000000000000000000000000081525060200191505060405180910390fd5b8761180e816145f1565b1515611882576040517f08c379a00000000000000000000000000000000000000000000000000000000081526004018080602001828103825260128152602001807f6e6565642067616d652074696d65206f7574000000000000000000000000000081525060200191505060405180910390fd5b600c8967ffffffffffffffff1681548110151561189b57fe5b90600052602060002090600c020161012060405190810160405290816000820160009054906101000a900467ffffffffffffffff1667ffffffffffffffff1667ffffffffffffffff168152602001600182015481526020016002820160009054906101000a900473ffffffffffffffffffffffffffffffffffffffff1673ffffffffffffffffffffffffffffffffffffffff1673ffffffffffffffffffffffffffffffffffffffff1681526020016003820160009054906101000a900473ffffffffffffffffffffffffffffffffffffffff1673ffffffffffffffffffffffffffffffffffffffff1673ffffffffffffffffffffffffffffffffffffffff1681526020016003820160149054906101000a900460ff1660ff1660ff168152602001600482016060604051908101604052908160008201548152602001600182018054600181600116156101000203166002900480601f016020809104026020016040519081016040528092919081815260200182805460018160011615610100020316600290048015611a6f5780601f10611a4457610100808354040283529160200191611a6f565b820191906000526020600020905b815481529060010190602001808311611a5257829003601f168201915b505050505081526020016002820160009054906101000a900460ff1660ff1660ff16815250508152602001600782016060604051908101604052908160008201548152602001600182018054600181600116156101000203166002900480601f016020809104026020016040519081016040528092919081815260200182805460018160011615610100020316600290048015611b4d5780601f10611b2257610100808354040283529160200191611b4d565b820191906000526020600020905b815481529060010190602001808311611b3057829003601f168201915b505050505081526020016002820160009054906101000a900460ff1660ff1660ff16815250508152602001600a8201548152602001600b8201548152505097508760a0015196508760c0015195506000876040015160ff16141515611bbc57611bb7896001614916565b611c09565b6000866040015160ff16141515611bfc57611bf7897fffffffffffffffffffffffffffffffffffffffffffffffffffffffffffffffff614916565b611c08565b611c07896000614916565b5b5b505050505050505050565b600160149054906101000a900460ff1681565b6000611c34848484614c7f565b611ccd8433611cc885600360008a73ffffffffffffffffffffffffffffffffffffffff1673ffffffffffffffffffffffffffffffffffffffff16815260200190815260200160002060003373ffffffffffffffffffffffffffffffffffffffff1673ffffffffffffffffffffffffffffffffffffffff1681526020019081526020016000205461500790919063ffffffff16565b614370565b600190509392505050565b6060600060606000611ce8615a36565b600a60089054906101000a900463ffffffff1663ffffffff168667ffffffffffffffff1611151515611d82576040517f08c379a00000000000000000000000000000000000000000000000000000000081526004018080602001828103825260118152602001807f6c696d697420697320746f6f206869676800000000000000000000000000000081525060200191505060405180910390fd5b600a60009054906101000a900467ffffffffffffffff1667ffffffffffffffff168667ffffffffffffffff1611611db95785611dd1565b600a60009054906101000a900467ffffffffffffffff165b93506007840267ffffffffffffffff16604051908082528060200260200182016040528015611e0f5781602001602082028038833980820191505090505b509250600091505b8367ffffffffffffffff168267ffffffffffffffff1610156122f757600c600183600a60009054906101000a900467ffffffffffffffff16030367ffffffffffffffff16815481101515611e6757fe5b90600052602060002090600c020161012060405190810160405290816000820160009054906101000a900467ffffffffffffffff1667ffffffffffffffff1667ffffffffffffffff168152602001600182015481526020016002820160009054906101000a900473ffffffffffffffffffffffffffffffffffffffff1673ffffffffffffffffffffffffffffffffffffffff1673ffffffffffffffffffffffffffffffffffffffff1681526020016003820160009054906101000a900473ffffffffffffffffffffffffffffffffffffffff1673ffffffffffffffffffffffffffffffffffffffff1673ffffffffffffffffffffffffffffffffffffffff1681526020016003820160149054906101000a900460ff1660ff1660ff168152602001600482016060604051908101604052908160008201548152602001600182018054600181600116156101000203166002900480601f01602080910402602001604051908101604052809291908181526020018280546001816001161561010002031660029004801561203b5780601f106120105761010080835404028352916020019161203b565b820191906000526020600020905b81548152906001019060200180831161201e57829003601f168201915b505050505081526020016002820160009054906101000a900460ff1660ff1660ff16815250508152602001600782016060604051908101604052908160008201548152602001600182018054600181600116156101000203166002900480601f0160208091040260200160405190810160405280929190818152602001828054600181600116156101000203166002900480156121195780601f106120ee57610100808354040283529160200191612119565b820191906000526020600020905b8154815290600101906020018083116120fc57829003601f168201915b505050505081526020016002820160009054906101000a900460ff1660ff1660ff16815250508152602001600a8201548152602001600b820154815250509050806000015167ffffffffffffffff16836000600785020167ffffffffffffffff1681518110151561218657fe5b90602001906020020181815250508060200151836001600785020167ffffffffffffffff168151811015156121b757fe5b9060200190602002018181525050806101000151836002600785020167ffffffffffffffff168151811015156121e957fe5b9060200190602002018181525050806040015173ffffffffffffffffffffffffffffffffffffffff16836003600785020167ffffffffffffffff1681518110151561223057fe5b9060200190602002018181525050806060015173ffffffffffffffffffffffffffffffffffffffff16836004600785020167ffffffffffffffff1681518110151561227757fe5b9060200190602002018181525050806080015160ff16836005600785020167ffffffffffffffff168151811015156122ab57fe5b90602001906020020181815250508060e00151836006600785020167ffffffffffffffff168151811015156122dc57fe5b90602001906020020181815250508180600101925050611e17565b82945050505050919050565b6000600660009054906101000a900460ff16905090565b6000809054906101000a900473ffffffffffffffffffffffffffffffffffffffff1673ffffffffffffffffffffffffffffffffffffffff163373ffffffffffffffffffffffffffffffffffffffff161415156123de576040517f08c379a00000000000000000000000000000000000000000000000000000000081526004018080602001828103825260208152602001807f4f776e61626c653a2063616c6c6572206973206e6f7420746865206f776e657281525060200191505060405180910390fd5b60018060146101000a81548160ff021916908315150217905550600160149054906101000a900460ff1615157f44cd398f157fa2dcc23e1a3238d8ec602ef8ed03c90372c10918d81d69e36ab160405160405180910390a2565b60006124d333846124ce85600360003373ffffffffffffffffffffffffffffffffffffffff1673ffffffffffffffffffffffffffffffffffffffff16815260200190815260200160002060008973ffffffffffffffffffffffffffffffffffffffff1673ffffffffffffffffffffffffffffffffffffffff1681526020019081526020016000205461505190919063ffffffff16565b614370565b6001905092915050565b60008060008060008060006060600080606060006124f9615a36565b8d600a60009054906101000a900467ffffffffffffffff1667ffffffffffffffff168167ffffffffffffffff1610151561259b576040517f08c379a000000000000000000000000000000000000000000000000000000000815260040180806020018281038252600d8152602001807f77726f6e672067616d652069640000000000000000000000000000000000000081525060200191505060405180910390fd5b600c8f67ffffffffffffffff168154811015156125b457fe5b90600052602060002090600c020161012060405190810160405290816000820160009054906101000a900467ffffffffffffffff1667ffffffffffffffff1667ffffffffffffffff168152602001600182015481526020016002820160009054906101000a900473ffffffffffffffffffffffffffffffffffffffff1673ffffffffffffffffffffffffffffffffffffffff1673ffffffffffffffffffffffffffffffffffffffff1681526020016003820160009054906101000a900473ffffffffffffffffffffffffffffffffffffffff1673ffffffffffffffffffffffffffffffffffffffff1673ffffffffffffffffffffffffffffffffffffffff1681526020016003820160149054906101000a900460ff1660ff1660ff168152602001600482016060604051908101604052908160008201548152602001600182018054600181600116156101000203166002900480601f0160208091040260200160405190810160405280929190818152602001828054600181600116156101000203166002900480156127885780601f1061275d57610100808354040283529160200191612788565b820191906000526020600020905b81548152906001019060200180831161276b57829003601f168201915b505050505081526020016002820160009054906101000a900460ff1660ff1660ff16815250508152602001600782016060604051908101604052908160008201548152602001600182018054600181600116156101000203166002900480601f0160208091040260200160405190810160405280929190818152602001828054600181600116156101000203166002900480156128665780601f1061283b57610100808354040283529160200191612866565b820191906000526020600020905b81548152906001019060200180831161284957829003601f168201915b505050505081526020016002820160009054906101000a900460ff1660ff1660ff16815250508152602001600a8201548152602001600b82015481525050915081602001518261010001518360400151846060015185608001518660e001518760a00151600001518860a00151602001518960a00151604001518a60c00151600001518b60c00151602001518c60c00151604001518494508191509d509d509d509d509d509d509d509d509d509d509d509d50505091939597999b5091939597999b565b6000809054906101000a900473ffffffffffffffffffffffffffffffffffffffff1673ffffffffffffffffffffffffffffffffffffffff163373ffffffffffffffffffffffffffffffffffffffff161415156129ee576040517f08c379a00000000000000000000000000000000000000000000000000000000081526004018080602001828103825260208152602001807f4f776e61626c653a2063616c6c6572206973206e6f7420746865206f776e657281525060200191505060405180910390fd5b806009819055507f016810b2453fd6fa62348747e56186a28bfab39f0326d594aa954c3421996500816040518082815260200191505060405180910390a150565b60095481565b600160009054906101000a900473ffffffffffffffffffffffffffffffffffffffff1673ffffffffffffffffffffffffffffffffffffffff163373ffffffffffffffffffffffffffffffffffffffff16141515612afa576040517f08c379a00000000000000000000000000000000000000000000000000000000081526004018080602001828103825260168152602001807f50656e64696e67206f776e65722072657175697265640000000000000000000081525060200191505060405180910390fd5b600160009054906101000a900473ffffffffffffffffffffffffffffffffffffffff1673ffffffffffffffffffffffffffffffffffffffff166000809054906101000a900473ffffffffffffffffffffffffffffffffffffffff1673ffffffffffffffffffffffffffffffffffffffff167f8be0079c531659141344cd1fd0a4f28419497f9722a3daafe3b4186f6b6457e060405160405180910390a3600160009054906101000a900473ffffffffffffffffffffffffffffffffffffffff166000806101000a81548173ffffffffffffffffffffffffffffffffffffffff021916908373ffffffffffffffffffffffffffffffffffffffff1602179055506000600160006101000a81548173ffffffffffffffffffffffffffffffffffffffff021916908373ffffffffffffffffffffffffffffffffffffffff160217905550565b600a60089054906101000a900463ffffffff1681565b60008060008087600a60009054906101000a900467ffffffffffffffff1667ffffffffffffffff168167ffffffffffffffff16101515612cfb576040517f08c379a000000000000000000000000000000000000000000000000000000000815260040180806020018281038252600d8152602001807f77726f6e672067616d652069640000000000000000000000000000000000000081525060200191505060405180910390fd5b883373ffffffffffffffffffffffffffffffffffffffff16600c8267ffffffffffffffff16815481101515612d2c57fe5b90600052602060002090600c020160020160009054906101000a900473ffffffffffffffffffffffffffffffffffffffff1673ffffffffffffffffffffffffffffffffffffffff161480612df557503373ffffffffffffffffffffffffffffffffffffffff16600c8267ffffffffffffffff16815481101515612dab57fe5b90600052602060002090600c020160030160009054906101000a900473ffffffffffffffffffffffffffffffffffffffff1673ffffffffffffffffffffffffffffffffffffffff16145b1515612e69576040517f08c379a00000000000000000000000000000000000000000000000000000000081526004018080602001828103825260108152602001807f6e6565642067616d6520706c617965720000000000000000000000000000000081525060200191505060405180910390fd5b8960018060ff16600c8367ffffffffffffffff16815481101515612e8957fe5b90600052602060002090600c020160030160149054906101000a900460ff1660ff16141515612f20576040517f08c379a00000000000000000000000000000000000000000000000000000000081526004018080602001828103825260118152602001807f77726f6e672067616d652073746174757300000000000000000000000000000081525060200191505060405180910390fd5b8860048160ff16108015612f37575060008160ff16115b1515612fab576040517f08c379a000000000000000000000000000000000000000000000000000000000815260040180806020018281038252600d8152602001807f77726f6e6720636f6e74656e740000000000000000000000000000000000000081525060200191505060405180910390fd5b600c8d67ffffffffffffffff16815481101515612fc457fe5b90600052602060002090600c020198503373ffffffffffffffffffffffffffffffffffffffff168960020160009054906101000a900473ffffffffffffffffffffffffffffffffffffffff1673ffffffffffffffffffffffffffffffffffffffff1614156130375788600401975061303e565b8860070197505b61307f88600001548d8d8080601f0160208091040260200160405190810160405280939291908181526020018383808284378201915050505050508c6150db565b96508615156130f6576040517f08c379a00000000000000000000000000000000000000000000000000000000081526004018080602001828103825260148152602001807f77726f6e67206b6579206f7220636f6e74656e7400000000000000000000000081525060200191505060405180910390fd5b8b8b896001019190613109929190615aed565b50898860020160006101000a81548160ff021916908360ff1602179055508c67ffffffffffffffff167f98df0761314acbda7cfd71579a6da1b756ecf9f8de9d61c54a0a3b5c16db7897338e8e8e604051808573ffffffffffffffffffffffffffffffffffffffff1673ffffffffffffffffffffffffffffffffffffffff168152602001806020018360ff1660ff168152602001828103825285858281815260200192508082843782019150509550505050505060405180910390a260008960040160020160009054906101000a900460ff1660ff1614158015613205575060008960070160020160009054906101000a900460ff1660ff1614155b156132495761323c8960040160020160009054906101000a900460ff168a60070160020160009054906101000a900460ff166151eb565b95506132488d87614916565b5b50505050505050505050505050565b600a60009054906101000a900467ffffffffffffffff1681565b6000600260008373ffffffffffffffffffffffffffffffffffffffff1673ffffffffffffffffffffffffffffffffffffffff168152602001908152602001600020549050919050565b6000809054906101000a900473ffffffffffffffffffffffffffffffffffffffff1673ffffffffffffffffffffffffffffffffffffffff163373ffffffffffffffffffffffffffffffffffffffff1614151561337f576040517f08c379a00000000000000000000000000000000000000000000000000000000081526004018080602001828103825260208152602001807f4f776e61626c653a2063616c6c6572206973206e6f7420746865206f776e657281525060200191505060405180910390fd5b61338960006152a2565b565b613393615ac8565b61339b615ac8565b6133a3615a36565b600160149054906101000a900460ff16151561344d576040517f08c379a00000000000000000000000000000000000000000000000000000000081526004018080602001828103825260238152602001807f436f6e747261637420686173206265656e2064697361626c6564206279206f7781526020017f6e6572000000000000000000000000000000000000000000000000000000000081525060400191505060405180910390fd5b60606040519081016040528086815260200160206040519081016040528060008152508152602001600060ff1681525092506060604051908101604052806000815260200160206040519081016040528060008152508152602001600060ff16815250915061012060405190810160405280600a60009054906101000a900467ffffffffffffffff1667ffffffffffffffff1681526020013481526020013373ffffffffffffffffffffffffffffffffffffffff168152602001600073ffffffffffffffffffffffffffffffffffffffff168152602001600060ff16815260200184815260200183815260200160095442018152602001858152509050600a600081819054906101000a900467ffffffffffffffff168092919060010191906101000a81548167ffffffffffffffff021916908367ffffffffffffffff16021790555050600c819080600181540180825580915050906001820390600052602060002090600c02016000909192909190915060008201518160000160006101000a81548167ffffffffffffffff021916908367ffffffffffffffff1602179055506020820151816001015560408201518160020160006101000a81548173ffffffffffffffffffffffffffffffffffffffff021916908373ffffffffffffffffffffffffffffffffffffffff16021790555060608201518160030160006101000a81548173ffffffffffffffffffffffffffffffffffffffff021916908373ffffffffffffffffffffffffffffffffffffffff16021790555060808201518160030160146101000a81548160ff021916908360ff16021790555060a0820151816004016000820151816000015560208201518160010190805190602001906136d6929190615b6d565b5060408201518160020160006101000a81548160ff021916908360ff160217905550505060c082015181600701600082015181600001556020820151816001019080519060200190613729929190615b6d565b5060408201518160020160006101000a81548160ff021916908360ff160217905550505060e082015181600a015561010082015181600b0155505050806000015167ffffffffffffffff167f04b3f072ec09d8a8e42d32becc4b8f5907ae8e1840ab37c6698647fd2ecf24458260400151873488604051808573ffffffffffffffffffffffffffffffffffffffff1673ffffffffffffffffffffffffffffffffffffffff16815260200184815260200183815260200182815260200194505050505060405180910390a25050505050565b6000809054906101000a900473ffffffffffffffffffffffffffffffffffffffff1673ffffffffffffffffffffffffffffffffffffffff163373ffffffffffffffffffffffffffffffffffffffff161415156138be576040517f08c379a00000000000000000000000000000000000000000000000000000000081526004018080602001828103825260208152602001807f4f776e61626c653a2063616c6c6572206973206e6f7420746865206f776e657281525060200191505060405180910390fd5b6000600160146101000a81548160ff021916908315150217905550600160149054906101000a900460ff1615157f44cd398f157fa2dcc23e1a3238d8ec602ef8ed03c90372c10918d81d69e36ab160405160405180910390a2565b6000809054906101000a900473ffffffffffffffffffffffffffffffffffffffff1681565b606060058054600181600116156101000203166002900480601f0160208091040260200160405190810160405280929190818152602001828054600181600116156101000203166002900480156139d65780601f106139ab576101008083540402835291602001916139d6565b820191906000526020600020905b8154815290600101906020018083116139b957829003601f168201915b5050505050905090565b60006139ea615ac8565b83600a60009054906101000a900467ffffffffffffffff1667ffffffffffffffff168167ffffffffffffffff16101515613a8c576040517f08c379a000000000000000000000000000000000000000000000000000000000815260040180806020018281038252600d8152602001807f77726f6e672067616d652069640000000000000000000000000000000000000081525060200191505060405180910390fd5b8460008060ff16600c8367ffffffffffffffff16815481101515613aac57fe5b90600052602060002090600c020160030160149054906101000a900460ff1660ff16141515613b43576040517f08c379a00000000000000000000000000000000000000000000000000000000081526004018080602001828103825260118152602001807f77726f6e672067616d652073746174757300000000000000000000000000000081525060200191505060405180910390fd5b86613b4d816145f1565b151515613bc2576040517f08c379a000000000000000000000000000000000000000000000000000000000815260040180806020018281038252600b8152602001807f74696d65206973206f757400000000000000000000000000000000000000000081525060200191505060405180910390fd5b600c8867ffffffffffffffff16815481101515613bdb57fe5b90600052602060002090600c0201955060606040519081016040528088815260200160206040519081016040528060008152508152602001600060ff16815250945085600b01543410151515613c99576040517f08c379a000000000000000000000000000000000000000000000000000000000815260040180806020018281038252600d8152602001807f77726f6e672062616c616e63650000000000000000000000000000000000000081525060200191505060405180910390fd5b85600b0154341115613cf3573373ffffffffffffffffffffffffffffffffffffffff166108fc87600b015434039081150290604051600060405180830381858888f19350505050158015613cf1573d6000803e3d6000fd5b505b338660030160006101000a81548173ffffffffffffffffffffffffffffffffffffffff021916908373ffffffffffffffffffffffffffffffffffffffff1602179055508486600701600082015181600001556020820151816001019080519060200190613d61929190615b6d565b5060408201518160020160006101000a81548160ff021916908360ff16021790555090505085600b01548660010154018660010181905550426009540186600a018190555060018660030160146101000a81548160ff021916908360ff160217905550613df38660020160009054906101000a900473ffffffffffffffffffffffffffffffffffffffff166002615366565b613e228660030160009054906101000a900473ffffffffffffffffffffffffffffffffffffffff166001615366565b8767ffffffffffffffff167f6030de52daebee6c07b2f6f4b2e8ba8707191b786719c3a2ece9cda6278e1e53338989600b0154604051808473ffffffffffffffffffffffffffffffffffffffff1673ffffffffffffffffffffffffffffffffffffffff168152602001838152602001828152602001935050505060405180910390a25050505050505050565b6000613f493384613f4485600360003373ffffffffffffffffffffffffffffffffffffffff1673ffffffffffffffffffffffffffffffffffffffff16815260200190815260200160002060008973ffffffffffffffffffffffffffffffffffffffff1673ffffffffffffffffffffffffffffffffffffffff1681526020019081526020016000205461500790919063ffffffff16565b614370565b6001905092915050565b6000613f60338484614c7f565b6001905092915050565b6000809054906101000a900473ffffffffffffffffffffffffffffffffffffffff1673ffffffffffffffffffffffffffffffffffffffff163373ffffffffffffffffffffffffffffffffffffffff1614151561402e576040517f08c379a00000000000000000000000000000000000000000000000000000000081526004018080602001828103825260208152602001807f4f776e61626c653a2063616c6c6572206973206e6f7420746865206f776e657281525060200191505060405180910390fd5b670de0b6b3a764000081101515156140ae576040517f08c379a000000000000000000000000000000000000000000000000000000000815260040180806020018281038252600c8152602001807f6c696d697420746f206c6f77000000000000000000000000000000000000000081525060200191505060405180910390fd5b806008819055507f44c8ef68dcc036e569158e914a009e3f02c9e933580e31424a1ae67728df7465816040518082815260200191505060405180910390a150565b600b818154811015156140fe57fe5b906000526020600020016000915054906101000a900473ffffffffffffffffffffffffffffffffffffffff1681565b6060600b8054806020026020016040519081016040528092919081815260200182805480156141b157602002820191906000526020600020905b8160009054906101000a900473ffffffffffffffffffffffffffffffffffffffff1673ffffffffffffffffffffffffffffffffffffffff1681526020019060010190808311614167575b5050505050905090565b6000600360008473ffffffffffffffffffffffffffffffffffffffff1673ffffffffffffffffffffffffffffffffffffffff16815260200190815260200160002060008373ffffffffffffffffffffffffffffffffffffffff1673ffffffffffffffffffffffffffffffffffffffff16815260200190815260200160002054905092915050565b600160009054906101000a900473ffffffffffffffffffffffffffffffffffffffff1681565b6000809054906101000a900473ffffffffffffffffffffffffffffffffffffffff1673ffffffffffffffffffffffffffffffffffffffff163373ffffffffffffffffffffffffffffffffffffffff1614151561432c576040517f08c379a00000000000000000000000000000000000000000000000000000000081526004018080602001828103825260208152602001807f4f776e61626c653a2063616c6c6572206973206e6f7420746865206f776e657281525060200191505060405180910390fd5b80600160006101000a81548173ffffffffffffffffffffffffffffffffffffffff021916908373ffffffffffffffffffffffffffffffffffffffff16021790555050565b600073ffffffffffffffffffffffffffffffffffffffff168373ffffffffffffffffffffffffffffffffffffffff161415151561443b576040517f08c379a00000000000000000000000000000000000000000000000000000000081526004018080602001828103825260248152602001807f45524332303a20617070726f76652066726f6d20746865207a65726f2061646481526020017f726573730000000000000000000000000000000000000000000000000000000081525060400191505060405180910390fd5b600073ffffffffffffffffffffffffffffffffffffffff168273ffffffffffffffffffffffffffffffffffffffff1614151515614506576040517f08c379a00000000000000000000000000000000000000000000000000000000081526004018080602001828103825260228152602001807f45524332303a20617070726f766520746f20746865207a65726f20616464726581526020017f737300000000000000000000000000000000000000000000000000000000000081525060400191505060405180910390fd5b80600360008573ffffffffffffffffffffffffffffffffffffffff1673ffffffffffffffffffffffffffffffffffffffff16815260200190815260200160002060008473ffffffffffffffffffffffffffffffffffffffff1673ffffffffffffffffffffffffffffffffffffffff168152602001908152602001600020819055508173ffffffffffffffffffffffffffffffffffffffff168373ffffffffffffffffffffffffffffffffffffffff167f8c5be1e5ebec7d5bd14f71427d1e84f3dd0314c0f7b2291e5b200ac8c7c3b925836040518082815260200191505060405180910390a3505050565b60006145fb615a36565b600c8367ffffffffffffffff1681548110151561461457fe5b90600052602060002090600c020161012060405190810160405290816000820160009054906101000a900467ffffffffffffffff1667ffffffffffffffff1667ffffffffffffffff168152602001600182015481526020016002820160009054906101000a900473ffffffffffffffffffffffffffffffffffffffff1673ffffffffffffffffffffffffffffffffffffffff1673ffffffffffffffffffffffffffffffffffffffff1681526020016003820160009054906101000a900473ffffffffffffffffffffffffffffffffffffffff1673ffffffffffffffffffffffffffffffffffffffff1673ffffffffffffffffffffffffffffffffffffffff1681526020016003820160149054906101000a900460ff1660ff1660ff168152602001600482016060604051908101604052908160008201548152602001600182018054600181600116156101000203166002900480601f0160208091040260200160405190810160405280929190818152602001828054600181600116156101000203166002900480156147e85780601f106147bd576101008083540402835291602001916147e8565b820191906000526020600020905b8154815290600101906020018083116147cb57829003601f168201915b505050505081526020016002820160009054906101000a900460ff1660ff1660ff16815250508152602001600782016060604051908101604052908160008201548152602001600182018054600181600116156101000203166002900480601f0160208091040260200160405190810160405280929190818152602001828054600181600116156101000203166002900480156148c65780601f1061489b576101008083540402835291602001916148c6565b820191906000526020600020905b8154815290600101906020018083116148a957829003601f168201915b505050505081526020016002820160009054906101000a900460ff1660ff1660ff16815250508152602001600a8201548152602001600b820154815250509050428160e001511115915050919050565b6000600c8367ffffffffffffffff1681548110151561493157fe5b90600052602060002090600c0201905060018260000b14156149f0578060020160009054906101000a900473ffffffffffffffffffffffffffffffffffffffff1673ffffffffffffffffffffffffffffffffffffffff166108fc82600101549081150290604051600060405180830381858888f193505050501580156149bb573d6000803e3d6000fd5b506149eb8160020160009054906101000a900473ffffffffffffffffffffffffffffffffffffffff166003615366565b614c14565b7fffffffffffffffffffffffffffffffffffffffffffffffffffffffffffffffff8260000b1415614abe578060030160009054906101000a900473ffffffffffffffffffffffffffffffffffffffff1673ffffffffffffffffffffffffffffffffffffffff166108fc82600101549081150290604051600060405180830381858888f19350505050158015614a89573d6000803e3d6000fd5b50614ab98160030160009054906101000a900473ffffffffffffffffffffffffffffffffffffffff166003615366565b614c13565b8060020160009054906101000a900473ffffffffffffffffffffffffffffffffffffffff1673ffffffffffffffffffffffffffffffffffffffff166108fc60028360010154811515614b0c57fe5b049081150290604051600060405180830381858888f19350505050158015614b38573d6000803e3d6000fd5b508060030160009054906101000a900473ffffffffffffffffffffffffffffffffffffffff1673ffffffffffffffffffffffffffffffffffffffff166108fc60028360010154811515614b8757fe5b049081150290604051600060405180830381858888f19350505050158015614bb3573d6000803e3d6000fd5b50614be38160020160009054906101000a900473ffffffffffffffffffffffffffffffffffffffff166001615366565b614c128160030160009054906101000a900473ffffffffffffffffffffffffffffffffffffffff166001615366565b5b5b60028160030160146101000a81548160ff021916908360ff1602179055508267ffffffffffffffff167f3598a14b08a100ac75597e6f8e8309dfd773210d8ff4be917cebe132e82b7e5183604051808260000b60000b815260200191505060405180910390a2505050565b600073ffffffffffffffffffffffffffffffffffffffff168373ffffffffffffffffffffffffffffffffffffffff1614151515614d4a576040517f08c379a00000000000000000000000000000000000000000000000000000000081526004018080602001828103825260258152602001807f45524332303a207472616e736665722066726f6d20746865207a65726f20616481526020017f647265737300000000000000000000000000000000000000000000000000000081525060400191505060405180910390fd5b600073ffffffffffffffffffffffffffffffffffffffff168273ffffffffffffffffffffffffffffffffffffffff1614151515614e15576040517f08c379a00000000000000000000000000000000000000000000000000000000081526004018080602001828103825260238152602001807f45524332303a207472616e7366657220746f20746865207a65726f206164647281526020017f657373000000000000000000000000000000000000000000000000000000000081525060400191505060405180910390fd5b614ec581606060405190810160405280602681526020017f45524332303a207472616e7366657220616d6f756e742065786365656473206281526020017f616c616e63650000000000000000000000000000000000000000000000000000815250600260008773ffffffffffffffffffffffffffffffffffffffff1673ffffffffffffffffffffffffffffffffffffffff168152602001908152602001600020546155429092919063ffffffff16565b600260008573ffffffffffffffffffffffffffffffffffffffff1673ffffffffffffffffffffffffffffffffffffffff16815260200190815260200160002081905550614f5a81600260008573ffffffffffffffffffffffffffffffffffffffff1673ffffffffffffffffffffffffffffffffffffffff1681526020019081526020016000205461505190919063ffffffff16565b600260008473ffffffffffffffffffffffffffffffffffffffff1673ffffffffffffffffffffffffffffffffffffffff168152602001908152602001600020819055508173ffffffffffffffffffffffffffffffffffffffff168373ffffffffffffffffffffffffffffffffffffffff167fddf252ad1be2c89b69c2b068fc378daa952ba7f163c4a11628f55a4df523b3ef836040518082815260200191505060405180910390a3505050565b600061504983836040805190810160405280601e81526020017f536166654d6174683a207375627472616374696f6e206f766572666c6f770000815250615542565b905092915050565b60008082840190508381101515156150d1576040517f08c379a000000000000000000000000000000000000000000000000000000000815260040180806020018281038252601b8152602001807f536166654d6174683a206164646974696f6e206f766572666c6f77000000000081525060200191505060405180910390fd5b8091505092915050565b600082826040516020018083805190602001908083835b60208310151561511757805182526020820191506020810190506020830392506150f2565b6001836020036101000a0380198251168184511680821785525050505050509050018260ff1660ff167f0100000000000000000000000000000000000000000000000000000000000000028152600101925050506040516020818303038152906040526040518082805190602001908083835b6020831015156151af578051825260208201915060208101905060208303925061518a565b6001836020036101000a038019825116818451168082178552505050505050905001915050604051809103902060019004841490509392505050565b600080828403905060018160000b148061522757507ffffffffffffffffffffffffffffffffffffffffffffffffffffffffffffffffe8160000b145b15615235576001915061529b565b7fffffffffffffffffffffffffffffffffffffffffffffffffffffffffffffffff8160000b1480615269575060028160000b145b15615296577fffffffffffffffffffffffffffffffffffffffffffffffffffffffffffffffff915061529b565b600091505b5092915050565b60008060009054906101000a900473ffffffffffffffffffffffffffffffffffffffff169050816000806101000a81548173ffffffffffffffffffffffffffffffffffffffff021916908373ffffffffffffffffffffffffffffffffffffffff1602179055508173ffffffffffffffffffffffffffffffffffffffff168173ffffffffffffffffffffffffffffffffffffffff167f8be0079c531659141344cd1fd0a4f28419497f9722a3daafe3b4186f6b6457e060405160405180910390a35050565b60008060009150600a600c9054906101000a900463ffffffff1663ffffffff16600b805490501015156153e0576153dd600b6001600b80549050038154811015156153ad57fe5b9060005260206000200160009054906101000a900473ffffffffffffffffffffffffffffffffffffffff16613272565b91505b6153ea8484615603565b6153f3846157c2565b9050600a600c9054906101000a900463ffffffff1663ffffffff16600b805490501015156154b3578161542585613272565b11156154ae5760008160030b12156154a35783600b6001600b805490500381548110151561544f57fe5b9060005260206000200160006101000a81548173ffffffffffffffffffffffffffffffffffffffff021916908373ffffffffffffffffffffffffffffffffffffffff1602179055506001600b805490500390505b6154ad8482615888565b5b61553c565b60008160030b121561553157600b8490806001815401808255809150509060018203906000526020600020016000909192909190916101000a81548173ffffffffffffffffffffffffffffffffffffffff021916908373ffffffffffffffffffffffffffffffffffffffff160217905550506001600b805490500390505b61553b8482615888565b5b50505050565b60008084841115839015156155f2576040517f08c379a00000000000000000000000000000000000000000000000000000000081526004018080602001828103825283818151815260200191508051906020019080838360005b838110156155b757808201518184015260208101905061559c565b50505050905090810190601f1680156155e45780820380516001836020036101000a031916815260200191505b509250505060405180910390fd5b508385039050809150509392505050565b600073ffffffffffffffffffffffffffffffffffffffff168273ffffffffffffffffffffffffffffffffffffffff16141515156156a8576040517f08c379a000000000000000000000000000000000000000000000000000000000815260040180806020018281038252601f8152602001807f45524332303a206d696e7420746f20746865207a65726f20616464726573730081525060200191505060405180910390fd5b6156bd8160075461505190919063ffffffff16565b60078190555061571581600260008573ffffffffffffffffffffffffffffffffffffffff1673ffffffffffffffffffffffffffffffffffffffff1681526020019081526020016000205461505190919063ffffffff16565b600260008473ffffffffffffffffffffffffffffffffffffffff1673ffffffffffffffffffffffffffffffffffffffff168152602001908152602001600020819055508173ffffffffffffffffffffffffffffffffffffffff16600073ffffffffffffffffffffffffffffffffffffffff167fddf252ad1be2c89b69c2b068fc378daa952ba7f163c4a11628f55a4df523b3ef836040518082815260200191505060405180910390a35050565b60008060007fffffffffffffffffffffffffffffffffffffffffffffffffffffffffffffffff9150600090505b600b8054905081101561587e57600b8181548110151561580b57fe5b9060005260206000200160009054906101000a900473ffffffffffffffffffffffffffffffffffffffff1673ffffffffffffffffffffffffffffffffffffffff168473ffffffffffffffffffffffffffffffffffffffff1614156158715780915061587e565b80806001019150506157ef565b8192505050919050565b6000806000806001600b805490501115615a2e576158a586613272565b93508460030b9250600091505b82821015615918576158fc600b838154811015156158cc57fe5b9060005260206000200160009054906101000a900473ffffffffffffffffffffffffffffffffffffffff16613272565b84111561590b57819250615918565b81806001019250506158b2565b8460030b831015615a2d578460030b90505b828111156159d457600b6001820381548110151561594457fe5b9060005260206000200160009054906101000a900473ffffffffffffffffffffffffffffffffffffffff16600b8281548110151561597e57fe5b9060005260206000200160006101000a81548173ffffffffffffffffffffffffffffffffffffffff021916908373ffffffffffffffffffffffffffffffffffffffff16021790555080806001900391505061592a565b85600b848154811015156159e457fe5b9060005260206000200160006101000a81548173ffffffffffffffffffffffffffffffffffffffff021916908373ffffffffffffffffffffffffffffffffffffffff1602179055505b5b505050505050565b6101a060405190810160405280600067ffffffffffffffff16815260200160008152602001600073ffffffffffffffffffffffffffffffffffffffff168152602001600073ffffffffffffffffffffffffffffffffffffffff168152602001600060ff168152602001615aa7615bed565b8152602001615ab4615bed565b815260200160008152602001600081525090565b6060604051908101604052806000815260200160608152602001600060ff1681525090565b828054600181600116156101000203166002900490600052602060002090601f016020900481019282601f10615b2e57803560ff1916838001178555615b5c565b82800160010185558215615b5c579182015b82811115615b5b578235825591602001919060010190615b40565b5b509050615b699190615c12565b5090565b828054600181600116156101000203166002900490600052602060002090601f016020900481019282601f10615bae57805160ff1916838001178555615bdc565b82800160010185558215615bdc579182015b82811115615bdb578251825591602001919060010190615bc0565b5b509050615be99190615c12565b5090565b6060604051908101604052806000815260200160608152602001600060ff1681525090565b615c3491905b80821115615c30576000816000905550600101615c18565b5090565b905600a165627a7a72305820cda17778015422f70d9c2520358da7f3ee088781377a7e93c351dd34ec9c24240029",
  "source": "// SPDX-License-Identifier: MIT\npragma solidity >=0.4.22 <0.9.0;\nimport \"./interfaces/IGame.sol\";\nimport \"./interfaces/IPlayer.sol\";\nimport \"./interfaces/IStarter.sol\";\nimport \"@cpchain-tools/cpchain-dapps-utils/contracts/lifecycle/Enable.sol\";\nimport \"@cpchain-tools/cpchain-dapps-utils/contracts/token/ERC20/ERC20.sol\";\n\ncontract Game is IGame, IStarter, IPlayer, Enable, ERC20 {\n    uint256 public maxLimit = 1000 ether;\n    uint256 public timeoutLimit = 10 minutes;\n    uint64 public totalGameNumber = 0;\n    uint32 public viewCountLimit = 10;\n    uint32 public topPlayerLength = 3;\n    address[] public topPlayerList;\n\n    constructor()\n        public\n        ERC20(\"RPS\", \"Rock paper scissors game score\", 18, 0)\n    {}\n\n    struct GameCard {\n        uint256 card;\n        string key;\n        //1 Rock  2 Paper 3 Scissors  0 unknown\n        uint8 content;\n    }\n    struct HandGame {\n        uint64 gameId;\n        uint256 amount;\n        address starter;\n        address player;\n        //0 started, 1 locked,2,finished,3 cancel,\n        uint8 status;\n        GameCard starterCard;\n        GameCard playerCard;\n        uint256 timeout;\n        uint256 threshold;\n    }\n\n    HandGame[] public games;\n\n    modifier onlyPlayer(uint64 gameId) {\n        require(\n            games[gameId].starter == msg.sender ||\n                games[gameId].player == msg.sender,\n            \"need game player\"\n        );\n        _;\n    }\n\n    modifier onlyStarter(uint64 gameId) {\n        require(games[gameId].starter == msg.sender, \"need game starter\");\n        _;\n    }\n\n    modifier onlyTimeout(uint64 gameId) {\n        require(_isTimeout(gameId), \"need game time out\");\n        _;\n    }\n\n    modifier notTimeout(uint64 gameId) {\n        require(!_isTimeout(gameId), \"time is out\");\n        _;\n    }\n\n    modifier onlyGameStarted(uint64 gameId) {\n        require(gameId < totalGameNumber, \"wrong game id\");\n        _;\n    }\n\n    modifier needGameStatus(uint64 gameId, uint8 status) {\n        require(games[gameId].status == status, \"wrong game status\");\n        _;\n    }\n\n    modifier needCurrentContent(uint8 content) {\n        require(content < 4 && content > 0, \"wrong content\");\n        _;\n    }\n\n    // contract owner methods\n    function setMaxLimit(uint256 limit) external onlyOwner {\n        require(limit >= 1 ether, \"limit to low\");\n        maxLimit = limit;\n        emit SetMaxLimit(limit);\n    }\n\n    function setTimeoutLimit(uint256 limit) external onlyOwner {\n        timeoutLimit = limit;\n        emit SetTimeoutLimit(limit);\n    }\n\n    function viewTopPlayers() external view returns (address[]) {\n        return topPlayerList;\n    }\n\n    // view\n    function viewGame(uint64 gameId)\n        external\n        view\n        onlyGameStarted(gameId)\n        returns (\n            uint256,\n            uint256,\n            address,\n            address,\n            uint8,\n            uint256,\n            uint256,\n            string,\n            uint8,\n            uint256,\n            string,\n            uint8\n        )\n    {\n        HandGame memory game = games[gameId];\n        return (\n            game.amount,\n            game.threshold,\n            game.starter,\n            game.player,\n            game.status,\n            game.timeout,\n            game.starterCard.card,\n            game.starterCard.key,\n            game.starterCard.content,\n            game.playerCard.card,\n            game.playerCard.key,\n            game.playerCard.content\n        );\n    }\n\n    /**\n     * view the lastest\n     */\n    function viewLatestGames(uint64 limit) external view returns (uint256[]) {\n        require(limit <= viewCountLimit, \"limit is too high\");\n        uint64 count = limit > totalGameNumber ? totalGameNumber : limit;\n        uint256[] memory _lastestGames = new uint256[](count * 7);\n        for (uint64 i = 0; i < count; i++) {\n            HandGame memory game = games[totalGameNumber - i - 1];\n            _lastestGames[i * 7 + 0] = uint256(game.gameId);\n            _lastestGames[i * 7 + 1] = game.amount;\n            _lastestGames[i * 7 + 2] = game.threshold;\n            _lastestGames[i * 7 + 3] = uint256(game.starter);\n            _lastestGames[i * 7 + 4] = uint256(game.player);\n            _lastestGames[i * 7 + 5] = uint256(game.status);\n            _lastestGames[i * 7 + 6] = game.timeout;\n        }\n\n        return (_lastestGames);\n    }\n\n    // game starter methods\n    function startGame(uint256 card, uint256 threshold)\n        external\n        payable\n        onlyEnabled\n    {\n        GameCard memory starter = GameCard(card, \"\", 0);\n        GameCard memory player = GameCard(0, \"\", 0);\n        HandGame memory game = HandGame(\n            totalGameNumber,\n            msg.value,\n            msg.sender,\n            address(0),\n            0,\n            starter,\n            player,\n            block.timestamp + timeoutLimit,\n            threshold\n        );\n        totalGameNumber++;\n        games.push(game);\n        emit GameStarted(game.gameId, game.starter, card, msg.value, threshold);\n    }\n\n    function cancelGame(uint64 gameId)\n        external\n        onlyGameStarted(gameId)\n        onlyStarter(gameId)\n        needGameStatus(gameId, 0)\n        onlyTimeout(gameId)\n    {\n        HandGame storage game = games[gameId];\n        game.status = 3;\n        msg.sender.transfer(game.amount);\n        emit GameCancelled(gameId);\n    }\n\n    // player methods\n    function joinGame(uint64 gameId, uint256 card)\n        external\n        payable\n        onlyGameStarted(gameId)\n        needGameStatus(gameId, 0)\n        notTimeout(gameId)\n    {\n        HandGame storage game = games[gameId];\n\n        GameCard memory playerCard = GameCard(card, \"\", 0);\n        require(msg.value >= game.threshold, \"wrong balance\");\n        // \n        if (msg.value > game.threshold) {\n            msg.sender.transfer(msg.value - game.threshold);\n        }\n\n        game.player = msg.sender;\n        game.playerCard = playerCard;\n        game.amount = game.amount + game.threshold;\n        game.timeout = timeoutLimit + block.timestamp;\n        game.status = 1;\n        _mintAndSort(game.starter, 2);\n        _mintAndSort(game.player, 1);\n        emit GameLocked(gameId, msg.sender, card, game.threshold);\n    }\n\n    function openCard(\n        uint64 gameId,\n        string key,\n        uint8 content\n    )\n        external\n        onlyGameStarted(gameId)\n        onlyPlayer(gameId)\n        needGameStatus(gameId, 1)\n        needCurrentContent(content)\n    {\n        HandGame storage game = games[gameId];\n        GameCard storage card;\n        if (game.starter == msg.sender) {\n            card = game.starterCard;\n        } else {\n            card = game.playerCard;\n        }\n        bool validate = _validateCard(card.card, key, content);\n        require(validate, \"wrong key or content\");\n        card.key = key;\n        card.content = content;\n\n        emit CardOpened(gameId, msg.sender, key, content);\n\n        if (game.starterCard.content != 0 && game.playerCard.content != 0) {\n            int8 r = _winOrLose(\n                game.starterCard.content,\n                game.playerCard.content\n            );\n            _finishGame(gameId, r);\n        }\n    }\n\n    function finishTimeoutGame(uint64 gameId)\n        external\n        onlyGameStarted(gameId)\n        onlyPlayer(gameId)\n        needGameStatus(gameId, 1)\n        onlyTimeout(gameId)\n    {\n        HandGame memory game = games[gameId];\n        GameCard memory starter = game.starterCard;\n        GameCard memory player = game.playerCard;\n        if (starter.content != 0) {\n            _finishGame(gameId, 1);\n        } else if (player.content != 0) {\n            _finishGame(gameId, -1);\n        } else {\n            _finishGame(gameId, 0);\n        }\n    }\n\n    // private methods\n    function _mintAndSort(address account, uint256 amount) internal {\n        uint256 preLastInListBalance = 0;\n        if (topPlayerList.length >= topPlayerLength) {\n            preLastInListBalance = balanceOf(\n                topPlayerList[topPlayerList.length - 1]\n            );\n        }\n\n        _mint(account, amount);\n        int32 indexOf = _indexOfTopPlayerList(account);\n\n        // list more than topPlayerLength\n        if (topPlayerList.length >= topPlayerLength) {\n            // add new account to top list\n            if (balanceOf(account) > preLastInListBalance) {\n                if (indexOf < 0) {\n                    topPlayerList[topPlayerList.length - 1] = account;\n                    indexOf = int32(topPlayerList.length - 1);\n                }\n                _resortPlayerList(account, indexOf);\n            }\n        } else {\n            // if account is not in top list,push and resort\n            if (indexOf < 0) {\n                topPlayerList.push(account);\n                indexOf = int32(topPlayerList.length - 1);\n            }\n            _resortPlayerList(account, indexOf);\n        }\n    }\n\n    // function _inTopPlayerList(address account) internal returns (bool) {\n    //     bool inList = false;\n    //     for (uint256 i = 0; i < topPlayerList.length; i++) {\n    //         if (account == topPlayerList[i]) {\n    //             inList = true;\n    //             break;\n    //         }\n    //     }\n    //     return inList;\n    // }\n\n    function _indexOfTopPlayerList(address account) internal returns (int32) {\n        int32 indexOf = -1;\n        for (uint256 i = 0; i < topPlayerList.length; i++) {\n            if (account == topPlayerList[i]) {\n                indexOf = int32(i);\n                break;\n            }\n        }\n        return indexOf;\n    }\n\n    /**resort top list,need new player in tip list\n     */\n    function _resortPlayerList(address account, int32 end) internal {\n        if (topPlayerList.length > 1) {\n            uint256 newBalance = balanceOf(account);\n            uint256 newIndex = uint256(end);\n            // find new location for account\n            for (uint256 i = 0; i < newIndex; i++) {\n                if (newBalance > balanceOf(topPlayerList[i])) {\n                    newIndex = i;\n                    break;\n                }\n            }\n\n            // if need to change the list\n            if (newIndex < uint256(end)) {\n                // change data after new location\n                for (uint256 j = uint256(end); j > newIndex; j--) {\n                    topPlayerList[j] = topPlayerList[j - 1];\n                }\n                topPlayerList[newIndex] = account;\n            }\n        }\n    }\n\n    function _finishGame(uint64 gameId, int8 r) private {\n        HandGame storage game = games[gameId];\n        if (r == 1) {\n            game.starter.transfer(game.amount);\n            _mintAndSort(game.starter, 3);\n        } else if (r == -1) {\n            game.player.transfer(game.amount);\n            _mintAndSort(game.player, 3);\n        } else {\n            game.starter.transfer(game.amount / 2);\n            game.player.transfer(game.amount / 2);\n            _mintAndSort(game.starter, 1);\n            _mintAndSort(game.player, 1);\n        }\n        game.status = 2;\n        emit GameFinished(gameId, r);\n    }\n\n    function _isTimeout(uint64 gameId) private view returns (bool) {\n        HandGame memory game = games[gameId];\n        return (game.timeout <= block.timestamp);\n    }\n\n    function _validateCard(\n        uint256 card,\n        string key,\n        uint8 content\n    ) private view returns (bool) {\n        return (card == uint256(keccak256(abi.encodePacked(key, content))));\n    }\n\n    function _winOrLose(uint8 playerContent, uint8 otherContent)\n        private\n        view\n        returns (int8)\n    {\n        int8 r = int8(playerContent - otherContent);\n        if (r == 1 || r == -2) {\n            return 1;\n        } else if (r == -1 || r == 2) {\n            return -1;\n        } else {\n            return 0;\n        }\n    }\n}\n",
  "sourcePath": "/home/zhangk/Documents/github/cpchain-dapps-handgame/contracts/Game.sol",
  "compiler": {
    "name": "solc",
    "version": "0.4.25+commit.59dbf8f1.Linux.g++"
  },
  "schemaVersion": "3.4.4",
  "updatedAt": "2022-04-21T13:48:01.746Z",
  "devdoc": {
    "methods": {
      "allowance(address,address)": {
        "details": "See `IERC20.allowance`."
      },
      "approve(address,uint256)": {
        "details": "See `IERC20.approve`.     * Requirements:     * - `spender` cannot be the zero address."
      },
      "balanceOf(address)": {
        "details": "See `IERC20.balanceOf`."
      },
      "claimOwnership()": {
        "details": "Allows the pendingOwner address to finalize the transfer."
      },
      "decimals()": {
        "details": "Returns the number of decimals used to get its user representation. For example, if `decimals` equals `2`, a balance of `505` tokens should be displayed to a user as `5,05` (`505 / 10 ** 2`).     * Tokens usually opt for a value of 18, imitating the relationship between Ether and Wei.     * > Note that this information is only used for _display_ purposes: it in no way affects any of the arithmetic of the contract, including `IERC20.balanceOf` and `IERC20.transfer`."
      },
      "decreaseAllowance(address,uint256)": {
        "details": "Atomically decreases the allowance granted to `spender` by the caller.     * This is an alternative to `approve` that can be used as a mitigation for problems described in `IERC20.approve`.     * Emits an `Approval` event indicating the updated allowance.     * Requirements:     * - `spender` cannot be the zero address. - `spender` must have allowance for the caller of at least `subtractedValue`."
      },
      "disableContract()": {
        "details": "set contract disable"
      },
      "enableContract()": {
        "details": "set contract enable"
      },
      "increaseAllowance(address,uint256)": {
        "details": "Atomically increases the allowance granted to `spender` by the caller.     * This is an alternative to `approve` that can be used as a mitigation for problems described in `IERC20.approve`.     * Emits an `Approval` event indicating the updated allowance.     * Requirements:     * - `spender` cannot be the zero address."
      },
      "name()": {
        "details": "Returns the name of the token."
      },
      "renounceOwnership()": {
        "details": "Leaves the contract without owner. It will not be possible to call `onlyOwner` functions anymore. Can only be called by the current owner.     * NOTE: Renouncing ownership will leave the contract without an owner, thereby removing any functionality that is only available to the owner."
      },
      "symbol()": {
        "details": "Returns the symbol of the token, usually a shorter version of the name."
      },
      "totalSupply()": {
        "details": "See `IERC20.totalSupply`."
      },
      "transfer(address,uint256)": {
        "details": "See `IERC20.transfer`.     * Requirements:     * - `recipient` cannot be the zero address. - the caller must have a balance of at least `amount`."
      },
      "transferFrom(address,address,uint256)": {
        "details": "See `IERC20.transferFrom`.     * Emits an `Approval` event indicating the updated allowance. This is not required by the EIP. See the note at the beginning of `ERC20`;     * Requirements: - `sender` and `recipient` cannot be the zero address. - `sender` must have a balance of at least `value`. - the caller must have allowance for `sender`'s tokens of at least `amount`."
      },
      "transferOwnership(address)": {
        "details": "Allows the current owner to set the pendingOwner address.",
        "params": {
          "newOwner": "The address to transfer ownership to."
        }
      }
    }
  },
  "userdoc": {
    "methods": {
      "viewLatestGames(uint64)": {
        "notice": "view the lastest"
      }
    }
  }
}