{
  "contractName": "Game",
  "abi": [
    {
      "constant": true,
      "inputs": [
        {
          "name": "",
          "type": "uint256"
        }
      ],
      "name": "games",
      "outputs": [
        {
          "name": "gameId",
          "type": "uint64"
        },
        {
          "name": "amount",
          "type": "uint256"
        },
        {
          "name": "starter",
          "type": "address"
        },
        {
          "name": "player",
          "type": "address"
        },
        {
          "name": "status",
          "type": "uint8"
        },
        {
          "name": "starterProof",
          "type": "uint256"
        },
        {
          "name": "playerProof",
          "type": "uint256"
        },
        {
          "name": "timeout",
          "type": "uint256"
        },
        {
          "name": "threshold",
          "type": "uint256"
        }
      ],
      "payable": false,
      "stateMutability": "view",
      "type": "function"
    },
    {
      "constant": true,
      "inputs": [],
      "name": "maxLimit",
      "outputs": [
        {
          "name": "",
          "type": "uint256"
        }
      ],
      "payable": false,
      "stateMutability": "view",
      "type": "function"
    },
    {
      "constant": true,
      "inputs": [
        {
          "name": "",
          "type": "uint64"
        }
      ],
      "name": "gameToGroup",
      "outputs": [
        {
          "name": "",
          "type": "uint256"
        }
      ],
      "payable": false,
      "stateMutability": "view",
      "type": "function"
    },
    {
      "constant": true,
      "inputs": [
        {
          "name": "proof",
          "type": "uint256"
        },
        {
          "name": "key",
          "type": "uint256"
        },
        {
          "name": "content",
          "type": "uint256"
        }
      ],
      "name": "validateProof",
      "outputs": [
        {
          "name": "",
          "type": "bool"
        }
      ],
      "payable": false,
      "stateMutability": "pure",
      "type": "function"
    },
    {
      "constant": true,
      "inputs": [],
      "name": "enabled",
      "outputs": [
        {
          "name": "",
          "type": "bool"
        }
      ],
      "payable": false,
      "stateMutability": "view",
      "type": "function"
    },
    {
      "constant": false,
      "inputs": [],
      "name": "enableContract",
      "outputs": [],
      "payable": false,
      "stateMutability": "nonpayable",
      "type": "function"
    },
    {
      "constant": false,
      "inputs": [
        {
          "name": "proof",
          "type": "uint256"
        },
        {
          "name": "key",
          "type": "uint256"
        },
        {
          "name": "content",
          "type": "uint256"
        }
      ],
      "name": "setProof",
      "outputs": [],
      "payable": false,
      "stateMutability": "nonpayable",
      "type": "function"
    },
    {
      "constant": true,
      "inputs": [],
      "name": "timeoutLimit",
      "outputs": [
        {
          "name": "",
          "type": "uint256"
        }
      ],
      "payable": false,
      "stateMutability": "view",
      "type": "function"
    },
    {
      "constant": false,
      "inputs": [],
      "name": "claimOwnership",
      "outputs": [],
      "payable": false,
      "stateMutability": "nonpayable",
      "type": "function"
    },
    {
      "constant": true,
      "inputs": [],
      "name": "groupChatAddress",
      "outputs": [
        {
          "name": "",
          "type": "address"
        }
      ],
      "payable": false,
      "stateMutability": "view",
      "type": "function"
    },
    {
      "constant": true,
      "inputs": [],
      "name": "totalGameNumber",
      "outputs": [
        {
          "name": "",
          "type": "uint64"
        }
      ],
      "payable": false,
      "stateMutability": "view",
      "type": "function"
    },
    {
      "constant": false,
      "inputs": [],
      "name": "renounceOwnership",
      "outputs": [],
      "payable": false,
      "stateMutability": "nonpayable",
      "type": "function"
    },
    {
      "constant": false,
      "inputs": [],
      "name": "disableContract",
      "outputs": [],
      "payable": false,
      "stateMutability": "nonpayable",
      "type": "function"
    },
    {
      "constant": true,
      "inputs": [
        {
          "name": "proof",
          "type": "uint256"
        }
      ],
      "name": "viewContent",
      "outputs": [
        {
          "name": "",
          "type": "uint256"
        },
        {
          "name": "",
          "type": "uint256"
        }
      ],
      "payable": false,
      "stateMutability": "view",
      "type": "function"
    },
    {
      "constant": true,
      "inputs": [],
      "name": "owner",
      "outputs": [
        {
          "name": "",
          "type": "address"
        }
      ],
      "payable": false,
      "stateMutability": "view",
      "type": "function"
    },
    {
      "constant": true,
      "inputs": [],
      "name": "pendingOwner",
      "outputs": [
        {
          "name": "",
          "type": "address"
        }
      ],
      "payable": false,
      "stateMutability": "view",
      "type": "function"
    },
    {
      "constant": false,
      "inputs": [
        {
          "name": "newOwner",
          "type": "address"
        }
      ],
      "name": "transferOwnership",
      "outputs": [],
      "payable": false,
      "stateMutability": "nonpayable",
      "type": "function"
    },
    {
      "inputs": [
        {
          "name": "rps",
          "type": "address"
        }
      ],
      "payable": false,
      "stateMutability": "nonpayable",
      "type": "constructor"
    },
    {
      "anonymous": false,
      "inputs": [
        {
          "indexed": true,
          "name": "proof",
          "type": "uint256"
        },
        {
          "indexed": true,
          "name": "key",
          "type": "uint256"
        },
        {
          "indexed": true,
          "name": "content",
          "type": "uint256"
        }
      ],
      "name": "ContentVerified",
      "type": "event"
    },
    {
      "anonymous": false,
      "inputs": [
        {
          "indexed": true,
          "name": "enabled",
          "type": "bool"
        }
      ],
      "name": "EnableStatusChanged",
      "type": "event"
    },
    {
      "anonymous": false,
      "inputs": [
        {
          "indexed": true,
          "name": "previousOwner",
          "type": "address"
        },
        {
          "indexed": true,
          "name": "newOwner",
          "type": "address"
        }
      ],
      "name": "OwnershipTransferred",
      "type": "event"
    },
    {
      "anonymous": false,
      "inputs": [
        {
          "indexed": false,
          "name": "limit",
          "type": "uint256"
        }
      ],
      "name": "SetMaxLimit",
      "type": "event"
    },
    {
      "anonymous": false,
      "inputs": [
        {
          "indexed": false,
          "name": "limit",
          "type": "uint256"
        }
      ],
      "name": "SetTimeoutLimit",
      "type": "event"
    },
    {
      "anonymous": false,
      "inputs": [
        {
          "indexed": true,
          "name": "gameId",
          "type": "uint64"
        },
        {
          "indexed": false,
          "name": "starter",
          "type": "address"
        },
        {
          "indexed": false,
          "name": "card",
          "type": "uint256"
        },
        {
          "indexed": false,
          "name": "amount",
          "type": "uint256"
        },
        {
          "indexed": false,
          "name": "threshold",
          "type": "uint256"
        }
      ],
      "name": "GameStarted",
      "type": "event"
    },
    {
      "anonymous": false,
      "inputs": [
        {
          "indexed": true,
          "name": "group_id",
          "type": "uint256"
        },
        {
          "indexed": true,
          "name": "gameId",
          "type": "uint64"
        },
        {
          "indexed": false,
          "name": "starter",
          "type": "address"
        },
        {
          "indexed": false,
          "name": "message",
          "type": "string"
        },
        {
          "indexed": false,
          "name": "amount",
          "type": "uint256"
        },
        {
          "indexed": false,
          "name": "threshold",
          "type": "uint256"
        }
      ],
      "name": "CreateGroupHandGame",
      "type": "event"
    },
    {
      "anonymous": false,
      "inputs": [
        {
          "indexed": true,
          "name": "gameId",
          "type": "uint64"
        }
      ],
      "name": "GameCancelled",
      "type": "event"
    },
    {
      "anonymous": false,
      "inputs": [
        {
          "indexed": true,
          "name": "gameId",
          "type": "uint64"
        },
        {
          "indexed": false,
          "name": "player",
          "type": "address"
        },
        {
          "indexed": false,
          "name": "card",
          "type": "uint256"
        },
        {
          "indexed": false,
          "name": "amount",
          "type": "uint256"
        }
      ],
      "name": "GameLocked",
      "type": "event"
    },
    {
      "anonymous": false,
      "inputs": [
        {
          "indexed": true,
          "name": "gameId",
          "type": "uint64"
        },
        {
          "indexed": false,
          "name": "player",
          "type": "address"
        },
        {
          "indexed": false,
          "name": "key",
          "type": "uint256"
        },
        {
          "indexed": false,
          "name": "content",
          "type": "uint256"
        }
      ],
      "name": "CardOpened",
      "type": "event"
    },
    {
      "anonymous": false,
      "inputs": [
        {
          "indexed": true,
          "name": "gameId",
          "type": "uint64"
        },
        {
          "indexed": false,
          "name": "result",
          "type": "int8"
        }
      ],
      "name": "GameFinished",
      "type": "event"
    },
    {
      "constant": false,
      "inputs": [
        {
          "name": "groupchat",
          "type": "address"
        }
      ],
      "name": "setGroupChat",
      "outputs": [],
      "payable": false,
      "stateMutability": "nonpayable",
      "type": "function"
    },
    {
      "constant": false,
      "inputs": [
        {
          "name": "limit",
          "type": "uint256"
        }
      ],
      "name": "setMaxLimit",
      "outputs": [],
      "payable": false,
      "stateMutability": "nonpayable",
      "type": "function"
    },
    {
      "constant": false,
      "inputs": [
        {
          "name": "limit",
          "type": "uint256"
        }
      ],
      "name": "setTimeoutLimit",
      "outputs": [],
      "payable": false,
      "stateMutability": "nonpayable",
      "type": "function"
    },
    {
      "constant": true,
      "inputs": [
        {
          "name": "gameId",
          "type": "uint64"
        }
      ],
      "name": "viewGame",
      "outputs": [
        {
          "name": "",
          "type": "uint256"
        },
        {
          "name": "",
          "type": "uint256"
        },
        {
          "name": "",
          "type": "address"
        },
        {
          "name": "",
          "type": "address"
        },
        {
          "name": "",
          "type": "uint8"
        },
        {
          "name": "",
          "type": "uint256"
        },
        {
          "name": "",
          "type": "uint256[]"
        }
      ],
      "payable": false,
      "stateMutability": "view",
      "type": "function"
    },
    {
      "constant": true,
      "inputs": [
        {
          "name": "limit",
          "type": "uint64"
        }
      ],
      "name": "viewLatestGames",
      "outputs": [
        {
          "name": "",
          "type": "uint256[]"
        }
      ],
      "payable": false,
      "stateMutability": "view",
      "type": "function"
    },
    {
      "constant": false,
      "inputs": [
        {
          "name": "proof",
          "type": "uint256"
        },
        {
          "name": "threshold",
          "type": "uint256"
        }
      ],
      "name": "startGame",
      "outputs": [],
      "payable": true,
      "stateMutability": "payable",
      "type": "function"
    },
    {
      "constant": false,
      "inputs": [
        {
          "name": "proof",
          "type": "uint256"
        },
        {
          "name": "threshold",
          "type": "uint256"
        },
        {
          "name": "group_id",
          "type": "uint256"
        },
        {
          "name": "userMessage",
          "type": "string"
        }
      ],
      "name": "startGroupChatGame",
      "outputs": [],
      "payable": true,
      "stateMutability": "payable",
      "type": "function"
    },
    {
      "constant": false,
      "inputs": [
        {
          "name": "gameId",
          "type": "uint64"
        }
      ],
      "name": "cancelGame",
      "outputs": [],
      "payable": false,
      "stateMutability": "nonpayable",
      "type": "function"
    },
    {
      "constant": false,
      "inputs": [
        {
          "name": "gameId",
          "type": "uint64"
        },
        {
          "name": "proof",
          "type": "uint256"
        }
      ],
      "name": "joinGame",
      "outputs": [],
      "payable": true,
      "stateMutability": "payable",
      "type": "function"
    },
    {
      "constant": false,
      "inputs": [
        {
          "name": "gameId",
          "type": "uint64"
        },
        {
          "name": "key",
          "type": "uint256"
        },
        {
          "name": "content",
          "type": "uint256"
        }
      ],
      "name": "openCard",
      "outputs": [],
      "payable": false,
      "stateMutability": "nonpayable",
      "type": "function"
    },
    {
      "constant": false,
      "inputs": [
        {
          "name": "gameId",
          "type": "uint64"
        }
      ],
      "name": "finishTimeoutGame",
      "outputs": [],
      "payable": false,
      "stateMutability": "nonpayable",
      "type": "function"
    },
    {
      "constant": true,
      "inputs": [
        {
          "name": "account",
          "type": "address"
        }
      ],
      "name": "balanceOf",
      "outputs": [
        {
          "name": "",
          "type": "uint256"
        }
      ],
      "payable": false,
      "stateMutability": "view",
      "type": "function"
    },
    {
      "constant": false,
      "inputs": [
        {
          "name": "recipient",
          "type": "address"
        },
        {
          "name": "amount",
          "type": "uint256"
        }
      ],
      "name": "transfer",
      "outputs": [
        {
          "name": "",
          "type": "bool"
        }
      ],
      "payable": false,
      "stateMutability": "nonpayable",
      "type": "function"
    }
  ],
  "bytecode": "0x608060405260018060146101000a81548160ff021916908315150217905550683635c9adc5dea000006003556102586004556000600560006101000a81548167ffffffffffffffff021916908367ffffffffffffffff160217905550600a600560086101000a81548163ffffffff021916908363ffffffff1602179055503480156200008a57600080fd5b506040516020806200533683398101806040528101908080519060200190929190505050336000806101000a81548173ffffffffffffffffffffffffffffffffffffffff021916908373ffffffffffffffffffffffffffffffffffffffff16021790555080600760006101000a81548173ffffffffffffffffffffffffffffffffffffffff021916908373ffffffffffffffffffffffffffffffffffffffff160217905550600760009054906101000a900473ffffffffffffffffffffffffffffffffffffffff1673ffffffffffffffffffffffffffffffffffffffff16630df521456040518163ffffffff167c0100000000000000000000000000000000000000000000000000000000028152600401600060405180830381600087803b158015620001b657600080fd5b505af1158015620001cb573d6000803e3d6000fd5b505050505061515680620001e06000396000f300608060405260043610610180576000357c0100000000000000000000000000000000000000000000000000000000900463ffffffff1680630cd54e1b146101855780630d53be48146101d0578063117a5b90146102075780631a861d26146102f25780631eb447f91461031d5780631f434095146103545780632118b7c51461039f578063238dafe0146103f8578063282c51a81461042757806329eaa1ab14610473578063367edd32146104ff5780633b59034f1461051657806343b8a2b61461062a57806349bcaf5f1461066b5780634a307a84146106985780634e71e0c8146106c35780636baf5189146106da5780636fcfca041461073157806370a0823114610770578063715018a6146107c7578063730b8381146107de578063894ba833146108085780638be3e06f1461081f5780638da5cb5b14610867578063976e0887146108be5780639d65a67e14610901578063a9059cbb14610935578063bf8bcee41461099a578063e30c3978146109c7578063f2fde38b14610a1e575b600080fd5b34801561019157600080fd5b506101ce600480360381019080803567ffffffffffffffff1690602001909291908035906020019092919080359060200190929190505050610a61565b005b3480156101dc57600080fd5b50610205600480360381019080803567ffffffffffffffff169060200190929190505050610f2c565b005b34801561021357600080fd5b5061023260048036038101908080359060200190929190505050611343565b604051808a67ffffffffffffffff1667ffffffffffffffff1681526020018981526020018873ffffffffffffffffffffffffffffffffffffffff1673ffffffffffffffffffffffffffffffffffffffff1681526020018773ffffffffffffffffffffffffffffffffffffffff1673ffffffffffffffffffffffffffffffffffffffff1681526020018660ff1660ff168152602001858152602001848152602001838152602001828152602001995050505050505050505060405180910390f35b3480156102fe57600080fd5b50610307611401565b6040518082815260200191505060405180910390f35b34801561032957600080fd5b50610352600480360381019080803567ffffffffffffffff169060200190929190505050611407565b005b34801561036057600080fd5b50610389600480360381019080803567ffffffffffffffff169060200190929190505050611943565b6040518082815260200191505060405180910390f35b3480156103ab57600080fd5b506103de60048036038101908080359060200190929190803590602001909291908035906020019092919050505061195b565b604051808215151515815260200191505060405180910390f35b34801561040457600080fd5b5061040d6119f6565b604051808215151515815260200191505060405180910390f35b610471600480360381019080803590602001909291908035906020019092919080359060200190929190803590602001908201803590602001919091929391929390505050611a09565b005b34801561047f57600080fd5b506104a8600480360381019080803567ffffffffffffffff169060200190929190505050611f52565b6040518080602001828103825283818151815260200191508051906020019060200280838360005b838110156104eb5780820151818401526020810190506104d0565b505050509050019250505060405180910390f35b34801561050b57600080fd5b506105146123d5565b005b34801561052257600080fd5b5061054b600480360381019080803567ffffffffffffffff1690602001909291905050506124f3565b604051808881526020018781526020018673ffffffffffffffffffffffffffffffffffffffff1673ffffffffffffffffffffffffffffffffffffffff1681526020018573ffffffffffffffffffffffffffffffffffffffff1673ffffffffffffffffffffffffffffffffffffffff1681526020018460ff1660ff16815260200183815260200180602001828103825283818151815260200191508051906020019060200280838360005b838110156106105780820151818401526020810190506105f5565b505050509050019850505050505050505060405180910390f35b34801561063657600080fd5b50610669600480360381019080803590602001909291908035906020019092919080359060200190929190505050612862565b005b34801561067757600080fd5b5061069660048036038101908080359060200190929190505050612952565b005b3480156106a457600080fd5b506106ad612a57565b6040518082815260200191505060405180910390f35b3480156106cf57600080fd5b506106d8612a5d565b005b3480156106e657600080fd5b506106ef612c65565b604051808273ffffffffffffffffffffffffffffffffffffffff1673ffffffffffffffffffffffffffffffffffffffff16815260200191505060405180910390f35b34801561073d57600080fd5b50610746612c8b565b604051808267ffffffffffffffff1667ffffffffffffffff16815260200191505060405180910390f35b34801561077c57600080fd5b506107b1600480360381019080803573ffffffffffffffffffffffffffffffffffffffff169060200190929190505050612ca5565b6040518082815260200191505060405180910390f35b3480156107d357600080fd5b506107dc612da6565b005b6108066004803603810190808035906020019092919080359060200190929190505050612e76565b005b34801561081457600080fd5b5061081d612f2f565b005b34801561082b57600080fd5b5061084a6004803603810190808035906020019092919050505061304e565b604051808381526020018281526020019250505060405180910390f35b34801561087357600080fd5b5061087c6130a0565b604051808273ffffffffffffffffffffffffffffffffffffffff1673ffffffffffffffffffffffffffffffffffffffff16815260200191505060405180910390f35b3480156108ca57600080fd5b506108ff600480360381019080803573ffffffffffffffffffffffffffffffffffffffff1690602001909291905050506130c5565b005b610933600480360381019080803567ffffffffffffffff1690602001909291908035906020019092919050505061320e565b005b34801561094157600080fd5b50610980600480360381019080803573ffffffffffffffffffffffffffffffffffffffff1690602001909291908035906020019092919050505061343d565b604051808215151515815260200191505060405180910390f35b3480156109a657600080fd5b506109c560048036038101908080359060200190929190505050613547565b005b3480156109d357600080fd5b506109dc6136cc565b604051808273ffffffffffffffffffffffffffffffffffffffff1673ffffffffffffffffffffffffffffffffffffffff16815260200191505060405180910390f35b348015610a2a57600080fd5b50610a5f600480360381019080803573ffffffffffffffffffffffffffffffffffffffff1690602001909291905050506136f2565b005b600080600080600080883373ffffffffffffffffffffffffffffffffffffffff1660088267ffffffffffffffff16815481101515610a9b57fe5b906000526020600020906008020160020160009054906101000a900473ffffffffffffffffffffffffffffffffffffffff1673ffffffffffffffffffffffffffffffffffffffff161480610b6457503373ffffffffffffffffffffffffffffffffffffffff1660088267ffffffffffffffff16815481101515610b1a57fe5b906000526020600020906008020160030160009054906101000a900473ffffffffffffffffffffffffffffffffffffffff1673ffffffffffffffffffffffffffffffffffffffff16145b1515610bd8576040517f08c379a00000000000000000000000000000000000000000000000000000000081526004018080602001828103825260108152602001807f6e6565642067616d6520706c617965720000000000000000000000000000000081525060200191505060405180910390fd5b896001600560009054906101000a900467ffffffffffffffff1667ffffffffffffffff168267ffffffffffffffff16101515610c7c576040517f08c379a000000000000000000000000000000000000000000000000000000000815260040180806020018281038252600d8152602001807f77726f6e672067616d652069640000000000000000000000000000000000000081525060200191505060405180910390fd5b8060ff1660088367ffffffffffffffff16815481101515610c9957fe5b906000526020600020906008020160030160149054906101000a900460ff1660ff16141515610d30576040517f08c379a00000000000000000000000000000000000000000000000000000000081526004018080602001828103825260118152602001807f77726f6e672067616d652073746174757300000000000000000000000000000081525060200191505060405180910390fd5b60088c67ffffffffffffffff16815481101515610d4957fe5b906000526020600020906008020198503373ffffffffffffffffffffffffffffffffffffffff168960020160009054906101000a900473ffffffffffffffffffffffffffffffffffffffff1673ffffffffffffffffffffffffffffffffffffffff161415610dbd5788600401549750610dc5565b886005015497505b610dd0888c8c61195b565b9650861515610e47576040517f08c379a00000000000000000000000000000000000000000000000000000000081526004018080602001828103825260148152602001807f77726f6e67206b6579206f7220636f6e74656e7400000000000000000000000081525060200191505060405180910390fd5b610e52888c8c612862565b8b67ffffffffffffffff167fc7a139737cd6184b2f7e21f2772a5be4e94abef5bd30ae5723616d19edf906a9338d8d604051808473ffffffffffffffffffffffffffffffffffffffff1673ffffffffffffffffffffffffffffffffffffffff168152602001838152602001828152602001935050505060405180910390a2610edd896004015461304e565b965050610eed896005015461304e565b95505060008614158015610f02575060008514155b15610f1e57610f1186866137fa565b9350610f1d8c856138b1565b5b505050505050505050505050565b6000813373ffffffffffffffffffffffffffffffffffffffff1660088267ffffffffffffffff16815481101515610f5f57fe5b906000526020600020906008020160020160009054906101000a900473ffffffffffffffffffffffffffffffffffffffff1673ffffffffffffffffffffffffffffffffffffffff16148061102857503373ffffffffffffffffffffffffffffffffffffffff1660088267ffffffffffffffff16815481101515610fde57fe5b906000526020600020906008020160030160009054906101000a900473ffffffffffffffffffffffffffffffffffffffff1673ffffffffffffffffffffffffffffffffffffffff16145b151561109c576040517f08c379a00000000000000000000000000000000000000000000000000000000081526004018080602001828103825260108152602001807f6e6565642067616d6520706c617965720000000000000000000000000000000081525060200191505060405180910390fd5b826000600560009054906101000a900467ffffffffffffffff1667ffffffffffffffff168267ffffffffffffffff16101515611140576040517f08c379a000000000000000000000000000000000000000000000000000000000815260040180806020018281038252600d8152602001807f77726f6e672067616d652069640000000000000000000000000000000000000081525060200191505060405180910390fd5b8060ff1660088367ffffffffffffffff1681548110151561115d57fe5b906000526020600020906008020160030160149054906101000a900460ff1660ff161415156111f4576040517f08c379a00000000000000000000000000000000000000000000000000000000081526004018080602001828103825260118152602001807f77726f6e672067616d652073746174757300000000000000000000000000000081525060200191505060405180910390fd5b846111fe81613c1a565b1515611272576040517f08c379a00000000000000000000000000000000000000000000000000000000081526004018080602001828103825260128152602001807f6e6565642067616d652074696d65206f7574000000000000000000000000000081525060200191505060405180910390fd5b60088667ffffffffffffffff1681548110151561128b57fe5b9060005260206000209060080201945060038560030160146101000a81548160ff021916908360ff1602179055503373ffffffffffffffffffffffffffffffffffffffff166108fc86600101549081150290604051600060405180830381858888f19350505050158015611303573d6000803e3d6000fd5b508567ffffffffffffffff167fa77d020ec6193b836dd9686343fd6244891812d0d63f6b8567734bf69298985860405160405180910390a2505050505050565b60088181548110151561135257fe5b90600052602060002090600802016000915090508060000160009054906101000a900467ffffffffffffffff16908060010154908060020160009054906101000a900473ffffffffffffffffffffffffffffffffffffffff16908060030160009054906101000a900473ffffffffffffffffffffffffffffffffffffffff16908060030160149054906101000a900460ff16908060040154908060050154908060060154908060070154905089565b60035481565b61140f61503f565b600080833373ffffffffffffffffffffffffffffffffffffffff1660088267ffffffffffffffff1681548110151561144357fe5b906000526020600020906008020160020160009054906101000a900473ffffffffffffffffffffffffffffffffffffffff1673ffffffffffffffffffffffffffffffffffffffff16148061150c57503373ffffffffffffffffffffffffffffffffffffffff1660088267ffffffffffffffff168154811015156114c257fe5b906000526020600020906008020160030160009054906101000a900473ffffffffffffffffffffffffffffffffffffffff1673ffffffffffffffffffffffffffffffffffffffff16145b1515611580576040517f08c379a00000000000000000000000000000000000000000000000000000000081526004018080602001828103825260108152602001807f6e6565642067616d6520706c617965720000000000000000000000000000000081525060200191505060405180910390fd5b846001600560009054906101000a900467ffffffffffffffff1667ffffffffffffffff168267ffffffffffffffff16101515611624576040517f08c379a000000000000000000000000000000000000000000000000000000000815260040180806020018281038252600d8152602001807f77726f6e672067616d652069640000000000000000000000000000000000000081525060200191505060405180910390fd5b8060ff1660088367ffffffffffffffff1681548110151561164157fe5b906000526020600020906008020160030160149054906101000a900460ff1660ff161415156116d8576040517f08c379a00000000000000000000000000000000000000000000000000000000081526004018080602001828103825260118152602001807f77726f6e672067616d652073746174757300000000000000000000000000000081525060200191505060405180910390fd5b866116e281613c1a565b1515611756576040517f08c379a00000000000000000000000000000000000000000000000000000000081526004018080602001828103825260128152602001807f6e6565642067616d652074696d65206f7574000000000000000000000000000081525060200191505060405180910390fd5b60088867ffffffffffffffff1681548110151561176f57fe5b906000526020600020906008020161012060405190810160405290816000820160009054906101000a900467ffffffffffffffff1667ffffffffffffffff1667ffffffffffffffff168152602001600182015481526020016002820160009054906101000a900473ffffffffffffffffffffffffffffffffffffffff1673ffffffffffffffffffffffffffffffffffffffff1673ffffffffffffffffffffffffffffffffffffffff1681526020016003820160009054906101000a900473ffffffffffffffffffffffffffffffffffffffff1673ffffffffffffffffffffffffffffffffffffffff1673ffffffffffffffffffffffffffffffffffffffff1681526020016003820160149054906101000a900460ff1660ff1660ff16815260200160048201548152602001600582015481526020016006820154815260200160078201548152505096506118c68760a0015161304e565b9650506118d68760c0015161304e565b9550506000861415156118f3576118ee8860016138b1565b611939565b60008514151561192c57611927887fffffffffffffffffffffffffffffffffffffffffffffffffffffffffffffffff6138b1565b611938565b6119378860006138b1565b5b5b5050505050505050565b60096020528060005260406000206000915090505481565b6000828260405160200180838152602001828152602001925050506040516020818303038152906040526040518082805190602001908083835b6020831015156119ba5780518252602082019150602081019050602083039250611995565b6001836020036101000a038019825116818451168082178552505050505050905001915050604051809103902060019004841490509392505050565b600160149054906101000a900460ff1681565b600083600073ffffffffffffffffffffffffffffffffffffffff166005600c9054906101000a900473ffffffffffffffffffffffffffffffffffffffff1673ffffffffffffffffffffffffffffffffffffffff1614151515611ad3576040517f08c379a00000000000000000000000000000000000000000000000000000000081526004018080602001828103825260158152602001807f4e6f2067726f757020636861742061646472657373000000000000000000000081525060200191505060405180910390fd5b600660009054906101000a900473ffffffffffffffffffffffffffffffffffffffff1673ffffffffffffffffffffffffffffffffffffffff166347b84f4182336040518363ffffffff167c0100000000000000000000000000000000000000000000000000000000028152600401808381526020018273ffffffffffffffffffffffffffffffffffffffff1673ffffffffffffffffffffffffffffffffffffffff16815260200192505050602060405180830381600087803b158015611b9857600080fd5b505af1158015611bac573d6000803e3d6000fd5b505050506040513d6020811015611bc257600080fd5b81019080805190602001909291905050501515611c47576040517f08c379a00000000000000000000000000000000000000000000000000000000081526004018080602001828103825260198152602001807f596f7520617265206e6f7420696e20746869732067726f75700000000000000081525060200191505060405180910390fd5b600660009054906101000a900473ffffffffffffffffffffffffffffffffffffffff1673ffffffffffffffffffffffffffffffffffffffff16638ed5788182336040518363ffffffff167c0100000000000000000000000000000000000000000000000000000000028152600401808381526020018273ffffffffffffffffffffffffffffffffffffffff1673ffffffffffffffffffffffffffffffffffffffff16815260200192505050602060405180830381600087803b158015611d0c57600080fd5b505af1158015611d20573d6000803e3d6000fd5b505050506040513d6020811015611d3657600080fd5b8101908080519060200190929190505050151515611dbc576040517f08c379a00000000000000000000000000000000000000000000000000000000081526004018080602001828103825260148152602001807f596f752068617665206265656e2062616e6e656400000000000000000000000081525060200191505060405180910390fd5b600160149054906101000a900460ff161515611e66576040517f08c379a00000000000000000000000000000000000000000000000000000000081526004018080602001828103825260238152602001807f436f6e747261637420686173206265656e2064697361626c6564206279206f7781526020017f6e6572000000000000000000000000000000000000000000000000000000000081525060400191505060405180910390fd5b611e708787613d97565b915084600960008467ffffffffffffffff1667ffffffffffffffff16815260200190815260200160002081905550611ea8858361405f565b8167ffffffffffffffff16857fcb613bba8ba408214751d7ddec60c59f97abed6bed1c604296cd6c93be647a13338787348c604051808673ffffffffffffffffffffffffffffffffffffffff1673ffffffffffffffffffffffffffffffffffffffff1681526020018060200184815260200183815260200182810382528686828181526020019250808284378201915050965050505050505060405180910390a350505050505050565b6060600060606000611f6261503f565b600560089054906101000a900463ffffffff1663ffffffff168667ffffffffffffffff1611151515611ffc576040517f08c379a00000000000000000000000000000000000000000000000000000000081526004018080602001828103825260118152602001807f6c696d697420697320746f6f206869676800000000000000000000000000000081525060200191505060405180910390fd5b600560009054906101000a900467ffffffffffffffff1667ffffffffffffffff168667ffffffffffffffff1611612033578561204b565b600560009054906101000a900467ffffffffffffffff165b93506007840267ffffffffffffffff166040519080825280602002602001820160405280156120895781602001602082028038833980820191505090505b509250600091505b8367ffffffffffffffff168267ffffffffffffffff1610156123c9576008600183600560009054906101000a900467ffffffffffffffff16030367ffffffffffffffff168154811015156120e157fe5b906000526020600020906008020161012060405190810160405290816000820160009054906101000a900467ffffffffffffffff1667ffffffffffffffff1667ffffffffffffffff168152602001600182015481526020016002820160009054906101000a900473ffffffffffffffffffffffffffffffffffffffff1673ffffffffffffffffffffffffffffffffffffffff1673ffffffffffffffffffffffffffffffffffffffff1681526020016003820160009054906101000a900473ffffffffffffffffffffffffffffffffffffffff1673ffffffffffffffffffffffffffffffffffffffff1673ffffffffffffffffffffffffffffffffffffffff1681526020016003820160149054906101000a900460ff1660ff1660ff1681526020016004820154815260200160058201548152602001600682015481526020016007820154815250509050806000015167ffffffffffffffff16836000600785020167ffffffffffffffff1681518110151561225857fe5b90602001906020020181815250508060200151836001600785020167ffffffffffffffff1681518110151561228957fe5b9060200190602002018181525050806101000151836002600785020167ffffffffffffffff168151811015156122bb57fe5b9060200190602002018181525050806040015173ffffffffffffffffffffffffffffffffffffffff16836003600785020167ffffffffffffffff1681518110151561230257fe5b9060200190602002018181525050806060015173ffffffffffffffffffffffffffffffffffffffff16836004600785020167ffffffffffffffff1681518110151561234957fe5b9060200190602002018181525050806080015160ff16836005600785020167ffffffffffffffff1681518110151561237d57fe5b90602001906020020181815250508060e00151836006600785020167ffffffffffffffff168151811015156123ae57fe5b90602001906020020181815250508180600101925050612091565b82945050505050919050565b6000809054906101000a900473ffffffffffffffffffffffffffffffffffffffff1673ffffffffffffffffffffffffffffffffffffffff163373ffffffffffffffffffffffffffffffffffffffff16141515612499576040517f08c379a00000000000000000000000000000000000000000000000000000000081526004018080602001828103825260208152602001807f4f776e61626c653a2063616c6c6572206973206e6f7420746865206f776e657281525060200191505060405180910390fd5b60018060146101000a81548160ff021916908315150217905550600160149054906101000a900460ff1615157f44cd398f157fa2dcc23e1a3238d8ec602ef8ed03c90372c10918d81d69e36ab160405160405180910390a2565b600080600080600080606061250661503f565b6000806000806060600560009054906101000a900467ffffffffffffffff1667ffffffffffffffff168e67ffffffffffffffff161015156125af576040517f08c379a000000000000000000000000000000000000000000000000000000000815260040180806020018281038252600d8152602001807f77726f6e672067616d652069640000000000000000000000000000000000000081525060200191505060405180910390fd5b60088e67ffffffffffffffff168154811015156125c857fe5b906000526020600020906008020161012060405190810160405290816000820160009054906101000a900467ffffffffffffffff1667ffffffffffffffff1667ffffffffffffffff168152602001600182015481526020016002820160009054906101000a900473ffffffffffffffffffffffffffffffffffffffff1673ffffffffffffffffffffffffffffffffffffffff1673ffffffffffffffffffffffffffffffffffffffff1681526020016003820160009054906101000a900473ffffffffffffffffffffffffffffffffffffffff1673ffffffffffffffffffffffffffffffffffffffff1673ffffffffffffffffffffffffffffffffffffffff1681526020016003820160149054906101000a900460ff1660ff1660ff168152602001600482015481526020016005820154815260200160068201548152602001600782015481525050955061271f8660a0015161304e565b945094506127308660c0015161304e565b9250925060066040519080825280602002602001820160405280156127645781602001602082028038833980820191505090505b5090508560a0015181600081518110151561277b57fe5b90602001906020020181815250508481600181518110151561279957fe5b9060200190602002018181525050838160028151811015156127b757fe5b90602001906020020181815250508560c001518160038151811015156127d957fe5b9060200190602002018181525050828160048151811015156127f757fe5b90602001906020020181815250508181600581518110151561281557fe5b906020019060200201818152505085602001518661010001518760400151886060015189608001518a60e00151869c509c509c509c509c509c509c50505050505050919395979092949650565b600061286f84848461195b565b90508015156128e6576040517f08c379a00000000000000000000000000000000000000000000000000000000081526004018080602001828103825260168152602001807f77726f6e672070726f6f66206f7220636f6e74656e740000000000000000000081525060200191505060405180910390fd5b6040805190810160405280848152602001838152506002600086815260200190815260200160002090600261291c9291906150c5565b508183857f41db0f74adc00cbd49d97d38e90961d851e90a30c3566014c9b3980c9013890860405160405180910390a450505050565b6000809054906101000a900473ffffffffffffffffffffffffffffffffffffffff1673ffffffffffffffffffffffffffffffffffffffff163373ffffffffffffffffffffffffffffffffffffffff16141515612a16576040517f08c379a00000000000000000000000000000000000000000000000000000000081526004018080602001828103825260208152602001807f4f776e61626c653a2063616c6c6572206973206e6f7420746865206f776e657281525060200191505060405180910390fd5b806004819055507f016810b2453fd6fa62348747e56186a28bfab39f0326d594aa954c3421996500816040518082815260200191505060405180910390a150565b60045481565b600160009054906101000a900473ffffffffffffffffffffffffffffffffffffffff1673ffffffffffffffffffffffffffffffffffffffff163373ffffffffffffffffffffffffffffffffffffffff16141515612b22576040517f08c379a00000000000000000000000000000000000000000000000000000000081526004018080602001828103825260168152602001807f50656e64696e67206f776e65722072657175697265640000000000000000000081525060200191505060405180910390fd5b600160009054906101000a900473ffffffffffffffffffffffffffffffffffffffff1673ffffffffffffffffffffffffffffffffffffffff166000809054906101000a900473ffffffffffffffffffffffffffffffffffffffff1673ffffffffffffffffffffffffffffffffffffffff167f8be0079c531659141344cd1fd0a4f28419497f9722a3daafe3b4186f6b6457e060405160405180910390a3600160009054906101000a900473ffffffffffffffffffffffffffffffffffffffff166000806101000a81548173ffffffffffffffffffffffffffffffffffffffff021916908373ffffffffffffffffffffffffffffffffffffffff1602179055506000600160006101000a81548173ffffffffffffffffffffffffffffffffffffffff021916908373ffffffffffffffffffffffffffffffffffffffff160217905550565b6005600c9054906101000a900473ffffffffffffffffffffffffffffffffffffffff1681565b600560009054906101000a900467ffffffffffffffff1681565b6000600760009054906101000a900473ffffffffffffffffffffffffffffffffffffffff1673ffffffffffffffffffffffffffffffffffffffff1663f5722882836040518263ffffffff167c0100000000000000000000000000000000000000000000000000000000028152600401808273ffffffffffffffffffffffffffffffffffffffff1673ffffffffffffffffffffffffffffffffffffffff168152602001915050602060405180830381600087803b158015612d6457600080fd5b505af1158015612d78573d6000803e3d6000fd5b505050506040513d6020811015612d8e57600080fd5b81019080805190602001909291905050509050919050565b6000809054906101000a900473ffffffffffffffffffffffffffffffffffffffff1673ffffffffffffffffffffffffffffffffffffffff163373ffffffffffffffffffffffffffffffffffffffff16141515612e6a576040517f08c379a00000000000000000000000000000000000000000000000000000000081526004018080602001828103825260208152602001807f4f776e61626c653a2063616c6c6572206973206e6f7420746865206f776e657281525060200191505060405180910390fd5b612e746000614543565b565b600160149054906101000a900460ff161515612f20576040517f08c379a00000000000000000000000000000000000000000000000000000000081526004018080602001828103825260238152602001807f436f6e747261637420686173206265656e2064697361626c6564206279206f7781526020017f6e6572000000000000000000000000000000000000000000000000000000000081525060400191505060405180910390fd5b612f2a8282613d97565b505050565b6000809054906101000a900473ffffffffffffffffffffffffffffffffffffffff1673ffffffffffffffffffffffffffffffffffffffff163373ffffffffffffffffffffffffffffffffffffffff16141515612ff3576040517f08c379a00000000000000000000000000000000000000000000000000000000081526004018080602001828103825260208152602001807f4f776e61626c653a2063616c6c6572206973206e6f7420746865206f776e657281525060200191505060405180910390fd5b6000600160146101000a81548160ff021916908315150217905550600160149054906101000a900460ff1615157f44cd398f157fa2dcc23e1a3238d8ec602ef8ed03c90372c10918d81d69e36ab160405160405180910390a2565b60008060026000848152602001908152602001600020600060028110151561307257fe5b015460026000858152602001908152602001600020600160028110151561309557fe5b015491509150915091565b6000809054906101000a900473ffffffffffffffffffffffffffffffffffffffff1681565b6000809054906101000a900473ffffffffffffffffffffffffffffffffffffffff1673ffffffffffffffffffffffffffffffffffffffff163373ffffffffffffffffffffffffffffffffffffffff16141515613189576040517f08c379a00000000000000000000000000000000000000000000000000000000081526004018080602001828103825260208152602001807f4f776e61626c653a2063616c6c6572206973206e6f7420746865206f776e657281525060200191505060405180910390fd5b806005600c6101000a81548173ffffffffffffffffffffffffffffffffffffffff021916908373ffffffffffffffffffffffffffffffffffffffff16021790555080600660006101000a81548173ffffffffffffffffffffffffffffffffffffffff021916908373ffffffffffffffffffffffffffffffffffffffff16021790555050565b6000826000600560009054906101000a900467ffffffffffffffff1667ffffffffffffffff168267ffffffffffffffff161015156132b4576040517f08c379a000000000000000000000000000000000000000000000000000000000815260040180806020018281038252600d8152602001807f77726f6e672067616d652069640000000000000000000000000000000000000081525060200191505060405180910390fd5b8060ff1660088367ffffffffffffffff168154811015156132d157fe5b906000526020600020906008020160030160149054906101000a900460ff1660ff16141515613368576040517f08c379a00000000000000000000000000000000000000000000000000000000081526004018080602001828103825260118152602001807f77726f6e672067616d652073746174757300000000000000000000000000000081525060200191505060405180910390fd5b8461337281613c1a565b1515156133e7576040517f08c379a000000000000000000000000000000000000000000000000000000000815260040180806020018281038252600b8152602001807f74696d65206973206f757400000000000000000000000000000000000000000081525060200191505060405180910390fd5b600960008767ffffffffffffffff1667ffffffffffffffff168152602001908152602001600020549350600084111561342a57613425868686614607565b613435565b61343486866149c8565b5b505050505050565b6000600760009054906101000a900473ffffffffffffffffffffffffffffffffffffffff1673ffffffffffffffffffffffffffffffffffffffff166322dd6bf784846040518363ffffffff167c0100000000000000000000000000000000000000000000000000000000028152600401808373ffffffffffffffffffffffffffffffffffffffff1673ffffffffffffffffffffffffffffffffffffffff16815260200182815260200192505050602060405180830381600087803b15801561350457600080fd5b505af1158015613518573d6000803e3d6000fd5b505050506040513d602081101561352e57600080fd5b8101908080519060200190929190505050905092915050565b6000809054906101000a900473ffffffffffffffffffffffffffffffffffffffff1673ffffffffffffffffffffffffffffffffffffffff163373ffffffffffffffffffffffffffffffffffffffff1614151561360b576040517f08c379a00000000000000000000000000000000000000000000000000000000081526004018080602001828103825260208152602001807f4f776e61626c653a2063616c6c6572206973206e6f7420746865206f776e657281525060200191505060405180910390fd5b670de0b6b3a7640000811015151561368b576040517f08c379a000000000000000000000000000000000000000000000000000000000815260040180806020018281038252600c8152602001807f6c696d697420746f206c6f77000000000000000000000000000000000000000081525060200191505060405180910390fd5b806003819055507f44c8ef68dcc036e569158e914a009e3f02c9e933580e31424a1ae67728df7465816040518082815260200191505060405180910390a150565b600160009054906101000a900473ffffffffffffffffffffffffffffffffffffffff1681565b6000809054906101000a900473ffffffffffffffffffffffffffffffffffffffff1673ffffffffffffffffffffffffffffffffffffffff163373ffffffffffffffffffffffffffffffffffffffff161415156137b6576040517f08c379a00000000000000000000000000000000000000000000000000000000081526004018080602001828103825260208152602001807f4f776e61626c653a2063616c6c6572206973206e6f7420746865206f776e657281525060200191505060405180910390fd5b80600160006101000a81548173ffffffffffffffffffffffffffffffffffffffff021916908373ffffffffffffffffffffffffffffffffffffffff16021790555050565b600080828403905060018160000b148061383657507ffffffffffffffffffffffffffffffffffffffffffffffffffffffffffffffffe8160000b145b1561384457600191506138aa565b7fffffffffffffffffffffffffffffffffffffffffffffffffffffffffffffffff8160000b1480613878575060028160000b145b156138a5577fffffffffffffffffffffffffffffffffffffffffffffffffffffffffffffffff91506138aa565b600091505b5092915050565b600060088367ffffffffffffffff168154811015156138cc57fe5b9060005260206000209060080201905060018260000b141561398b578060020160009054906101000a900473ffffffffffffffffffffffffffffffffffffffff1673ffffffffffffffffffffffffffffffffffffffff166108fc82600101549081150290604051600060405180830381858888f19350505050158015613956573d6000803e3d6000fd5b506139868160020160009054906101000a900473ffffffffffffffffffffffffffffffffffffffff166003614c38565b613baf565b7fffffffffffffffffffffffffffffffffffffffffffffffffffffffffffffffff8260000b1415613a59578060030160009054906101000a900473ffffffffffffffffffffffffffffffffffffffff1673ffffffffffffffffffffffffffffffffffffffff166108fc82600101549081150290604051600060405180830381858888f19350505050158015613a24573d6000803e3d6000fd5b50613a548160030160009054906101000a900473ffffffffffffffffffffffffffffffffffffffff166003614c38565b613bae565b8060020160009054906101000a900473ffffffffffffffffffffffffffffffffffffffff1673ffffffffffffffffffffffffffffffffffffffff166108fc60028360010154811515613aa757fe5b049081150290604051600060405180830381858888f19350505050158015613ad3573d6000803e3d6000fd5b508060030160009054906101000a900473ffffffffffffffffffffffffffffffffffffffff1673ffffffffffffffffffffffffffffffffffffffff166108fc60028360010154811515613b2257fe5b049081150290604051600060405180830381858888f19350505050158015613b4e573d6000803e3d6000fd5b50613b7e8160020160009054906101000a900473ffffffffffffffffffffffffffffffffffffffff166001614c38565b613bad8160030160009054906101000a900473ffffffffffffffffffffffffffffffffffffffff166001614c38565b5b5b60028160030160146101000a81548160ff021916908360ff1602179055508267ffffffffffffffff167f3598a14b08a100ac75597e6f8e8309dfd773210d8ff4be917cebe132e82b7e5183604051808260000b60000b815260200191505060405180910390a2505050565b6000613c2461503f565b60088367ffffffffffffffff16815481101515613c3d57fe5b906000526020600020906008020161012060405190810160405290816000820160009054906101000a900467ffffffffffffffff1667ffffffffffffffff1667ffffffffffffffff168152602001600182015481526020016002820160009054906101000a900473ffffffffffffffffffffffffffffffffffffffff1673ffffffffffffffffffffffffffffffffffffffff1673ffffffffffffffffffffffffffffffffffffffff1681526020016003820160009054906101000a900473ffffffffffffffffffffffffffffffffffffffff1673ffffffffffffffffffffffffffffffffffffffff1673ffffffffffffffffffffffffffffffffffffffff1681526020016003820160149054906101000a900460ff1660ff1660ff1681526020016004820154815260200160058201548152602001600682015481526020016007820154815250509050428160e001511115915050919050565b6000613da161503f565b61012060405190810160405280600560009054906101000a900467ffffffffffffffff1667ffffffffffffffff1681526020013481526020013373ffffffffffffffffffffffffffffffffffffffff168152602001600073ffffffffffffffffffffffffffffffffffffffff168152602001600060ff16815260200185815260200160008152602001600454420181526020018481525090506005600081819054906101000a900467ffffffffffffffff168092919060010191906101000a81548167ffffffffffffffff021916908367ffffffffffffffff160217905550506008819080600181540180825580915050906001820390600052602060002090600802016000909192909190915060008201518160000160006101000a81548167ffffffffffffffff021916908367ffffffffffffffff1602179055506020820151816001015560408201518160020160006101000a81548173ffffffffffffffffffffffffffffffffffffffff021916908373ffffffffffffffffffffffffffffffffffffffff16021790555060608201518160030160006101000a81548173ffffffffffffffffffffffffffffffffffffffff021916908373ffffffffffffffffffffffffffffffffffffffff16021790555060808201518160030160146101000a81548160ff021916908360ff16021790555060a0820151816004015560c0820151816005015560e082015181600601556101008201518160070155505050806000015167ffffffffffffffff167f04b3f072ec09d8a8e42d32becc4b8f5907ae8e1840ab37c6698647fd2ecf24458260400151863487604051808573ffffffffffffffffffffffffffffffffffffffff1673ffffffffffffffffffffffffffffffffffffffff16815260200184815260200183815260200182815260200194505050505060405180910390a2806000015191505092915050565b606082600073ffffffffffffffffffffffffffffffffffffffff166005600c9054906101000a900473ffffffffffffffffffffffffffffffffffffffff1673ffffffffffffffffffffffffffffffffffffffff1614151515614129576040517f08c379a00000000000000000000000000000000000000000000000000000000081526004018080602001828103825260158152602001807f4e6f2067726f757020636861742061646472657373000000000000000000000081525060200191505060405180910390fd5b600660009054906101000a900473ffffffffffffffffffffffffffffffffffffffff1673ffffffffffffffffffffffffffffffffffffffff166347b84f4182336040518363ffffffff167c0100000000000000000000000000000000000000000000000000000000028152600401808381526020018273ffffffffffffffffffffffffffffffffffffffff1673ffffffffffffffffffffffffffffffffffffffff16815260200192505050602060405180830381600087803b1580156141ee57600080fd5b505af1158015614202573d6000803e3d6000fd5b505050506040513d602081101561421857600080fd5b8101908080519060200190929190505050151561429d576040517f08c379a00000000000000000000000000000000000000000000000000000000081526004018080602001828103825260198152602001807f596f7520617265206e6f7420696e20746869732067726f75700000000000000081525060200191505060405180910390fd5b600660009054906101000a900473ffffffffffffffffffffffffffffffffffffffff1673ffffffffffffffffffffffffffffffffffffffff16638ed5788182336040518363ffffffff167c0100000000000000000000000000000000000000000000000000000000028152600401808381526020018273ffffffffffffffffffffffffffffffffffffffff1673ffffffffffffffffffffffffffffffffffffffff16815260200192505050602060405180830381600087803b15801561436257600080fd5b505af1158015614376573d6000803e3d6000fd5b505050506040513d602081101561438c57600080fd5b8101908080519060200190929190505050151515614412576040517f08c379a00000000000000000000000000000000000000000000000000000000081526004018080602001828103825260148152602001807f596f752068617665206265656e2062616e6e656400000000000000000000000081525060200191505060405180910390fd5b6144258367ffffffffffffffff16614d19565b9150600660009054906101000a900473ffffffffffffffffffffffffffffffffffffffff1673ffffffffffffffffffffffffffffffffffffffff1663aae8b59285846040518363ffffffff167c01000000000000000000000000000000000000000000000000000000000281526004018083815260200180602001828103825283818151815260200191508051906020019080838360005b838110156144d85780820151818401526020810190506144bd565b50505050905090810190601f1680156145055780820380516001836020036101000a031916815260200191505b509350505050600060405180830381600087803b15801561452557600080fd5b505af1158015614539573d6000803e3d6000fd5b5050505050505050565b60008060009054906101000a900473ffffffffffffffffffffffffffffffffffffffff169050816000806101000a81548173ffffffffffffffffffffffffffffffffffffffff021916908373ffffffffffffffffffffffffffffffffffffffff1602179055508173ffffffffffffffffffffffffffffffffffffffff168173ffffffffffffffffffffffffffffffffffffffff167f8be0079c531659141344cd1fd0a4f28419497f9722a3daafe3b4186f6b6457e060405160405180910390a35050565b80600073ffffffffffffffffffffffffffffffffffffffff166005600c9054906101000a900473ffffffffffffffffffffffffffffffffffffffff1673ffffffffffffffffffffffffffffffffffffffff16141515156146cf576040517f08c379a00000000000000000000000000000000000000000000000000000000081526004018080602001828103825260158152602001807f4e6f2067726f757020636861742061646472657373000000000000000000000081525060200191505060405180910390fd5b600660009054906101000a900473ffffffffffffffffffffffffffffffffffffffff1673ffffffffffffffffffffffffffffffffffffffff166347b84f4182336040518363ffffffff167c0100000000000000000000000000000000000000000000000000000000028152600401808381526020018273ffffffffffffffffffffffffffffffffffffffff1673ffffffffffffffffffffffffffffffffffffffff16815260200192505050602060405180830381600087803b15801561479457600080fd5b505af11580156147a8573d6000803e3d6000fd5b505050506040513d60208110156147be57600080fd5b81019080805190602001909291905050501515614843576040517f08c379a00000000000000000000000000000000000000000000000000000000081526004018080602001828103825260198152602001807f596f7520617265206e6f7420696e20746869732067726f75700000000000000081525060200191505060405180910390fd5b600660009054906101000a900473ffffffffffffffffffffffffffffffffffffffff1673ffffffffffffffffffffffffffffffffffffffff16638ed5788182336040518363ffffffff167c0100000000000000000000000000000000000000000000000000000000028152600401808381526020018273ffffffffffffffffffffffffffffffffffffffff1673ffffffffffffffffffffffffffffffffffffffff16815260200192505050602060405180830381600087803b15801561490857600080fd5b505af115801561491c573d6000803e3d6000fd5b505050506040513d602081101561493257600080fd5b81019080805190602001909291905050501515156149b8576040517f08c379a00000000000000000000000000000000000000000000000000000000081526004018080602001828103825260148152602001807f596f752068617665206265656e2062616e6e656400000000000000000000000081525060200191505060405180910390fd5b6149c284846149c8565b50505050565b600060088367ffffffffffffffff168154811015156149e357fe5b9060005260206000209060080201905080600701543410151515614a6f576040517f08c379a000000000000000000000000000000000000000000000000000000000815260040180806020018281038252600d8152602001807f77726f6e672062616c616e63650000000000000000000000000000000000000081525060200191505060405180910390fd5b8060070154341115614ac9573373ffffffffffffffffffffffffffffffffffffffff166108fc826007015434039081150290604051600060405180830381858888f19350505050158015614ac7573d6000803e3d6000fd5b505b338160030160006101000a81548173ffffffffffffffffffffffffffffffffffffffff021916908373ffffffffffffffffffffffffffffffffffffffff160217905550818160050181905550806007015481600101540181600101819055504260045401816006018190555060018160030160146101000a81548160ff021916908360ff160217905550614b828160020160009054906101000a900473ffffffffffffffffffffffffffffffffffffffff166002614c38565b614bb18160030160009054906101000a900473ffffffffffffffffffffffffffffffffffffffff166001614c38565b8267ffffffffffffffff167f6030de52daebee6c07b2f6f4b2e8ba8707191b786719c3a2ece9cda6278e1e5333848460070154604051808473ffffffffffffffffffffffffffffffffffffffff1673ffffffffffffffffffffffffffffffffffffffff168152602001838152602001828152602001935050505060405180910390a2505050565b600760009054906101000a900473ffffffffffffffffffffffffffffffffffffffff1673ffffffffffffffffffffffffffffffffffffffff1663b13d96fa83836040518363ffffffff167c0100000000000000000000000000000000000000000000000000000000028152600401808373ffffffffffffffffffffffffffffffffffffffff1673ffffffffffffffffffffffffffffffffffffffff16815260200182815260200192505050600060405180830381600087803b158015614cfd57600080fd5b505af1158015614d11573d6000803e3d6000fd5b505050505050565b6060806060806060614d2a86614ee8565b93506040805190810160405280601281526020017f7b226d657373616765223a7b22736571223a00000000000000000000000000008152509250606060405190810160405280602281526020017f7d2c2274797065223a2268616e6767616d65222c2276657273696f6e223a223181526020017f227d00000000000000000000000000000000000000000000000000000000000081525091508284836040516020018084805190602001908083835b602083101515614dfe5780518252602082019150602081019050602083039250614dd9565b6001836020036101000a03801982511681845116808217855250505050505090500183805190602001908083835b602083101515614e515780518252602082019150602081019050602083039250614e2c565b6001836020036101000a03801982511681845116808217855250505050505090500182805190602001908083835b602083101515614ea45780518252602082019150602081019050602083039250614e7f565b6001836020036101000a0380198251168184511680821785525050505050509050019350505050604051602081830303815290604052905080945050505050919050565b60606000806060600080861415614f36576040805190810160405280600181526020017f30000000000000000000000000000000000000000000000000000000000000008152509450615036565b8593505b600084141515614f60578280600101935050600a84811515614f5857fe5b049350614f3a565b826040519080825280601f01601f191660200182016040528015614f935781602001602082028038833980820191505090505b5091506001830390505b60008614151561503257600a86811515614fb357fe5b066030017f010000000000000000000000000000000000000000000000000000000000000002828280600190039350815181101515614fee57fe5b9060200101907effffffffffffffffffffffffffffffffffffffffffffffffffffffffffffff1916908160001a905350600a8681151561502a57fe5b049550614f9d565b8194505b50505050919050565b61012060405190810160405280600067ffffffffffffffff16815260200160008152602001600073ffffffffffffffffffffffffffffffffffffffff168152602001600073ffffffffffffffffffffffffffffffffffffffff168152602001600060ff168152602001600081526020016000815260200160008152602001600081525090565b82600281019282156150f4579160200282015b828111156150f35782518255916020019190600101906150d8565b5b5090506151019190615105565b5090565b61512791905b8082111561512357600081600090555060010161510b565b5090565b905600a165627a7a72305820a33a0cb646ddff7d3af07374d5f867abf5923aaa3f94472518e305609f00085b0029",
  "source": "// SPDX-License-Identifier: MIT\npragma solidity >=0.4.22 <0.9.0;\nimport \"./interfaces/IGame.sol\";\nimport \"./interfaces/IPlayer.sol\";\nimport \"./interfaces/IStarter.sol\";\nimport \"./interfaces/IGroupChat.sol\";\nimport \"./interfaces/IRPS.sol\";\nimport \"@cpchain-tools/cpchain-dapps-utils/contracts/lifecycle/Enable.sol\";\nimport \"@cpchain-tools/cpchain-dapps-utils/contracts/security/Verifiable.sol\";\n\n//1 Rock  2 Paper 3 Scissors  0 unknown\n\ncontract Game is IGame, IStarter, IPlayer, Enable, Verifiable {\n    uint256 public maxLimit = 1000 ether;\n    uint256 public timeoutLimit = 10 minutes;\n    uint64 public totalGameNumber = 0;\n    uint32 private viewCountLimit = 10;\n\n    address public groupChatAddress;\n    IGroupChat private groupchatInstance;\n    IRPS private RPSInstance;\n\n    constructor(address rps) public {\n        RPSInstance = IRPS(rps);\n        RPSInstance.setMintContract();\n    }\n\n    struct HandGame {\n        uint64 gameId;\n        uint256 amount;\n        address starter;\n        address player;\n        //0 started, 1 locked,2,finished,3 cancel,\n        uint8 status;\n        uint256 starterProof;\n        uint256 playerProof;\n        uint256 timeout;\n        uint256 threshold;\n    }\n\n    HandGame[] public games;\n    mapping(uint64 => uint256) public gameToGroup;\n\n    modifier onlyActivatedGroupMember(uint256 group_id) {\n        require(groupChatAddress != address(0x0), \"No group chat address\");\n        require(\n            groupchatInstance.has(group_id, msg.sender),\n            \"You are not in this group\"\n        );\n        require(\n            !groupchatInstance.isBanned(group_id, msg.sender),\n            \"You have been banned\"\n        );\n        _;\n    }\n    modifier onlyPlayer(uint64 gameId) {\n        require(\n            games[gameId].starter == msg.sender ||\n                games[gameId].player == msg.sender,\n            \"need game player\"\n        );\n        _;\n    }\n\n    modifier onlyTimeout(uint64 gameId) {\n        require(_isTimeout(gameId), \"need game time out\");\n        _;\n    }\n\n    modifier notTimeout(uint64 gameId) {\n        require(!_isTimeout(gameId), \"time is out\");\n        _;\n    }\n\n    modifier needGameStatus(uint64 gameId, uint8 status) {\n        require(gameId < totalGameNumber, \"wrong game id\");\n        require(games[gameId].status == status, \"wrong game status\");\n        _;\n    }\n\n    // contract owner methods\n\n    function setGroupChat(address groupchat) public onlyOwner {\n        groupChatAddress = groupchat;\n        groupchatInstance = IGroupChat(groupchat);\n    }\n\n    function setMaxLimit(uint256 limit) external onlyOwner {\n        require(limit >= 1 ether, \"limit to low\");\n        maxLimit = limit;\n        emit SetMaxLimit(limit);\n    }\n\n    function setTimeoutLimit(uint256 limit) external onlyOwner {\n        timeoutLimit = limit;\n        emit SetTimeoutLimit(limit);\n    }\n\n    // view\n    function viewGame(uint64 gameId)\n        external\n        view\n        returns (\n            uint256,\n            uint256,\n            address,\n            address,\n            uint8,\n            uint256,\n            uint256[]\n        )\n    {\n        require(gameId < totalGameNumber, \"wrong game id\");\n        HandGame memory game = games[gameId];\n        (uint256 starterKey, uint256 starterContent) = viewContent(\n            game.starterProof\n        );\n        (uint256 playerKey, uint256 playerContent) = viewContent(\n            game.playerProof\n        );\n\n        uint256[] memory cardsInfo = new uint256[](6);\n        cardsInfo[0] = game.starterProof;\n        cardsInfo[1] = starterKey;\n        cardsInfo[2] = starterContent;\n        cardsInfo[3] = game.playerProof;\n        cardsInfo[4] = playerKey;\n        cardsInfo[5] = playerContent;\n        return (\n            game.amount,\n            game.threshold,\n            game.starter,\n            game.player,\n            game.status,\n            game.timeout,\n            cardsInfo\n        );\n    }\n\n    /**\n     * view the lastest\n     */\n    function viewLatestGames(uint64 limit) external view returns (uint256[]) {\n        require(limit <= viewCountLimit, \"limit is too high\");\n        uint64 count = limit > totalGameNumber ? totalGameNumber : limit;\n        uint256[] memory _lastestGames = new uint256[](count * 7);\n        for (uint64 i = 0; i < count; i++) {\n            HandGame memory game = games[totalGameNumber - i - 1];\n            _lastestGames[i * 7 + 0] = uint256(game.gameId);\n            _lastestGames[i * 7 + 1] = game.amount;\n            _lastestGames[i * 7 + 2] = game.threshold;\n            _lastestGames[i * 7 + 3] = uint256(game.starter);\n            _lastestGames[i * 7 + 4] = uint256(game.player);\n            _lastestGames[i * 7 + 5] = uint256(game.status);\n            _lastestGames[i * 7 + 6] = game.timeout;\n        }\n\n        return (_lastestGames);\n    }\n\n    // game starter methods\n    function startGame(uint256 proof, uint256 threshold)\n        external\n        payable\n        onlyEnabled\n    {\n        _createGame(proof, threshold);\n    }\n\n    function startGroupChatGame(\n        uint256 proof,\n        uint256 threshold,\n        uint256 group_id,\n        string userMessage\n    ) external payable onlyActivatedGroupMember(group_id) onlyEnabled {\n        uint64 gameId = _createGame(proof, threshold);\n        gameToGroup[gameId] = group_id;\n        _notifyGroup(group_id, gameId);\n        emit CreateGroupHandGame(\n            group_id,\n            gameId,\n            msg.sender,\n            userMessage,\n            msg.value,\n            threshold\n        );\n    }\n\n    function cancelGame(uint64 gameId)\n        external\n        onlyPlayer(gameId)\n        needGameStatus(gameId, 0)\n        onlyTimeout(gameId)\n    {\n        HandGame storage game = games[gameId];\n        game.status = 3;\n        msg.sender.transfer(game.amount);\n        emit GameCancelled(gameId);\n    }\n\n    // player methods\n    function joinGame(uint64 gameId, uint256 proof)\n        external\n        payable\n        needGameStatus(gameId, 0)\n        notTimeout(gameId)\n    {\n        uint256 group_id = gameToGroup[gameId];\n        if (group_id > 0) {\n            _lockGroupGame(gameId, proof, group_id);\n        } else {\n            _lockGame(gameId, proof);\n        }\n    }\n\n    function openCard(\n        uint64 gameId,\n        uint256 key,\n        uint256 content\n    ) external onlyPlayer(gameId) needGameStatus(gameId, 1) {\n        HandGame storage game = games[gameId];\n        uint256 proof;\n        if (game.starter == msg.sender) {\n            proof = game.starterProof;\n        } else {\n            proof = game.playerProof;\n        }\n        bool validate = validateProof(proof, key, content);\n        require(validate, \"wrong key or content\");\n        // (, uint256 savedContent) = viewContent(game.starterProof);\n        // if (savedContent != 0) {\n        //     setProof(proof, key, content);\n        // }\n        setProof(proof, key, content);\n        emit CardOpened(gameId, msg.sender, key, content);\n\n        (, uint256 starterContent) = viewContent(game.starterProof);\n        (, uint256 playerContent) = viewContent(game.playerProof);\n        if (starterContent != 0 && playerContent != 0) {\n            int8 r = _winOrLose(starterContent, playerContent);\n            _finishGame(gameId, r);\n        }\n    }\n\n    function finishTimeoutGame(uint64 gameId)\n        external\n        onlyPlayer(gameId)\n        needGameStatus(gameId, 1)\n        onlyTimeout(gameId)\n    {\n        HandGame memory game = games[gameId];\n        (, uint256 starterContent) = viewContent(game.starterProof);\n        (, uint256 playerContent) = viewContent(game.playerProof);\n        if (starterContent != 0) {\n            _finishGame(gameId, 1);\n        } else if (playerContent != 0) {\n            _finishGame(gameId, -1);\n        } else {\n            _finishGame(gameId, 0);\n        }\n    }\n\n    function balanceOf(address account) public view returns (uint256) {\n        return RPSInstance.balanceOfRPS(account);\n    }\n\n    function transfer(address recipient, uint256 amount) public returns (bool) {\n        return RPSInstance.transferRPS(recipient, amount);\n    }\n\n    // private methods\n\n    function _notifyGroup(uint256 group_id, uint64 gameId)\n        internal\n        onlyActivatedGroupMember(group_id)\n    {\n        string memory message = _getMessageWithSeq(gameId);\n        groupchatInstance.sendMessage(group_id, message);\n    }\n\n    function _getMessageWithSeq(uint256 seq) private pure returns (string) {\n        string memory _id = uintToString(seq);\n        string memory msg0 = '{\"message\":{\"seq\":';\n        string memory msg1 = '},\"type\":\"hanggame\",\"version\":\"1\"}';\n        string memory message = string(abi.encodePacked(msg0, _id, msg1));\n        return message;\n    }\n\n    function _lockGroupGame(\n        uint64 gameId,\n        uint256 proof,\n        uint256 group_id\n    ) private onlyActivatedGroupMember(group_id) {\n        _lockGame(gameId, proof);\n    }\n\n    function _lockGame(uint64 gameId, uint256 proof) private {\n        HandGame storage game = games[gameId];\n\n        require(msg.value >= game.threshold, \"wrong balance\");\n        // \n        if (msg.value > game.threshold) {\n            msg.sender.transfer(msg.value - game.threshold);\n        }\n        game.player = msg.sender;\n        game.playerProof = proof;\n        game.amount = game.amount + game.threshold;\n        game.timeout = timeoutLimit + block.timestamp;\n        game.status = 1;\n        _mintRPS(game.starter, 2);\n        _mintRPS(game.player, 1);\n        emit GameLocked(gameId, msg.sender, proof, game.threshold);\n    }\n\n    function _createGame(uint256 proof, uint256 threshold)\n        private\n        returns (uint64)\n    {\n        HandGame memory game = HandGame(\n            totalGameNumber,\n            msg.value,\n            msg.sender,\n            address(0),\n            0,\n            proof,\n            0,\n            block.timestamp + timeoutLimit,\n            threshold\n        );\n        totalGameNumber++;\n        games.push(game);\n        emit GameStarted(\n            game.gameId,\n            game.starter,\n            proof,\n            msg.value,\n            threshold\n        );\n        return game.gameId;\n    }\n\n    function _mintRPS(address account, uint256 amount) private {\n        RPSInstance.mintRPS(account, amount);\n    }\n\n    function uintToString(uint256 i) internal pure returns (string) {\n        if (i == 0) return \"0\";\n        uint256 j = i;\n        uint256 length;\n        while (j != 0) {\n            length++;\n            j /= 10;\n        }\n        bytes memory bstr = new bytes(length);\n        uint256 k = length - 1;\n        while (i != 0) {\n            bstr[k--] = bytes1(48 + (i % 10));\n            i /= 10;\n        }\n        return string(bstr);\n    }\n\n    function _finishGame(uint64 gameId, int8 r) private {\n        HandGame storage game = games[gameId];\n        if (r == 1) {\n            game.starter.transfer(game.amount);\n            _mintRPS(game.starter, 3);\n        } else if (r == -1) {\n            game.player.transfer(game.amount);\n            _mintRPS(game.player, 3);\n        } else {\n            game.starter.transfer(game.amount / 2);\n            game.player.transfer(game.amount / 2);\n            _mintRPS(game.starter, 1);\n            _mintRPS(game.player, 1);\n        }\n        game.status = 2;\n        emit GameFinished(gameId, r);\n    }\n\n    function _isTimeout(uint64 gameId) private view returns (bool) {\n        HandGame memory game = games[gameId];\n        return (game.timeout <= block.timestamp);\n    }\n\n    function _winOrLose(uint256 playerContent, uint256 otherContent)\n        private\n        pure\n        returns (int8)\n    {\n        int8 r = int8(playerContent - otherContent);\n        if (r == 1 || r == -2) {\n            return 1;\n        } else if (r == -1 || r == 2) {\n            return -1;\n        } else {\n            return 0;\n        }\n    }\n}\n",
  "sourcePath": "/home/zhangk/Documents/github/cpchain-dapps-handgame/contracts/Game.sol",
  "compiler": {
    "name": "solc",
    "version": "0.4.25+commit.59dbf8f1.Linux.g++"
  },
  "schemaVersion": "3.3.4",
  "updatedAt": "2022-05-05T08:39:23.028Z",
  "devdoc": {
    "methods": {
      "claimOwnership()": {
        "details": "Allows the pendingOwner address to finalize the transfer."
      },
      "disableContract()": {
        "details": "set contract disable"
      },
      "enableContract()": {
        "details": "set contract enable"
      },
      "renounceOwnership()": {
        "details": "Leaves the contract without owner. It will not be possible to call `onlyOwner` functions anymore. Can only be called by the current owner.     * NOTE: Renouncing ownership will leave the contract without an owner, thereby removing any functionality that is only available to the owner."
      },
      "setProof(uint256,uint256,uint256)": {
        "details": "Open the card with proof and content"
      },
      "transferOwnership(address)": {
        "details": "Allows the current owner to set the pendingOwner address.",
        "params": {
          "newOwner": "The address to transfer ownership to."
        }
      },
      "viewContent(uint256)": {
        "details": "get the card from contract     * Returns the proof and conttent.     * Note if the card is not opened,returns should be zero"
      }
    }
  },
  "userdoc": {
    "methods": {
      "viewLatestGames(uint64)": {
        "notice": "view the lastest"
      }
    }
  }
}