{
  "contractName": "GameTest",
  "abi": [
    {
      "anonymous": false,
      "inputs": [
        {
          "indexed": true,
          "name": "gameId",
          "type": "uint64"
        },
        {
          "indexed": false,
          "name": "starter",
          "type": "address"
        },
        {
          "indexed": false,
          "name": "card",
          "type": "uint256"
        },
        {
          "indexed": false,
          "name": "amount",
          "type": "uint256"
        },
        {
          "indexed": false,
          "name": "threshold",
          "type": "uint256"
        }
      ],
      "name": "GameStarted",
      "type": "event"
    },
    {
      "constant": false,
      "inputs": [
        {
          "name": "proof",
          "type": "uint256"
        },
        {
          "name": "threshold",
          "type": "uint256"
        }
      ],
      "name": "startGame",
      "outputs": [],
      "payable": true,
      "stateMutability": "payable",
      "type": "function"
    }
  ],
  "bytecode": "0x6080604052348015600f57600080fd5b506101198061001f6000396000f300608060405260043610603f576000357c0100000000000000000000000000000000000000000000000000000000900463ffffffff168063730b8381146044575b600080fd5b606a6004803603810190808035906020019092919080359060200190929190505050606c565b005b60017f04b3f072ec09d8a8e42d32becc4b8f5907ae8e1840ab37c6698647fd2ecf244533843485604051808573ffffffffffffffffffffffffffffffffffffffff1673ffffffffffffffffffffffffffffffffffffffff16815260200184815260200183815260200182815260200194505050505060405180910390a250505600a165627a7a72305820e7d89775253bd21e5b59c5e3f56ab70d7578202269168515d9491ea21cbf36750029",
  "source": "// SPDX-License-Identifier: MIT\npragma solidity >=0.4.22 <0.9.0;\n\n//1 Rock  2 Paper 3 Scissors  0 unknown\n\ncontract GameTest {\n    event GameStarted(\n        uint64 indexed gameId,\n        address starter,\n        uint256 card,\n        uint256 amount,\n        uint256 threshold\n    );\n\n    // game starter methods\n    function startGame(uint256 proof, uint256 threshold) external payable {\n        emit GameStarted(1, msg.sender, proof, msg.value, threshold);\n    }\n}\n",
  "sourcePath": "/home/zhangk/Documents/github/cpchain-dapps-handgame/contracts/GameTest.sol",
  "compiler": {
    "name": "solc",
    "version": "0.4.25+commit.59dbf8f1.Linux.g++"
  },
  "schemaVersion": "3.3.4",
  "updatedAt": "2022-05-06T09:07:09.645Z",
  "devdoc": {
    "methods": {}
  },
  "userdoc": {
    "methods": {}
  }
}