{
  "contractName": "Game",
  "abi": [
    {
      "constant": true,
      "inputs": [],
      "name": "name",
      "outputs": [
        {
          "name": "",
          "type": "string"
        }
      ],
      "payable": false,
      "stateMutability": "view",
      "type": "function"
    },
    {
      "constant": false,
      "inputs": [
        {
          "name": "spender",
          "type": "address"
        },
        {
          "name": "value",
          "type": "uint256"
        }
      ],
      "name": "approve",
      "outputs": [
        {
          "name": "",
          "type": "bool"
        }
      ],
      "payable": false,
      "stateMutability": "nonpayable",
      "type": "function"
    },
    {
      "constant": true,
      "inputs": [],
      "name": "totalSupply",
      "outputs": [
        {
          "name": "",
          "type": "uint256"
        }
      ],
      "payable": false,
      "stateMutability": "view",
      "type": "function"
    },
    {
      "constant": true,
      "inputs": [],
      "name": "enabled",
      "outputs": [
        {
          "name": "",
          "type": "bool"
        }
      ],
      "payable": false,
      "stateMutability": "view",
      "type": "function"
    },
    {
      "constant": false,
      "inputs": [
        {
          "name": "sender",
          "type": "address"
        },
        {
          "name": "recipient",
          "type": "address"
        },
        {
          "name": "amount",
          "type": "uint256"
        }
      ],
      "name": "transferFrom",
      "outputs": [
        {
          "name": "",
          "type": "bool"
        }
      ],
      "payable": false,
      "stateMutability": "nonpayable",
      "type": "function"
    },
    {
      "constant": true,
      "inputs": [],
      "name": "decimals",
      "outputs": [
        {
          "name": "",
          "type": "uint8"
        }
      ],
      "payable": false,
      "stateMutability": "view",
      "type": "function"
    },
    {
      "constant": false,
      "inputs": [],
      "name": "enableContract",
      "outputs": [],
      "payable": false,
      "stateMutability": "nonpayable",
      "type": "function"
    },
    {
      "constant": false,
      "inputs": [
        {
          "name": "spender",
          "type": "address"
        },
        {
          "name": "addedValue",
          "type": "uint256"
        }
      ],
      "name": "increaseAllowance",
      "outputs": [
        {
          "name": "",
          "type": "bool"
        }
      ],
      "payable": false,
      "stateMutability": "nonpayable",
      "type": "function"
    },
    {
      "constant": false,
      "inputs": [],
      "name": "claimOwnership",
      "outputs": [],
      "payable": false,
      "stateMutability": "nonpayable",
      "type": "function"
    },
    {
      "constant": true,
      "inputs": [
        {
          "name": "account",
          "type": "address"
        }
      ],
      "name": "balanceOf",
      "outputs": [
        {
          "name": "",
          "type": "uint256"
        }
      ],
      "payable": false,
      "stateMutability": "view",
      "type": "function"
    },
    {
      "constant": false,
      "inputs": [],
      "name": "renounceOwnership",
      "outputs": [],
      "payable": false,
      "stateMutability": "nonpayable",
      "type": "function"
    },
    {
      "constant": false,
      "inputs": [],
      "name": "disableContract",
      "outputs": [],
      "payable": false,
      "stateMutability": "nonpayable",
      "type": "function"
    },
    {
      "constant": true,
      "inputs": [],
      "name": "owner",
      "outputs": [
        {
          "name": "",
          "type": "address"
        }
      ],
      "payable": false,
      "stateMutability": "view",
      "type": "function"
    },
    {
      "constant": true,
      "inputs": [],
      "name": "symbol",
      "outputs": [
        {
          "name": "",
          "type": "string"
        }
      ],
      "payable": false,
      "stateMutability": "view",
      "type": "function"
    },
    {
      "constant": false,
      "inputs": [
        {
          "name": "spender",
          "type": "address"
        },
        {
          "name": "subtractedValue",
          "type": "uint256"
        }
      ],
      "name": "decreaseAllowance",
      "outputs": [
        {
          "name": "",
          "type": "bool"
        }
      ],
      "payable": false,
      "stateMutability": "nonpayable",
      "type": "function"
    },
    {
      "constant": false,
      "inputs": [
        {
          "name": "recipient",
          "type": "address"
        },
        {
          "name": "amount",
          "type": "uint256"
        }
      ],
      "name": "transfer",
      "outputs": [
        {
          "name": "",
          "type": "bool"
        }
      ],
      "payable": false,
      "stateMutability": "nonpayable",
      "type": "function"
    },
    {
      "constant": true,
      "inputs": [
        {
          "name": "owner",
          "type": "address"
        },
        {
          "name": "spender",
          "type": "address"
        }
      ],
      "name": "allowance",
      "outputs": [
        {
          "name": "",
          "type": "uint256"
        }
      ],
      "payable": false,
      "stateMutability": "view",
      "type": "function"
    },
    {
      "constant": true,
      "inputs": [],
      "name": "pendingOwner",
      "outputs": [
        {
          "name": "",
          "type": "address"
        }
      ],
      "payable": false,
      "stateMutability": "view",
      "type": "function"
    },
    {
      "constant": false,
      "inputs": [
        {
          "name": "newOwner",
          "type": "address"
        }
      ],
      "name": "transferOwnership",
      "outputs": [],
      "payable": false,
      "stateMutability": "nonpayable",
      "type": "function"
    },
    {
      "inputs": [],
      "payable": false,
      "stateMutability": "nonpayable",
      "type": "constructor"
    },
    {
      "anonymous": false,
      "inputs": [
        {
          "indexed": true,
          "name": "from",
          "type": "address"
        },
        {
          "indexed": true,
          "name": "to",
          "type": "address"
        },
        {
          "indexed": false,
          "name": "value",
          "type": "uint256"
        }
      ],
      "name": "Transfer",
      "type": "event"
    },
    {
      "anonymous": false,
      "inputs": [
        {
          "indexed": true,
          "name": "owner",
          "type": "address"
        },
        {
          "indexed": true,
          "name": "spender",
          "type": "address"
        },
        {
          "indexed": false,
          "name": "value",
          "type": "uint256"
        }
      ],
      "name": "Approval",
      "type": "event"
    },
    {
      "anonymous": false,
      "inputs": [
        {
          "indexed": true,
          "name": "enabled",
          "type": "bool"
        }
      ],
      "name": "EnableStatusChanged",
      "type": "event"
    },
    {
      "anonymous": false,
      "inputs": [
        {
          "indexed": true,
          "name": "previousOwner",
          "type": "address"
        },
        {
          "indexed": true,
          "name": "newOwner",
          "type": "address"
        }
      ],
      "name": "OwnershipTransferred",
      "type": "event"
    },
    {
      "anonymous": false,
      "inputs": [
        {
          "indexed": false,
          "name": "limit",
          "type": "uint256"
        }
      ],
      "name": "SetMaxLimit",
      "type": "event"
    },
    {
      "anonymous": false,
      "inputs": [
        {
          "indexed": false,
          "name": "limit",
          "type": "uint256"
        }
      ],
      "name": "SetTimeoutLimit",
      "type": "event"
    },
    {
      "anonymous": false,
      "inputs": [
        {
          "indexed": true,
          "name": "gameId",
          "type": "uint64"
        },
        {
          "indexed": false,
          "name": "starter",
          "type": "address"
        },
        {
          "indexed": false,
          "name": "card",
          "type": "uint256"
        },
        {
          "indexed": false,
          "name": "amount",
          "type": "uint256"
        },
        {
          "indexed": false,
          "name": "threshold",
          "type": "uint256"
        }
      ],
      "name": "GameStarted",
      "type": "event"
    },
    {
      "anonymous": false,
      "inputs": [
        {
          "indexed": true,
          "name": "group_id",
          "type": "uint256"
        },
        {
          "indexed": true,
          "name": "gameId",
          "type": "uint64"
        },
        {
          "indexed": false,
          "name": "starter",
          "type": "address"
        },
        {
          "indexed": false,
          "name": "message",
          "type": "string"
        },
        {
          "indexed": false,
          "name": "amount",
          "type": "uint256"
        },
        {
          "indexed": false,
          "name": "threshold",
          "type": "uint256"
        }
      ],
      "name": "CreateGroupHandGame",
      "type": "event"
    },
    {
      "anonymous": false,
      "inputs": [
        {
          "indexed": true,
          "name": "gameId",
          "type": "uint64"
        }
      ],
      "name": "GameCancelled",
      "type": "event"
    },
    {
      "anonymous": false,
      "inputs": [
        {
          "indexed": true,
          "name": "gameId",
          "type": "uint64"
        },
        {
          "indexed": false,
          "name": "player",
          "type": "address"
        },
        {
          "indexed": false,
          "name": "card",
          "type": "uint256"
        },
        {
          "indexed": false,
          "name": "amount",
          "type": "uint256"
        }
      ],
      "name": "GameLocked",
      "type": "event"
    },
    {
      "anonymous": false,
      "inputs": [
        {
          "indexed": true,
          "name": "gameId",
          "type": "uint64"
        },
        {
          "indexed": false,
          "name": "player",
          "type": "address"
        },
        {
          "indexed": false,
          "name": "key",
          "type": "string"
        },
        {
          "indexed": false,
          "name": "content",
          "type": "uint8"
        }
      ],
      "name": "CardOpened",
      "type": "event"
    },
    {
      "anonymous": false,
      "inputs": [
        {
          "indexed": true,
          "name": "gameId",
          "type": "uint64"
        },
        {
          "indexed": false,
          "name": "result",
          "type": "int8"
        }
      ],
      "name": "GameFinished",
      "type": "event"
    },
    {
      "constant": false,
      "inputs": [
        {
          "name": "groupchat",
          "type": "address"
        }
      ],
      "name": "setGroupChat",
      "outputs": [],
      "payable": false,
      "stateMutability": "nonpayable",
      "type": "function"
    },
    {
      "constant": false,
      "inputs": [
        {
          "name": "limit",
          "type": "uint256"
        }
      ],
      "name": "setMaxLimit",
      "outputs": [],
      "payable": false,
      "stateMutability": "nonpayable",
      "type": "function"
    },
    {
      "constant": false,
      "inputs": [
        {
          "name": "limit",
          "type": "uint256"
        }
      ],
      "name": "setTimeoutLimit",
      "outputs": [],
      "payable": false,
      "stateMutability": "nonpayable",
      "type": "function"
    },
    {
      "constant": true,
      "inputs": [
        {
          "name": "gameId",
          "type": "uint64"
        }
      ],
      "name": "viewGame",
      "outputs": [
        {
          "name": "",
          "type": "uint256"
        },
        {
          "name": "",
          "type": "uint256"
        },
        {
          "name": "",
          "type": "address"
        },
        {
          "name": "",
          "type": "address"
        },
        {
          "name": "",
          "type": "uint8"
        },
        {
          "name": "",
          "type": "uint256"
        },
        {
          "name": "",
          "type": "uint256"
        },
        {
          "name": "",
          "type": "string"
        },
        {
          "name": "",
          "type": "uint8"
        },
        {
          "name": "",
          "type": "uint256"
        },
        {
          "name": "",
          "type": "string"
        },
        {
          "name": "",
          "type": "uint8"
        }
      ],
      "payable": false,
      "stateMutability": "view",
      "type": "function"
    },
    {
      "constant": true,
      "inputs": [
        {
          "name": "limit",
          "type": "uint64"
        }
      ],
      "name": "viewLatestGames",
      "outputs": [
        {
          "name": "",
          "type": "uint256[]"
        }
      ],
      "payable": false,
      "stateMutability": "view",
      "type": "function"
    },
    {
      "constant": false,
      "inputs": [
        {
          "name": "card",
          "type": "uint256"
        },
        {
          "name": "threshold",
          "type": "uint256"
        }
      ],
      "name": "startGame",
      "outputs": [],
      "payable": true,
      "stateMutability": "payable",
      "type": "function"
    },
    {
      "constant": false,
      "inputs": [
        {
          "name": "card",
          "type": "uint256"
        },
        {
          "name": "threshold",
          "type": "uint256"
        },
        {
          "name": "group_id",
          "type": "uint256"
        },
        {
          "name": "userMessage",
          "type": "string"
        }
      ],
      "name": "startGroupChatGame",
      "outputs": [],
      "payable": true,
      "stateMutability": "payable",
      "type": "function"
    },
    {
      "constant": false,
      "inputs": [
        {
          "name": "gameId",
          "type": "uint64"
        }
      ],
      "name": "cancelGame",
      "outputs": [],
      "payable": false,
      "stateMutability": "nonpayable",
      "type": "function"
    },
    {
      "constant": false,
      "inputs": [
        {
          "name": "gameId",
          "type": "uint64"
        },
        {
          "name": "card",
          "type": "uint256"
        }
      ],
      "name": "joinGame",
      "outputs": [],
      "payable": true,
      "stateMutability": "payable",
      "type": "function"
    },
    {
      "constant": false,
      "inputs": [
        {
          "name": "gameId",
          "type": "uint64"
        },
        {
          "name": "key",
          "type": "string"
        },
        {
          "name": "content",
          "type": "uint8"
        }
      ],
      "name": "openCard",
      "outputs": [],
      "payable": false,
      "stateMutability": "nonpayable",
      "type": "function"
    },
    {
      "constant": false,
      "inputs": [
        {
          "name": "gameId",
          "type": "uint64"
        }
      ],
      "name": "finishTimeoutGame",
      "outputs": [],
      "payable": false,
      "stateMutability": "nonpayable",
      "type": "function"
    }
  ],
  "bytecode": "0x608060405260018060146101000a81548160ff021916908315150217905550683635c9adc5dea000006008556102586009556000600a60006101000a81548167ffffffffffffffff021916908367ffffffffffffffff160217905550600a8060086101000a81548163ffffffff021916908363ffffffff1602179055503480156200008957600080fd5b506040805190810160405280600381526020017f52505300000000000000000000000000000000000000000000000000000000008152506040805190810160405280601e81526020017f526f636b2070617065722073636973736f72732067616d652073636f7265000081525060126000336000806101000a81548173ffffffffffffffffffffffffffffffffffffffff021916908373ffffffffffffffffffffffffffffffffffffffff1602179055508360049080519060200190620001529291906200041d565b5082600590805190602001906200016b9291906200041d565b5081600660006101000a81548160ff021916908360ff160217905550620001a8336012600a0a8302620001b2640100000000026401000000009004565b50505050620004cc565b600073ffffffffffffffffffffffffffffffffffffffff168273ffffffffffffffffffffffffffffffffffffffff161415151562000258576040517f08c379a000000000000000000000000000000000000000000000000000000000815260040180806020018281038252601f8152602001807f45524332303a206d696e7420746f20746865207a65726f20616464726573730081525060200191505060405180910390fd5b6200027d81600754620003926401000000000262004f7e179091906401000000009004565b600781905550620002e581600260008573ffffffffffffffffffffffffffffffffffffffff1673ffffffffffffffffffffffffffffffffffffffff16815260200190815260200160002054620003926401000000000262004f7e179091906401000000009004565b600260008473ffffffffffffffffffffffffffffffffffffffff1673ffffffffffffffffffffffffffffffffffffffff168152602001908152602001600020819055508173ffffffffffffffffffffffffffffffffffffffff16600073ffffffffffffffffffffffffffffffffffffffff167fddf252ad1be2c89b69c2b068fc378daa952ba7f163c4a11628f55a4df523b3ef836040518082815260200191505060405180910390a35050565b600080828401905083811015151562000413576040517f08c379a000000000000000000000000000000000000000000000000000000000815260040180806020018281038252601b8152602001807f536166654d6174683a206164646974696f6e206f766572666c6f77000000000081525060200191505060405180910390fd5b8091505092915050565b828054600181600116156101000203166002900490600052602060002090601f016020900481019282601f106200046057805160ff191683800117855562000491565b8280016001018555821562000491579182015b828111156200049057825182559160200191906001019062000473565b5b509050620004a09190620004a4565b5090565b620004c991905b80821115620004c5576000816000905550600101620004ab565b5090565b90565b6161f780620004dc6000396000f300608060405260043610610180576000357c0100000000000000000000000000000000000000000000000000000000900463ffffffff16806306fdde0314610185578063095ea7b3146102155780630d53be481461027a57806318160ddd146102b15780631eb447f9146102dc578063238dafe01461031357806323b872dd14610342578063282c51a8146103c757806329eaa1ab14610413578063313ce5671461049f578063367edd32146104d057806339509351146104e75780633b59034f1461054c57806349bcaf5f146107185780634e71e0c81461074557806362212e4b1461075c57806370a08231146107b8578063715018a61461080f578063730b838114610826578063894ba833146108505780638da5cb5b1461086757806395d89b41146108be578063976e08871461094e5780639d65a67e14610991578063a457c2d7146109c5578063a9059cbb14610a2a578063bf8bcee414610a8f578063dd62ed3e14610abc578063e30c397814610b33578063f2fde38b14610b8a575b600080fd5b34801561019157600080fd5b5061019a610bcd565b6040518080602001828103825283818151815260200191508051906020019080838360005b838110156101da5780820151818401526020810190506101bf565b50505050905090810190601f1680156102075780820380516001836020036101000a031916815260200191505b509250505060405180910390f35b34801561022157600080fd5b50610260600480360381019080803573ffffffffffffffffffffffffffffffffffffffff16906020019092919080359060200190929190505050610c6f565b604051808215151515815260200191505060405180910390f35b34801561028657600080fd5b506102af600480360381019080803567ffffffffffffffff169060200190929190505050610c86565b005b3480156102bd57600080fd5b506102c661109d565b6040518082815260200191505060405180910390f35b3480156102e857600080fd5b50610311600480360381019080803567ffffffffffffffff1690602001909291905050506110a7565b005b34801561031f57600080fd5b50610328611794565b604051808215151515815260200191505060405180910390f35b34801561034e57600080fd5b506103ad600480360381019080803573ffffffffffffffffffffffffffffffffffffffff169060200190929190803573ffffffffffffffffffffffffffffffffffffffff169060200190929190803590602001909291905050506117a7565b604051808215151515815260200191505060405180910390f35b610411600480360381019080803590602001909291908035906020019092919080359060200190929190803590602001908201803590602001919091929391929390505050611858565b005b34801561041f57600080fd5b50610448600480360381019080803567ffffffffffffffff1690602001909291905050506119ef565b6040518080602001828103825283818151815260200191508051906020019060200280838360005b8381101561048b578082015181840152602081019050610470565b505050509050019250505060405180910390f35b3480156104ab57600080fd5b506104b461201a565b604051808260ff1660ff16815260200191505060405180910390f35b3480156104dc57600080fd5b506104e5612031565b005b3480156104f357600080fd5b50610532600480360381019080803573ffffffffffffffffffffffffffffffffffffffff1690602001909291908035906020019092919050505061214f565b604051808215151515815260200191505060405180910390f35b34801561055857600080fd5b50610581600480360381019080803567ffffffffffffffff1690602001909291905050506121f4565b604051808d81526020018c81526020018b73ffffffffffffffffffffffffffffffffffffffff1673ffffffffffffffffffffffffffffffffffffffff1681526020018a73ffffffffffffffffffffffffffffffffffffffff1673ffffffffffffffffffffffffffffffffffffffff1681526020018960ff1660ff168152602001888152602001878152602001806020018660ff1660ff168152602001858152602001806020018460ff1660ff168152602001838103835288818151815260200191508051906020019080838360005b8381101561066b578082015181840152602081019050610650565b50505050905090810190601f1680156106985780820380516001836020036101000a031916815260200191505b50838103825285818151815260200191508051906020019080838360005b838110156106d15780820151818401526020810190506106b6565b50505050905090810190601f1680156106fe5780820380516001836020036101000a031916815260200191505b509e50505050505050505050505050505060405180910390f35b34801561072457600080fd5b506107436004803603810190808035906020019092919050505061263f565b005b34801561075157600080fd5b5061075a612744565b005b34801561076857600080fd5b506107b6600480360381019080803567ffffffffffffffff169060200190929190803590602001908201803590602001919091929391929390803560ff16906020019092919050505061294c565b005b3480156107c457600080fd5b506107f9600480360381019080803573ffffffffffffffffffffffffffffffffffffffff169060200190929190505050612ec3565b6040518082815260200191505060405180910390f35b34801561081b57600080fd5b50610824612f0c565b005b61084e6004803603810190808035906020019092919080359060200190929190505050612fdc565b005b34801561085c57600080fd5b50610865613095565b005b34801561087357600080fd5b5061087c6131b4565b604051808273ffffffffffffffffffffffffffffffffffffffff1673ffffffffffffffffffffffffffffffffffffffff16815260200191505060405180910390f35b3480156108ca57600080fd5b506108d36131d9565b6040518080602001828103825283818151815260200191508051906020019080838360005b838110156109135780820151818401526020810190506108f8565b50505050905090810190601f1680156109405780820380516001836020036101000a031916815260200191505b509250505060405180910390f35b34801561095a57600080fd5b5061098f600480360381019080803573ffffffffffffffffffffffffffffffffffffffff16906020019092919050505061327b565b005b6109c3600480360381019080803567ffffffffffffffff169060200190929190803590602001909291905050506133c4565b005b3480156109d157600080fd5b50610a10600480360381019080803573ffffffffffffffffffffffffffffffffffffffff169060200190929190803590602001909291905050506135f3565b604051808215151515815260200191505060405180910390f35b348015610a3657600080fd5b50610a75600480360381019080803573ffffffffffffffffffffffffffffffffffffffff16906020019092919080359060200190929190505050613698565b604051808215151515815260200191505060405180910390f35b348015610a9b57600080fd5b50610aba600480360381019080803590602001909291905050506136af565b005b348015610ac857600080fd5b50610b1d600480360381019080803573ffffffffffffffffffffffffffffffffffffffff169060200190929190803573ffffffffffffffffffffffffffffffffffffffff169060200190929190505050613834565b6040518082815260200191505060405180910390f35b348015610b3f57600080fd5b50610b486138bb565b604051808273ffffffffffffffffffffffffffffffffffffffff1673ffffffffffffffffffffffffffffffffffffffff16815260200191505060405180910390f35b348015610b9657600080fd5b50610bcb600480360381019080803573ffffffffffffffffffffffffffffffffffffffff1690602001909291905050506138e1565b005b606060048054600181600116156101000203166002900480601f016020809104026020016040519081016040528092919081815260200182805460018160011615610100020316600290048015610c655780601f10610c3a57610100808354040283529160200191610c65565b820191906000526020600020905b815481529060010190602001808311610c4857829003601f168201915b5050505050905090565b6000610c7c3384846139e9565b6001905092915050565b6000813373ffffffffffffffffffffffffffffffffffffffff16600c8267ffffffffffffffff16815481101515610cb957fe5b90600052602060002090600c020160020160009054906101000a900473ffffffffffffffffffffffffffffffffffffffff1673ffffffffffffffffffffffffffffffffffffffff161480610d8257503373ffffffffffffffffffffffffffffffffffffffff16600c8267ffffffffffffffff16815481101515610d3857fe5b90600052602060002090600c020160030160009054906101000a900473ffffffffffffffffffffffffffffffffffffffff1673ffffffffffffffffffffffffffffffffffffffff16145b1515610df6576040517f08c379a00000000000000000000000000000000000000000000000000000000081526004018080602001828103825260108152602001807f6e6565642067616d6520706c617965720000000000000000000000000000000081525060200191505060405180910390fd5b826000600a60009054906101000a900467ffffffffffffffff1667ffffffffffffffff168267ffffffffffffffff16101515610e9a576040517f08c379a000000000000000000000000000000000000000000000000000000000815260040180806020018281038252600d8152602001807f77726f6e672067616d652069640000000000000000000000000000000000000081525060200191505060405180910390fd5b8060ff16600c8367ffffffffffffffff16815481101515610eb757fe5b90600052602060002090600c020160030160149054906101000a900460ff1660ff16141515610f4e576040517f08c379a00000000000000000000000000000000000000000000000000000000081526004018080602001828103825260118152602001807f77726f6e672067616d652073746174757300000000000000000000000000000081525060200191505060405180910390fd5b84610f5881613c6a565b1515610fcc576040517f08c379a00000000000000000000000000000000000000000000000000000000081526004018080602001828103825260128152602001807f6e6565642067616d652074696d65206f7574000000000000000000000000000081525060200191505060405180910390fd5b600c8667ffffffffffffffff16815481101515610fe557fe5b90600052602060002090600c0201945060038560030160146101000a81548160ff021916908360ff1602179055503373ffffffffffffffffffffffffffffffffffffffff166108fc86600101549081150290604051600060405180830381858888f1935050505015801561105d573d6000803e3d6000fd5b508567ffffffffffffffff167fa77d020ec6193b836dd9686343fd6244891812d0d63f6b8567734bf69298985860405160405180910390a2505050505050565b6000600754905090565b6110af615fca565b6110b761605c565b6110bf61605c565b833373ffffffffffffffffffffffffffffffffffffffff16600c8267ffffffffffffffff168154811015156110f057fe5b90600052602060002090600c020160020160009054906101000a900473ffffffffffffffffffffffffffffffffffffffff1673ffffffffffffffffffffffffffffffffffffffff1614806111b957503373ffffffffffffffffffffffffffffffffffffffff16600c8267ffffffffffffffff1681548110151561116f57fe5b90600052602060002090600c020160030160009054906101000a900473ffffffffffffffffffffffffffffffffffffffff1673ffffffffffffffffffffffffffffffffffffffff16145b151561122d576040517f08c379a00000000000000000000000000000000000000000000000000000000081526004018080602001828103825260108152602001807f6e6565642067616d6520706c617965720000000000000000000000000000000081525060200191505060405180910390fd5b846001600a60009054906101000a900467ffffffffffffffff1667ffffffffffffffff168267ffffffffffffffff161015156112d1576040517f08c379a000000000000000000000000000000000000000000000000000000000815260040180806020018281038252600d8152602001807f77726f6e672067616d652069640000000000000000000000000000000000000081525060200191505060405180910390fd5b8060ff16600c8367ffffffffffffffff168154811015156112ee57fe5b90600052602060002090600c020160030160149054906101000a900460ff1660ff16141515611385576040517f08c379a00000000000000000000000000000000000000000000000000000000081526004018080602001828103825260118152602001807f77726f6e672067616d652073746174757300000000000000000000000000000081525060200191505060405180910390fd5b8661138f81613c6a565b1515611403576040517f08c379a00000000000000000000000000000000000000000000000000000000081526004018080602001828103825260128152602001807f6e6565642067616d652074696d65206f7574000000000000000000000000000081525060200191505060405180910390fd5b600c8867ffffffffffffffff1681548110151561141c57fe5b90600052602060002090600c020161012060405190810160405290816000820160009054906101000a900467ffffffffffffffff1667ffffffffffffffff1667ffffffffffffffff168152602001600182015481526020016002820160009054906101000a900473ffffffffffffffffffffffffffffffffffffffff1673ffffffffffffffffffffffffffffffffffffffff1673ffffffffffffffffffffffffffffffffffffffff1681526020016003820160009054906101000a900473ffffffffffffffffffffffffffffffffffffffff1673ffffffffffffffffffffffffffffffffffffffff1673ffffffffffffffffffffffffffffffffffffffff1681526020016003820160149054906101000a900460ff1660ff1660ff168152602001600482016060604051908101604052908160008201548152602001600182018054600181600116156101000203166002900480601f0160208091040260200160405190810160405280929190818152602001828054600181600116156101000203166002900480156115f05780601f106115c5576101008083540402835291602001916115f0565b820191906000526020600020905b8154815290600101906020018083116115d357829003601f168201915b505050505081526020016002820160009054906101000a900460ff1660ff1660ff16815250508152602001600782016060604051908101604052908160008201548152602001600182018054600181600116156101000203166002900480601f0160208091040260200160405190810160405280929190818152602001828054600181600116156101000203166002900480156116ce5780601f106116a3576101008083540402835291602001916116ce565b820191906000526020600020905b8154815290600101906020018083116116b157829003601f168201915b505050505081526020016002820160009054906101000a900460ff1660ff1660ff16815250508152602001600a8201548152602001600b8201548152505096508660a0015195508660c0015194506000866040015160ff1614151561173d57611738886001613f8f565b61178a565b6000856040015160ff1614151561177d57611778887fffffffffffffffffffffffffffffffffffffffffffffffffffffffffffffffff613f8f565b611789565b611788886000613f8f565b5b5b5050505050505050565b600160149054906101000a900460ff1681565b60006117b48484846142f8565b61184d843361184885600360008a73ffffffffffffffffffffffffffffffffffffffff1673ffffffffffffffffffffffffffffffffffffffff16815260200190815260200160002060003373ffffffffffffffffffffffffffffffffffffffff1673ffffffffffffffffffffffffffffffffffffffff1681526020019081526020016000205461468090919063ffffffff16565b6139e9565b600190509392505050565b6000600160149054906101000a900460ff161515611904576040517f08c379a00000000000000000000000000000000000000000000000000000000081526004018080602001828103825260238152602001807f436f6e747261637420686173206265656e2064697361626c6564206279206f7781526020017f6e6572000000000000000000000000000000000000000000000000000000000081525060400191505060405180910390fd5b61190e86866146ca565b905083600d60008367ffffffffffffffff1667ffffffffffffffff168152602001908152602001600020819055506119468482614a9a565b8067ffffffffffffffff16847fcb613bba8ba408214751d7ddec60c59f97abed6bed1c604296cd6c93be647a13338686348b604051808673ffffffffffffffffffffffffffffffffffffffff1673ffffffffffffffffffffffffffffffffffffffff1681526020018060200184815260200183815260200182810382528686828181526020019250808284378201915050965050505050505060405180910390a3505050505050565b60606000606060006119ff615fca565b600a60089054906101000a900463ffffffff1663ffffffff168667ffffffffffffffff1611151515611a99576040517f08c379a00000000000000000000000000000000000000000000000000000000081526004018080602001828103825260118152602001807f6c696d697420697320746f6f206869676800000000000000000000000000000081525060200191505060405180910390fd5b600a60009054906101000a900467ffffffffffffffff1667ffffffffffffffff168667ffffffffffffffff1611611ad05785611ae8565b600a60009054906101000a900467ffffffffffffffff165b93506007840267ffffffffffffffff16604051908082528060200260200182016040528015611b265781602001602082028038833980820191505090505b509250600091505b8367ffffffffffffffff168267ffffffffffffffff16101561200e57600c600183600a60009054906101000a900467ffffffffffffffff16030367ffffffffffffffff16815481101515611b7e57fe5b90600052602060002090600c020161012060405190810160405290816000820160009054906101000a900467ffffffffffffffff1667ffffffffffffffff1667ffffffffffffffff168152602001600182015481526020016002820160009054906101000a900473ffffffffffffffffffffffffffffffffffffffff1673ffffffffffffffffffffffffffffffffffffffff1673ffffffffffffffffffffffffffffffffffffffff1681526020016003820160009054906101000a900473ffffffffffffffffffffffffffffffffffffffff1673ffffffffffffffffffffffffffffffffffffffff1673ffffffffffffffffffffffffffffffffffffffff1681526020016003820160149054906101000a900460ff1660ff1660ff168152602001600482016060604051908101604052908160008201548152602001600182018054600181600116156101000203166002900480601f016020809104026020016040519081016040528092919081815260200182805460018160011615610100020316600290048015611d525780601f10611d2757610100808354040283529160200191611d52565b820191906000526020600020905b815481529060010190602001808311611d3557829003601f168201915b505050505081526020016002820160009054906101000a900460ff1660ff1660ff16815250508152602001600782016060604051908101604052908160008201548152602001600182018054600181600116156101000203166002900480601f016020809104026020016040519081016040528092919081815260200182805460018160011615610100020316600290048015611e305780601f10611e0557610100808354040283529160200191611e30565b820191906000526020600020905b815481529060010190602001808311611e1357829003601f168201915b505050505081526020016002820160009054906101000a900460ff1660ff1660ff16815250508152602001600a8201548152602001600b820154815250509050806000015167ffffffffffffffff16836000600785020167ffffffffffffffff16815181101515611e9d57fe5b90602001906020020181815250508060200151836001600785020167ffffffffffffffff16815181101515611ece57fe5b9060200190602002018181525050806101000151836002600785020167ffffffffffffffff16815181101515611f0057fe5b9060200190602002018181525050806040015173ffffffffffffffffffffffffffffffffffffffff16836003600785020167ffffffffffffffff16815181101515611f4757fe5b9060200190602002018181525050806060015173ffffffffffffffffffffffffffffffffffffffff16836004600785020167ffffffffffffffff16815181101515611f8e57fe5b9060200190602002018181525050806080015160ff16836005600785020167ffffffffffffffff16815181101515611fc257fe5b90602001906020020181815250508060e00151836006600785020167ffffffffffffffff16815181101515611ff357fe5b90602001906020020181815250508180600101925050611b2e565b82945050505050919050565b6000600660009054906101000a900460ff16905090565b6000809054906101000a900473ffffffffffffffffffffffffffffffffffffffff1673ffffffffffffffffffffffffffffffffffffffff163373ffffffffffffffffffffffffffffffffffffffff161415156120f5576040517f08c379a00000000000000000000000000000000000000000000000000000000081526004018080602001828103825260208152602001807f4f776e61626c653a2063616c6c6572206973206e6f7420746865206f776e657281525060200191505060405180910390fd5b60018060146101000a81548160ff021916908315150217905550600160149054906101000a900460ff1615157f44cd398f157fa2dcc23e1a3238d8ec602ef8ed03c90372c10918d81d69e36ab160405160405180910390a2565b60006121ea33846121e585600360003373ffffffffffffffffffffffffffffffffffffffff1673ffffffffffffffffffffffffffffffffffffffff16815260200190815260200160002060008973ffffffffffffffffffffffffffffffffffffffff1673ffffffffffffffffffffffffffffffffffffffff16815260200190815260200160002054614f7e90919063ffffffff16565b6139e9565b6001905092915050565b6000806000806000806000606060008060606000612210615fca565b600a60009054906101000a900467ffffffffffffffff1667ffffffffffffffff168e67ffffffffffffffff161015156122b1576040517f08c379a000000000000000000000000000000000000000000000000000000000815260040180806020018281038252600d8152602001807f77726f6e672067616d652069640000000000000000000000000000000000000081525060200191505060405180910390fd5b600c8e67ffffffffffffffff168154811015156122ca57fe5b90600052602060002090600c020161012060405190810160405290816000820160009054906101000a900467ffffffffffffffff1667ffffffffffffffff1667ffffffffffffffff168152602001600182015481526020016002820160009054906101000a900473ffffffffffffffffffffffffffffffffffffffff1673ffffffffffffffffffffffffffffffffffffffff1673ffffffffffffffffffffffffffffffffffffffff1681526020016003820160009054906101000a900473ffffffffffffffffffffffffffffffffffffffff1673ffffffffffffffffffffffffffffffffffffffff1673ffffffffffffffffffffffffffffffffffffffff1681526020016003820160149054906101000a900460ff1660ff1660ff168152602001600482016060604051908101604052908160008201548152602001600182018054600181600116156101000203166002900480601f01602080910402602001604051908101604052809291908181526020018280546001816001161561010002031660029004801561249e5780601f106124735761010080835404028352916020019161249e565b820191906000526020600020905b81548152906001019060200180831161248157829003601f168201915b505050505081526020016002820160009054906101000a900460ff1660ff1660ff16815250508152602001600782016060604051908101604052908160008201548152602001600182018054600181600116156101000203166002900480601f01602080910402602001604051908101604052809291908181526020018280546001816001161561010002031660029004801561257c5780601f106125515761010080835404028352916020019161257c565b820191906000526020600020905b81548152906001019060200180831161255f57829003601f168201915b505050505081526020016002820160009054906101000a900460ff1660ff1660ff16815250508152602001600a8201548152602001600b82015481525050905080602001518161010001518260400151836060015184608001518560e001518660a00151600001518760a00151602001518860a00151604001518960c00151600001518a60c00151602001518b60c00151604001518494508191509c509c509c509c509c509c509c509c509c509c509c509c505091939597999b5091939597999b565b6000809054906101000a900473ffffffffffffffffffffffffffffffffffffffff1673ffffffffffffffffffffffffffffffffffffffff163373ffffffffffffffffffffffffffffffffffffffff16141515612703576040517f08c379a00000000000000000000000000000000000000000000000000000000081526004018080602001828103825260208152602001807f4f776e61626c653a2063616c6c6572206973206e6f7420746865206f776e657281525060200191505060405180910390fd5b806009819055507f016810b2453fd6fa62348747e56186a28bfab39f0326d594aa954c3421996500816040518082815260200191505060405180910390a150565b600160009054906101000a900473ffffffffffffffffffffffffffffffffffffffff1673ffffffffffffffffffffffffffffffffffffffff163373ffffffffffffffffffffffffffffffffffffffff16141515612809576040517f08c379a00000000000000000000000000000000000000000000000000000000081526004018080602001828103825260168152602001807f50656e64696e67206f776e65722072657175697265640000000000000000000081525060200191505060405180910390fd5b600160009054906101000a900473ffffffffffffffffffffffffffffffffffffffff1673ffffffffffffffffffffffffffffffffffffffff166000809054906101000a900473ffffffffffffffffffffffffffffffffffffffff1673ffffffffffffffffffffffffffffffffffffffff167f8be0079c531659141344cd1fd0a4f28419497f9722a3daafe3b4186f6b6457e060405160405180910390a3600160009054906101000a900473ffffffffffffffffffffffffffffffffffffffff166000806101000a81548173ffffffffffffffffffffffffffffffffffffffff021916908373ffffffffffffffffffffffffffffffffffffffff1602179055506000600160006101000a81548173ffffffffffffffffffffffffffffffffffffffff021916908373ffffffffffffffffffffffffffffffffffffffff160217905550565b600080600080873373ffffffffffffffffffffffffffffffffffffffff16600c8267ffffffffffffffff1681548110151561298357fe5b90600052602060002090600c020160020160009054906101000a900473ffffffffffffffffffffffffffffffffffffffff1673ffffffffffffffffffffffffffffffffffffffff161480612a4c57503373ffffffffffffffffffffffffffffffffffffffff16600c8267ffffffffffffffff16815481101515612a0257fe5b90600052602060002090600c020160030160009054906101000a900473ffffffffffffffffffffffffffffffffffffffff1673ffffffffffffffffffffffffffffffffffffffff16145b1515612ac0576040517f08c379a00000000000000000000000000000000000000000000000000000000081526004018080602001828103825260108152602001807f6e6565642067616d6520706c617965720000000000000000000000000000000081525060200191505060405180910390fd5b886001600a60009054906101000a900467ffffffffffffffff1667ffffffffffffffff168267ffffffffffffffff16101515612b64576040517f08c379a000000000000000000000000000000000000000000000000000000000815260040180806020018281038252600d8152602001807f77726f6e672067616d652069640000000000000000000000000000000000000081525060200191505060405180910390fd5b8060ff16600c8367ffffffffffffffff16815481101515612b8157fe5b90600052602060002090600c020160030160149054906101000a900460ff1660ff16141515612c18576040517f08c379a00000000000000000000000000000000000000000000000000000000081526004018080602001828103825260118152602001807f77726f6e672067616d652073746174757300000000000000000000000000000081525060200191505060405180910390fd5b600c8b67ffffffffffffffff16815481101515612c3157fe5b90600052602060002090600c020196503373ffffffffffffffffffffffffffffffffffffffff168760020160009054906101000a900473ffffffffffffffffffffffffffffffffffffffff1673ffffffffffffffffffffffffffffffffffffffff161415612ca457866004019550612cab565b8660070195505b612cec86600001548b8b8080601f0160208091040260200160405190810160405280939291908181526020018383808284378201915050505050508a615008565b9450841515612d63576040517f08c379a00000000000000000000000000000000000000000000000000000000081526004018080602001828103825260148152602001807f77726f6e67206b6579206f7220636f6e74656e7400000000000000000000000081525060200191505060405180910390fd5b8989876001019190612d76929190616081565b50878660020160006101000a81548160ff021916908360ff1602179055508a67ffffffffffffffff167f98df0761314acbda7cfd71579a6da1b756ecf9f8de9d61c54a0a3b5c16db7897338c8c8c604051808573ffffffffffffffffffffffffffffffffffffffff1673ffffffffffffffffffffffffffffffffffffffff168152602001806020018360ff1660ff168152602001828103825285858281815260200192508082843782019150509550505050505060405180910390a260008760040160020160009054906101000a900460ff1660ff1614158015612e72575060008760070160020160009054906101000a900460ff1660ff1614155b15612eb657612ea98760040160020160009054906101000a900460ff168860070160020160009054906101000a900460ff16615118565b9350612eb58b85613f8f565b5b5050505050505050505050565b6000600260008373ffffffffffffffffffffffffffffffffffffffff1673ffffffffffffffffffffffffffffffffffffffff168152602001908152602001600020549050919050565b6000809054906101000a900473ffffffffffffffffffffffffffffffffffffffff1673ffffffffffffffffffffffffffffffffffffffff163373ffffffffffffffffffffffffffffffffffffffff16141515612fd0576040517f08c379a00000000000000000000000000000000000000000000000000000000081526004018080602001828103825260208152602001807f4f776e61626c653a2063616c6c6572206973206e6f7420746865206f776e657281525060200191505060405180910390fd5b612fda60006151cf565b565b600160149054906101000a900460ff161515613086576040517f08c379a00000000000000000000000000000000000000000000000000000000081526004018080602001828103825260238152602001807f436f6e747261637420686173206265656e2064697361626c6564206279206f7781526020017f6e6572000000000000000000000000000000000000000000000000000000000081525060400191505060405180910390fd5b61309082826146ca565b505050565b6000809054906101000a900473ffffffffffffffffffffffffffffffffffffffff1673ffffffffffffffffffffffffffffffffffffffff163373ffffffffffffffffffffffffffffffffffffffff16141515613159576040517f08c379a00000000000000000000000000000000000000000000000000000000081526004018080602001828103825260208152602001807f4f776e61626c653a2063616c6c6572206973206e6f7420746865206f776e657281525060200191505060405180910390fd5b6000600160146101000a81548160ff021916908315150217905550600160149054906101000a900460ff1615157f44cd398f157fa2dcc23e1a3238d8ec602ef8ed03c90372c10918d81d69e36ab160405160405180910390a2565b6000809054906101000a900473ffffffffffffffffffffffffffffffffffffffff1681565b606060058054600181600116156101000203166002900480601f0160208091040260200160405190810160405280929190818152602001828054600181600116156101000203166002900480156132715780601f1061324657610100808354040283529160200191613271565b820191906000526020600020905b81548152906001019060200180831161325457829003601f168201915b5050505050905090565b6000809054906101000a900473ffffffffffffffffffffffffffffffffffffffff1673ffffffffffffffffffffffffffffffffffffffff163373ffffffffffffffffffffffffffffffffffffffff1614151561333f576040517f08c379a00000000000000000000000000000000000000000000000000000000081526004018080602001828103825260208152602001807f4f776e61626c653a2063616c6c6572206973206e6f7420746865206f776e657281525060200191505060405180910390fd5b80600a600c6101000a81548173ffffffffffffffffffffffffffffffffffffffff021916908373ffffffffffffffffffffffffffffffffffffffff16021790555080600b60006101000a81548173ffffffffffffffffffffffffffffffffffffffff021916908373ffffffffffffffffffffffffffffffffffffffff16021790555050565b6000826000600a60009054906101000a900467ffffffffffffffff1667ffffffffffffffff168267ffffffffffffffff1610151561346a576040517f08c379a000000000000000000000000000000000000000000000000000000000815260040180806020018281038252600d8152602001807f77726f6e672067616d652069640000000000000000000000000000000000000081525060200191505060405180910390fd5b8060ff16600c8367ffffffffffffffff1681548110151561348757fe5b90600052602060002090600c020160030160149054906101000a900460ff1660ff1614151561351e576040517f08c379a00000000000000000000000000000000000000000000000000000000081526004018080602001828103825260118152602001807f77726f6e672067616d652073746174757300000000000000000000000000000081525060200191505060405180910390fd5b8461352881613c6a565b15151561359d576040517f08c379a000000000000000000000000000000000000000000000000000000000815260040180806020018281038252600b8152602001807f74696d65206973206f757400000000000000000000000000000000000000000081525060200191505060405180910390fd5b600d60008767ffffffffffffffff1667ffffffffffffffff16815260200190815260200160002054935060008411156135e0576135db868686615293565b6135eb565b6135ea8686615654565b5b505050505050565b600061368e338461368985600360003373ffffffffffffffffffffffffffffffffffffffff1673ffffffffffffffffffffffffffffffffffffffff16815260200190815260200160002060008973ffffffffffffffffffffffffffffffffffffffff1673ffffffffffffffffffffffffffffffffffffffff1681526020019081526020016000205461468090919063ffffffff16565b6139e9565b6001905092915050565b60006136a53384846142f8565b6001905092915050565b6000809054906101000a900473ffffffffffffffffffffffffffffffffffffffff1673ffffffffffffffffffffffffffffffffffffffff163373ffffffffffffffffffffffffffffffffffffffff16141515613773576040517f08c379a00000000000000000000000000000000000000000000000000000000081526004018080602001828103825260208152602001807f4f776e61626c653a2063616c6c6572206973206e6f7420746865206f776e657281525060200191505060405180910390fd5b670de0b6b3a764000081101515156137f3576040517f08c379a000000000000000000000000000000000000000000000000000000000815260040180806020018281038252600c8152602001807f6c696d697420746f206c6f77000000000000000000000000000000000000000081525060200191505060405180910390fd5b806008819055507f44c8ef68dcc036e569158e914a009e3f02c9e933580e31424a1ae67728df7465816040518082815260200191505060405180910390a150565b6000600360008473ffffffffffffffffffffffffffffffffffffffff1673ffffffffffffffffffffffffffffffffffffffff16815260200190815260200160002060008373ffffffffffffffffffffffffffffffffffffffff1673ffffffffffffffffffffffffffffffffffffffff16815260200190815260200160002054905092915050565b600160009054906101000a900473ffffffffffffffffffffffffffffffffffffffff1681565b6000809054906101000a900473ffffffffffffffffffffffffffffffffffffffff1673ffffffffffffffffffffffffffffffffffffffff163373ffffffffffffffffffffffffffffffffffffffff161415156139a5576040517f08c379a00000000000000000000000000000000000000000000000000000000081526004018080602001828103825260208152602001807f4f776e61626c653a2063616c6c6572206973206e6f7420746865206f776e657281525060200191505060405180910390fd5b80600160006101000a81548173ffffffffffffffffffffffffffffffffffffffff021916908373ffffffffffffffffffffffffffffffffffffffff16021790555050565b600073ffffffffffffffffffffffffffffffffffffffff168373ffffffffffffffffffffffffffffffffffffffff1614151515613ab4576040517f08c379a00000000000000000000000000000000000000000000000000000000081526004018080602001828103825260248152602001807f45524332303a20617070726f76652066726f6d20746865207a65726f2061646481526020017f726573730000000000000000000000000000000000000000000000000000000081525060400191505060405180910390fd5b600073ffffffffffffffffffffffffffffffffffffffff168273ffffffffffffffffffffffffffffffffffffffff1614151515613b7f576040517f08c379a00000000000000000000000000000000000000000000000000000000081526004018080602001828103825260228152602001807f45524332303a20617070726f766520746f20746865207a65726f20616464726581526020017f737300000000000000000000000000000000000000000000000000000000000081525060400191505060405180910390fd5b80600360008573ffffffffffffffffffffffffffffffffffffffff1673ffffffffffffffffffffffffffffffffffffffff16815260200190815260200160002060008473ffffffffffffffffffffffffffffffffffffffff1673ffffffffffffffffffffffffffffffffffffffff168152602001908152602001600020819055508173ffffffffffffffffffffffffffffffffffffffff168373ffffffffffffffffffffffffffffffffffffffff167f8c5be1e5ebec7d5bd14f71427d1e84f3dd0314c0f7b2291e5b200ac8c7c3b925836040518082815260200191505060405180910390a3505050565b6000613c74615fca565b600c8367ffffffffffffffff16815481101515613c8d57fe5b90600052602060002090600c020161012060405190810160405290816000820160009054906101000a900467ffffffffffffffff1667ffffffffffffffff1667ffffffffffffffff168152602001600182015481526020016002820160009054906101000a900473ffffffffffffffffffffffffffffffffffffffff1673ffffffffffffffffffffffffffffffffffffffff1673ffffffffffffffffffffffffffffffffffffffff1681526020016003820160009054906101000a900473ffffffffffffffffffffffffffffffffffffffff1673ffffffffffffffffffffffffffffffffffffffff1673ffffffffffffffffffffffffffffffffffffffff1681526020016003820160149054906101000a900460ff1660ff1660ff168152602001600482016060604051908101604052908160008201548152602001600182018054600181600116156101000203166002900480601f016020809104026020016040519081016040528092919081815260200182805460018160011615610100020316600290048015613e615780601f10613e3657610100808354040283529160200191613e61565b820191906000526020600020905b815481529060010190602001808311613e4457829003601f168201915b505050505081526020016002820160009054906101000a900460ff1660ff1660ff16815250508152602001600782016060604051908101604052908160008201548152602001600182018054600181600116156101000203166002900480601f016020809104026020016040519081016040528092919081815260200182805460018160011615610100020316600290048015613f3f5780601f10613f1457610100808354040283529160200191613f3f565b820191906000526020600020905b815481529060010190602001808311613f2257829003601f168201915b505050505081526020016002820160009054906101000a900460ff1660ff1660ff16815250508152602001600a8201548152602001600b820154815250509050428160e001511115915050919050565b6000600c8367ffffffffffffffff16815481101515613faa57fe5b90600052602060002090600c0201905060018260000b1415614069578060020160009054906101000a900473ffffffffffffffffffffffffffffffffffffffff1673ffffffffffffffffffffffffffffffffffffffff166108fc82600101549081150290604051600060405180830381858888f19350505050158015614034573d6000803e3d6000fd5b506140648160020160009054906101000a900473ffffffffffffffffffffffffffffffffffffffff166003615946565b61428d565b7fffffffffffffffffffffffffffffffffffffffffffffffffffffffffffffffff8260000b1415614137578060030160009054906101000a900473ffffffffffffffffffffffffffffffffffffffff1673ffffffffffffffffffffffffffffffffffffffff166108fc82600101549081150290604051600060405180830381858888f19350505050158015614102573d6000803e3d6000fd5b506141328160030160009054906101000a900473ffffffffffffffffffffffffffffffffffffffff166003615946565b61428c565b8060020160009054906101000a900473ffffffffffffffffffffffffffffffffffffffff1673ffffffffffffffffffffffffffffffffffffffff166108fc6002836001015481151561418557fe5b049081150290604051600060405180830381858888f193505050501580156141b1573d6000803e3d6000fd5b508060030160009054906101000a900473ffffffffffffffffffffffffffffffffffffffff1673ffffffffffffffffffffffffffffffffffffffff166108fc6002836001015481151561420057fe5b049081150290604051600060405180830381858888f1935050505015801561422c573d6000803e3d6000fd5b5061425c8160020160009054906101000a900473ffffffffffffffffffffffffffffffffffffffff166001615946565b61428b8160030160009054906101000a900473ffffffffffffffffffffffffffffffffffffffff166001615946565b5b5b60028160030160146101000a81548160ff021916908360ff1602179055508267ffffffffffffffff167f3598a14b08a100ac75597e6f8e8309dfd773210d8ff4be917cebe132e82b7e5183604051808260000b60000b815260200191505060405180910390a2505050565b600073ffffffffffffffffffffffffffffffffffffffff168373ffffffffffffffffffffffffffffffffffffffff16141515156143c3576040517f08c379a00000000000000000000000000000000000000000000000000000000081526004018080602001828103825260258152602001807f45524332303a207472616e736665722066726f6d20746865207a65726f20616481526020017f647265737300000000000000000000000000000000000000000000000000000081525060400191505060405180910390fd5b600073ffffffffffffffffffffffffffffffffffffffff168273ffffffffffffffffffffffffffffffffffffffff161415151561448e576040517f08c379a00000000000000000000000000000000000000000000000000000000081526004018080602001828103825260238152602001807f45524332303a207472616e7366657220746f20746865207a65726f206164647281526020017f657373000000000000000000000000000000000000000000000000000000000081525060400191505060405180910390fd5b61453e81606060405190810160405280602681526020017f45524332303a207472616e7366657220616d6f756e742065786365656473206281526020017f616c616e63650000000000000000000000000000000000000000000000000000815250600260008773ffffffffffffffffffffffffffffffffffffffff1673ffffffffffffffffffffffffffffffffffffffff168152602001908152602001600020546159549092919063ffffffff16565b600260008573ffffffffffffffffffffffffffffffffffffffff1673ffffffffffffffffffffffffffffffffffffffff168152602001908152602001600020819055506145d381600260008573ffffffffffffffffffffffffffffffffffffffff1673ffffffffffffffffffffffffffffffffffffffff16815260200190815260200160002054614f7e90919063ffffffff16565b600260008473ffffffffffffffffffffffffffffffffffffffff1673ffffffffffffffffffffffffffffffffffffffff168152602001908152602001600020819055508173ffffffffffffffffffffffffffffffffffffffff168373ffffffffffffffffffffffffffffffffffffffff167fddf252ad1be2c89b69c2b068fc378daa952ba7f163c4a11628f55a4df523b3ef836040518082815260200191505060405180910390a3505050565b60006146c283836040805190810160405280601e81526020017f536166654d6174683a207375627472616374696f6e206f766572666c6f770000815250615954565b905092915050565b60006146d461605c565b6146dc61605c565b6146e4615fca565b60606040519081016040528087815260200160206040519081016040528060008152508152602001600060ff1681525092506060604051908101604052806000815260200160206040519081016040528060008152508152602001600060ff16815250915061012060405190810160405280600a60009054906101000a900467ffffffffffffffff1667ffffffffffffffff1681526020013481526020013373ffffffffffffffffffffffffffffffffffffffff168152602001600073ffffffffffffffffffffffffffffffffffffffff168152602001600060ff16815260200184815260200183815260200160095442018152602001868152509050600a600081819054906101000a900467ffffffffffffffff168092919060010191906101000a81548167ffffffffffffffff021916908367ffffffffffffffff16021790555050600c819080600181540180825580915050906001820390600052602060002090600c02016000909192909190915060008201518160000160006101000a81548167ffffffffffffffff021916908367ffffffffffffffff1602179055506020820151816001015560408201518160020160006101000a81548173ffffffffffffffffffffffffffffffffffffffff021916908373ffffffffffffffffffffffffffffffffffffffff16021790555060608201518160030160006101000a81548173ffffffffffffffffffffffffffffffffffffffff021916908373ffffffffffffffffffffffffffffffffffffffff16021790555060808201518160030160146101000a81548160ff021916908360ff16021790555060a08201518160040160008201518160000155602082015181600101908051906020019061496d929190616101565b5060408201518160020160006101000a81548160ff021916908360ff160217905550505060c0820151816007016000820151816000015560208201518160010190805190602001906149c0929190616101565b5060408201518160020160006101000a81548160ff021916908360ff160217905550505060e082015181600a015561010082015181600b0155505050806000015167ffffffffffffffff167f04b3f072ec09d8a8e42d32becc4b8f5907ae8e1840ab37c6698647fd2ecf24458260400151883489604051808573ffffffffffffffffffffffffffffffffffffffff1673ffffffffffffffffffffffffffffffffffffffff16815260200184815260200183815260200182815260200194505050505060405180910390a28060000151935050505092915050565b606082600073ffffffffffffffffffffffffffffffffffffffff16600a600c9054906101000a900473ffffffffffffffffffffffffffffffffffffffff1673ffffffffffffffffffffffffffffffffffffffff1614151515614b64576040517f08c379a00000000000000000000000000000000000000000000000000000000081526004018080602001828103825260158152602001807f4e6f2067726f757020636861742061646472657373000000000000000000000081525060200191505060405180910390fd5b600b60009054906101000a900473ffffffffffffffffffffffffffffffffffffffff1673ffffffffffffffffffffffffffffffffffffffff166347b84f4182336040518363ffffffff167c0100000000000000000000000000000000000000000000000000000000028152600401808381526020018273ffffffffffffffffffffffffffffffffffffffff1673ffffffffffffffffffffffffffffffffffffffff16815260200192505050602060405180830381600087803b158015614c2957600080fd5b505af1158015614c3d573d6000803e3d6000fd5b505050506040513d6020811015614c5357600080fd5b81019080805190602001909291905050501515614cd8576040517f08c379a00000000000000000000000000000000000000000000000000000000081526004018080602001828103825260198152602001807f596f7520617265206e6f7420696e20746869732067726f75700000000000000081525060200191505060405180910390fd5b600b60009054906101000a900473ffffffffffffffffffffffffffffffffffffffff1673ffffffffffffffffffffffffffffffffffffffff16638ed5788182336040518363ffffffff167c0100000000000000000000000000000000000000000000000000000000028152600401808381526020018273ffffffffffffffffffffffffffffffffffffffff1673ffffffffffffffffffffffffffffffffffffffff16815260200192505050602060405180830381600087803b158015614d9d57600080fd5b505af1158015614db1573d6000803e3d6000fd5b505050506040513d6020811015614dc757600080fd5b8101908080519060200190929190505050151515614e4d576040517f08c379a00000000000000000000000000000000000000000000000000000000081526004018080602001828103825260148152602001807f596f752068617665206265656e2062616e6e656400000000000000000000000081525060200191505060405180910390fd5b614e608367ffffffffffffffff16615a15565b9150600b60009054906101000a900473ffffffffffffffffffffffffffffffffffffffff1673ffffffffffffffffffffffffffffffffffffffff1663aae8b59285846040518363ffffffff167c01000000000000000000000000000000000000000000000000000000000281526004018083815260200180602001828103825283818151815260200191508051906020019080838360005b83811015614f13578082015181840152602081019050614ef8565b50505050905090810190601f168015614f405780820380516001836020036101000a031916815260200191505b509350505050600060405180830381600087803b158015614f6057600080fd5b505af1158015614f74573d6000803e3d6000fd5b5050505050505050565b6000808284019050838110151515614ffe576040517f08c379a000000000000000000000000000000000000000000000000000000000815260040180806020018281038252601b8152602001807f536166654d6174683a206164646974696f6e206f766572666c6f77000000000081525060200191505060405180910390fd5b8091505092915050565b600082826040516020018083805190602001908083835b602083101515615044578051825260208201915060208101905060208303925061501f565b6001836020036101000a0380198251168184511680821785525050505050509050018260ff1660ff167f0100000000000000000000000000000000000000000000000000000000000000028152600101925050506040516020818303038152906040526040518082805190602001908083835b6020831015156150dc57805182526020820191506020810190506020830392506150b7565b6001836020036101000a038019825116818451168082178552505050505050905001915050604051809103902060019004841490509392505050565b600080828403905060018160000b148061515457507ffffffffffffffffffffffffffffffffffffffffffffffffffffffffffffffffe8160000b145b1561516257600191506151c8565b7fffffffffffffffffffffffffffffffffffffffffffffffffffffffffffffffff8160000b1480615196575060028160000b145b156151c3577fffffffffffffffffffffffffffffffffffffffffffffffffffffffffffffffff91506151c8565b600091505b5092915050565b60008060009054906101000a900473ffffffffffffffffffffffffffffffffffffffff169050816000806101000a81548173ffffffffffffffffffffffffffffffffffffffff021916908373ffffffffffffffffffffffffffffffffffffffff1602179055508173ffffffffffffffffffffffffffffffffffffffff168173ffffffffffffffffffffffffffffffffffffffff167f8be0079c531659141344cd1fd0a4f28419497f9722a3daafe3b4186f6b6457e060405160405180910390a35050565b80600073ffffffffffffffffffffffffffffffffffffffff16600a600c9054906101000a900473ffffffffffffffffffffffffffffffffffffffff1673ffffffffffffffffffffffffffffffffffffffff161415151561535b576040517f08c379a00000000000000000000000000000000000000000000000000000000081526004018080602001828103825260158152602001807f4e6f2067726f757020636861742061646472657373000000000000000000000081525060200191505060405180910390fd5b600b60009054906101000a900473ffffffffffffffffffffffffffffffffffffffff1673ffffffffffffffffffffffffffffffffffffffff166347b84f4182336040518363ffffffff167c0100000000000000000000000000000000000000000000000000000000028152600401808381526020018273ffffffffffffffffffffffffffffffffffffffff1673ffffffffffffffffffffffffffffffffffffffff16815260200192505050602060405180830381600087803b15801561542057600080fd5b505af1158015615434573d6000803e3d6000fd5b505050506040513d602081101561544a57600080fd5b810190808051906020019092919050505015156154cf576040517f08c379a00000000000000000000000000000000000000000000000000000000081526004018080602001828103825260198152602001807f596f7520617265206e6f7420696e20746869732067726f75700000000000000081525060200191505060405180910390fd5b600b60009054906101000a900473ffffffffffffffffffffffffffffffffffffffff1673ffffffffffffffffffffffffffffffffffffffff16638ed5788182336040518363ffffffff167c0100000000000000000000000000000000000000000000000000000000028152600401808381526020018273ffffffffffffffffffffffffffffffffffffffff1673ffffffffffffffffffffffffffffffffffffffff16815260200192505050602060405180830381600087803b15801561559457600080fd5b505af11580156155a8573d6000803e3d6000fd5b505050506040513d60208110156155be57600080fd5b8101908080519060200190929190505050151515615644576040517f08c379a00000000000000000000000000000000000000000000000000000000081526004018080602001828103825260148152602001807f596f752068617665206265656e2062616e6e656400000000000000000000000081525060200191505060405180910390fd5b61564e8484615654565b50505050565b600061565e61605c565b600c8467ffffffffffffffff1681548110151561567757fe5b90600052602060002090600c0201915060606040519081016040528084815260200160206040519081016040528060008152508152602001600060ff16815250905081600b01543410151515615735576040517f08c379a000000000000000000000000000000000000000000000000000000000815260040180806020018281038252600d8152602001807f77726f6e672062616c616e63650000000000000000000000000000000000000081525060200191505060405180910390fd5b81600b015434111561578f573373ffffffffffffffffffffffffffffffffffffffff166108fc83600b015434039081150290604051600060405180830381858888f1935050505015801561578d573d6000803e3d6000fd5b505b338260030160006101000a81548173ffffffffffffffffffffffffffffffffffffffff021916908373ffffffffffffffffffffffffffffffffffffffff16021790555080826007016000820151816000015560208201518160010190805190602001906157fd929190616101565b5060408201518160020160006101000a81548160ff021916908360ff16021790555090505081600b01548260010154018260010181905550426009540182600a018190555060018260030160146101000a81548160ff021916908360ff16021790555061588f8260020160009054906101000a900473ffffffffffffffffffffffffffffffffffffffff166002615946565b6158be8260030160009054906101000a900473ffffffffffffffffffffffffffffffffffffffff166001615946565b8367ffffffffffffffff167f6030de52daebee6c07b2f6f4b2e8ba8707191b786719c3a2ece9cda6278e1e53338585600b0154604051808473ffffffffffffffffffffffffffffffffffffffff1673ffffffffffffffffffffffffffffffffffffffff168152602001838152602001828152602001935050505060405180910390a250505050565b6159508282615ae3565b5050565b6000808484111583901515615a04576040517f08c379a00000000000000000000000000000000000000000000000000000000081526004018080602001828103825283818151815260200191508051906020019080838360005b838110156159c95780820151818401526020810190506159ae565b50505050905090810190601f1680156159f65780820380516001836020036101000a031916815260200191505b509250505060405180910390fd5b508385039050809150509392505050565b6060806060806060615a2686615ca2565b93506040805190810160405280601281526020017f7b226d657373616765223a7b22736571223a00000000000000000000000000008152509250606060405190810160405280602281526020017f7d2c2274797065223a2268616e6767616d65222c2276657273696f6e223a223181526020017f227d0000000000000000000000000000000000000000000000000000000000008152509150615ac98385615df9565b9050615ad58183615df9565b905080945050505050919050565b600073ffffffffffffffffffffffffffffffffffffffff168273ffffffffffffffffffffffffffffffffffffffff1614151515615b88576040517f08c379a000000000000000000000000000000000000000000000000000000000815260040180806020018281038252601f8152602001807f45524332303a206d696e7420746f20746865207a65726f20616464726573730081525060200191505060405180910390fd5b615b9d81600754614f7e90919063ffffffff16565b600781905550615bf581600260008573ffffffffffffffffffffffffffffffffffffffff1673ffffffffffffffffffffffffffffffffffffffff16815260200190815260200160002054614f7e90919063ffffffff16565b600260008473ffffffffffffffffffffffffffffffffffffffff1673ffffffffffffffffffffffffffffffffffffffff168152602001908152602001600020819055508173ffffffffffffffffffffffffffffffffffffffff16600073ffffffffffffffffffffffffffffffffffffffff167fddf252ad1be2c89b69c2b068fc378daa952ba7f163c4a11628f55a4df523b3ef836040518082815260200191505060405180910390a35050565b60606000806060600080861415615cf0576040805190810160405280600181526020017f30000000000000000000000000000000000000000000000000000000000000008152509450615df0565b8593505b600084141515615d1a578280600101935050600a84811515615d1257fe5b049350615cf4565b826040519080825280601f01601f191660200182016040528015615d4d5781602001602082028038833980820191505090505b5091506001830390505b600086141515615dec57600a86811515615d6d57fe5b066030017f010000000000000000000000000000000000000000000000000000000000000002828280600190039350815181101515615da857fe5b9060200101907effffffffffffffffffffffffffffffffffffffffffffffffffffffffffffff1916908160001a905350600a86811515615de457fe5b049550615d57565b8194505b50505050919050565b606080606080606060008088955087945084518651016040519080825280601f01601f191660200182016040528015615e415781602001602082028038833980820191505090505b50935083925060009150600090505b8551811015615f03578581815181101515615e6757fe5b9060200101517f010000000000000000000000000000000000000000000000000000000000000090047f0100000000000000000000000000000000000000000000000000000000000000028383806001019450815181101515615ec657fe5b9060200101907effffffffffffffffffffffffffffffffffffffffffffffffffffffffffffff1916908160001a9053508080600101915050615e50565b600090505b8451811015615fbb578481815181101515615f1f57fe5b9060200101517f010000000000000000000000000000000000000000000000000000000000000090047f0100000000000000000000000000000000000000000000000000000000000000028383806001019450815181101515615f7e57fe5b9060200101907effffffffffffffffffffffffffffffffffffffffffffffffffffffffffffff1916908160001a9053508080600101915050615f08565b82965050505050505092915050565b6101a060405190810160405280600067ffffffffffffffff16815260200160008152602001600073ffffffffffffffffffffffffffffffffffffffff168152602001600073ffffffffffffffffffffffffffffffffffffffff168152602001600060ff16815260200161603b616181565b8152602001616048616181565b815260200160008152602001600081525090565b6060604051908101604052806000815260200160608152602001600060ff1681525090565b828054600181600116156101000203166002900490600052602060002090601f016020900481019282601f106160c257803560ff19168380011785556160f0565b828001600101855582156160f0579182015b828111156160ef5782358255916020019190600101906160d4565b5b5090506160fd91906161a6565b5090565b828054600181600116156101000203166002900490600052602060002090601f016020900481019282601f1061614257805160ff1916838001178555616170565b82800160010185558215616170579182015b8281111561616f578251825591602001919060010190616154565b5b50905061617d91906161a6565b5090565b6060604051908101604052806000815260200160608152602001600060ff1681525090565b6161c891905b808211156161c45760008160009055506001016161ac565b5090565b905600a165627a7a72305820b82787e93a14a708a807e822b722045b0237b6c3f58eff4d45101607b41aa7e90029",
  "source": "// SPDX-License-Identifier: MIT\npragma solidity >=0.4.22 <0.9.0;\nimport \"./interfaces/IGame.sol\";\nimport \"./interfaces/IPlayer.sol\";\nimport \"./interfaces/IStarter.sol\";\nimport \"./interfaces/IGroupChat.sol\";\nimport \"@cpchain-tools/cpchain-dapps-utils/contracts/lifecycle/Enable.sol\";\nimport \"@cpchain-tools/cpchain-dapps-utils/contracts/token/ERC20/ERC20.sol\";\n\ncontract Game is IGame, IStarter, IPlayer, Enable, ERC20 {\n    uint256 private maxLimit = 1000 ether;\n    uint256 private timeoutLimit = 10 minutes;\n    uint64 private totalGameNumber = 0;\n    uint32 private viewCountLimit = 10;\n    // uint32 public topPlayerLength = 3;\n    // address[] public topPlayerList;\n\n    address private groupChatAddress;\n    IGroupChat private groupchatInstance;\n\n    constructor()\n        public\n        ERC20(\"RPS\", \"Rock paper scissors game score\", 18, 0)\n    {}\n\n    struct GameCard {\n        uint256 card;\n        string key;\n        //1 Rock  2 Paper 3 Scissors  0 unknown\n        uint8 content;\n    }\n    struct HandGame {\n        uint64 gameId;\n        uint256 amount;\n        address starter;\n        address player;\n        //0 started, 1 locked,2,finished,3 cancel,\n        uint8 status;\n        GameCard starterCard;\n        GameCard playerCard;\n        uint256 timeout;\n        uint256 threshold;\n    }\n\n    HandGame[] private games;\n    mapping(uint64 => uint256) internal gameToGroup;\n\n    modifier onlyActivatedGroupMember(uint256 group_id) {\n        require(groupChatAddress != address(0x0), \"No group chat address\");\n        require(\n            groupchatInstance.has(group_id, msg.sender),\n            \"You are not in this group\"\n        );\n        require(\n            !groupchatInstance.isBanned(group_id, msg.sender),\n            \"You have been banned\"\n        );\n        _;\n    }\n    modifier onlyPlayer(uint64 gameId) {\n        require(\n            games[gameId].starter == msg.sender ||\n                games[gameId].player == msg.sender,\n            \"need game player\"\n        );\n        _;\n    }\n\n    modifier onlyTimeout(uint64 gameId) {\n        require(_isTimeout(gameId), \"need game time out\");\n        _;\n    }\n\n    modifier notTimeout(uint64 gameId) {\n        require(!_isTimeout(gameId), \"time is out\");\n        _;\n    }\n\n    // modifier onlyGameStarted(uint64 gameId) {\n    //     require(gameId < totalGameNumber, \"wrong game id\");\n    //     _;\n    // }\n\n    modifier needGameStatus(uint64 gameId, uint8 status) {\n        require(gameId < totalGameNumber, \"wrong game id\");\n        require(games[gameId].status == status, \"wrong game status\");\n        _;\n    }\n\n    // contract owner methods\n\n    function setGroupChat(address groupchat) public onlyOwner {\n        groupChatAddress = groupchat;\n        groupchatInstance = IGroupChat(groupchat);\n    }\n\n    function setMaxLimit(uint256 limit) external onlyOwner {\n        require(limit >= 1 ether, \"limit to low\");\n        maxLimit = limit;\n        emit SetMaxLimit(limit);\n    }\n\n    function setTimeoutLimit(uint256 limit) external onlyOwner {\n        timeoutLimit = limit;\n        emit SetTimeoutLimit(limit);\n    }\n\n    // function viewTopPlayers() external view returns (address[]) {\n    //     return topPlayerList;\n    // }\n\n    // view\n    function viewGame(uint64 gameId)\n        external\n        view\n        returns (\n            uint256,\n            uint256,\n            address,\n            address,\n            uint8,\n            uint256,\n            uint256,\n            string,\n            uint8,\n            uint256,\n            string,\n            uint8\n        )\n    {\n        require(gameId < totalGameNumber, \"wrong game id\");\n        HandGame memory game = games[gameId];\n        return (\n            game.amount,\n            game.threshold,\n            game.starter,\n            game.player,\n            game.status,\n            game.timeout,\n            game.starterCard.card,\n            game.starterCard.key,\n            game.starterCard.content,\n            game.playerCard.card,\n            game.playerCard.key,\n            game.playerCard.content\n        );\n    }\n\n    /**\n     * view the lastest\n     */\n    function viewLatestGames(uint64 limit) external view returns (uint256[]) {\n        require(limit <= viewCountLimit, \"limit is too high\");\n        uint64 count = limit > totalGameNumber ? totalGameNumber : limit;\n        uint256[] memory _lastestGames = new uint256[](count * 7);\n        for (uint64 i = 0; i < count; i++) {\n            HandGame memory game = games[totalGameNumber - i - 1];\n            _lastestGames[i * 7 + 0] = uint256(game.gameId);\n            _lastestGames[i * 7 + 1] = game.amount;\n            _lastestGames[i * 7 + 2] = game.threshold;\n            _lastestGames[i * 7 + 3] = uint256(game.starter);\n            _lastestGames[i * 7 + 4] = uint256(game.player);\n            _lastestGames[i * 7 + 5] = uint256(game.status);\n            _lastestGames[i * 7 + 6] = game.timeout;\n        }\n\n        return (_lastestGames);\n    }\n\n    // game starter methods\n    function startGame(uint256 card, uint256 threshold)\n        external\n        payable\n        onlyEnabled\n    {\n        _createGame(card, threshold);\n    }\n\n    function startGroupChatGame(\n        uint256 card,\n        uint256 threshold,\n        uint256 group_id,\n        string userMessage\n    ) external payable onlyEnabled {\n        uint64 gameId = _createGame(card, threshold);\n        gameToGroup[gameId] = group_id;\n        _notifyGroup(group_id, gameId);\n        emit CreateGroupHandGame(\n            group_id,\n            gameId,\n            msg.sender,\n            userMessage,\n            msg.value,\n            threshold\n        );\n    }\n\n    function cancelGame(uint64 gameId)\n        external\n        onlyPlayer(gameId)\n        needGameStatus(gameId, 0)\n        onlyTimeout(gameId)\n    {\n        HandGame storage game = games[gameId];\n        game.status = 3;\n        msg.sender.transfer(game.amount);\n        emit GameCancelled(gameId);\n    }\n\n    // player methods\n    function joinGame(uint64 gameId, uint256 card)\n        external\n        payable\n        needGameStatus(gameId, 0)\n        notTimeout(gameId)\n    {\n        uint256 group_id = gameToGroup[gameId];\n        if (group_id > 0) {\n            _lockGroupGame(gameId, card, group_id);\n        } else {\n            _lockGame(gameId, card);\n        }\n    }\n\n    function openCard(\n        uint64 gameId,\n        string key,\n        uint8 content\n    ) external onlyPlayer(gameId) needGameStatus(gameId, 1) {\n        HandGame storage game = games[gameId];\n        GameCard storage card;\n        if (game.starter == msg.sender) {\n            card = game.starterCard;\n        } else {\n            card = game.playerCard;\n        }\n        bool validate = _validateCard(card.card, key, content);\n        require(validate, \"wrong key or content\");\n        card.key = key;\n        card.content = content;\n\n        emit CardOpened(gameId, msg.sender, key, content);\n\n        if (game.starterCard.content != 0 && game.playerCard.content != 0) {\n            int8 r = _winOrLose(\n                game.starterCard.content,\n                game.playerCard.content\n            );\n            _finishGame(gameId, r);\n        }\n    }\n\n    function finishTimeoutGame(uint64 gameId)\n        external\n        onlyPlayer(gameId)\n        needGameStatus(gameId, 1)\n        onlyTimeout(gameId)\n    {\n        HandGame memory game = games[gameId];\n        GameCard memory starter = game.starterCard;\n        GameCard memory player = game.playerCard;\n        if (starter.content != 0) {\n            _finishGame(gameId, 1);\n        } else if (player.content != 0) {\n            _finishGame(gameId, -1);\n        } else {\n            _finishGame(gameId, 0);\n        }\n    }\n\n    // private methods\n\n    function _notifyGroup(uint256 group_id, uint64 gameId)\n        internal\n        onlyActivatedGroupMember(group_id)\n    {\n        string memory message = _getMessageWithSeq(gameId);\n        groupchatInstance.sendMessage(group_id, message);\n    }\n\n    function _getMessageWithSeq(uint256 seq) private pure returns (string) {\n        string memory _id = uintToString(seq);\n        string memory msg0 = '{\"message\":{\"seq\":';\n        string memory msg1 = '},\"type\":\"hanggame\",\"version\":\"1\"}';\n        string memory message = strConcat(msg0, _id);\n        message = strConcat(message, msg1);\n        return message;\n    }\n\n    function _lockGroupGame(\n        uint64 gameId,\n        uint256 card,\n        uint256 group_id\n    ) private onlyActivatedGroupMember(group_id) {\n        _lockGame(gameId, card);\n    }\n\n    function _lockGame(uint64 gameId, uint256 card) private {\n        HandGame storage game = games[gameId];\n        GameCard memory playerCard = GameCard(card, \"\", 0);\n        require(msg.value >= game.threshold, \"wrong balance\");\n        // \n        if (msg.value > game.threshold) {\n            msg.sender.transfer(msg.value - game.threshold);\n        }\n        game.player = msg.sender;\n        game.playerCard = playerCard;\n        game.amount = game.amount + game.threshold;\n        game.timeout = timeoutLimit + block.timestamp;\n        game.status = 1;\n        _mintAndSort(game.starter, 2);\n        _mintAndSort(game.player, 1);\n        emit GameLocked(gameId, msg.sender, card, game.threshold);\n    }\n\n    function _createGame(uint256 card, uint256 threshold)\n        private\n        returns (uint64)\n    {\n        GameCard memory starter = GameCard(card, \"\", 0);\n        GameCard memory player = GameCard(0, \"\", 0);\n        HandGame memory game = HandGame(\n            totalGameNumber,\n            msg.value,\n            msg.sender,\n            address(0),\n            0,\n            starter,\n            player,\n            block.timestamp + timeoutLimit,\n            threshold\n        );\n        totalGameNumber++;\n        games.push(game);\n        emit GameStarted(game.gameId, game.starter, card, msg.value, threshold);\n        return game.gameId;\n    }\n\n    function _mintAndSort(address account, uint256 amount) private {\n        // uint256 preLastInListBalance = 0;\n        // if (topPlayerList.length >= topPlayerLength) {\n        //     preLastInListBalance = balanceOf(\n        //         topPlayerList[topPlayerList.length - 1]\n        //     );\n        // }\n\n        _mint(account, amount);\n        // int32 indexOf = _indexOfTopPlayerList(account);\n\n        // // list more than topPlayerLength\n        // if (topPlayerList.length >= topPlayerLength) {\n        //     // add new account to top list\n        //     if (balanceOf(account) > preLastInListBalance) {\n        //         if (indexOf < 0) {\n        //             topPlayerList[topPlayerList.length - 1] = account;\n        //             indexOf = int32(topPlayerList.length - 1);\n        //         }\n        //         _resortPlayerList(account, indexOf);\n        //     }\n        // } else {\n        //     // if account is not in top list,push and resort\n        //     if (indexOf < 0) {\n        //         topPlayerList.push(account);\n        //         indexOf = int32(topPlayerList.length - 1);\n        //     }\n        //     _resortPlayerList(account, indexOf);\n        // }\n    }\n\n    function strConcat(string _a, string _b) internal pure returns (string) {\n        bytes memory a = bytes(_a);\n        bytes memory b = bytes(_b);\n        string memory ab = new string(a.length + b.length);\n        bytes memory aAB = bytes(ab);\n        uint256 k = 0;\n        for (uint256 i = 0; i < a.length; i++) aAB[k++] = a[i];\n        for (i = 0; i < b.length; i++) aAB[k++] = b[i];\n        return string(aAB);\n    }\n\n    function uintToString(uint256 i) internal pure returns (string) {\n        if (i == 0) return \"0\";\n        uint256 j = i;\n        uint256 length;\n        while (j != 0) {\n            length++;\n            j /= 10;\n        }\n        bytes memory bstr = new bytes(length);\n        uint256 k = length - 1;\n        while (i != 0) {\n            bstr[k--] = bytes1(48 + (i % 10));\n            i /= 10;\n        }\n        return string(bstr);\n    }\n\n    // function _indexOfTopPlayerList(address account) internal returns (int32) {\n    //     int32 indexOf = -1;\n    //     for (uint256 i = 0; i < topPlayerList.length; i++) {\n    //         if (account == topPlayerList[i]) {\n    //             indexOf = int32(i);\n    //             break;\n    //         }\n    //     }\n    //     return indexOf;\n    // }\n\n    /**resort top list,need new player in tip list\n     */\n    // function _resortPlayerList(address account, int32 end) internal {\n    //     if (topPlayerList.length > 1) {\n    //         uint256 newBalance = balanceOf(account);\n    //         uint256 newIndex = uint256(end);\n    //         // find new location for account\n    //         for (uint256 i = 0; i < newIndex; i++) {\n    //             if (newBalance > balanceOf(topPlayerList[i])) {\n    //                 newIndex = i;\n    //                 break;\n    //             }\n    //         }\n\n    //         // if need to change the list\n    //         if (newIndex < uint256(end)) {\n    //             // change data after new location\n    //             for (uint256 j = uint256(end); j > newIndex; j--) {\n    //                 topPlayerList[j] = topPlayerList[j - 1];\n    //             }\n    //             topPlayerList[newIndex] = account;\n    //         }\n    //     }\n    // }\n\n    function _finishGame(uint64 gameId, int8 r) private {\n        HandGame storage game = games[gameId];\n        if (r == 1) {\n            game.starter.transfer(game.amount);\n            _mintAndSort(game.starter, 3);\n        } else if (r == -1) {\n            game.player.transfer(game.amount);\n            _mintAndSort(game.player, 3);\n        } else {\n            game.starter.transfer(game.amount / 2);\n            game.player.transfer(game.amount / 2);\n            _mintAndSort(game.starter, 1);\n            _mintAndSort(game.player, 1);\n        }\n        game.status = 2;\n        emit GameFinished(gameId, r);\n    }\n\n    function _isTimeout(uint64 gameId) private view returns (bool) {\n        HandGame memory game = games[gameId];\n        return (game.timeout <= block.timestamp);\n    }\n\n    function _validateCard(\n        uint256 card,\n        string key,\n        uint8 content\n    ) private view returns (bool) {\n        return (card == uint256(keccak256(abi.encodePacked(key, content))));\n    }\n\n    function _winOrLose(uint8 playerContent, uint8 otherContent)\n        private\n        view\n        returns (int8)\n    {\n        int8 r = int8(playerContent - otherContent);\n        if (r == 1 || r == -2) {\n            return 1;\n        } else if (r == -1 || r == 2) {\n            return -1;\n        } else {\n            return 0;\n        }\n    }\n}\n",
  "sourcePath": "/home/zhangk/Documents/github/cpchain-dapps-handgame/contracts/Game.sol",
  "compiler": {
    "name": "solc",
    "version": "0.4.25+commit.59dbf8f1.Linux.g++"
  },
  "schemaVersion": "3.4.4",
  "updatedAt": "2022-04-26T09:22:48.635Z",
  "devdoc": {
    "methods": {
      "allowance(address,address)": {
        "details": "See `IERC20.allowance`."
      },
      "approve(address,uint256)": {
        "details": "See `IERC20.approve`.     * Requirements:     * - `spender` cannot be the zero address."
      },
      "balanceOf(address)": {
        "details": "See `IERC20.balanceOf`."
      },
      "claimOwnership()": {
        "details": "Allows the pendingOwner address to finalize the transfer."
      },
      "decimals()": {
        "details": "Returns the number of decimals used to get its user representation. For example, if `decimals` equals `2`, a balance of `505` tokens should be displayed to a user as `5,05` (`505 / 10 ** 2`).     * Tokens usually opt for a value of 18, imitating the relationship between Ether and Wei.     * > Note that this information is only used for _display_ purposes: it in no way affects any of the arithmetic of the contract, including `IERC20.balanceOf` and `IERC20.transfer`."
      },
      "decreaseAllowance(address,uint256)": {
        "details": "Atomically decreases the allowance granted to `spender` by the caller.     * This is an alternative to `approve` that can be used as a mitigation for problems described in `IERC20.approve`.     * Emits an `Approval` event indicating the updated allowance.     * Requirements:     * - `spender` cannot be the zero address. - `spender` must have allowance for the caller of at least `subtractedValue`."
      },
      "disableContract()": {
        "details": "set contract disable"
      },
      "enableContract()": {
        "details": "set contract enable"
      },
      "increaseAllowance(address,uint256)": {
        "details": "Atomically increases the allowance granted to `spender` by the caller.     * This is an alternative to `approve` that can be used as a mitigation for problems described in `IERC20.approve`.     * Emits an `Approval` event indicating the updated allowance.     * Requirements:     * - `spender` cannot be the zero address."
      },
      "name()": {
        "details": "Returns the name of the token."
      },
      "renounceOwnership()": {
        "details": "Leaves the contract without owner. It will not be possible to call `onlyOwner` functions anymore. Can only be called by the current owner.     * NOTE: Renouncing ownership will leave the contract without an owner, thereby removing any functionality that is only available to the owner."
      },
      "symbol()": {
        "details": "Returns the symbol of the token, usually a shorter version of the name."
      },
      "totalSupply()": {
        "details": "See `IERC20.totalSupply`."
      },
      "transfer(address,uint256)": {
        "details": "See `IERC20.transfer`.     * Requirements:     * - `recipient` cannot be the zero address. - the caller must have a balance of at least `amount`."
      },
      "transferFrom(address,address,uint256)": {
        "details": "See `IERC20.transferFrom`.     * Emits an `Approval` event indicating the updated allowance. This is not required by the EIP. See the note at the beginning of `ERC20`;     * Requirements: - `sender` and `recipient` cannot be the zero address. - `sender` must have a balance of at least `value`. - the caller must have allowance for `sender`'s tokens of at least `amount`."
      },
      "transferOwnership(address)": {
        "details": "Allows the current owner to set the pendingOwner address.",
        "params": {
          "newOwner": "The address to transfer ownership to."
        }
      }
    }
  },
  "userdoc": {
    "methods": {
      "viewLatestGames(uint64)": {
        "notice": "view the lastest"
      }
    }
  }
}