{
  "contractName": "Game",
  "abi": [
    {
      "constant": true,
      "inputs": [
        {
          "name": "",
          "type": "uint256"
        }
      ],
      "name": "games",
      "outputs": [
        {
          "name": "gameId",
          "type": "uint64"
        },
        {
          "name": "amount",
          "type": "uint256"
        },
        {
          "name": "starter",
          "type": "address"
        },
        {
          "name": "player",
          "type": "address"
        },
        {
          "name": "status",
          "type": "int8"
        },
        {
          "components": [
            {
              "name": "card",
              "type": "uint256"
            },
            {
              "name": "key",
              "type": "string"
            },
            {
              "name": "content",
              "type": "uint8"
            }
          ],
          "name": "starterCard",
          "type": "tuple"
        },
        {
          "components": [
            {
              "name": "card",
              "type": "uint256"
            },
            {
              "name": "key",
              "type": "string"
            },
            {
              "name": "content",
              "type": "uint8"
            }
          ],
          "name": "playerCard",
          "type": "tuple"
        },
        {
          "name": "timeout",
          "type": "uint256"
        },
        {
          "name": "threshold",
          "type": "uint256"
        }
      ],
      "payable": false,
      "stateMutability": "view",
      "type": "function"
    },
    {
      "constant": true,
      "inputs": [],
      "name": "maxLimit",
      "outputs": [
        {
          "name": "",
          "type": "uint256"
        }
      ],
      "payable": false,
      "stateMutability": "view",
      "type": "function"
    },
    {
      "constant": true,
      "inputs": [],
      "name": "enabled",
      "outputs": [
        {
          "name": "",
          "type": "bool"
        }
      ],
      "payable": false,
      "stateMutability": "view",
      "type": "function"
    },
    {
      "constant": false,
      "inputs": [],
      "name": "enableContract",
      "outputs": [],
      "payable": false,
      "stateMutability": "nonpayable",
      "type": "function"
    },
    {
      "constant": true,
      "inputs": [],
      "name": "timeoutLimit",
      "outputs": [
        {
          "name": "",
          "type": "uint256"
        }
      ],
      "payable": false,
      "stateMutability": "view",
      "type": "function"
    },
    {
      "constant": false,
      "inputs": [],
      "name": "claimOwnership",
      "outputs": [],
      "payable": false,
      "stateMutability": "nonpayable",
      "type": "function"
    },
    {
      "constant": true,
      "inputs": [],
      "name": "viewCountLimit",
      "outputs": [
        {
          "name": "",
          "type": "uint32"
        }
      ],
      "payable": false,
      "stateMutability": "view",
      "type": "function"
    },
    {
      "constant": true,
      "inputs": [],
      "name": "totalGameNumber",
      "outputs": [
        {
          "name": "",
          "type": "uint64"
        }
      ],
      "payable": false,
      "stateMutability": "view",
      "type": "function"
    },
    {
      "constant": false,
      "inputs": [],
      "name": "disableContract",
      "outputs": [],
      "payable": false,
      "stateMutability": "nonpayable",
      "type": "function"
    },
    {
      "constant": true,
      "inputs": [],
      "name": "owner",
      "outputs": [
        {
          "name": "",
          "type": "address"
        }
      ],
      "payable": false,
      "stateMutability": "view",
      "type": "function"
    },
    {
      "constant": true,
      "inputs": [],
      "name": "pendingOwner",
      "outputs": [
        {
          "name": "",
          "type": "address"
        }
      ],
      "payable": false,
      "stateMutability": "view",
      "type": "function"
    },
    {
      "constant": false,
      "inputs": [
        {
          "name": "newOwner",
          "type": "address"
        }
      ],
      "name": "transferOwnership",
      "outputs": [],
      "payable": false,
      "stateMutability": "nonpayable",
      "type": "function"
    },
    {
      "anonymous": false,
      "inputs": [
        {
          "indexed": true,
          "name": "enabled",
          "type": "bool"
        }
      ],
      "name": "EnableStatusChanged",
      "type": "event"
    },
    {
      "anonymous": false,
      "inputs": [
        {
          "indexed": true,
          "name": "previousOwner",
          "type": "address"
        }
      ],
      "name": "OwnershipRenounced",
      "type": "event"
    },
    {
      "anonymous": false,
      "inputs": [
        {
          "indexed": true,
          "name": "previousOwner",
          "type": "address"
        },
        {
          "indexed": true,
          "name": "newOwner",
          "type": "address"
        }
      ],
      "name": "OwnershipTransferred",
      "type": "event"
    },
    {
      "anonymous": false,
      "inputs": [
        {
          "indexed": false,
          "name": "limit",
          "type": "uint256"
        }
      ],
      "name": "SetMaxLimit",
      "type": "event"
    },
    {
      "anonymous": false,
      "inputs": [
        {
          "indexed": false,
          "name": "limit",
          "type": "uint256"
        }
      ],
      "name": "SetTimeoutLimit",
      "type": "event"
    },
    {
      "anonymous": false,
      "inputs": [
        {
          "indexed": true,
          "name": "gameId",
          "type": "uint64"
        },
        {
          "indexed": false,
          "name": "starter",
          "type": "address"
        },
        {
          "indexed": false,
          "name": "card",
          "type": "uint256"
        },
        {
          "indexed": false,
          "name": "amount",
          "type": "uint256"
        },
        {
          "indexed": false,
          "name": "threshold",
          "type": "uint256"
        }
      ],
      "name": "GameStarted",
      "type": "event"
    },
    {
      "anonymous": false,
      "inputs": [
        {
          "indexed": true,
          "name": "gameId",
          "type": "uint64"
        }
      ],
      "name": "GameCancelled",
      "type": "event"
    },
    {
      "anonymous": false,
      "inputs": [
        {
          "indexed": true,
          "name": "gameId",
          "type": "uint64"
        },
        {
          "indexed": false,
          "name": "player",
          "type": "address"
        },
        {
          "indexed": false,
          "name": "card",
          "type": "uint256"
        },
        {
          "indexed": false,
          "name": "amount",
          "type": "uint256"
        }
      ],
      "name": "GameLocked",
      "type": "event"
    },
    {
      "anonymous": false,
      "inputs": [
        {
          "indexed": true,
          "name": "gameId",
          "type": "uint64"
        },
        {
          "indexed": false,
          "name": "player",
          "type": "address"
        },
        {
          "indexed": false,
          "name": "key",
          "type": "string"
        },
        {
          "indexed": false,
          "name": "content",
          "type": "uint8"
        }
      ],
      "name": "CardOpened",
      "type": "event"
    },
    {
      "anonymous": false,
      "inputs": [
        {
          "indexed": true,
          "name": "gameId",
          "type": "uint64"
        },
        {
          "indexed": false,
          "name": "result",
          "type": "int8"
        }
      ],
      "name": "GameFinished",
      "type": "event"
    },
    {
      "constant": false,
      "inputs": [
        {
          "name": "limit",
          "type": "uint256"
        }
      ],
      "name": "setMaxLimit",
      "outputs": [],
      "payable": false,
      "stateMutability": "nonpayable",
      "type": "function"
    },
    {
      "constant": false,
      "inputs": [
        {
          "name": "limit",
          "type": "uint256"
        }
      ],
      "name": "setTimeoutLimit",
      "outputs": [],
      "payable": false,
      "stateMutability": "nonpayable",
      "type": "function"
    },
    {
      "constant": true,
      "inputs": [
        {
          "name": "gameId",
          "type": "uint64"
        }
      ],
      "name": "viewGame",
      "outputs": [
        {
          "name": "",
          "type": "uint256"
        },
        {
          "name": "",
          "type": "uint256"
        },
        {
          "name": "",
          "type": "address"
        },
        {
          "name": "",
          "type": "address"
        },
        {
          "name": "",
          "type": "int8"
        },
        {
          "name": "",
          "type": "uint256"
        },
        {
          "name": "",
          "type": "uint256"
        },
        {
          "name": "",
          "type": "string"
        },
        {
          "name": "",
          "type": "uint8"
        },
        {
          "name": "",
          "type": "uint256"
        },
        {
          "name": "",
          "type": "string"
        },
        {
          "name": "",
          "type": "uint8"
        }
      ],
      "payable": false,
      "stateMutability": "view",
      "type": "function"
    },
    {
      "constant": true,
      "inputs": [
        {
          "name": "limit",
          "type": "uint64"
        }
      ],
      "name": "viewLatestGames",
      "outputs": [
        {
          "name": "",
          "type": "uint256[]"
        }
      ],
      "payable": false,
      "stateMutability": "view",
      "type": "function"
    },
    {
      "constant": false,
      "inputs": [
        {
          "name": "card",
          "type": "uint256"
        },
        {
          "name": "threshold",
          "type": "uint256"
        }
      ],
      "name": "startGame",
      "outputs": [],
      "payable": true,
      "stateMutability": "payable",
      "type": "function"
    },
    {
      "constant": false,
      "inputs": [
        {
          "name": "gameId",
          "type": "uint64"
        }
      ],
      "name": "cancelGame",
      "outputs": [],
      "payable": false,
      "stateMutability": "nonpayable",
      "type": "function"
    },
    {
      "constant": false,
      "inputs": [
        {
          "name": "gameId",
          "type": "uint64"
        },
        {
          "name": "card",
          "type": "uint256"
        }
      ],
      "name": "joinGame",
      "outputs": [],
      "payable": true,
      "stateMutability": "payable",
      "type": "function"
    },
    {
      "constant": false,
      "inputs": [
        {
          "name": "gameId",
          "type": "uint64"
        },
        {
          "name": "key",
          "type": "string"
        },
        {
          "name": "content",
          "type": "uint8"
        }
      ],
      "name": "openCard",
      "outputs": [],
      "payable": false,
      "stateMutability": "nonpayable",
      "type": "function"
    },
    {
      "constant": false,
      "inputs": [
        {
          "name": "gameId",
          "type": "uint64"
        }
      ],
      "name": "timeoutGame",
      "outputs": [],
      "payable": false,
      "stateMutability": "nonpayable",
      "type": "function"
    }
  ],
  "bytecode": "0x608060405260018060146101000a81548160ff021916908315150217905550683635c9adc5dea000006002556102586003556000600460006101000a81548167ffffffffffffffff021916908367ffffffffffffffff160217905550600a600460086101000a81548163ffffffff021916908363ffffffff160217905550336000806101000a81548173ffffffffffffffffffffffffffffffffffffffff021916908373ffffffffffffffffffffffffffffffffffffffff1602179055506141f6806100cc6000396000f30060806040526004361061011d576000357c0100000000000000000000000000000000000000000000000000000000900463ffffffff1680630d53be4814610122578063117a5b90146101595780631a861d2614610244578063238dafe01461026f57806329eaa1ab1461029e578063367edd321461032a5780633b59034f1461034157806349bcaf5f1461050d5780634a307a841461053a5780634e71e0c8146105655780635c3f29651461057c57806362212e4b146105b35780636fcfca041461060f578063730b83811461064e578063894ba833146106785780638da5cb5b1461068f57806390e0b3bf146106e65780639d65a67e1461071d578063bf8bcee414610751578063e30c39781461077e578063f2fde38b146107d5575b600080fd5b34801561012e57600080fd5b50610157600480360381019080803567ffffffffffffffff169060200190929190505050610818565b005b34801561016557600080fd5b5061018460048036038101908080359060200190929190505050610bd3565b604051808a67ffffffffffffffff1667ffffffffffffffff1681526020018981526020018873ffffffffffffffffffffffffffffffffffffffff1673ffffffffffffffffffffffffffffffffffffffff1681526020018773ffffffffffffffffffffffffffffffffffffffff1673ffffffffffffffffffffffffffffffffffffffff1681526020018660000b60000b8152602001858152602001848152602001838152602001828152602001995050505050505050505060405180910390f35b34801561025057600080fd5b50610259610e39565b6040518082815260200191505060405180910390f35b34801561027b57600080fd5b50610284610e3f565b604051808215151515815260200191505060405180910390f35b3480156102aa57600080fd5b506102d3600480360381019080803567ffffffffffffffff169060200190929190505050610e52565b6040518080602001828103825283818151815260200191508051906020019060200280838360005b838110156103165780820151818401526020810190506102fb565b505050509050019250505060405180910390f35b34801561033657600080fd5b5061033f61147d565b005b34801561034d57600080fd5b50610376600480360381019080803567ffffffffffffffff16906020019092919050505061159b565b604051808d81526020018c81526020018b73ffffffffffffffffffffffffffffffffffffffff1673ffffffffffffffffffffffffffffffffffffffff1681526020018a73ffffffffffffffffffffffffffffffffffffffff1673ffffffffffffffffffffffffffffffffffffffff1681526020018960000b60000b8152602001888152602001878152602001806020018660ff1660ff168152602001858152602001806020018460ff1660ff168152602001838103835288818151815260200191508051906020019080838360005b83811015610460578082015181840152602081019050610445565b50505050905090810190601f16801561048d5780820380516001836020036101000a031916815260200191505b50838103825285818151815260200191508051906020019080838360005b838110156104c65780820151818401526020810190506104ab565b50505050905090810190601f1680156104f35780820380516001836020036101000a031916815260200191505b509e50505050505050505050505050505060405180910390f35b34801561051957600080fd5b50610538600480360381019080803590602001909291905050506119e8565b005b34801561054657600080fd5b5061054f611aed565b6040518082815260200191505060405180910390f35b34801561057157600080fd5b5061057a611af3565b005b34801561058857600080fd5b50610591611cfb565b604051808263ffffffff1663ffffffff16815260200191505060405180910390f35b3480156105bf57600080fd5b5061060d600480360381019080803567ffffffffffffffff169060200190929190803590602001908201803590602001919091929391929390803560ff169060200190929190505050611d11565b005b34801561061b57600080fd5b5061062461256b565b604051808267ffffffffffffffff1667ffffffffffffffff16815260200191505060405180910390f35b6106766004803603810190808035906020019092919080359060200190929190505050612585565b005b34801561068457600080fd5b5061068d6129f6565b005b34801561069b57600080fd5b506106a4612b15565b604051808273ffffffffffffffffffffffffffffffffffffffff1673ffffffffffffffffffffffffffffffffffffffff16815260200191505060405180910390f35b3480156106f257600080fd5b5061071b600480360381019080803567ffffffffffffffff169060200190929190505050612b3a565b005b61074f600480360381019080803567ffffffffffffffff1690602001909291908035906020019092919050505061342e565b005b34801561075d57600080fd5b5061077c6004803603810190808035906020019092919050505061382b565b005b34801561078a57600080fd5b506107936139b0565b604051808273ffffffffffffffffffffffffffffffffffffffff1673ffffffffffffffffffffffffffffffffffffffff16815260200191505060405180910390f35b3480156107e157600080fd5b50610816600480360381019080803573ffffffffffffffffffffffffffffffffffffffff1690602001909291905050506139d6565b005b600081600460009054906101000a900467ffffffffffffffff1667ffffffffffffffff168167ffffffffffffffff161015156108bc576040517f08c379a000000000000000000000000000000000000000000000000000000000815260040180806020018281038252600d8152602001807f77726f6e672067616d652069640000000000000000000000000000000000000081525060200191505060405180910390fd5b823373ffffffffffffffffffffffffffffffffffffffff1660058267ffffffffffffffff168154811015156108ed57fe5b90600052602060002090600c020160020160009054906101000a900473ffffffffffffffffffffffffffffffffffffffff1673ffffffffffffffffffffffffffffffffffffffff161415156109aa576040517f08c379a00000000000000000000000000000000000000000000000000000000081526004018080602001828103825260118152602001807f6e6565642067616d65207374617274657200000000000000000000000000000081525060200191505060405180910390fd5b8360008060000b60058367ffffffffffffffff168154811015156109ca57fe5b90600052602060002090600c020160030160149054906101000a900460000b60000b141515610a61576040517f08c379a00000000000000000000000000000000000000000000000000000000081526004018080602001828103825260118152602001807f77726f6e672067616d652073746174757300000000000000000000000000000081525060200191505060405180910390fd5b85610a6b81613ade565b1515610adf576040517f08c379a00000000000000000000000000000000000000000000000000000000081526004018080602001828103825260128152602001807f6e6565642067616d652074696d65206f7574000000000000000000000000000081525060200191505060405180910390fd5b60058767ffffffffffffffff16815481101515610af857fe5b90600052602060002090600c020195507fffffffffffffffffffffffffffffffffffffffffffffffffffffffffffffffff8660030160146101000a81548160ff021916908360000b60ff1602179055503373ffffffffffffffffffffffffffffffffffffffff166108fc87600101549081150290604051600060405180830381858888f19350505050158015610b92573d6000803e3d6000fd5b508667ffffffffffffffff167fa77d020ec6193b836dd9686343fd6244891812d0d63f6b8567734bf69298985860405160405180910390a250505050505050565b600581815481101515610be257fe5b90600052602060002090600c02016000915090508060000160009054906101000a900467ffffffffffffffff16908060010154908060020160009054906101000a900473ffffffffffffffffffffffffffffffffffffffff16908060030160009054906101000a900473ffffffffffffffffffffffffffffffffffffffff16908060030160149054906101000a900460000b90806004016060604051908101604052908160008201548152602001600182018054600181600116156101000203166002900480601f016020809104026020016040519081016040528092919081815260200182805460018160011615610100020316600290048015610d285780601f10610cfd57610100808354040283529160200191610d28565b820191906000526020600020905b815481529060010190602001808311610d0b57829003601f168201915b505050505081526020016002820160009054906101000a900460ff1660ff1660ff168152505090806007016060604051908101604052908160008201548152602001600182018054600181600116156101000203166002900480601f016020809104026020016040519081016040528092919081815260200182805460018160011615610100020316600290048015610e025780601f10610dd757610100808354040283529160200191610e02565b820191906000526020600020905b815481529060010190602001808311610de557829003601f168201915b505050505081526020016002820160009054906101000a900460ff1660ff1660ff16815250509080600a01549080600b0154905089565b60025481565b600160149054906101000a900460ff1681565b6060600060606000610e62613fca565b600460089054906101000a900463ffffffff1663ffffffff168667ffffffffffffffff1611151515610efc576040517f08c379a00000000000000000000000000000000000000000000000000000000081526004018080602001828103825260118152602001807f6c696d697420697320746f6f206869676800000000000000000000000000000081525060200191505060405180910390fd5b600460009054906101000a900467ffffffffffffffff1667ffffffffffffffff168667ffffffffffffffff1611610f335785610f4b565b600460009054906101000a900467ffffffffffffffff165b93506007840267ffffffffffffffff16604051908082528060200260200182016040528015610f895781602001602082028038833980820191505090505b509250600091505b8367ffffffffffffffff168267ffffffffffffffff161015611471576005600183600460009054906101000a900467ffffffffffffffff16030367ffffffffffffffff16815481101515610fe157fe5b90600052602060002090600c020161012060405190810160405290816000820160009054906101000a900467ffffffffffffffff1667ffffffffffffffff1667ffffffffffffffff168152602001600182015481526020016002820160009054906101000a900473ffffffffffffffffffffffffffffffffffffffff1673ffffffffffffffffffffffffffffffffffffffff1673ffffffffffffffffffffffffffffffffffffffff1681526020016003820160009054906101000a900473ffffffffffffffffffffffffffffffffffffffff1673ffffffffffffffffffffffffffffffffffffffff1673ffffffffffffffffffffffffffffffffffffffff1681526020016003820160149054906101000a900460000b60000b60000b8152602001600482016060604051908101604052908160008201548152602001600182018054600181600116156101000203166002900480601f0160208091040260200160405190810160405280929190818152602001828054600181600116156101000203166002900480156111b55780601f1061118a576101008083540402835291602001916111b5565b820191906000526020600020905b81548152906001019060200180831161119857829003601f168201915b505050505081526020016002820160009054906101000a900460ff1660ff1660ff16815250508152602001600782016060604051908101604052908160008201548152602001600182018054600181600116156101000203166002900480601f0160208091040260200160405190810160405280929190818152602001828054600181600116156101000203166002900480156112935780601f1061126857610100808354040283529160200191611293565b820191906000526020600020905b81548152906001019060200180831161127657829003601f168201915b505050505081526020016002820160009054906101000a900460ff1660ff1660ff16815250508152602001600a8201548152602001600b820154815250509050806000015167ffffffffffffffff16836000600785020167ffffffffffffffff1681518110151561130057fe5b90602001906020020181815250508060200151836001600785020167ffffffffffffffff1681518110151561133157fe5b9060200190602002018181525050806101000151836002600785020167ffffffffffffffff1681518110151561136357fe5b9060200190602002018181525050806040015173ffffffffffffffffffffffffffffffffffffffff16836003600785020167ffffffffffffffff168151811015156113aa57fe5b9060200190602002018181525050806060015173ffffffffffffffffffffffffffffffffffffffff16836004600785020167ffffffffffffffff168151811015156113f157fe5b9060200190602002018181525050806080015160000b836005600785020167ffffffffffffffff1681518110151561142557fe5b90602001906020020181815250508060e00151836006600785020167ffffffffffffffff1681518110151561145657fe5b90602001906020020181815250508180600101925050610f91565b82945050505050919050565b6000809054906101000a900473ffffffffffffffffffffffffffffffffffffffff1673ffffffffffffffffffffffffffffffffffffffff163373ffffffffffffffffffffffffffffffffffffffff16141515611541576040517f08c379a000000000000000000000000000000000000000000000000000000000815260040180806020018281038252600e8152602001807f4f776e657220726571756972656400000000000000000000000000000000000081525060200191505060405180910390fd5b60018060146101000a81548160ff021916908315150217905550600160149054906101000a900460ff1615157f44cd398f157fa2dcc23e1a3238d8ec602ef8ed03c90372c10918d81d69e36ab160405160405180910390a2565b60008060008060008060006060600080606060006115b7613fca565b8d600460009054906101000a900467ffffffffffffffff1667ffffffffffffffff168167ffffffffffffffff16101515611659576040517f08c379a000000000000000000000000000000000000000000000000000000000815260040180806020018281038252600d8152602001807f77726f6e672067616d652069640000000000000000000000000000000000000081525060200191505060405180910390fd5b60058f67ffffffffffffffff1681548110151561167257fe5b90600052602060002090600c020161012060405190810160405290816000820160009054906101000a900467ffffffffffffffff1667ffffffffffffffff1667ffffffffffffffff168152602001600182015481526020016002820160009054906101000a900473ffffffffffffffffffffffffffffffffffffffff1673ffffffffffffffffffffffffffffffffffffffff1673ffffffffffffffffffffffffffffffffffffffff1681526020016003820160009054906101000a900473ffffffffffffffffffffffffffffffffffffffff1673ffffffffffffffffffffffffffffffffffffffff1673ffffffffffffffffffffffffffffffffffffffff1681526020016003820160149054906101000a900460000b60000b60000b8152602001600482016060604051908101604052908160008201548152602001600182018054600181600116156101000203166002900480601f0160208091040260200160405190810160405280929190818152602001828054600181600116156101000203166002900480156118465780601f1061181b57610100808354040283529160200191611846565b820191906000526020600020905b81548152906001019060200180831161182957829003601f168201915b505050505081526020016002820160009054906101000a900460ff1660ff1660ff16815250508152602001600782016060604051908101604052908160008201548152602001600182018054600181600116156101000203166002900480601f0160208091040260200160405190810160405280929190818152602001828054600181600116156101000203166002900480156119245780601f106118f957610100808354040283529160200191611924565b820191906000526020600020905b81548152906001019060200180831161190757829003601f168201915b505050505081526020016002820160009054906101000a900460ff1660ff1660ff16815250508152602001600a8201548152602001600b82015481525050915081602001518261010001518360400151846060015185608001518660e001518760a00151600001518860a00151602001518960a00151604001518a60c00151600001518b60c00151602001518c60c00151604001518494508191509d509d509d509d509d509d509d509d509d509d509d509d50505091939597999b5091939597999b565b6000809054906101000a900473ffffffffffffffffffffffffffffffffffffffff1673ffffffffffffffffffffffffffffffffffffffff163373ffffffffffffffffffffffffffffffffffffffff16141515611aac576040517f08c379a000000000000000000000000000000000000000000000000000000000815260040180806020018281038252600e8152602001807f4f776e657220726571756972656400000000000000000000000000000000000081525060200191505060405180910390fd5b806003819055507f016810b2453fd6fa62348747e56186a28bfab39f0326d594aa954c3421996500816040518082815260200191505060405180910390a150565b60035481565b600160009054906101000a900473ffffffffffffffffffffffffffffffffffffffff1673ffffffffffffffffffffffffffffffffffffffff163373ffffffffffffffffffffffffffffffffffffffff16141515611bb8576040517f08c379a00000000000000000000000000000000000000000000000000000000081526004018080602001828103825260168152602001807f50656e64696e67206f776e65722072657175697265640000000000000000000081525060200191505060405180910390fd5b600160009054906101000a900473ffffffffffffffffffffffffffffffffffffffff1673ffffffffffffffffffffffffffffffffffffffff166000809054906101000a900473ffffffffffffffffffffffffffffffffffffffff1673ffffffffffffffffffffffffffffffffffffffff167f8be0079c531659141344cd1fd0a4f28419497f9722a3daafe3b4186f6b6457e060405160405180910390a3600160009054906101000a900473ffffffffffffffffffffffffffffffffffffffff166000806101000a81548173ffffffffffffffffffffffffffffffffffffffff021916908373ffffffffffffffffffffffffffffffffffffffff1602179055506000600160006101000a81548173ffffffffffffffffffffffffffffffffffffffff021916908373ffffffffffffffffffffffffffffffffffffffff160217905550565b600460089054906101000a900463ffffffff1681565b60008060008087600460009054906101000a900467ffffffffffffffff1667ffffffffffffffff168167ffffffffffffffff16101515611db9576040517f08c379a000000000000000000000000000000000000000000000000000000000815260040180806020018281038252600d8152602001807f77726f6e672067616d652069640000000000000000000000000000000000000081525060200191505060405180910390fd5b883373ffffffffffffffffffffffffffffffffffffffff1660058267ffffffffffffffff16815481101515611dea57fe5b90600052602060002090600c020160020160009054906101000a900473ffffffffffffffffffffffffffffffffffffffff1673ffffffffffffffffffffffffffffffffffffffff161480611eb357503373ffffffffffffffffffffffffffffffffffffffff1660058267ffffffffffffffff16815481101515611e6957fe5b90600052602060002090600c020160030160009054906101000a900473ffffffffffffffffffffffffffffffffffffffff1673ffffffffffffffffffffffffffffffffffffffff16145b1515611f27576040517f08c379a00000000000000000000000000000000000000000000000000000000081526004018080602001828103825260108152602001807f6e6565642067616d6520706c617965720000000000000000000000000000000081525060200191505060405180910390fd5b8960018060000b60058367ffffffffffffffff16815481101515611f4757fe5b90600052602060002090600c020160030160149054906101000a900460000b60000b141515611fde576040517f08c379a00000000000000000000000000000000000000000000000000000000081526004018080602001828103825260118152602001807f77726f6e672067616d652073746174757300000000000000000000000000000081525060200191505060405180910390fd5b8860048160ff16108015611ff5575060008160ff16115b1515612069576040517f08c379a000000000000000000000000000000000000000000000000000000000815260040180806020018281038252600d8152602001807f77726f6e6720636f6e74656e740000000000000000000000000000000000000081525060200191505060405180910390fd5b60058d67ffffffffffffffff1681548110151561208257fe5b90600052602060002090600c020198503373ffffffffffffffffffffffffffffffffffffffff168960020160009054906101000a900473ffffffffffffffffffffffffffffffffffffffff1673ffffffffffffffffffffffffffffffffffffffff1614156120f5578860040197506120fc565b8860070197505b61213d88600001548d8d8080601f0160208091040260200160405190810160405280939291908181526020018383808284378201915050505050508c613e03565b96508615156121b4576040517f08c379a00000000000000000000000000000000000000000000000000000000081526004018080602001828103825260148152602001807f77726f6e67206b6579206f7220636f6e74656e7400000000000000000000000081525060200191505060405180910390fd5b8b8b8960010191906121c792919061405b565b50898860020160006101000a81548160ff021916908360ff1602179055508c67ffffffffffffffff167f98df0761314acbda7cfd71579a6da1b756ecf9f8de9d61c54a0a3b5c16db7897338e8e8e604051808573ffffffffffffffffffffffffffffffffffffffff1673ffffffffffffffffffffffffffffffffffffffff168152602001806020018360ff1660ff168152602001828103825285858281815260200192508082843782019150509550505050505060405180910390a260008960040160020160009054906101000a900460ff1660ff16141580156122c3575060008960070160020160009054906101000a900460ff1660ff1614155b1561255c576122fa8960040160020160009054906101000a900460ff168a60070160020160009054906101000a900460ff16613f13565b955060018660000b141561237c578860020160009054906101000a900473ffffffffffffffffffffffffffffffffffffffff1673ffffffffffffffffffffffffffffffffffffffff166108fc8a600101549081150290604051600060405180830381858888f19350505050158015612376573d6000803e3d6000fd5b50612513565b7fffffffffffffffffffffffffffffffffffffffffffffffffffffffffffffffff8660000b141561241b578860030160009054906101000a900473ffffffffffffffffffffffffffffffffffffffff1673ffffffffffffffffffffffffffffffffffffffff166108fc8a600101549081150290604051600060405180830381858888f19350505050158015612415573d6000803e3d6000fd5b50612512565b8860020160009054906101000a900473ffffffffffffffffffffffffffffffffffffffff1673ffffffffffffffffffffffffffffffffffffffff166108fc60028b6001015481151561246957fe5b049081150290604051600060405180830381858888f19350505050158015612495573d6000803e3d6000fd5b508860030160009054906101000a900473ffffffffffffffffffffffffffffffffffffffff1673ffffffffffffffffffffffffffffffffffffffff166108fc60028b600101548115156124e457fe5b049081150290604051600060405180830381858888f19350505050158015612510573d6000803e3d6000fd5b505b5b8c67ffffffffffffffff167f3598a14b08a100ac75597e6f8e8309dfd773210d8ff4be917cebe132e82b7e5187604051808260000b60000b815260200191505060405180910390a25b50505050505050505050505050565b600460009054906101000a900467ffffffffffffffff1681565b61258d6140db565b6125956140db565b61259d613fca565b600160149054906101000a900460ff161515612647576040517f08c379a00000000000000000000000000000000000000000000000000000000081526004018080602001828103825260238152602001807f436f6e747261637420686173206265656e2064697361626c6564206279206f7781526020017f6e6572000000000000000000000000000000000000000000000000000000000081525060400191505060405180910390fd5b60606040519081016040528086815260200160206040519081016040528060008152508152602001600060ff1681525092506060604051908101604052806000815260200160206040519081016040528060008152508152602001600060ff16815250915061012060405190810160405280600460009054906101000a900467ffffffffffffffff1667ffffffffffffffff1681526020013481526020013373ffffffffffffffffffffffffffffffffffffffff168152602001600073ffffffffffffffffffffffffffffffffffffffff1681526020016000800b8152602001848152602001838152602001600354420181526020018581525090506004600081819054906101000a900467ffffffffffffffff168092919060010191906101000a81548167ffffffffffffffff021916908367ffffffffffffffff160217905550506005819080600181540180825580915050906001820390600052602060002090600c02016000909192909190915060008201518160000160006101000a81548167ffffffffffffffff021916908367ffffffffffffffff1602179055506020820151816001015560408201518160020160006101000a81548173ffffffffffffffffffffffffffffffffffffffff021916908373ffffffffffffffffffffffffffffffffffffffff16021790555060608201518160030160006101000a81548173ffffffffffffffffffffffffffffffffffffffff021916908373ffffffffffffffffffffffffffffffffffffffff16021790555060808201518160030160146101000a81548160ff021916908360000b60ff16021790555060a0820151816004016000820151816000015560208201518160010190805190602001906128d2929190614100565b5060408201518160020160006101000a81548160ff021916908360ff160217905550505060c082015181600701600082015181600001556020820151816001019080519060200190612925929190614100565b5060408201518160020160006101000a81548160ff021916908360ff160217905550505060e082015181600a015561010082015181600b0155505050806000015167ffffffffffffffff167f04b3f072ec09d8a8e42d32becc4b8f5907ae8e1840ab37c6698647fd2ecf24458260400151873488604051808573ffffffffffffffffffffffffffffffffffffffff1673ffffffffffffffffffffffffffffffffffffffff16815260200184815260200183815260200182815260200194505050505060405180910390a25050505050565b6000809054906101000a900473ffffffffffffffffffffffffffffffffffffffff1673ffffffffffffffffffffffffffffffffffffffff163373ffffffffffffffffffffffffffffffffffffffff16141515612aba576040517f08c379a000000000000000000000000000000000000000000000000000000000815260040180806020018281038252600e8152602001807f4f776e657220726571756972656400000000000000000000000000000000000081525060200191505060405180910390fd5b6000600160146101000a81548160ff021916908315150217905550600160149054906101000a900460ff1615157f44cd398f157fa2dcc23e1a3238d8ec602ef8ed03c90372c10918d81d69e36ab160405160405180910390a2565b6000809054906101000a900473ffffffffffffffffffffffffffffffffffffffff1681565b612b42613fca565b612b4a6140db565b612b526140db565b83600460009054906101000a900467ffffffffffffffff1667ffffffffffffffff168167ffffffffffffffff16101515612bf4576040517f08c379a000000000000000000000000000000000000000000000000000000000815260040180806020018281038252600d8152602001807f77726f6e672067616d652069640000000000000000000000000000000000000081525060200191505060405180910390fd5b843373ffffffffffffffffffffffffffffffffffffffff1660058267ffffffffffffffff16815481101515612c2557fe5b90600052602060002090600c020160020160009054906101000a900473ffffffffffffffffffffffffffffffffffffffff1673ffffffffffffffffffffffffffffffffffffffff161480612cee57503373ffffffffffffffffffffffffffffffffffffffff1660058267ffffffffffffffff16815481101515612ca457fe5b90600052602060002090600c020160030160009054906101000a900473ffffffffffffffffffffffffffffffffffffffff1673ffffffffffffffffffffffffffffffffffffffff16145b1515612d62576040517f08c379a00000000000000000000000000000000000000000000000000000000081526004018080602001828103825260108152602001807f6e6565642067616d6520706c617965720000000000000000000000000000000081525060200191505060405180910390fd5b8560018060000b60058367ffffffffffffffff16815481101515612d8257fe5b90600052602060002090600c020160030160149054906101000a900460000b60000b141515612e19576040517f08c379a00000000000000000000000000000000000000000000000000000000081526004018080602001828103825260118152602001807f77726f6e672067616d652073746174757300000000000000000000000000000081525060200191505060405180910390fd5b87612e2381613ade565b1515612e97576040517f08c379a00000000000000000000000000000000000000000000000000000000081526004018080602001828103825260128152602001807f6e6565642067616d652074696d65206f7574000000000000000000000000000081525060200191505060405180910390fd5b60058967ffffffffffffffff16815481101515612eb057fe5b90600052602060002090600c020161012060405190810160405290816000820160009054906101000a900467ffffffffffffffff1667ffffffffffffffff1667ffffffffffffffff168152602001600182015481526020016002820160009054906101000a900473ffffffffffffffffffffffffffffffffffffffff1673ffffffffffffffffffffffffffffffffffffffff1673ffffffffffffffffffffffffffffffffffffffff1681526020016003820160009054906101000a900473ffffffffffffffffffffffffffffffffffffffff1673ffffffffffffffffffffffffffffffffffffffff1673ffffffffffffffffffffffffffffffffffffffff1681526020016003820160149054906101000a900460000b60000b60000b8152602001600482016060604051908101604052908160008201548152602001600182018054600181600116156101000203166002900480601f0160208091040260200160405190810160405280929190818152602001828054600181600116156101000203166002900480156130845780601f1061305957610100808354040283529160200191613084565b820191906000526020600020905b81548152906001019060200180831161306757829003601f168201915b505050505081526020016002820160009054906101000a900460ff1660ff1660ff16815250508152602001600782016060604051908101604052908160008201548152602001600182018054600181600116156101000203166002900480601f0160208091040260200160405190810160405280929190818152602001828054600181600116156101000203166002900480156131625780601f1061313757610100808354040283529160200191613162565b820191906000526020600020905b81548152906001019060200180831161314557829003601f168201915b505050505081526020016002820160009054906101000a900460ff1660ff1660ff16815250508152602001600a8201548152602001600b8201548152505097508760a0015196508760c0015195506000876040015160ff1614151561325b57876040015173ffffffffffffffffffffffffffffffffffffffff166108fc89602001519081150290604051600060405180830381858888f1935050505015801561320f573d6000803e3d6000fd5b508867ffffffffffffffff167f3598a14b08a100ac75597e6f8e8309dfd773210d8ff4be917cebe132e82b7e516001604051808260000b815260200191505060405180910390a2613423565b6000866040015160ff1614151561332557876060015173ffffffffffffffffffffffffffffffffffffffff166108fc89602001519081150290604051600060405180830381858888f193505050501580156132ba573d6000803e3d6000fd5b508867ffffffffffffffff167f3598a14b08a100ac75597e6f8e8309dfd773210d8ff4be917cebe132e82b7e517fffffffffffffffffffffffffffffffffffffffffffffffffffffffffffffffff604051808260000b815260200191505060405180910390a2613422565b876040015173ffffffffffffffffffffffffffffffffffffffff166108fc60028a6020015181151561335357fe5b049081150290604051600060405180830381858888f1935050505015801561337f573d6000803e3d6000fd5b50876060015173ffffffffffffffffffffffffffffffffffffffff166108fc60028a602001518115156133ae57fe5b049081150290604051600060405180830381858888f193505050501580156133da573d6000803e3d6000fd5b508867ffffffffffffffff167f3598a14b08a100ac75597e6f8e8309dfd773210d8ff4be917cebe132e82b7e516000604051808260000b815260200191505060405180910390a25b5b505050505050505050565b6000806134396140db565b84600460009054906101000a900467ffffffffffffffff1667ffffffffffffffff168167ffffffffffffffff161015156134db576040517f08c379a000000000000000000000000000000000000000000000000000000000815260040180806020018281038252600d8152602001807f77726f6e672067616d652069640000000000000000000000000000000000000081525060200191505060405180910390fd5b8560008060000b60058367ffffffffffffffff168154811015156134fb57fe5b90600052602060002090600c020160030160149054906101000a900460000b60000b141515613592576040517f08c379a00000000000000000000000000000000000000000000000000000000081526004018080602001828103825260118152602001807f77726f6e672067616d652073746174757300000000000000000000000000000081525060200191505060405180910390fd5b60058867ffffffffffffffff168154811015156135ab57fe5b90600052602060002090600c0201955060606040519081016040528088815260200160206040519081016040528060008152508152602001600060ff16815250935085600b01543410151515613669576040517f08c379a000000000000000000000000000000000000000000000000000000000815260040180806020018281038252600d8152602001807f77726f6e672062616c616e63650000000000000000000000000000000000000081525060200191505060405180910390fd5b85600101543411156136ce573373ffffffffffffffffffffffffffffffffffffffff166108fc876001015434039081150290604051600060405180830381858888f193505050501580156136c1573d6000803e3d6000fd5b50856001015494506136d2565b3494505b338660030160006101000a81548173ffffffffffffffffffffffffffffffffffffffff021916908373ffffffffffffffffffffffffffffffffffffffff1602179055508386600701600082015181600001556020820151816001019080519060200190613740929190614100565b5060408201518160020160006101000a81548160ff021916908360ff16021790555090505060028660010154028660010181905550426003540186600a018190555060018660030160146101000a81548160ff021916908360000b60ff1602179055508767ffffffffffffffff167f6030de52daebee6c07b2f6f4b2e8ba8707191b786719c3a2ece9cda6278e1e53338988604051808473ffffffffffffffffffffffffffffffffffffffff1673ffffffffffffffffffffffffffffffffffffffff168152602001838152602001828152602001935050505060405180910390a25050505050505050565b6000809054906101000a900473ffffffffffffffffffffffffffffffffffffffff1673ffffffffffffffffffffffffffffffffffffffff163373ffffffffffffffffffffffffffffffffffffffff161415156138ef576040517f08c379a000000000000000000000000000000000000000000000000000000000815260040180806020018281038252600e8152602001807f4f776e657220726571756972656400000000000000000000000000000000000081525060200191505060405180910390fd5b670de0b6b3a7640000811015151561396f576040517f08c379a000000000000000000000000000000000000000000000000000000000815260040180806020018281038252600c8152602001807f6c696d697420746f206c6f77000000000000000000000000000000000000000081525060200191505060405180910390fd5b806002819055507f44c8ef68dcc036e569158e914a009e3f02c9e933580e31424a1ae67728df7465816040518082815260200191505060405180910390a150565b600160009054906101000a900473ffffffffffffffffffffffffffffffffffffffff1681565b6000809054906101000a900473ffffffffffffffffffffffffffffffffffffffff1673ffffffffffffffffffffffffffffffffffffffff163373ffffffffffffffffffffffffffffffffffffffff16141515613a9a576040517f08c379a000000000000000000000000000000000000000000000000000000000815260040180806020018281038252600e8152602001807f4f776e657220726571756972656400000000000000000000000000000000000081525060200191505060405180910390fd5b80600160006101000a81548173ffffffffffffffffffffffffffffffffffffffff021916908373ffffffffffffffffffffffffffffffffffffffff16021790555050565b6000613ae8613fca565b60058367ffffffffffffffff16815481101515613b0157fe5b90600052602060002090600c020161012060405190810160405290816000820160009054906101000a900467ffffffffffffffff1667ffffffffffffffff1667ffffffffffffffff168152602001600182015481526020016002820160009054906101000a900473ffffffffffffffffffffffffffffffffffffffff1673ffffffffffffffffffffffffffffffffffffffff1673ffffffffffffffffffffffffffffffffffffffff1681526020016003820160009054906101000a900473ffffffffffffffffffffffffffffffffffffffff1673ffffffffffffffffffffffffffffffffffffffff1673ffffffffffffffffffffffffffffffffffffffff1681526020016003820160149054906101000a900460000b60000b60000b8152602001600482016060604051908101604052908160008201548152602001600182018054600181600116156101000203166002900480601f016020809104026020016040519081016040528092919081815260200182805460018160011615610100020316600290048015613cd55780601f10613caa57610100808354040283529160200191613cd5565b820191906000526020600020905b815481529060010190602001808311613cb857829003601f168201915b505050505081526020016002820160009054906101000a900460ff1660ff1660ff16815250508152602001600782016060604051908101604052908160008201548152602001600182018054600181600116156101000203166002900480601f016020809104026020016040519081016040528092919081815260200182805460018160011615610100020316600290048015613db35780601f10613d8857610100808354040283529160200191613db3565b820191906000526020600020905b815481529060010190602001808311613d9657829003601f168201915b505050505081526020016002820160009054906101000a900460ff1660ff1660ff16815250508152602001600a8201548152602001600b820154815250509050428160e001511115915050919050565b600082826040516020018083805190602001908083835b602083101515613e3f5780518252602082019150602081019050602083039250613e1a565b6001836020036101000a0380198251168184511680821785525050505050509050018260ff1660ff167f0100000000000000000000000000000000000000000000000000000000000000028152600101925050506040516020818303038152906040526040518082805190602001908083835b602083101515613ed75780518252602082019150602081019050602083039250613eb2565b6001836020036101000a038019825116818451168082178552505050505050905001915050604051809103902060019004841490509392505050565b600080828403905060018160000b1480613f4f57507ffffffffffffffffffffffffffffffffffffffffffffffffffffffffffffffffe8160000b145b15613f5d5760019150613fc3565b7fffffffffffffffffffffffffffffffffffffffffffffffffffffffffffffffff8160000b1480613f91575060028160000b145b15613fbe577fffffffffffffffffffffffffffffffffffffffffffffffffffffffffffffffff9150613fc3565b600091505b5092915050565b6101a060405190810160405280600067ffffffffffffffff16815260200160008152602001600073ffffffffffffffffffffffffffffffffffffffff168152602001600073ffffffffffffffffffffffffffffffffffffffff1681526020016000800b815260200161403a614180565b8152602001614047614180565b815260200160008152602001600081525090565b828054600181600116156101000203166002900490600052602060002090601f016020900481019282601f1061409c57803560ff19168380011785556140ca565b828001600101855582156140ca579182015b828111156140c95782358255916020019190600101906140ae565b5b5090506140d791906141a5565b5090565b6060604051908101604052806000815260200160608152602001600060ff1681525090565b828054600181600116156101000203166002900490600052602060002090601f016020900481019282601f1061414157805160ff191683800117855561416f565b8280016001018555821561416f579182015b8281111561416e578251825591602001919060010190614153565b5b50905061417c91906141a5565b5090565b6060604051908101604052806000815260200160608152602001600060ff1681525090565b6141c791905b808211156141c35760008160009055506001016141ab565b5090565b905600a165627a7a723058203f6ca7ceb13a6c633e72b20e950645d3d36e1b2327ca38f74f1a058e75881d970029",
  "source": "// SPDX-License-Identifier: MIT\npragma solidity >=0.4.22 <0.9.0;\nimport \"./interfaces/IGame.sol\";\nimport \"./interfaces/IPlayer.sol\";\nimport \"./interfaces/IStarter.sol\";\nimport \"@cpchain-tools/cpchain-dapps-utils/contracts/lifecycle/Enable.sol\";\n\ncontract Game is IGame, IStarter, IPlayer, Enable {\n    uint256 public maxLimit = 1000 ether;\n    uint256 public timeoutLimit = 10 minutes;\n    uint64 public totalGameNumber = 0;\n    uint32 public viewCountLimit = 10;\n\n    struct GameCard {\n        uint256 card;\n        string key;\n        //1 Rock  2 Paper 3 Scissors  0 unknown\n        uint8 content;\n    }\n    struct HandGame {\n        uint64 gameId;\n        uint256 amount;\n        address starter;\n        address player;\n        //-1 cancel,0 started, 1 locked,2,finished\n        int8 status;\n        GameCard starterCard;\n        GameCard playerCard;\n        uint256 timeout;\n        uint256 threshold;\n    }\n\n    HandGame[] public games;\n\n    modifier onlyPlayer(uint64 gameId) {\n        require(\n            games[gameId].starter == msg.sender ||\n                games[gameId].player == msg.sender,\n            \"need game player\"\n        );\n        _;\n    }\n\n    modifier onlyStarter(uint64 gameId) {\n        require(games[gameId].starter == msg.sender, \"need game starter\");\n        _;\n    }\n\n    modifier onlyTimeout(uint64 gameId) {\n        require(_isTimeout(gameId), \"need game time out\");\n        _;\n    }\n\n    modifier onlyGameStarted(uint64 gameId) {\n        require(gameId < totalGameNumber, \"wrong game id\");\n        _;\n    }\n\n    modifier needGameStatus(uint64 gameId, int8 status) {\n        require(games[gameId].status == status, \"wrong game status\");\n        _;\n    }\n\n    modifier needCurrentContent(uint8 content) {\n        require(content < 4 && content > 0, \"wrong content\");\n        _;\n    }\n\n    // contract owner methods\n    function setMaxLimit(uint256 limit) external onlyOwner {\n        require(limit >= 1 ether, \"limit to low\");\n        maxLimit = limit;\n        emit SetMaxLimit(limit);\n    }\n\n    function setTimeoutLimit(uint256 limit) external onlyOwner {\n        timeoutLimit = limit;\n        emit SetTimeoutLimit(limit);\n    }\n\n    // view\n    function viewGame(uint64 gameId)\n        external\n        view\n        onlyGameStarted(gameId)\n        returns (\n            uint256,\n            uint256,\n            address,\n            address,\n            int8,\n            uint256,\n            uint256,\n            string,\n            uint8,\n            uint256,\n            string,\n            uint8\n        )\n    {\n        HandGame memory game = games[gameId];\n        return (\n            game.amount,\n            game.threshold,\n            game.starter,\n            game.player,\n            game.status,\n            game.timeout,\n            game.starterCard.card,\n            game.starterCard.key,\n            game.starterCard.content,\n            game.playerCard.card,\n            game.playerCard.key,\n            game.playerCard.content\n        );\n    }\n\n    /**\n     */\n    function viewLatestGames(uint64 limit) external view returns (uint256[]) {\n        require(limit <= viewCountLimit, \"limit is too high\");\n        uint64 count = limit > totalGameNumber ? totalGameNumber : limit;\n        uint256[] memory _lastestGames = new uint256[](count * 7);\n        for (uint64 i = 0; i < count; i++) {\n            HandGame memory game = games[totalGameNumber - i - 1];\n            _lastestGames[i * 7 + 0] = uint256(game.gameId);\n            _lastestGames[i * 7 + 1] = game.amount;\n            _lastestGames[i * 7 + 2] = game.threshold;\n            _lastestGames[i * 7 + 3] = uint256(game.starter);\n            _lastestGames[i * 7 + 4] = uint256(game.player);\n            _lastestGames[i * 7 + 5] = uint256(game.status);\n            _lastestGames[i * 7 + 6] = game.timeout;\n        }\n\n        return (_lastestGames);\n    }\n\n    // game starter methods\n    function startGame(uint256 card, uint256 threshold)\n        external\n        payable\n        onlyEnabled\n    {\n        GameCard memory starter = GameCard(card, \"\", 0);\n        GameCard memory player = GameCard(0, \"\", 0);\n        HandGame memory game = HandGame(\n            totalGameNumber,\n            msg.value,\n            msg.sender,\n            address(0),\n            0,\n            starter,\n            player,\n            block.timestamp + timeoutLimit,\n            threshold\n        );\n        totalGameNumber++;\n        games.push(game);\n        emit GameStarted(game.gameId, game.starter, card, msg.value, threshold);\n    }\n\n    function cancelGame(uint64 gameId)\n        external\n        onlyGameStarted(gameId)\n        onlyStarter(gameId)\n        needGameStatus(gameId, 0)\n        onlyTimeout(gameId)\n    {\n        HandGame storage game = games[gameId];\n        game.status = -1;\n        msg.sender.transfer(game.amount);\n        emit GameCancelled(gameId);\n    }\n\n    // player methods\n    function joinGame(uint64 gameId, uint256 card)\n        external\n        payable\n        onlyGameStarted(gameId)\n        needGameStatus(gameId, 0)\n    {\n        HandGame storage game = games[gameId];\n        uint256 joinedAmount;\n\n        GameCard memory playerCard = GameCard(card, \"\", 0);\n        require(msg.value >= game.threshold, \"wrong balance\");\n        // \n        if (msg.value > game.amount) {\n            msg.sender.transfer(msg.value - game.amount);\n            joinedAmount = game.amount;\n        } else {\n            joinedAmount = msg.value;\n        }\n\n        game.player = msg.sender;\n        game.playerCard = playerCard;\n        game.amount = game.amount * 2;\n        game.timeout = timeoutLimit + block.timestamp;\n        game.status = 1;\n        emit GameLocked(gameId, msg.sender, card, joinedAmount);\n    }\n\n    function openCard(\n        uint64 gameId,\n        string key,\n        uint8 content\n    )\n        external\n        onlyGameStarted(gameId)\n        onlyPlayer(gameId)\n        needGameStatus(gameId, 1)\n        needCurrentContent(content)\n    {\n        HandGame storage game = games[gameId];\n        GameCard storage card;\n        if (game.starter == msg.sender) {\n            card = game.starterCard;\n        } else {\n            card = game.playerCard;\n        }\n        bool validate = _validateCard(card.card, key, content);\n        require(validate, \"wrong key or content\");\n        card.key = key;\n        card.content = content;\n\n        emit CardOpened(gameId, msg.sender, key, content);\n\n        if (game.starterCard.content != 0 && game.playerCard.content != 0) {\n            int8 r = _winOrLose(\n                game.starterCard.content,\n                game.playerCard.content\n            );\n            if (r == 1) {\n                game.starter.transfer(game.amount);\n            } else if (r == -1) {\n                game.player.transfer(game.amount);\n            } else {\n                game.starter.transfer(game.amount / 2);\n                game.player.transfer(game.amount / 2);\n            }\n            emit GameFinished(gameId, r);\n        }\n    }\n\n    function timeoutGame(uint64 gameId)\n        external\n        onlyGameStarted(gameId)\n        onlyPlayer(gameId)\n        needGameStatus(gameId, 1)\n        onlyTimeout(gameId)\n    {\n        HandGame memory game = games[gameId];\n        GameCard memory starter = game.starterCard;\n        GameCard memory player = game.playerCard;\n        if (starter.content != 0) {\n            game.starter.transfer(game.amount);\n            emit GameFinished(gameId, 1);\n        } else if (player.content != 0) {\n            game.player.transfer(game.amount);\n            emit GameFinished(gameId, -1);\n        } else {\n            game.starter.transfer(game.amount / 2);\n            game.player.transfer(game.amount / 2);\n            emit GameFinished(gameId, 0);\n        }\n    }\n\n    // private methods\n    function _isTimeout(uint64 gameId) private view returns (bool) {\n        HandGame memory game = games[gameId];\n        return (game.timeout <= block.timestamp);\n    }\n\n    function _validateCard(\n        uint256 card,\n        string key,\n        uint8 content\n    ) private view returns (bool) {\n        return (card == uint256(keccak256(abi.encodePacked(key, content))));\n    }\n\n    function _winOrLose(uint8 playerContent, uint8 otherContent)\n        private\n        view\n        returns (int8)\n    {\n        int8 r = int8(playerContent - otherContent);\n        if (r == 1 || r == -2) {\n            return 1;\n        } else if (r == -1 || r == 2) {\n            return -1;\n        } else {\n            return 0;\n        }\n    }\n}\n",
  "sourcePath": "/home/zhangk/Documents/github/cpchain-dapps-handgame/contracts/Game.sol",
  "compiler": {
    "name": "solc",
    "version": "0.4.25+commit.59dbf8f1.Linux.g++"
  },
  "schemaVersion": "3.4.4",
  "updatedAt": "2022-04-07T18:24:14.741Z",
  "devdoc": {
    "methods": {
      "claimOwnership()": {
        "details": "Allows the pendingOwner address to finalize the transfer."
      },
      "disableContract()": {
        "details": "set contract disable"
      },
      "enableContract()": {
        "details": "set contract enable"
      },
      "transferOwnership(address)": {
        "details": "Allows the current owner to set the pendingOwner address.",
        "params": {
          "newOwner": "The address to transfer ownership to."
        }
      }
    }
  },
  "userdoc": {
    "methods": {}
  }
}