{
  "contractName": "Game",
  "abi": [
    {
      "constant": true,
      "inputs": [
        {
          "name": "",
          "type": "uint256"
        }
      ],
      "name": "games",
      "outputs": [
        {
          "name": "gameId",
          "type": "uint64"
        },
        {
          "name": "amount",
          "type": "uint256"
        },
        {
          "name": "starter",
          "type": "address"
        },
        {
          "name": "player",
          "type": "address"
        },
        {
          "name": "status",
          "type": "uint8"
        },
        {
          "name": "starterProof",
          "type": "uint256"
        },
        {
          "name": "playerProof",
          "type": "uint256"
        },
        {
          "name": "timeout",
          "type": "uint256"
        },
        {
          "name": "threshold",
          "type": "uint256"
        }
      ],
      "payable": false,
      "stateMutability": "view",
      "type": "function"
    },
    {
      "constant": true,
      "inputs": [],
      "name": "maxLimit",
      "outputs": [
        {
          "name": "",
          "type": "uint256"
        }
      ],
      "payable": false,
      "stateMutability": "view",
      "type": "function"
    },
    {
      "constant": true,
      "inputs": [
        {
          "name": "",
          "type": "uint64"
        }
      ],
      "name": "gameToGroup",
      "outputs": [
        {
          "name": "",
          "type": "uint256"
        }
      ],
      "payable": false,
      "stateMutability": "view",
      "type": "function"
    },
    {
      "constant": true,
      "inputs": [
        {
          "name": "proof",
          "type": "uint256"
        },
        {
          "name": "key",
          "type": "uint256"
        },
        {
          "name": "content",
          "type": "uint256"
        }
      ],
      "name": "validateProof",
      "outputs": [
        {
          "name": "",
          "type": "bool"
        }
      ],
      "payable": false,
      "stateMutability": "pure",
      "type": "function"
    },
    {
      "constant": true,
      "inputs": [],
      "name": "enabled",
      "outputs": [
        {
          "name": "",
          "type": "bool"
        }
      ],
      "payable": false,
      "stateMutability": "view",
      "type": "function"
    },
    {
      "constant": false,
      "inputs": [],
      "name": "enableContract",
      "outputs": [],
      "payable": false,
      "stateMutability": "nonpayable",
      "type": "function"
    },
    {
      "constant": false,
      "inputs": [
        {
          "name": "proof",
          "type": "uint256"
        },
        {
          "name": "key",
          "type": "uint256"
        },
        {
          "name": "content",
          "type": "uint256"
        }
      ],
      "name": "setProof",
      "outputs": [],
      "payable": false,
      "stateMutability": "nonpayable",
      "type": "function"
    },
    {
      "constant": true,
      "inputs": [],
      "name": "timeoutLimit",
      "outputs": [
        {
          "name": "",
          "type": "uint256"
        }
      ],
      "payable": false,
      "stateMutability": "view",
      "type": "function"
    },
    {
      "constant": false,
      "inputs": [],
      "name": "claimOwnership",
      "outputs": [],
      "payable": false,
      "stateMutability": "nonpayable",
      "type": "function"
    },
    {
      "constant": true,
      "inputs": [],
      "name": "groupChatAddress",
      "outputs": [
        {
          "name": "",
          "type": "address"
        }
      ],
      "payable": false,
      "stateMutability": "view",
      "type": "function"
    },
    {
      "constant": true,
      "inputs": [],
      "name": "totalGameNumber",
      "outputs": [
        {
          "name": "",
          "type": "uint64"
        }
      ],
      "payable": false,
      "stateMutability": "view",
      "type": "function"
    },
    {
      "constant": false,
      "inputs": [],
      "name": "renounceOwnership",
      "outputs": [],
      "payable": false,
      "stateMutability": "nonpayable",
      "type": "function"
    },
    {
      "constant": false,
      "inputs": [],
      "name": "disableContract",
      "outputs": [],
      "payable": false,
      "stateMutability": "nonpayable",
      "type": "function"
    },
    {
      "constant": true,
      "inputs": [
        {
          "name": "proof",
          "type": "uint256"
        }
      ],
      "name": "viewContent",
      "outputs": [
        {
          "name": "",
          "type": "uint256"
        },
        {
          "name": "",
          "type": "uint256"
        }
      ],
      "payable": false,
      "stateMutability": "view",
      "type": "function"
    },
    {
      "constant": true,
      "inputs": [],
      "name": "owner",
      "outputs": [
        {
          "name": "",
          "type": "address"
        }
      ],
      "payable": false,
      "stateMutability": "view",
      "type": "function"
    },
    {
      "constant": true,
      "inputs": [],
      "name": "pendingOwner",
      "outputs": [
        {
          "name": "",
          "type": "address"
        }
      ],
      "payable": false,
      "stateMutability": "view",
      "type": "function"
    },
    {
      "constant": false,
      "inputs": [
        {
          "name": "newOwner",
          "type": "address"
        }
      ],
      "name": "transferOwnership",
      "outputs": [],
      "payable": false,
      "stateMutability": "nonpayable",
      "type": "function"
    },
    {
      "inputs": [
        {
          "name": "rps",
          "type": "address"
        }
      ],
      "payable": false,
      "stateMutability": "nonpayable",
      "type": "constructor"
    },
    {
      "anonymous": false,
      "inputs": [
        {
          "indexed": true,
          "name": "proof",
          "type": "uint256"
        },
        {
          "indexed": true,
          "name": "key",
          "type": "uint256"
        },
        {
          "indexed": true,
          "name": "content",
          "type": "uint256"
        }
      ],
      "name": "ContentVerified",
      "type": "event"
    },
    {
      "anonymous": false,
      "inputs": [
        {
          "indexed": true,
          "name": "enabled",
          "type": "bool"
        }
      ],
      "name": "EnableStatusChanged",
      "type": "event"
    },
    {
      "anonymous": false,
      "inputs": [
        {
          "indexed": true,
          "name": "previousOwner",
          "type": "address"
        },
        {
          "indexed": true,
          "name": "newOwner",
          "type": "address"
        }
      ],
      "name": "OwnershipTransferred",
      "type": "event"
    },
    {
      "anonymous": false,
      "inputs": [
        {
          "indexed": false,
          "name": "limit",
          "type": "uint256"
        }
      ],
      "name": "SetMaxLimit",
      "type": "event"
    },
    {
      "anonymous": false,
      "inputs": [
        {
          "indexed": false,
          "name": "limit",
          "type": "uint256"
        }
      ],
      "name": "SetTimeoutLimit",
      "type": "event"
    },
    {
      "anonymous": false,
      "inputs": [
        {
          "indexed": true,
          "name": "gameId",
          "type": "uint64"
        },
        {
          "indexed": false,
          "name": "starter",
          "type": "address"
        },
        {
          "indexed": false,
          "name": "card",
          "type": "uint256"
        },
        {
          "indexed": false,
          "name": "amount",
          "type": "uint256"
        },
        {
          "indexed": false,
          "name": "threshold",
          "type": "uint256"
        }
      ],
      "name": "GameStarted",
      "type": "event"
    },
    {
      "anonymous": false,
      "inputs": [
        {
          "indexed": true,
          "name": "group_id",
          "type": "uint256"
        },
        {
          "indexed": true,
          "name": "gameId",
          "type": "uint64"
        },
        {
          "indexed": false,
          "name": "starter",
          "type": "address"
        },
        {
          "indexed": false,
          "name": "message",
          "type": "string"
        },
        {
          "indexed": false,
          "name": "amount",
          "type": "uint256"
        },
        {
          "indexed": false,
          "name": "threshold",
          "type": "uint256"
        }
      ],
      "name": "CreateGroupHandGame",
      "type": "event"
    },
    {
      "anonymous": false,
      "inputs": [
        {
          "indexed": true,
          "name": "gameId",
          "type": "uint64"
        }
      ],
      "name": "GameCancelled",
      "type": "event"
    },
    {
      "anonymous": false,
      "inputs": [
        {
          "indexed": true,
          "name": "gameId",
          "type": "uint64"
        },
        {
          "indexed": false,
          "name": "player",
          "type": "address"
        },
        {
          "indexed": false,
          "name": "card",
          "type": "uint256"
        },
        {
          "indexed": false,
          "name": "amount",
          "type": "uint256"
        }
      ],
      "name": "GameLocked",
      "type": "event"
    },
    {
      "anonymous": false,
      "inputs": [
        {
          "indexed": true,
          "name": "gameId",
          "type": "uint64"
        },
        {
          "indexed": false,
          "name": "player",
          "type": "address"
        },
        {
          "indexed": false,
          "name": "key",
          "type": "uint256"
        },
        {
          "indexed": false,
          "name": "content",
          "type": "uint256"
        }
      ],
      "name": "CardOpened",
      "type": "event"
    },
    {
      "anonymous": false,
      "inputs": [
        {
          "indexed": true,
          "name": "gameId",
          "type": "uint64"
        },
        {
          "indexed": false,
          "name": "result",
          "type": "int8"
        }
      ],
      "name": "GameFinished",
      "type": "event"
    },
    {
      "constant": false,
      "inputs": [
        {
          "name": "groupchat",
          "type": "address"
        }
      ],
      "name": "setGroupChat",
      "outputs": [],
      "payable": false,
      "stateMutability": "nonpayable",
      "type": "function"
    },
    {
      "constant": false,
      "inputs": [
        {
          "name": "limit",
          "type": "uint256"
        }
      ],
      "name": "setMaxLimit",
      "outputs": [],
      "payable": false,
      "stateMutability": "nonpayable",
      "type": "function"
    },
    {
      "constant": false,
      "inputs": [
        {
          "name": "limit",
          "type": "uint256"
        }
      ],
      "name": "setTimeoutLimit",
      "outputs": [],
      "payable": false,
      "stateMutability": "nonpayable",
      "type": "function"
    },
    {
      "constant": true,
      "inputs": [
        {
          "name": "gameId",
          "type": "uint64"
        }
      ],
      "name": "viewGame",
      "outputs": [
        {
          "name": "",
          "type": "uint256"
        },
        {
          "name": "",
          "type": "uint256"
        },
        {
          "name": "",
          "type": "address"
        },
        {
          "name": "",
          "type": "address"
        },
        {
          "name": "",
          "type": "uint8"
        },
        {
          "name": "",
          "type": "uint256"
        },
        {
          "name": "",
          "type": "uint256[]"
        }
      ],
      "payable": false,
      "stateMutability": "view",
      "type": "function"
    },
    {
      "constant": true,
      "inputs": [
        {
          "name": "limit",
          "type": "uint64"
        }
      ],
      "name": "viewLatestGames",
      "outputs": [
        {
          "name": "",
          "type": "uint256[]"
        }
      ],
      "payable": false,
      "stateMutability": "view",
      "type": "function"
    },
    {
      "constant": false,
      "inputs": [
        {
          "name": "proof",
          "type": "uint256"
        },
        {
          "name": "threshold",
          "type": "uint256"
        }
      ],
      "name": "startGame",
      "outputs": [],
      "payable": true,
      "stateMutability": "payable",
      "type": "function"
    },
    {
      "constant": false,
      "inputs": [
        {
          "name": "proof",
          "type": "uint256"
        },
        {
          "name": "threshold",
          "type": "uint256"
        },
        {
          "name": "group_id",
          "type": "uint256"
        },
        {
          "name": "userMessage",
          "type": "string"
        }
      ],
      "name": "startGroupChatGame",
      "outputs": [],
      "payable": true,
      "stateMutability": "payable",
      "type": "function"
    },
    {
      "constant": false,
      "inputs": [
        {
          "name": "gameId",
          "type": "uint64"
        }
      ],
      "name": "cancelGame",
      "outputs": [],
      "payable": false,
      "stateMutability": "nonpayable",
      "type": "function"
    },
    {
      "constant": false,
      "inputs": [
        {
          "name": "gameId",
          "type": "uint64"
        },
        {
          "name": "proof",
          "type": "uint256"
        }
      ],
      "name": "joinGame",
      "outputs": [],
      "payable": true,
      "stateMutability": "payable",
      "type": "function"
    },
    {
      "constant": false,
      "inputs": [
        {
          "name": "gameId",
          "type": "uint64"
        },
        {
          "name": "key",
          "type": "uint256"
        },
        {
          "name": "content",
          "type": "uint256"
        }
      ],
      "name": "openCard",
      "outputs": [],
      "payable": false,
      "stateMutability": "nonpayable",
      "type": "function"
    },
    {
      "constant": false,
      "inputs": [
        {
          "name": "gameId",
          "type": "uint64"
        }
      ],
      "name": "finishTimeoutGame",
      "outputs": [],
      "payable": false,
      "stateMutability": "nonpayable",
      "type": "function"
    }
  ],
  "bytecode": "0x608060405260018060146101000a81548160ff021916908315150217905550683635c9adc5dea000006003556102586004556000600560006101000a81548167ffffffffffffffff021916908367ffffffffffffffff160217905550600a600560086101000a81548163ffffffff021916908363ffffffff1602179055503480156200008a57600080fd5b50604051602080620054f183398101806040528101908080519060200190929190505050336000806101000a81548173ffffffffffffffffffffffffffffffffffffffff021916908373ffffffffffffffffffffffffffffffffffffffff16021790555080600760006101000a81548173ffffffffffffffffffffffffffffffffffffffff021916908373ffffffffffffffffffffffffffffffffffffffff160217905550600760009054906101000a900473ffffffffffffffffffffffffffffffffffffffff1673ffffffffffffffffffffffffffffffffffffffff16630df521456040518163ffffffff167c0100000000000000000000000000000000000000000000000000000000028152600401600060405180830381600087803b158015620001b657600080fd5b505af1158015620001cb573d6000803e3d6000fd5b505050505061531180620001e06000396000f30060806040526004361061016a576000357c0100000000000000000000000000000000000000000000000000000000900463ffffffff1680630cd54e1b1461016f5780630d53be48146101ba578063117a5b90146101f15780631a861d26146102dc5780631eb447f9146103075780631f4340951461033e5780632118b7c514610389578063238dafe0146103e2578063282c51a81461041157806329eaa1ab1461045d578063367edd32146104e95780633b59034f1461050057806343b8a2b61461061457806349bcaf5f146106555780634a307a84146106825780634e71e0c8146106ad5780636baf5189146106c45780636fcfca041461071b578063715018a61461075a578063730b838114610771578063894ba8331461079b5780638be3e06f146107b25780638da5cb5b146107fa578063976e0887146108515780639d65a67e14610894578063bf8bcee4146108c8578063e30c3978146108f5578063f2fde38b1461094c575b600080fd5b34801561017b57600080fd5b506101b8600480360381019080803567ffffffffffffffff169060200190929190803590602001909291908035906020019092919050505061098f565b005b3480156101c657600080fd5b506101ef600480360381019080803567ffffffffffffffff169060200190929190505050610e5a565b005b3480156101fd57600080fd5b5061021c60048036038101908080359060200190929190505050611271565b604051808a67ffffffffffffffff1667ffffffffffffffff1681526020018981526020018873ffffffffffffffffffffffffffffffffffffffff1673ffffffffffffffffffffffffffffffffffffffff1681526020018773ffffffffffffffffffffffffffffffffffffffff1673ffffffffffffffffffffffffffffffffffffffff1681526020018660ff1660ff168152602001858152602001848152602001838152602001828152602001995050505050505050505060405180910390f35b3480156102e857600080fd5b506102f161132f565b6040518082815260200191505060405180910390f35b34801561031357600080fd5b5061033c600480360381019080803567ffffffffffffffff169060200190929190505050611335565b005b34801561034a57600080fd5b50610373600480360381019080803567ffffffffffffffff169060200190929190505050611871565b6040518082815260200191505060405180910390f35b34801561039557600080fd5b506103c8600480360381019080803590602001909291908035906020019092919080359060200190929190505050611889565b604051808215151515815260200191505060405180910390f35b3480156103ee57600080fd5b506103f7611924565b604051808215151515815260200191505060405180910390f35b61045b600480360381019080803590602001909291908035906020019092919080359060200190929190803590602001908201803590602001919091929391929390505050611937565b005b34801561046957600080fd5b50610492600480360381019080803567ffffffffffffffff169060200190929190505050611eb3565b6040518080602001828103825283818151815260200191508051906020019060200280838360005b838110156104d55780820151818401526020810190506104ba565b505050509050019250505060405180910390f35b3480156104f557600080fd5b506104fe612336565b005b34801561050c57600080fd5b50610535600480360381019080803567ffffffffffffffff169060200190929190505050612454565b604051808881526020018781526020018673ffffffffffffffffffffffffffffffffffffffff1673ffffffffffffffffffffffffffffffffffffffff1681526020018573ffffffffffffffffffffffffffffffffffffffff1673ffffffffffffffffffffffffffffffffffffffff1681526020018460ff1660ff16815260200183815260200180602001828103825283818151815260200191508051906020019060200280838360005b838110156105fa5780820151818401526020810190506105df565b505050509050019850505050505050505060405180910390f35b34801561062057600080fd5b506106536004803603810190808035906020019092919080359060200190929190803590602001909291905050506127c3565b005b34801561066157600080fd5b50610680600480360381019080803590602001909291905050506128b3565b005b34801561068e57600080fd5b506106976129b8565b6040518082815260200191505060405180910390f35b3480156106b957600080fd5b506106c26129be565b005b3480156106d057600080fd5b506106d9612bc6565b604051808273ffffffffffffffffffffffffffffffffffffffff1673ffffffffffffffffffffffffffffffffffffffff16815260200191505060405180910390f35b34801561072757600080fd5b50610730612bec565b604051808267ffffffffffffffff1667ffffffffffffffff16815260200191505060405180910390f35b34801561076657600080fd5b5061076f612c06565b005b6107996004803603810190808035906020019092919080359060200190929190505050612cd6565b005b3480156107a757600080fd5b506107b0612d8f565b005b3480156107be57600080fd5b506107dd60048036038101908080359060200190929190505050612eae565b604051808381526020018281526020019250505060405180910390f35b34801561080657600080fd5b5061080f612f00565b604051808273ffffffffffffffffffffffffffffffffffffffff1673ffffffffffffffffffffffffffffffffffffffff16815260200191505060405180910390f35b34801561085d57600080fd5b50610892600480360381019080803573ffffffffffffffffffffffffffffffffffffffff169060200190929190505050612f25565b005b6108c6600480360381019080803567ffffffffffffffff1690602001909291908035906020019092919050505061306e565b005b3480156108d457600080fd5b506108f36004803603810190808035906020019092919050505061329d565b005b34801561090157600080fd5b5061090a613422565b604051808273ffffffffffffffffffffffffffffffffffffffff1673ffffffffffffffffffffffffffffffffffffffff16815260200191505060405180910390f35b34801561095857600080fd5b5061098d600480360381019080803573ffffffffffffffffffffffffffffffffffffffff169060200190929190505050613448565b005b600080600080600080883373ffffffffffffffffffffffffffffffffffffffff1660088267ffffffffffffffff168154811015156109c957fe5b906000526020600020906008020160020160009054906101000a900473ffffffffffffffffffffffffffffffffffffffff1673ffffffffffffffffffffffffffffffffffffffff161480610a9257503373ffffffffffffffffffffffffffffffffffffffff1660088267ffffffffffffffff16815481101515610a4857fe5b906000526020600020906008020160030160009054906101000a900473ffffffffffffffffffffffffffffffffffffffff1673ffffffffffffffffffffffffffffffffffffffff16145b1515610b06576040517f08c379a00000000000000000000000000000000000000000000000000000000081526004018080602001828103825260108152602001807f6e6565642067616d6520706c617965720000000000000000000000000000000081525060200191505060405180910390fd5b896001600560009054906101000a900467ffffffffffffffff1667ffffffffffffffff168267ffffffffffffffff16101515610baa576040517f08c379a000000000000000000000000000000000000000000000000000000000815260040180806020018281038252600d8152602001807f77726f6e672067616d652069640000000000000000000000000000000000000081525060200191505060405180910390fd5b8060ff1660088367ffffffffffffffff16815481101515610bc757fe5b906000526020600020906008020160030160149054906101000a900460ff1660ff16141515610c5e576040517f08c379a00000000000000000000000000000000000000000000000000000000081526004018080602001828103825260118152602001807f77726f6e672067616d652073746174757300000000000000000000000000000081525060200191505060405180910390fd5b60088c67ffffffffffffffff16815481101515610c7757fe5b906000526020600020906008020198503373ffffffffffffffffffffffffffffffffffffffff168960020160009054906101000a900473ffffffffffffffffffffffffffffffffffffffff1673ffffffffffffffffffffffffffffffffffffffff161415610ceb5788600401549750610cf3565b886005015497505b610cfe888c8c611889565b9650861515610d75576040517f08c379a00000000000000000000000000000000000000000000000000000000081526004018080602001828103825260148152602001807f77726f6e67206b6579206f7220636f6e74656e7400000000000000000000000081525060200191505060405180910390fd5b610d80888c8c6127c3565b8b67ffffffffffffffff167fc7a139737cd6184b2f7e21f2772a5be4e94abef5bd30ae5723616d19edf906a9338d8d604051808473ffffffffffffffffffffffffffffffffffffffff1673ffffffffffffffffffffffffffffffffffffffff168152602001838152602001828152602001935050505060405180910390a2610e0b8960040154612eae565b965050610e1b8960050154612eae565b95505060008614158015610e30575060008514155b15610e4c57610e3f8686613550565b9350610e4b8c85613607565b5b505050505050505050505050565b6000813373ffffffffffffffffffffffffffffffffffffffff1660088267ffffffffffffffff16815481101515610e8d57fe5b906000526020600020906008020160020160009054906101000a900473ffffffffffffffffffffffffffffffffffffffff1673ffffffffffffffffffffffffffffffffffffffff161480610f5657503373ffffffffffffffffffffffffffffffffffffffff1660088267ffffffffffffffff16815481101515610f0c57fe5b906000526020600020906008020160030160009054906101000a900473ffffffffffffffffffffffffffffffffffffffff1673ffffffffffffffffffffffffffffffffffffffff16145b1515610fca576040517f08c379a00000000000000000000000000000000000000000000000000000000081526004018080602001828103825260108152602001807f6e6565642067616d6520706c617965720000000000000000000000000000000081525060200191505060405180910390fd5b826000600560009054906101000a900467ffffffffffffffff1667ffffffffffffffff168267ffffffffffffffff1610151561106e576040517f08c379a000000000000000000000000000000000000000000000000000000000815260040180806020018281038252600d8152602001807f77726f6e672067616d652069640000000000000000000000000000000000000081525060200191505060405180910390fd5b8060ff1660088367ffffffffffffffff1681548110151561108b57fe5b906000526020600020906008020160030160149054906101000a900460ff1660ff16141515611122576040517f08c379a00000000000000000000000000000000000000000000000000000000081526004018080602001828103825260118152602001807f77726f6e672067616d652073746174757300000000000000000000000000000081525060200191505060405180910390fd5b8461112c81613970565b15156111a0576040517f08c379a00000000000000000000000000000000000000000000000000000000081526004018080602001828103825260128152602001807f6e6565642067616d652074696d65206f7574000000000000000000000000000081525060200191505060405180910390fd5b60088667ffffffffffffffff168154811015156111b957fe5b9060005260206000209060080201945060038560030160146101000a81548160ff021916908360ff1602179055503373ffffffffffffffffffffffffffffffffffffffff166108fc86600101549081150290604051600060405180830381858888f19350505050158015611231573d6000803e3d6000fd5b508567ffffffffffffffff167fa77d020ec6193b836dd9686343fd6244891812d0d63f6b8567734bf69298985860405160405180910390a2505050505050565b60088181548110151561128057fe5b90600052602060002090600802016000915090508060000160009054906101000a900467ffffffffffffffff16908060010154908060020160009054906101000a900473ffffffffffffffffffffffffffffffffffffffff16908060030160009054906101000a900473ffffffffffffffffffffffffffffffffffffffff16908060030160149054906101000a900460ff16908060040154908060050154908060060154908060070154905089565b60035481565b61133d6151fa565b600080833373ffffffffffffffffffffffffffffffffffffffff1660088267ffffffffffffffff1681548110151561137157fe5b906000526020600020906008020160020160009054906101000a900473ffffffffffffffffffffffffffffffffffffffff1673ffffffffffffffffffffffffffffffffffffffff16148061143a57503373ffffffffffffffffffffffffffffffffffffffff1660088267ffffffffffffffff168154811015156113f057fe5b906000526020600020906008020160030160009054906101000a900473ffffffffffffffffffffffffffffffffffffffff1673ffffffffffffffffffffffffffffffffffffffff16145b15156114ae576040517f08c379a00000000000000000000000000000000000000000000000000000000081526004018080602001828103825260108152602001807f6e6565642067616d6520706c617965720000000000000000000000000000000081525060200191505060405180910390fd5b846001600560009054906101000a900467ffffffffffffffff1667ffffffffffffffff168267ffffffffffffffff16101515611552576040517f08c379a000000000000000000000000000000000000000000000000000000000815260040180806020018281038252600d8152602001807f77726f6e672067616d652069640000000000000000000000000000000000000081525060200191505060405180910390fd5b8060ff1660088367ffffffffffffffff1681548110151561156f57fe5b906000526020600020906008020160030160149054906101000a900460ff1660ff16141515611606576040517f08c379a00000000000000000000000000000000000000000000000000000000081526004018080602001828103825260118152602001807f77726f6e672067616d652073746174757300000000000000000000000000000081525060200191505060405180910390fd5b8661161081613970565b1515611684576040517f08c379a00000000000000000000000000000000000000000000000000000000081526004018080602001828103825260128152602001807f6e6565642067616d652074696d65206f7574000000000000000000000000000081525060200191505060405180910390fd5b60088867ffffffffffffffff1681548110151561169d57fe5b906000526020600020906008020161012060405190810160405290816000820160009054906101000a900467ffffffffffffffff1667ffffffffffffffff1667ffffffffffffffff168152602001600182015481526020016002820160009054906101000a900473ffffffffffffffffffffffffffffffffffffffff1673ffffffffffffffffffffffffffffffffffffffff1673ffffffffffffffffffffffffffffffffffffffff1681526020016003820160009054906101000a900473ffffffffffffffffffffffffffffffffffffffff1673ffffffffffffffffffffffffffffffffffffffff1673ffffffffffffffffffffffffffffffffffffffff1681526020016003820160149054906101000a900460ff1660ff1660ff16815260200160048201548152602001600582015481526020016006820154815260200160078201548152505096506117f48760a00151612eae565b9650506118048760c00151612eae565b9550506000861415156118215761181c886001613607565b611867565b60008514151561185a57611855887fffffffffffffffffffffffffffffffffffffffffffffffffffffffffffffffff613607565b611866565b611865886000613607565b5b5b5050505050505050565b60096020528060005260406000206000915090505481565b6000828260405160200180838152602001828152602001925050506040516020818303038152906040526040518082805190602001908083835b6020831015156118e857805182526020820191506020810190506020830392506118c3565b6001836020036101000a038019825116818451168082178552505050505050905001915050604051809103902060019004841490509392505050565b600160149054906101000a900460ff1681565b600083600073ffffffffffffffffffffffffffffffffffffffff166005600c9054906101000a900473ffffffffffffffffffffffffffffffffffffffff1673ffffffffffffffffffffffffffffffffffffffff1614151515611a01576040517f08c379a00000000000000000000000000000000000000000000000000000000081526004018080602001828103825260158152602001807f4e6f2067726f757020636861742061646472657373000000000000000000000081525060200191505060405180910390fd5b600660009054906101000a900473ffffffffffffffffffffffffffffffffffffffff1673ffffffffffffffffffffffffffffffffffffffff166347b84f4182336040518363ffffffff167c0100000000000000000000000000000000000000000000000000000000028152600401808381526020018273ffffffffffffffffffffffffffffffffffffffff1673ffffffffffffffffffffffffffffffffffffffff16815260200192505050602060405180830381600087803b158015611ac657600080fd5b505af1158015611ada573d6000803e3d6000fd5b505050506040513d6020811015611af057600080fd5b81019080805190602001909291905050501515611b75576040517f08c379a00000000000000000000000000000000000000000000000000000000081526004018080602001828103825260198152602001807f596f7520617265206e6f7420696e20746869732067726f75700000000000000081525060200191505060405180910390fd5b600660009054906101000a900473ffffffffffffffffffffffffffffffffffffffff1673ffffffffffffffffffffffffffffffffffffffff16638ed5788182336040518363ffffffff167c0100000000000000000000000000000000000000000000000000000000028152600401808381526020018273ffffffffffffffffffffffffffffffffffffffff1673ffffffffffffffffffffffffffffffffffffffff16815260200192505050602060405180830381600087803b158015611c3a57600080fd5b505af1158015611c4e573d6000803e3d6000fd5b505050506040513d6020811015611c6457600080fd5b8101908080519060200190929190505050151515611cea576040517f08c379a00000000000000000000000000000000000000000000000000000000081526004018080602001828103825260148152602001807f596f752068617665206265656e2062616e6e656400000000000000000000000081525060200191505060405180910390fd5b600160149054906101000a900460ff161515611d94576040517f08c379a00000000000000000000000000000000000000000000000000000000081526004018080602001828103825260238152602001807f436f6e747261637420686173206265656e2064697361626c6564206279206f7781526020017f6e6572000000000000000000000000000000000000000000000000000000000081525060400191505060405180910390fd5b611d9e8787613aed565b915084600960008467ffffffffffffffff1667ffffffffffffffff16815260200190815260200160002081905550611e09858386868080601f016020809104026020016040519081016040528093929190818152602001838380828437820191505050505050613db5565b8167ffffffffffffffff16857fcb613bba8ba408214751d7ddec60c59f97abed6bed1c604296cd6c93be647a13338787348c604051808673ffffffffffffffffffffffffffffffffffffffff1673ffffffffffffffffffffffffffffffffffffffff1681526020018060200184815260200183815260200182810382528686828181526020019250808284378201915050965050505050505060405180910390a350505050505050565b6060600060606000611ec36151fa565b600560089054906101000a900463ffffffff1663ffffffff168667ffffffffffffffff1611151515611f5d576040517f08c379a00000000000000000000000000000000000000000000000000000000081526004018080602001828103825260118152602001807f6c696d697420697320746f6f206869676800000000000000000000000000000081525060200191505060405180910390fd5b600560009054906101000a900467ffffffffffffffff1667ffffffffffffffff168667ffffffffffffffff1611611f945785611fac565b600560009054906101000a900467ffffffffffffffff165b93506007840267ffffffffffffffff16604051908082528060200260200182016040528015611fea5781602001602082028038833980820191505090505b509250600091505b8367ffffffffffffffff168267ffffffffffffffff16101561232a576008600183600560009054906101000a900467ffffffffffffffff16030367ffffffffffffffff1681548110151561204257fe5b906000526020600020906008020161012060405190810160405290816000820160009054906101000a900467ffffffffffffffff1667ffffffffffffffff1667ffffffffffffffff168152602001600182015481526020016002820160009054906101000a900473ffffffffffffffffffffffffffffffffffffffff1673ffffffffffffffffffffffffffffffffffffffff1673ffffffffffffffffffffffffffffffffffffffff1681526020016003820160009054906101000a900473ffffffffffffffffffffffffffffffffffffffff1673ffffffffffffffffffffffffffffffffffffffff1673ffffffffffffffffffffffffffffffffffffffff1681526020016003820160149054906101000a900460ff1660ff1660ff1681526020016004820154815260200160058201548152602001600682015481526020016007820154815250509050806000015167ffffffffffffffff16836000600785020167ffffffffffffffff168151811015156121b957fe5b90602001906020020181815250508060200151836001600785020167ffffffffffffffff168151811015156121ea57fe5b9060200190602002018181525050806101000151836002600785020167ffffffffffffffff1681518110151561221c57fe5b9060200190602002018181525050806040015173ffffffffffffffffffffffffffffffffffffffff16836003600785020167ffffffffffffffff1681518110151561226357fe5b9060200190602002018181525050806060015173ffffffffffffffffffffffffffffffffffffffff16836004600785020167ffffffffffffffff168151811015156122aa57fe5b9060200190602002018181525050806080015160ff16836005600785020167ffffffffffffffff168151811015156122de57fe5b90602001906020020181815250508060e00151836006600785020167ffffffffffffffff1681518110151561230f57fe5b90602001906020020181815250508180600101925050611ff2565b82945050505050919050565b6000809054906101000a900473ffffffffffffffffffffffffffffffffffffffff1673ffffffffffffffffffffffffffffffffffffffff163373ffffffffffffffffffffffffffffffffffffffff161415156123fa576040517f08c379a00000000000000000000000000000000000000000000000000000000081526004018080602001828103825260208152602001807f4f776e61626c653a2063616c6c6572206973206e6f7420746865206f776e657281525060200191505060405180910390fd5b60018060146101000a81548160ff021916908315150217905550600160149054906101000a900460ff1615157f44cd398f157fa2dcc23e1a3238d8ec602ef8ed03c90372c10918d81d69e36ab160405160405180910390a2565b60008060008060008060606124676151fa565b6000806000806060600560009054906101000a900467ffffffffffffffff1667ffffffffffffffff168e67ffffffffffffffff16101515612510576040517f08c379a000000000000000000000000000000000000000000000000000000000815260040180806020018281038252600d8152602001807f77726f6e672067616d652069640000000000000000000000000000000000000081525060200191505060405180910390fd5b60088e67ffffffffffffffff1681548110151561252957fe5b906000526020600020906008020161012060405190810160405290816000820160009054906101000a900467ffffffffffffffff1667ffffffffffffffff1667ffffffffffffffff168152602001600182015481526020016002820160009054906101000a900473ffffffffffffffffffffffffffffffffffffffff1673ffffffffffffffffffffffffffffffffffffffff1673ffffffffffffffffffffffffffffffffffffffff1681526020016003820160009054906101000a900473ffffffffffffffffffffffffffffffffffffffff1673ffffffffffffffffffffffffffffffffffffffff1673ffffffffffffffffffffffffffffffffffffffff1681526020016003820160149054906101000a900460ff1660ff1660ff16815260200160048201548152602001600582015481526020016006820154815260200160078201548152505095506126808660a00151612eae565b945094506126918660c00151612eae565b9250925060066040519080825280602002602001820160405280156126c55781602001602082028038833980820191505090505b5090508560a001518160008151811015156126dc57fe5b9060200190602002018181525050848160018151811015156126fa57fe5b90602001906020020181815250508381600281518110151561271857fe5b90602001906020020181815250508560c0015181600381518110151561273a57fe5b90602001906020020181815250508281600481518110151561275857fe5b90602001906020020181815250508181600581518110151561277657fe5b906020019060200201818152505085602001518661010001518760400151886060015189608001518a60e00151869c509c509c509c509c509c509c50505050505050919395979092949650565b60006127d0848484611889565b9050801515612847576040517f08c379a00000000000000000000000000000000000000000000000000000000081526004018080602001828103825260168152602001807f77726f6e672070726f6f66206f7220636f6e74656e740000000000000000000081525060200191505060405180910390fd5b6040805190810160405280848152602001838152506002600086815260200190815260200160002090600261287d929190615280565b508183857f41db0f74adc00cbd49d97d38e90961d851e90a30c3566014c9b3980c9013890860405160405180910390a450505050565b6000809054906101000a900473ffffffffffffffffffffffffffffffffffffffff1673ffffffffffffffffffffffffffffffffffffffff163373ffffffffffffffffffffffffffffffffffffffff16141515612977576040517f08c379a00000000000000000000000000000000000000000000000000000000081526004018080602001828103825260208152602001807f4f776e61626c653a2063616c6c6572206973206e6f7420746865206f776e657281525060200191505060405180910390fd5b806004819055507f016810b2453fd6fa62348747e56186a28bfab39f0326d594aa954c3421996500816040518082815260200191505060405180910390a150565b60045481565b600160009054906101000a900473ffffffffffffffffffffffffffffffffffffffff1673ffffffffffffffffffffffffffffffffffffffff163373ffffffffffffffffffffffffffffffffffffffff16141515612a83576040517f08c379a00000000000000000000000000000000000000000000000000000000081526004018080602001828103825260168152602001807f50656e64696e67206f776e65722072657175697265640000000000000000000081525060200191505060405180910390fd5b600160009054906101000a900473ffffffffffffffffffffffffffffffffffffffff1673ffffffffffffffffffffffffffffffffffffffff166000809054906101000a900473ffffffffffffffffffffffffffffffffffffffff1673ffffffffffffffffffffffffffffffffffffffff167f8be0079c531659141344cd1fd0a4f28419497f9722a3daafe3b4186f6b6457e060405160405180910390a3600160009054906101000a900473ffffffffffffffffffffffffffffffffffffffff166000806101000a81548173ffffffffffffffffffffffffffffffffffffffff021916908373ffffffffffffffffffffffffffffffffffffffff1602179055506000600160006101000a81548173ffffffffffffffffffffffffffffffffffffffff021916908373ffffffffffffffffffffffffffffffffffffffff160217905550565b6005600c9054906101000a900473ffffffffffffffffffffffffffffffffffffffff1681565b600560009054906101000a900467ffffffffffffffff1681565b6000809054906101000a900473ffffffffffffffffffffffffffffffffffffffff1673ffffffffffffffffffffffffffffffffffffffff163373ffffffffffffffffffffffffffffffffffffffff16141515612cca576040517f08c379a00000000000000000000000000000000000000000000000000000000081526004018080602001828103825260208152602001807f4f776e61626c653a2063616c6c6572206973206e6f7420746865206f776e657281525060200191505060405180910390fd5b612cd4600061429c565b565b600160149054906101000a900460ff161515612d80576040517f08c379a00000000000000000000000000000000000000000000000000000000081526004018080602001828103825260238152602001807f436f6e747261637420686173206265656e2064697361626c6564206279206f7781526020017f6e6572000000000000000000000000000000000000000000000000000000000081525060400191505060405180910390fd5b612d8a8282613aed565b505050565b6000809054906101000a900473ffffffffffffffffffffffffffffffffffffffff1673ffffffffffffffffffffffffffffffffffffffff163373ffffffffffffffffffffffffffffffffffffffff16141515612e53576040517f08c379a00000000000000000000000000000000000000000000000000000000081526004018080602001828103825260208152602001807f4f776e61626c653a2063616c6c6572206973206e6f7420746865206f776e657281525060200191505060405180910390fd5b6000600160146101000a81548160ff021916908315150217905550600160149054906101000a900460ff1615157f44cd398f157fa2dcc23e1a3238d8ec602ef8ed03c90372c10918d81d69e36ab160405160405180910390a2565b600080600260008481526020019081526020016000206000600281101515612ed257fe5b0154600260008581526020019081526020016000206001600281101515612ef557fe5b015491509150915091565b6000809054906101000a900473ffffffffffffffffffffffffffffffffffffffff1681565b6000809054906101000a900473ffffffffffffffffffffffffffffffffffffffff1673ffffffffffffffffffffffffffffffffffffffff163373ffffffffffffffffffffffffffffffffffffffff16141515612fe9576040517f08c379a00000000000000000000000000000000000000000000000000000000081526004018080602001828103825260208152602001807f4f776e61626c653a2063616c6c6572206973206e6f7420746865206f776e657281525060200191505060405180910390fd5b806005600c6101000a81548173ffffffffffffffffffffffffffffffffffffffff021916908373ffffffffffffffffffffffffffffffffffffffff16021790555080600660006101000a81548173ffffffffffffffffffffffffffffffffffffffff021916908373ffffffffffffffffffffffffffffffffffffffff16021790555050565b6000826000600560009054906101000a900467ffffffffffffffff1667ffffffffffffffff168267ffffffffffffffff16101515613114576040517f08c379a000000000000000000000000000000000000000000000000000000000815260040180806020018281038252600d8152602001807f77726f6e672067616d652069640000000000000000000000000000000000000081525060200191505060405180910390fd5b8060ff1660088367ffffffffffffffff1681548110151561313157fe5b906000526020600020906008020160030160149054906101000a900460ff1660ff161415156131c8576040517f08c379a00000000000000000000000000000000000000000000000000000000081526004018080602001828103825260118152602001807f77726f6e672067616d652073746174757300000000000000000000000000000081525060200191505060405180910390fd5b846131d281613970565b151515613247576040517f08c379a000000000000000000000000000000000000000000000000000000000815260040180806020018281038252600b8152602001807f74696d65206973206f757400000000000000000000000000000000000000000081525060200191505060405180910390fd5b600960008767ffffffffffffffff1667ffffffffffffffff168152602001908152602001600020549350600084111561328a57613285868686614360565b613295565b6132948686614721565b5b505050505050565b6000809054906101000a900473ffffffffffffffffffffffffffffffffffffffff1673ffffffffffffffffffffffffffffffffffffffff163373ffffffffffffffffffffffffffffffffffffffff16141515613361576040517f08c379a00000000000000000000000000000000000000000000000000000000081526004018080602001828103825260208152602001807f4f776e61626c653a2063616c6c6572206973206e6f7420746865206f776e657281525060200191505060405180910390fd5b670de0b6b3a764000081101515156133e1576040517f08c379a000000000000000000000000000000000000000000000000000000000815260040180806020018281038252600c8152602001807f6c696d697420746f206c6f77000000000000000000000000000000000000000081525060200191505060405180910390fd5b806003819055507f44c8ef68dcc036e569158e914a009e3f02c9e933580e31424a1ae67728df7465816040518082815260200191505060405180910390a150565b600160009054906101000a900473ffffffffffffffffffffffffffffffffffffffff1681565b6000809054906101000a900473ffffffffffffffffffffffffffffffffffffffff1673ffffffffffffffffffffffffffffffffffffffff163373ffffffffffffffffffffffffffffffffffffffff1614151561350c576040517f08c379a00000000000000000000000000000000000000000000000000000000081526004018080602001828103825260208152602001807f4f776e61626c653a2063616c6c6572206973206e6f7420746865206f776e657281525060200191505060405180910390fd5b80600160006101000a81548173ffffffffffffffffffffffffffffffffffffffff021916908373ffffffffffffffffffffffffffffffffffffffff16021790555050565b600080828403905060018160000b148061358c57507ffffffffffffffffffffffffffffffffffffffffffffffffffffffffffffffffe8160000b145b1561359a5760019150613600565b7fffffffffffffffffffffffffffffffffffffffffffffffffffffffffffffffff8160000b14806135ce575060028160000b145b156135fb577fffffffffffffffffffffffffffffffffffffffffffffffffffffffffffffffff9150613600565b600091505b5092915050565b600060088367ffffffffffffffff1681548110151561362257fe5b9060005260206000209060080201905060018260000b14156136e1578060020160009054906101000a900473ffffffffffffffffffffffffffffffffffffffff1673ffffffffffffffffffffffffffffffffffffffff166108fc82600101549081150290604051600060405180830381858888f193505050501580156136ac573d6000803e3d6000fd5b506136dc8160020160009054906101000a900473ffffffffffffffffffffffffffffffffffffffff16600361492f565b613905565b7fffffffffffffffffffffffffffffffffffffffffffffffffffffffffffffffff8260000b14156137af578060030160009054906101000a900473ffffffffffffffffffffffffffffffffffffffff1673ffffffffffffffffffffffffffffffffffffffff166108fc82600101549081150290604051600060405180830381858888f1935050505015801561377a573d6000803e3d6000fd5b506137aa8160030160009054906101000a900473ffffffffffffffffffffffffffffffffffffffff16600361492f565b613904565b8060020160009054906101000a900473ffffffffffffffffffffffffffffffffffffffff1673ffffffffffffffffffffffffffffffffffffffff166108fc600283600101548115156137fd57fe5b049081150290604051600060405180830381858888f19350505050158015613829573d6000803e3d6000fd5b508060030160009054906101000a900473ffffffffffffffffffffffffffffffffffffffff1673ffffffffffffffffffffffffffffffffffffffff166108fc6002836001015481151561387857fe5b049081150290604051600060405180830381858888f193505050501580156138a4573d6000803e3d6000fd5b506138d48160020160009054906101000a900473ffffffffffffffffffffffffffffffffffffffff16600161492f565b6139038160030160009054906101000a900473ffffffffffffffffffffffffffffffffffffffff16600161492f565b5b5b60028160030160146101000a81548160ff021916908360ff1602179055508267ffffffffffffffff167f3598a14b08a100ac75597e6f8e8309dfd773210d8ff4be917cebe132e82b7e5183604051808260000b60000b815260200191505060405180910390a2505050565b600061397a6151fa565b60088367ffffffffffffffff1681548110151561399357fe5b906000526020600020906008020161012060405190810160405290816000820160009054906101000a900467ffffffffffffffff1667ffffffffffffffff1667ffffffffffffffff168152602001600182015481526020016002820160009054906101000a900473ffffffffffffffffffffffffffffffffffffffff1673ffffffffffffffffffffffffffffffffffffffff1673ffffffffffffffffffffffffffffffffffffffff1681526020016003820160009054906101000a900473ffffffffffffffffffffffffffffffffffffffff1673ffffffffffffffffffffffffffffffffffffffff1673ffffffffffffffffffffffffffffffffffffffff1681526020016003820160149054906101000a900460ff1660ff1660ff1681526020016004820154815260200160058201548152602001600682015481526020016007820154815250509050428160e001511115915050919050565b6000613af76151fa565b61012060405190810160405280600560009054906101000a900467ffffffffffffffff1667ffffffffffffffff1681526020013481526020013373ffffffffffffffffffffffffffffffffffffffff168152602001600073ffffffffffffffffffffffffffffffffffffffff168152602001600060ff16815260200185815260200160008152602001600454420181526020018481525090506005600081819054906101000a900467ffffffffffffffff168092919060010191906101000a81548167ffffffffffffffff021916908367ffffffffffffffff160217905550506008819080600181540180825580915050906001820390600052602060002090600802016000909192909190915060008201518160000160006101000a81548167ffffffffffffffff021916908367ffffffffffffffff1602179055506020820151816001015560408201518160020160006101000a81548173ffffffffffffffffffffffffffffffffffffffff021916908373ffffffffffffffffffffffffffffffffffffffff16021790555060608201518160030160006101000a81548173ffffffffffffffffffffffffffffffffffffffff021916908373ffffffffffffffffffffffffffffffffffffffff16021790555060808201518160030160146101000a81548160ff021916908360ff16021790555060a0820151816004015560c0820151816005015560e082015181600601556101008201518160070155505050806000015167ffffffffffffffff167f04b3f072ec09d8a8e42d32becc4b8f5907ae8e1840ab37c6698647fd2ecf24458260400151863487604051808573ffffffffffffffffffffffffffffffffffffffff1673ffffffffffffffffffffffffffffffffffffffff16815260200184815260200183815260200182815260200194505050505060405180910390a2806000015191505092915050565b606083600073ffffffffffffffffffffffffffffffffffffffff166005600c9054906101000a900473ffffffffffffffffffffffffffffffffffffffff1673ffffffffffffffffffffffffffffffffffffffff1614151515613e7f576040517f08c379a00000000000000000000000000000000000000000000000000000000081526004018080602001828103825260158152602001807f4e6f2067726f757020636861742061646472657373000000000000000000000081525060200191505060405180910390fd5b600660009054906101000a900473ffffffffffffffffffffffffffffffffffffffff1673ffffffffffffffffffffffffffffffffffffffff166347b84f4182336040518363ffffffff167c0100000000000000000000000000000000000000000000000000000000028152600401808381526020018273ffffffffffffffffffffffffffffffffffffffff1673ffffffffffffffffffffffffffffffffffffffff16815260200192505050602060405180830381600087803b158015613f4457600080fd5b505af1158015613f58573d6000803e3d6000fd5b505050506040513d6020811015613f6e57600080fd5b81019080805190602001909291905050501515613ff3576040517f08c379a00000000000000000000000000000000000000000000000000000000081526004018080602001828103825260198152602001807f596f7520617265206e6f7420696e20746869732067726f75700000000000000081525060200191505060405180910390fd5b600660009054906101000a900473ffffffffffffffffffffffffffffffffffffffff1673ffffffffffffffffffffffffffffffffffffffff16638ed5788182336040518363ffffffff167c0100000000000000000000000000000000000000000000000000000000028152600401808381526020018273ffffffffffffffffffffffffffffffffffffffff1673ffffffffffffffffffffffffffffffffffffffff16815260200192505050602060405180830381600087803b1580156140b857600080fd5b505af11580156140cc573d6000803e3d6000fd5b505050506040513d60208110156140e257600080fd5b8101908080519060200190929190505050151515614168576040517f08c379a00000000000000000000000000000000000000000000000000000000081526004018080602001828103825260148152602001807f596f752068617665206265656e2062616e6e656400000000000000000000000081525060200191505060405180910390fd5b61417d8467ffffffffffffffff168433614a1a565b9150600660009054906101000a900473ffffffffffffffffffffffffffffffffffffffff1673ffffffffffffffffffffffffffffffffffffffff1663aae8b59286846040518363ffffffff167c01000000000000000000000000000000000000000000000000000000000281526004018083815260200180602001828103825283818151815260200191508051906020019080838360005b83811015614230578082015181840152602081019050614215565b50505050905090810190601f16801561425d5780820380516001836020036101000a031916815260200191505b509350505050600060405180830381600087803b15801561427d57600080fd5b505af1158015614291573d6000803e3d6000fd5b505050505050505050565b60008060009054906101000a900473ffffffffffffffffffffffffffffffffffffffff169050816000806101000a81548173ffffffffffffffffffffffffffffffffffffffff021916908373ffffffffffffffffffffffffffffffffffffffff1602179055508173ffffffffffffffffffffffffffffffffffffffff168173ffffffffffffffffffffffffffffffffffffffff167f8be0079c531659141344cd1fd0a4f28419497f9722a3daafe3b4186f6b6457e060405160405180910390a35050565b80600073ffffffffffffffffffffffffffffffffffffffff166005600c9054906101000a900473ffffffffffffffffffffffffffffffffffffffff1673ffffffffffffffffffffffffffffffffffffffff1614151515614428576040517f08c379a00000000000000000000000000000000000000000000000000000000081526004018080602001828103825260158152602001807f4e6f2067726f757020636861742061646472657373000000000000000000000081525060200191505060405180910390fd5b600660009054906101000a900473ffffffffffffffffffffffffffffffffffffffff1673ffffffffffffffffffffffffffffffffffffffff166347b84f4182336040518363ffffffff167c0100000000000000000000000000000000000000000000000000000000028152600401808381526020018273ffffffffffffffffffffffffffffffffffffffff1673ffffffffffffffffffffffffffffffffffffffff16815260200192505050602060405180830381600087803b1580156144ed57600080fd5b505af1158015614501573d6000803e3d6000fd5b505050506040513d602081101561451757600080fd5b8101908080519060200190929190505050151561459c576040517f08c379a00000000000000000000000000000000000000000000000000000000081526004018080602001828103825260198152602001807f596f7520617265206e6f7420696e20746869732067726f75700000000000000081525060200191505060405180910390fd5b600660009054906101000a900473ffffffffffffffffffffffffffffffffffffffff1673ffffffffffffffffffffffffffffffffffffffff16638ed5788182336040518363ffffffff167c0100000000000000000000000000000000000000000000000000000000028152600401808381526020018273ffffffffffffffffffffffffffffffffffffffff1673ffffffffffffffffffffffffffffffffffffffff16815260200192505050602060405180830381600087803b15801561466157600080fd5b505af1158015614675573d6000803e3d6000fd5b505050506040513d602081101561468b57600080fd5b8101908080519060200190929190505050151515614711576040517f08c379a00000000000000000000000000000000000000000000000000000000081526004018080602001828103825260148152602001807f596f752068617665206265656e2062616e6e656400000000000000000000000081525060200191505060405180910390fd5b61471b8484614721565b50505050565b600060088367ffffffffffffffff1681548110151561473c57fe5b90600052602060002090600802019050806007015434101515156147c8576040517f08c379a000000000000000000000000000000000000000000000000000000000815260040180806020018281038252600d8152602001807f77726f6e672062616c616e63650000000000000000000000000000000000000081525060200191505060405180910390fd5b338160030160006101000a81548173ffffffffffffffffffffffffffffffffffffffff021916908373ffffffffffffffffffffffffffffffffffffffff1602179055508181600501819055503481600101540181600101819055504260045401816006018190555060018160030160146101000a81548160ff021916908360ff16021790555061487d8160020160009054906101000a900473ffffffffffffffffffffffffffffffffffffffff16600261492f565b6148ac8160030160009054906101000a900473ffffffffffffffffffffffffffffffffffffffff16600161492f565b8267ffffffffffffffff167f6030de52daebee6c07b2f6f4b2e8ba8707191b786719c3a2ece9cda6278e1e53338434604051808473ffffffffffffffffffffffffffffffffffffffff1673ffffffffffffffffffffffffffffffffffffffff168152602001838152602001828152602001935050505060405180910390a2505050565b600760009054906101000a900473ffffffffffffffffffffffffffffffffffffffff1673ffffffffffffffffffffffffffffffffffffffff1663b13d96fa83670de0b6b3a764000084026040518363ffffffff167c0100000000000000000000000000000000000000000000000000000000028152600401808373ffffffffffffffffffffffffffffffffffffffff1673ffffffffffffffffffffffffffffffffffffffff16815260200182815260200192505050600060405180830381600087803b1580156149fe57600080fd5b505af1158015614a12573d6000803e3d6000fd5b505050505050565b6060806060806060806060614a2e8a614dbc565b95506040805190810160405280601581526020017f7b226d657373616765223a7b2267616d654964223a000000000000000000000081525094506040805190810160405280600881526020017f2c226d7367223a2200000000000000000000000000000000000000000000000081525093506040805190810160405280600c81526020017f222c2273656e646572223a2200000000000000000000000000000000000000008152509250606060405190810160405280602581526020017f227d2c2274797065223a2268616e6767616d65222c2276657273696f6e223a2281526020017f322e31227d00000000000000000000000000000000000000000000000000000081525091508486858b86614b458d614f13565b876040516020018088805190602001908083835b602083101515614b7e5780518252602082019150602081019050602083039250614b59565b6001836020036101000a03801982511681845116808217855250505050505090500187805190602001908083835b602083101515614bd15780518252602082019150602081019050602083039250614bac565b6001836020036101000a03801982511681845116808217855250505050505090500186805190602001908083835b602083101515614c245780518252602082019150602081019050602083039250614bff565b6001836020036101000a03801982511681845116808217855250505050505090500185805190602001908083835b602083101515614c775780518252602082019150602081019050602083039250614c52565b6001836020036101000a03801982511681845116808217855250505050505090500184805190602001908083835b602083101515614cca5780518252602082019150602081019050602083039250614ca5565b6001836020036101000a03801982511681845116808217855250505050505090500183805190602001908083835b602083101515614d1d5780518252602082019150602081019050602083039250614cf8565b6001836020036101000a03801982511681845116808217855250505050505090500182805190602001908083835b602083101515614d705780518252602082019150602081019050602083039250614d4b565b6001836020036101000a03801982511681845116808217855250505050505090500197505050505050505060405160208183030381529060405290508096505050505050509392505050565b60606000806060600080861415614e0a576040805190810160405280600181526020017f30000000000000000000000000000000000000000000000000000000000000008152509450614f0a565b8593505b600084141515614e34578280600101935050600a84811515614e2c57fe5b049350614e0e565b826040519080825280601f01601f191660200182016040528015614e675781602001602082028038833980820191505090505b5091506001830390505b600086141515614f0657600a86811515614e8757fe5b066030017f010000000000000000000000000000000000000000000000000000000000000002828280600190039350815181101515614ec257fe5b9060200101907effffffffffffffffffffffffffffffffffffffffffffffffffffffffffffff1916908160001a905350600a86811515614efe57fe5b049550614e71565b8194505b50505050919050565b60608060008060008060286040519080825280601f01601f191660200182016040528015614f505781602001602082028038833980820191505090505b509450600093505b601484101561511b578360130360080260020a8773ffffffffffffffffffffffffffffffffffffffff16811515614f8b57fe5b047f01000000000000000000000000000000000000000000000000000000000000000292506010837f0100000000000000000000000000000000000000000000000000000000000000900460ff16811515614fe257fe5b047f0100000000000000000000000000000000000000000000000000000000000000029150817f01000000000000000000000000000000000000000000000000000000000000009004601002837f01000000000000000000000000000000000000000000000000000000000000009004037f010000000000000000000000000000000000000000000000000000000000000002905061508082615128565b858560020281518110151561509157fe5b9060200101907effffffffffffffffffffffffffffffffffffffffffffffffffffffffffffff1916908160001a9053506150ca81615128565b85600186600202018151811015156150de57fe5b9060200101907effffffffffffffffffffffffffffffffffffffffffffffffffffffffffffff1916908160001a9053508380600101945050614f58565b8495505050505050919050565b6000600a827f0100000000000000000000000000000000000000000000000000000000000000900460ff1610156151a9576030827f01000000000000000000000000000000000000000000000000000000000000009004017f01000000000000000000000000000000000000000000000000000000000000000290506151f5565b6057827f01000000000000000000000000000000000000000000000000000000000000009004017f01000000000000000000000000000000000000000000000000000000000000000290505b919050565b61012060405190810160405280600067ffffffffffffffff16815260200160008152602001600073ffffffffffffffffffffffffffffffffffffffff168152602001600073ffffffffffffffffffffffffffffffffffffffff168152602001600060ff168152602001600081526020016000815260200160008152602001600081525090565b82600281019282156152af579160200282015b828111156152ae578251825591602001919060010190615293565b5b5090506152bc91906152c0565b5090565b6152e291905b808211156152de5760008160009055506001016152c6565b5090565b905600a165627a7a72305820dfefbdf949a4b89519c7411815ae2211d899422468a1fb5995d11565281feec10029",
  "source": "// SPDX-License-Identifier: MIT\npragma solidity >=0.4.22 <0.9.0;\nimport \"./interfaces/IGame.sol\";\nimport \"./interfaces/IPlayer.sol\";\nimport \"./interfaces/IStarter.sol\";\nimport \"./interfaces/IGroupChat.sol\";\nimport \"./interfaces/IRPS.sol\";\nimport \"@cpchain-tools/cpchain-dapps-utils/contracts/lifecycle/Enable.sol\";\nimport \"@cpchain-tools/cpchain-dapps-utils/contracts/security/Verifiable.sol\";\n\n//1 Rock  2 Paper 3 Scissors  0 unknown\n\ncontract Game is IGame, IStarter, IPlayer, Enable, Verifiable {\n    uint256 public maxLimit = 1000 ether;\n    uint256 public timeoutLimit = 10 minutes;\n    uint64 public totalGameNumber = 0;\n    uint32 private viewCountLimit = 10;\n\n    address public groupChatAddress;\n    IGroupChat private groupchatInstance;\n    IRPS private RPSInstance;\n\n    constructor(address rps) public {\n        RPSInstance = IRPS(rps);\n        RPSInstance.setMintContract();\n    }\n\n    struct HandGame {\n        uint64 gameId;\n        uint256 amount;\n        address starter;\n        address player;\n        //0 started, 1 locked,2,finished,3 cancel,\n        uint8 status;\n        uint256 starterProof;\n        uint256 playerProof;\n        uint256 timeout;\n        uint256 threshold;\n    }\n\n    HandGame[] public games;\n    mapping(uint64 => uint256) public gameToGroup;\n\n    modifier onlyActivatedGroupMember(uint256 group_id) {\n        require(groupChatAddress != address(0x0), \"No group chat address\");\n        require(\n            groupchatInstance.has(group_id, msg.sender),\n            \"You are not in this group\"\n        );\n        require(\n            !groupchatInstance.isBanned(group_id, msg.sender),\n            \"You have been banned\"\n        );\n        _;\n    }\n    modifier onlyPlayer(uint64 gameId) {\n        require(\n            games[gameId].starter == msg.sender ||\n                games[gameId].player == msg.sender,\n            \"need game player\"\n        );\n        _;\n    }\n\n    modifier onlyTimeout(uint64 gameId) {\n        require(_isTimeout(gameId), \"need game time out\");\n        _;\n    }\n\n    modifier notTimeout(uint64 gameId) {\n        require(!_isTimeout(gameId), \"time is out\");\n        _;\n    }\n\n    modifier needGameStatus(uint64 gameId, uint8 status) {\n        require(gameId < totalGameNumber, \"wrong game id\");\n        require(games[gameId].status == status, \"wrong game status\");\n        _;\n    }\n\n    // contract owner methods\n\n    function setGroupChat(address groupchat) public onlyOwner {\n        groupChatAddress = groupchat;\n        groupchatInstance = IGroupChat(groupchat);\n    }\n\n    function setMaxLimit(uint256 limit) external onlyOwner {\n        require(limit >= 1 ether, \"limit to low\");\n        maxLimit = limit;\n        emit SetMaxLimit(limit);\n    }\n\n    function setTimeoutLimit(uint256 limit) external onlyOwner {\n        timeoutLimit = limit;\n        emit SetTimeoutLimit(limit);\n    }\n\n    // view\n    function viewGame(uint64 gameId)\n        external\n        view\n        returns (\n            uint256,\n            uint256,\n            address,\n            address,\n            uint8,\n            uint256,\n            uint256[]\n        )\n    {\n        require(gameId < totalGameNumber, \"wrong game id\");\n        HandGame memory game = games[gameId];\n        (uint256 starterKey, uint256 starterContent) = viewContent(\n            game.starterProof\n        );\n        (uint256 playerKey, uint256 playerContent) = viewContent(\n            game.playerProof\n        );\n\n        uint256[] memory cardsInfo = new uint256[](6);\n        cardsInfo[0] = game.starterProof;\n        cardsInfo[1] = starterKey;\n        cardsInfo[2] = starterContent;\n        cardsInfo[3] = game.playerProof;\n        cardsInfo[4] = playerKey;\n        cardsInfo[5] = playerContent;\n        return (\n            game.amount,\n            game.threshold,\n            game.starter,\n            game.player,\n            game.status,\n            game.timeout,\n            cardsInfo\n        );\n    }\n\n    /**\n     * view the lastest\n     */\n    function viewLatestGames(uint64 limit) external view returns (uint256[]) {\n        require(limit <= viewCountLimit, \"limit is too high\");\n        uint64 count = limit > totalGameNumber ? totalGameNumber : limit;\n        uint256[] memory _lastestGames = new uint256[](count * 7);\n        for (uint64 i = 0; i < count; i++) {\n            HandGame memory game = games[totalGameNumber - i - 1];\n            _lastestGames[i * 7 + 0] = uint256(game.gameId);\n            _lastestGames[i * 7 + 1] = game.amount;\n            _lastestGames[i * 7 + 2] = game.threshold;\n            _lastestGames[i * 7 + 3] = uint256(game.starter);\n            _lastestGames[i * 7 + 4] = uint256(game.player);\n            _lastestGames[i * 7 + 5] = uint256(game.status);\n            _lastestGames[i * 7 + 6] = game.timeout;\n        }\n\n        return (_lastestGames);\n    }\n\n    // game starter methods\n    function startGame(uint256 proof, uint256 threshold)\n        external\n        payable\n        onlyEnabled\n    {\n        _createGame(proof, threshold);\n    }\n\n    function startGroupChatGame(\n        uint256 proof,\n        uint256 threshold,\n        uint256 group_id,\n        string userMessage\n    ) external payable onlyActivatedGroupMember(group_id) onlyEnabled {\n        uint64 gameId = _createGame(proof, threshold);\n        gameToGroup[gameId] = group_id;\n        _notifyGroup(group_id, gameId, userMessage);\n        emit CreateGroupHandGame(\n            group_id,\n            gameId,\n            msg.sender,\n            userMessage,\n            msg.value,\n            threshold\n        );\n    }\n\n    function cancelGame(uint64 gameId)\n        external\n        onlyPlayer(gameId)\n        needGameStatus(gameId, 0)\n        onlyTimeout(gameId)\n    {\n        HandGame storage game = games[gameId];\n        game.status = 3;\n        msg.sender.transfer(game.amount);\n        emit GameCancelled(gameId);\n    }\n\n    // player methods\n    function joinGame(uint64 gameId, uint256 proof)\n        external\n        payable\n        needGameStatus(gameId, 0)\n        notTimeout(gameId)\n    {\n        uint256 group_id = gameToGroup[gameId];\n        if (group_id > 0) {\n            _lockGroupGame(gameId, proof, group_id);\n        } else {\n            _lockGame(gameId, proof);\n        }\n    }\n\n    function openCard(\n        uint64 gameId,\n        uint256 key,\n        uint256 content\n    ) external onlyPlayer(gameId) needGameStatus(gameId, 1) {\n        HandGame storage game = games[gameId];\n        uint256 proof;\n        if (game.starter == msg.sender) {\n            proof = game.starterProof;\n        } else {\n            proof = game.playerProof;\n        }\n        bool validate = validateProof(proof, key, content);\n        require(validate, \"wrong key or content\");\n        // (, uint256 savedContent) = viewContent(game.starterProof);\n        // if (savedContent != 0) {\n        //     setProof(proof, key, content);\n        // }\n        setProof(proof, key, content);\n        emit CardOpened(gameId, msg.sender, key, content);\n\n        (, uint256 starterContent) = viewContent(game.starterProof);\n        (, uint256 playerContent) = viewContent(game.playerProof);\n        if (starterContent != 0 && playerContent != 0) {\n            int8 r = _winOrLose(starterContent, playerContent);\n            _finishGame(gameId, r);\n        }\n    }\n\n    function finishTimeoutGame(uint64 gameId)\n        external\n        onlyPlayer(gameId)\n        needGameStatus(gameId, 1)\n        onlyTimeout(gameId)\n    {\n        HandGame memory game = games[gameId];\n        (, uint256 starterContent) = viewContent(game.starterProof);\n        (, uint256 playerContent) = viewContent(game.playerProof);\n        if (starterContent != 0) {\n            _finishGame(gameId, 1);\n        } else if (playerContent != 0) {\n            _finishGame(gameId, -1);\n        } else {\n            _finishGame(gameId, 0);\n        }\n    }\n\n    // function balanceOf(address account) public view returns (uint256) {\n    //     return RPSInstance.balanceOfRPS(account);\n    // }\n\n    // event TestSendMessage(string msg);\n\n    // private methods\n    function _notifyGroup(\n        uint256 group_id,\n        uint64 gameId,\n        string userMessage\n    ) internal onlyActivatedGroupMember(group_id) {\n        string memory message = _getMessage(gameId, userMessage, msg.sender);\n        groupchatInstance.sendMessage(group_id, message);\n        // emit TestSendMessage(message);\n    }\n\n    // '{\"message\":{\"seq\":0yes},\"type\":\"hanggame\",\"version\":\"2.1\"}'\n    function _getMessage(\n        uint256 seq,\n        string userMessage,\n        address sender\n    ) private pure returns (string) {\n        string memory _id = uintToString(seq);\n        string memory msg0 = '{\"message\":{\"gameId\":';\n        string memory msgUser = ',\"msg\":\"';\n        string memory msgSender = '\",\"sender\":\"';\n        string memory msg1 = '\"},\"type\":\"hanggame\",\"version\":\"2.1\"}';\n        string memory message = string(\n            abi.encodePacked(\n                msg0,\n                _id,\n                msgUser,\n                userMessage,\n                msgSender,\n                _toAsciiString(sender),\n                msg1\n            )\n        );\n        return message;\n    }\n\n    function _lockGroupGame(\n        uint64 gameId,\n        uint256 proof,\n        uint256 group_id\n    ) private onlyActivatedGroupMember(group_id) {\n        _lockGame(gameId, proof);\n    }\n\n    function _lockGame(uint64 gameId, uint256 proof) private {\n        HandGame storage game = games[gameId];\n\n        require(msg.value >= game.threshold, \"wrong balance\");\n\n        game.player = msg.sender;\n        game.playerProof = proof;\n        game.amount = game.amount + msg.value;\n        game.timeout = timeoutLimit + block.timestamp;\n        game.status = 1;\n        _mintRPS(game.starter, 2);\n        _mintRPS(game.player, 1);\n        emit GameLocked(gameId, msg.sender, proof, msg.value);\n    }\n\n    function _createGame(uint256 proof, uint256 threshold)\n        private\n        returns (uint64)\n    {\n        HandGame memory game = HandGame(\n            totalGameNumber,\n            msg.value,\n            msg.sender,\n            address(0),\n            0,\n            proof,\n            0,\n            block.timestamp + timeoutLimit,\n            threshold\n        );\n        totalGameNumber++;\n        games.push(game);\n        emit GameStarted(\n            game.gameId,\n            game.starter,\n            proof,\n            msg.value,\n            threshold\n        );\n        return game.gameId;\n    }\n\n    function _mintRPS(address account, uint256 amount) private {\n        RPSInstance.mintRPS(account, amount * 1 ether);\n    }\n\n    function _toAsciiString(address x) internal pure returns (string memory) {\n        bytes memory s = new bytes(40);\n        for (uint256 i = 0; i < 20; i++) {\n            bytes1 b = bytes1(uint8(uint256(uint160(x)) / (2**(8 * (19 - i)))));\n            bytes1 hi = bytes1(uint8(b) / 16);\n            bytes1 lo = bytes1(uint8(b) - 16 * uint8(hi));\n            s[2 * i] = _char(hi);\n            s[2 * i + 1] = _char(lo);\n        }\n        return string(s);\n    }\n\n    function _char(bytes1 b) internal pure returns (bytes1 c) {\n        if (uint8(b) < 10) return bytes1(uint8(b) + 0x30);\n        else return bytes1(uint8(b) + 0x57);\n    }\n\n    function uintToString(uint256 i) internal pure returns (string) {\n        if (i == 0) return \"0\";\n        uint256 j = i;\n        uint256 length;\n        while (j != 0) {\n            length++;\n            j /= 10;\n        }\n        bytes memory bstr = new bytes(length);\n        uint256 k = length - 1;\n        while (i != 0) {\n            bstr[k--] = bytes1(48 + (i % 10));\n            i /= 10;\n        }\n        return string(bstr);\n    }\n\n    function _finishGame(uint64 gameId, int8 r) private {\n        HandGame storage game = games[gameId];\n        if (r == 1) {\n            game.starter.transfer(game.amount);\n            _mintRPS(game.starter, 3);\n        } else if (r == -1) {\n            game.player.transfer(game.amount);\n            _mintRPS(game.player, 3);\n        } else {\n            game.starter.transfer(game.amount / 2);\n            game.player.transfer(game.amount / 2);\n            _mintRPS(game.starter, 1);\n            _mintRPS(game.player, 1);\n        }\n        game.status = 2;\n        emit GameFinished(gameId, r);\n    }\n\n    function _isTimeout(uint64 gameId) private view returns (bool) {\n        HandGame memory game = games[gameId];\n        return (game.timeout <= block.timestamp);\n    }\n\n    function _winOrLose(uint256 playerContent, uint256 otherContent)\n        private\n        pure\n        returns (int8)\n    {\n        int8 r = int8(playerContent - otherContent);\n        if (r == 1 || r == -2) {\n            return 1;\n        } else if (r == -1 || r == 2) {\n            return -1;\n        } else {\n            return 0;\n        }\n    }\n}\n",
  "sourcePath": "/home/zhangk/Documents/github/cpchain-dapps-handgame/contracts/Game.sol",
  "compiler": {
    "name": "solc",
    "version": "0.4.25+commit.59dbf8f1.Linux.g++"
  },
  "schemaVersion": "3.3.4",
  "updatedAt": "2022-05-16T07:23:04.983Z",
  "devdoc": {
    "methods": {
      "claimOwnership()": {
        "details": "Allows the pendingOwner address to finalize the transfer."
      },
      "disableContract()": {
        "details": "set contract disable"
      },
      "enableContract()": {
        "details": "set contract enable"
      },
      "renounceOwnership()": {
        "details": "Leaves the contract without owner. It will not be possible to call `onlyOwner` functions anymore. Can only be called by the current owner.     * NOTE: Renouncing ownership will leave the contract without an owner, thereby removing any functionality that is only available to the owner."
      },
      "setProof(uint256,uint256,uint256)": {
        "details": "Open the card with proof and content"
      },
      "transferOwnership(address)": {
        "details": "Allows the current owner to set the pendingOwner address.",
        "params": {
          "newOwner": "The address to transfer ownership to."
        }
      },
      "viewContent(uint256)": {
        "details": "get the card from contract     * Returns the proof and conttent.     * Note if the card is not opened,returns should be zero"
      }
    }
  },
  "userdoc": {
    "methods": {
      "viewLatestGames(uint64)": {
        "notice": "view the lastest"
      }
    }
  }
}