{
  "contractName": "Game",
  "abi": [
    {
      "constant": true,
      "inputs": [
        {
          "name": "",
          "type": "uint256"
        }
      ],
      "name": "games",
      "outputs": [
        {
          "name": "gameId",
          "type": "uint64"
        },
        {
          "name": "amount",
          "type": "uint256"
        },
        {
          "name": "starter",
          "type": "address"
        },
        {
          "name": "player",
          "type": "address"
        },
        {
          "name": "status",
          "type": "int8"
        },
        {
          "components": [
            {
              "name": "card",
              "type": "uint256"
            },
            {
              "name": "key",
              "type": "string"
            },
            {
              "name": "content",
              "type": "uint8"
            }
          ],
          "name": "starterCard",
          "type": "tuple"
        },
        {
          "components": [
            {
              "name": "card",
              "type": "uint256"
            },
            {
              "name": "key",
              "type": "string"
            },
            {
              "name": "content",
              "type": "uint8"
            }
          ],
          "name": "playerCard",
          "type": "tuple"
        },
        {
          "name": "timeout",
          "type": "uint256"
        },
        {
          "name": "threshold",
          "type": "uint256"
        }
      ],
      "payable": false,
      "stateMutability": "view",
      "type": "function"
    },
    {
      "constant": true,
      "inputs": [],
      "name": "maxLimit",
      "outputs": [
        {
          "name": "",
          "type": "uint256"
        }
      ],
      "payable": false,
      "stateMutability": "view",
      "type": "function"
    },
    {
      "constant": true,
      "inputs": [],
      "name": "enabled",
      "outputs": [
        {
          "name": "",
          "type": "bool"
        }
      ],
      "payable": false,
      "stateMutability": "view",
      "type": "function"
    },
    {
      "constant": false,
      "inputs": [],
      "name": "enableContract",
      "outputs": [],
      "payable": false,
      "stateMutability": "nonpayable",
      "type": "function"
    },
    {
      "constant": true,
      "inputs": [],
      "name": "timeoutLimit",
      "outputs": [
        {
          "name": "",
          "type": "uint256"
        }
      ],
      "payable": false,
      "stateMutability": "view",
      "type": "function"
    },
    {
      "constant": false,
      "inputs": [],
      "name": "claimOwnership",
      "outputs": [],
      "payable": false,
      "stateMutability": "nonpayable",
      "type": "function"
    },
    {
      "constant": true,
      "inputs": [],
      "name": "viewCountLimit",
      "outputs": [
        {
          "name": "",
          "type": "uint32"
        }
      ],
      "payable": false,
      "stateMutability": "view",
      "type": "function"
    },
    {
      "constant": true,
      "inputs": [],
      "name": "totalGameNumber",
      "outputs": [
        {
          "name": "",
          "type": "uint64"
        }
      ],
      "payable": false,
      "stateMutability": "view",
      "type": "function"
    },
    {
      "constant": false,
      "inputs": [],
      "name": "disableContract",
      "outputs": [],
      "payable": false,
      "stateMutability": "nonpayable",
      "type": "function"
    },
    {
      "constant": true,
      "inputs": [],
      "name": "owner",
      "outputs": [
        {
          "name": "",
          "type": "address"
        }
      ],
      "payable": false,
      "stateMutability": "view",
      "type": "function"
    },
    {
      "constant": true,
      "inputs": [],
      "name": "pendingOwner",
      "outputs": [
        {
          "name": "",
          "type": "address"
        }
      ],
      "payable": false,
      "stateMutability": "view",
      "type": "function"
    },
    {
      "constant": false,
      "inputs": [
        {
          "name": "newOwner",
          "type": "address"
        }
      ],
      "name": "transferOwnership",
      "outputs": [],
      "payable": false,
      "stateMutability": "nonpayable",
      "type": "function"
    },
    {
      "anonymous": false,
      "inputs": [
        {
          "indexed": true,
          "name": "enabled",
          "type": "bool"
        }
      ],
      "name": "EnableStatusChanged",
      "type": "event"
    },
    {
      "anonymous": false,
      "inputs": [
        {
          "indexed": true,
          "name": "previousOwner",
          "type": "address"
        }
      ],
      "name": "OwnershipRenounced",
      "type": "event"
    },
    {
      "anonymous": false,
      "inputs": [
        {
          "indexed": true,
          "name": "previousOwner",
          "type": "address"
        },
        {
          "indexed": true,
          "name": "newOwner",
          "type": "address"
        }
      ],
      "name": "OwnershipTransferred",
      "type": "event"
    },
    {
      "anonymous": false,
      "inputs": [
        {
          "indexed": false,
          "name": "limit",
          "type": "uint256"
        }
      ],
      "name": "SetMaxLimit",
      "type": "event"
    },
    {
      "anonymous": false,
      "inputs": [
        {
          "indexed": false,
          "name": "limit",
          "type": "uint256"
        }
      ],
      "name": "SetTimeoutLimit",
      "type": "event"
    },
    {
      "anonymous": false,
      "inputs": [
        {
          "indexed": false,
          "name": "gameId",
          "type": "uint64"
        },
        {
          "indexed": false,
          "name": "starter",
          "type": "address"
        },
        {
          "indexed": false,
          "name": "card",
          "type": "uint256"
        },
        {
          "indexed": false,
          "name": "amount",
          "type": "uint256"
        }
      ],
      "name": "GameStarted",
      "type": "event"
    },
    {
      "anonymous": false,
      "inputs": [
        {
          "indexed": false,
          "name": "gameId",
          "type": "uint64"
        }
      ],
      "name": "GameCancelled",
      "type": "event"
    },
    {
      "anonymous": false,
      "inputs": [
        {
          "indexed": false,
          "name": "gameId",
          "type": "uint64"
        },
        {
          "indexed": false,
          "name": "player",
          "type": "address"
        },
        {
          "indexed": false,
          "name": "card",
          "type": "uint256"
        },
        {
          "indexed": false,
          "name": "amount",
          "type": "uint256"
        }
      ],
      "name": "GameLocked",
      "type": "event"
    },
    {
      "anonymous": false,
      "inputs": [
        {
          "indexed": false,
          "name": "gameId",
          "type": "uint64"
        },
        {
          "indexed": false,
          "name": "player",
          "type": "address"
        },
        {
          "indexed": false,
          "name": "key",
          "type": "string"
        },
        {
          "indexed": false,
          "name": "content",
          "type": "uint8"
        }
      ],
      "name": "CardOpened",
      "type": "event"
    },
    {
      "anonymous": false,
      "inputs": [
        {
          "indexed": false,
          "name": "gameId",
          "type": "uint64"
        },
        {
          "indexed": false,
          "name": "result",
          "type": "int8"
        }
      ],
      "name": "GameFinished",
      "type": "event"
    },
    {
      "anonymous": false,
      "inputs": [
        {
          "indexed": false,
          "name": "card",
          "type": "uint256"
        },
        {
          "indexed": false,
          "name": "key",
          "type": "string"
        },
        {
          "indexed": false,
          "name": "content",
          "type": "uint8"
        }
      ],
      "name": "TestCard",
      "type": "event"
    },
    {
      "constant": false,
      "inputs": [
        {
          "name": "limit",
          "type": "uint256"
        }
      ],
      "name": "setMaxLimit",
      "outputs": [],
      "payable": false,
      "stateMutability": "nonpayable",
      "type": "function"
    },
    {
      "constant": false,
      "inputs": [
        {
          "name": "limit",
          "type": "uint256"
        }
      ],
      "name": "setTimeoutLimit",
      "outputs": [],
      "payable": false,
      "stateMutability": "nonpayable",
      "type": "function"
    },
    {
      "constant": true,
      "inputs": [
        {
          "name": "gameId",
          "type": "uint64"
        }
      ],
      "name": "viewGame",
      "outputs": [
        {
          "name": "",
          "type": "uint256"
        },
        {
          "name": "",
          "type": "address"
        },
        {
          "name": "",
          "type": "address"
        },
        {
          "name": "",
          "type": "int8"
        },
        {
          "name": "",
          "type": "uint256"
        }
      ],
      "payable": false,
      "stateMutability": "view",
      "type": "function"
    },
    {
      "constant": true,
      "inputs": [
        {
          "name": "limit",
          "type": "uint64"
        }
      ],
      "name": "viewLatestGames",
      "outputs": [
        {
          "name": "",
          "type": "uint256[]"
        }
      ],
      "payable": false,
      "stateMutability": "view",
      "type": "function"
    },
    {
      "constant": false,
      "inputs": [
        {
          "name": "card",
          "type": "uint256"
        },
        {
          "name": "threshold",
          "type": "uint256"
        }
      ],
      "name": "startGame",
      "outputs": [],
      "payable": true,
      "stateMutability": "payable",
      "type": "function"
    },
    {
      "constant": false,
      "inputs": [
        {
          "name": "gameId",
          "type": "uint64"
        }
      ],
      "name": "cancelGame",
      "outputs": [],
      "payable": false,
      "stateMutability": "nonpayable",
      "type": "function"
    },
    {
      "constant": false,
      "inputs": [
        {
          "name": "gameId",
          "type": "uint64"
        },
        {
          "name": "card",
          "type": "uint256"
        }
      ],
      "name": "joinGame",
      "outputs": [],
      "payable": true,
      "stateMutability": "payable",
      "type": "function"
    },
    {
      "constant": false,
      "inputs": [
        {
          "name": "gameId",
          "type": "uint64"
        },
        {
          "name": "key",
          "type": "string"
        },
        {
          "name": "content",
          "type": "uint8"
        }
      ],
      "name": "openCard",
      "outputs": [],
      "payable": false,
      "stateMutability": "nonpayable",
      "type": "function"
    },
    {
      "constant": false,
      "inputs": [
        {
          "name": "gameId",
          "type": "uint64"
        }
      ],
      "name": "timeoutGame",
      "outputs": [],
      "payable": false,
      "stateMutability": "nonpayable",
      "type": "function"
    }
  ],
  "bytecode": "0x608060405260018060146101000a81548160ff021916908315150217905550683635c9adc5dea000006002556102586003556000600460006101000a81548167ffffffffffffffff021916908367ffffffffffffffff160217905550600a600460086101000a81548163ffffffff021916908363ffffffff160217905550336000806101000a81548173ffffffffffffffffffffffffffffffffffffffff021916908373ffffffffffffffffffffffffffffffffffffffff1602179055506140f1806100cc6000396000f30060806040526004361061011d576000357c0100000000000000000000000000000000000000000000000000000000900463ffffffff1680630d53be4814610122578063117a5b90146101595780631a861d2614610244578063238dafe01461026f57806329eaa1ab1461029e578063367edd321461032a5780633b59034f1461034157806349bcaf5f146104065780634a307a84146104335780634e71e0c81461045e5780635c3f29651461047557806362212e4b146104ac5780636fcfca0414610508578063730b838114610547578063894ba833146105715780638da5cb5b1461058857806390e0b3bf146105df5780639d65a67e14610616578063bf8bcee41461064a578063e30c397814610677578063f2fde38b146106ce575b600080fd5b34801561012e57600080fd5b50610157600480360381019080803567ffffffffffffffff169060200190929190505050610711565b005b34801561016557600080fd5b5061018460048036038101908080359060200190929190505050610ae0565b604051808a67ffffffffffffffff1667ffffffffffffffff1681526020018981526020018873ffffffffffffffffffffffffffffffffffffffff1673ffffffffffffffffffffffffffffffffffffffff1681526020018773ffffffffffffffffffffffffffffffffffffffff1673ffffffffffffffffffffffffffffffffffffffff1681526020018660000b60000b8152602001858152602001848152602001838152602001828152602001995050505050505050505060405180910390f35b34801561025057600080fd5b50610259610d46565b6040518082815260200191505060405180910390f35b34801561027b57600080fd5b50610284610d4c565b604051808215151515815260200191505060405180910390f35b3480156102aa57600080fd5b506102d3600480360381019080803567ffffffffffffffff169060200190929190505050610d5f565b6040518080602001828103825283818151815260200191508051906020019060200280838360005b838110156103165780820151818401526020810190506102fb565b505050509050019250505060405180910390f35b34801561033657600080fd5b5061033f61136b565b005b34801561034d57600080fd5b50610376600480360381019080803567ffffffffffffffff169060200190929190505050611489565b604051808681526020018573ffffffffffffffffffffffffffffffffffffffff1673ffffffffffffffffffffffffffffffffffffffff1681526020018473ffffffffffffffffffffffffffffffffffffffff1673ffffffffffffffffffffffffffffffffffffffff1681526020018360000b60000b81526020018281526020019550505050505060405180910390f35b34801561041257600080fd5b5061043160048036038101908080359060200190929190505050611874565b005b34801561043f57600080fd5b50610448611979565b6040518082815260200191505060405180910390f35b34801561046a57600080fd5b5061047361197f565b005b34801561048157600080fd5b5061048a611b87565b604051808263ffffffff1663ffffffff16815260200191505060405180910390f35b3480156104b857600080fd5b50610506600480360381019080803567ffffffffffffffff169060200190929190803590602001908201803590602001919091929391929390803560ff169060200190929190505050611b9d565b005b34801561051457600080fd5b5061051d612419565b604051808267ffffffffffffffff1667ffffffffffffffff16815260200191505060405180910390f35b61056f6004803603810190808035906020019092919080359060200190929190505050612433565b005b34801561057d57600080fd5b506105866128ad565b005b34801561059457600080fd5b5061059d6129cc565b604051808273ffffffffffffffffffffffffffffffffffffffff1673ffffffffffffffffffffffffffffffffffffffff16815260200191505060405180910390f35b3480156105eb57600080fd5b50610614600480360381019080803567ffffffffffffffff1690602001909291905050506129f1565b005b610648600480360381019080803567ffffffffffffffff16906020019092919080359060200190929190505050613318565b005b34801561065657600080fd5b5061067560048036038101908080359060200190929190505050613726565b005b34801561068357600080fd5b5061068c6138ab565b604051808273ffffffffffffffffffffffffffffffffffffffff1673ffffffffffffffffffffffffffffffffffffffff16815260200191505060405180910390f35b3480156106da57600080fd5b5061070f600480360381019080803573ffffffffffffffffffffffffffffffffffffffff1690602001909291905050506138d1565b005b600081600460009054906101000a900467ffffffffffffffff1667ffffffffffffffff168167ffffffffffffffff161015156107b5576040517f08c379a000000000000000000000000000000000000000000000000000000000815260040180806020018281038252600d8152602001807f77726f6e672067616d652069640000000000000000000000000000000000000081525060200191505060405180910390fd5b823373ffffffffffffffffffffffffffffffffffffffff1660058267ffffffffffffffff168154811015156107e657fe5b90600052602060002090600c020160020160009054906101000a900473ffffffffffffffffffffffffffffffffffffffff1673ffffffffffffffffffffffffffffffffffffffff161415156108a3576040517f08c379a00000000000000000000000000000000000000000000000000000000081526004018080602001828103825260118152602001807f6e6565642067616d65207374617274657200000000000000000000000000000081525060200191505060405180910390fd5b8360008060000b60058367ffffffffffffffff168154811015156108c357fe5b90600052602060002090600c020160030160149054906101000a900460000b60000b14151561095a576040517f08c379a00000000000000000000000000000000000000000000000000000000081526004018080602001828103825260118152602001807f77726f6e672067616d652073746174757300000000000000000000000000000081525060200191505060405180910390fd5b85610964816139d9565b15156109d8576040517f08c379a00000000000000000000000000000000000000000000000000000000081526004018080602001828103825260128152602001807f6e6565642067616d652074696d65206f7574000000000000000000000000000081525060200191505060405180910390fd5b60058767ffffffffffffffff168154811015156109f157fe5b90600052602060002090600c020195507fffffffffffffffffffffffffffffffffffffffffffffffffffffffffffffffff8660030160146101000a81548160ff021916908360000b60ff1602179055503373ffffffffffffffffffffffffffffffffffffffff166108fc87600101549081150290604051600060405180830381858888f19350505050158015610a8b573d6000803e3d6000fd5b507fa77d020ec6193b836dd9686343fd6244891812d0d63f6b8567734bf69298985887604051808267ffffffffffffffff1667ffffffffffffffff16815260200191505060405180910390a150505050505050565b600581815481101515610aef57fe5b90600052602060002090600c02016000915090508060000160009054906101000a900467ffffffffffffffff16908060010154908060020160009054906101000a900473ffffffffffffffffffffffffffffffffffffffff16908060030160009054906101000a900473ffffffffffffffffffffffffffffffffffffffff16908060030160149054906101000a900460000b90806004016060604051908101604052908160008201548152602001600182018054600181600116156101000203166002900480601f016020809104026020016040519081016040528092919081815260200182805460018160011615610100020316600290048015610c355780601f10610c0a57610100808354040283529160200191610c35565b820191906000526020600020905b815481529060010190602001808311610c1857829003601f168201915b505050505081526020016002820160009054906101000a900460ff1660ff1660ff168152505090806007016060604051908101604052908160008201548152602001600182018054600181600116156101000203166002900480601f016020809104026020016040519081016040528092919081815260200182805460018160011615610100020316600290048015610d0f5780601f10610ce457610100808354040283529160200191610d0f565b820191906000526020600020905b815481529060010190602001808311610cf257829003601f168201915b505050505081526020016002820160009054906101000a900460ff1660ff1660ff16815250509080600a01549080600b0154905089565b60025481565b600160149054906101000a900460ff1681565b6060600060606000610d6f613ec5565b600460089054906101000a900463ffffffff1663ffffffff168667ffffffffffffffff1611151515610e09576040517f08c379a00000000000000000000000000000000000000000000000000000000081526004018080602001828103825260118152602001807f6c696d697420697320746f6f206869676800000000000000000000000000000081525060200191505060405180910390fd5b600460009054906101000a900467ffffffffffffffff1667ffffffffffffffff168667ffffffffffffffff1611610e405785610e58565b600460009054906101000a900467ffffffffffffffff165b93506006840267ffffffffffffffff16604051908082528060200260200182016040528015610e965781602001602082028038833980820191505090505b509250600091505b8367ffffffffffffffff168267ffffffffffffffff16101561135f576005600183600460009054906101000a900467ffffffffffffffff16030367ffffffffffffffff16815481101515610eee57fe5b90600052602060002090600c020161012060405190810160405290816000820160009054906101000a900467ffffffffffffffff1667ffffffffffffffff1667ffffffffffffffff168152602001600182015481526020016002820160009054906101000a900473ffffffffffffffffffffffffffffffffffffffff1673ffffffffffffffffffffffffffffffffffffffff1673ffffffffffffffffffffffffffffffffffffffff1681526020016003820160009054906101000a900473ffffffffffffffffffffffffffffffffffffffff1673ffffffffffffffffffffffffffffffffffffffff1673ffffffffffffffffffffffffffffffffffffffff1681526020016003820160149054906101000a900460000b60000b60000b8152602001600482016060604051908101604052908160008201548152602001600182018054600181600116156101000203166002900480601f0160208091040260200160405190810160405280929190818152602001828054600181600116156101000203166002900480156110c25780601f10611097576101008083540402835291602001916110c2565b820191906000526020600020905b8154815290600101906020018083116110a557829003601f168201915b505050505081526020016002820160009054906101000a900460ff1660ff1660ff16815250508152602001600782016060604051908101604052908160008201548152602001600182018054600181600116156101000203166002900480601f0160208091040260200160405190810160405280929190818152602001828054600181600116156101000203166002900480156111a05780601f10611175576101008083540402835291602001916111a0565b820191906000526020600020905b81548152906001019060200180831161118357829003601f168201915b505050505081526020016002820160009054906101000a900460ff1660ff1660ff16815250508152602001600a8201548152602001600b820154815250509050806000015167ffffffffffffffff16836000600685020167ffffffffffffffff1681518110151561120d57fe5b90602001906020020181815250508060200151836001600685020167ffffffffffffffff1681518110151561123e57fe5b9060200190602002018181525050806040015173ffffffffffffffffffffffffffffffffffffffff16836002600685020167ffffffffffffffff1681518110151561128557fe5b9060200190602002018181525050806060015173ffffffffffffffffffffffffffffffffffffffff16836003600685020167ffffffffffffffff168151811015156112cc57fe5b9060200190602002018181525050806060015173ffffffffffffffffffffffffffffffffffffffff16836004600685020167ffffffffffffffff1681518110151561131357fe5b90602001906020020181815250508060e00151836005600685020167ffffffffffffffff1681518110151561134457fe5b90602001906020020181815250508180600101925050610e9e565b82945050505050919050565b6000809054906101000a900473ffffffffffffffffffffffffffffffffffffffff1673ffffffffffffffffffffffffffffffffffffffff163373ffffffffffffffffffffffffffffffffffffffff1614151561142f576040517f08c379a000000000000000000000000000000000000000000000000000000000815260040180806020018281038252600e8152602001807f4f776e657220726571756972656400000000000000000000000000000000000081525060200191505060405180910390fd5b60018060146101000a81548160ff021916908315150217905550600160149054906101000a900460ff1615157f44cd398f157fa2dcc23e1a3238d8ec602ef8ed03c90372c10918d81d69e36ab160405160405180910390a2565b6000806000806000611499613ec5565b86600460009054906101000a900467ffffffffffffffff1667ffffffffffffffff168167ffffffffffffffff1610151561153b576040517f08c379a000000000000000000000000000000000000000000000000000000000815260040180806020018281038252600d8152602001807f77726f6e672067616d652069640000000000000000000000000000000000000081525060200191505060405180910390fd5b60058867ffffffffffffffff1681548110151561155457fe5b90600052602060002090600c020161012060405190810160405290816000820160009054906101000a900467ffffffffffffffff1667ffffffffffffffff1667ffffffffffffffff168152602001600182015481526020016002820160009054906101000a900473ffffffffffffffffffffffffffffffffffffffff1673ffffffffffffffffffffffffffffffffffffffff1673ffffffffffffffffffffffffffffffffffffffff1681526020016003820160009054906101000a900473ffffffffffffffffffffffffffffffffffffffff1673ffffffffffffffffffffffffffffffffffffffff1673ffffffffffffffffffffffffffffffffffffffff1681526020016003820160149054906101000a900460000b60000b60000b8152602001600482016060604051908101604052908160008201548152602001600182018054600181600116156101000203166002900480601f0160208091040260200160405190810160405280929190818152602001828054600181600116156101000203166002900480156117285780601f106116fd57610100808354040283529160200191611728565b820191906000526020600020905b81548152906001019060200180831161170b57829003601f168201915b505050505081526020016002820160009054906101000a900460ff1660ff1660ff16815250508152602001600782016060604051908101604052908160008201548152602001600182018054600181600116156101000203166002900480601f0160208091040260200160405190810160405280929190818152602001828054600181600116156101000203166002900480156118065780601f106117db57610100808354040283529160200191611806565b820191906000526020600020905b8154815290600101906020018083116117e957829003601f168201915b505050505081526020016002820160009054906101000a900460ff1660ff1660ff16815250508152602001600a8201548152602001600b82015481525050915081602001518260400151836060015184608001518560e0015196509650965096509650505091939590929450565b6000809054906101000a900473ffffffffffffffffffffffffffffffffffffffff1673ffffffffffffffffffffffffffffffffffffffff163373ffffffffffffffffffffffffffffffffffffffff16141515611938576040517f08c379a000000000000000000000000000000000000000000000000000000000815260040180806020018281038252600e8152602001807f4f776e657220726571756972656400000000000000000000000000000000000081525060200191505060405180910390fd5b806003819055507f016810b2453fd6fa62348747e56186a28bfab39f0326d594aa954c3421996500816040518082815260200191505060405180910390a150565b60035481565b600160009054906101000a900473ffffffffffffffffffffffffffffffffffffffff1673ffffffffffffffffffffffffffffffffffffffff163373ffffffffffffffffffffffffffffffffffffffff16141515611a44576040517f08c379a00000000000000000000000000000000000000000000000000000000081526004018080602001828103825260168152602001807f50656e64696e67206f776e65722072657175697265640000000000000000000081525060200191505060405180910390fd5b600160009054906101000a900473ffffffffffffffffffffffffffffffffffffffff1673ffffffffffffffffffffffffffffffffffffffff166000809054906101000a900473ffffffffffffffffffffffffffffffffffffffff1673ffffffffffffffffffffffffffffffffffffffff167f8be0079c531659141344cd1fd0a4f28419497f9722a3daafe3b4186f6b6457e060405160405180910390a3600160009054906101000a900473ffffffffffffffffffffffffffffffffffffffff166000806101000a81548173ffffffffffffffffffffffffffffffffffffffff021916908373ffffffffffffffffffffffffffffffffffffffff1602179055506000600160006101000a81548173ffffffffffffffffffffffffffffffffffffffff021916908373ffffffffffffffffffffffffffffffffffffffff160217905550565b600460089054906101000a900463ffffffff1681565b60008060008087600460009054906101000a900467ffffffffffffffff1667ffffffffffffffff168167ffffffffffffffff16101515611c45576040517f08c379a000000000000000000000000000000000000000000000000000000000815260040180806020018281038252600d8152602001807f77726f6e672067616d652069640000000000000000000000000000000000000081525060200191505060405180910390fd5b883373ffffffffffffffffffffffffffffffffffffffff1660058267ffffffffffffffff16815481101515611c7657fe5b90600052602060002090600c020160020160009054906101000a900473ffffffffffffffffffffffffffffffffffffffff1673ffffffffffffffffffffffffffffffffffffffff161480611d3f57503373ffffffffffffffffffffffffffffffffffffffff1660058267ffffffffffffffff16815481101515611cf557fe5b90600052602060002090600c020160030160009054906101000a900473ffffffffffffffffffffffffffffffffffffffff1673ffffffffffffffffffffffffffffffffffffffff16145b1515611db3576040517f08c379a00000000000000000000000000000000000000000000000000000000081526004018080602001828103825260108152602001807f6e6565642067616d6520706c617965720000000000000000000000000000000081525060200191505060405180910390fd5b8960018060000b60058367ffffffffffffffff16815481101515611dd357fe5b90600052602060002090600c020160030160149054906101000a900460000b60000b141515611e6a576040517f08c379a00000000000000000000000000000000000000000000000000000000081526004018080602001828103825260118152602001807f77726f6e672067616d652073746174757300000000000000000000000000000081525060200191505060405180910390fd5b8860048160ff16108015611e81575060008160ff16115b1515611ef5576040517f08c379a000000000000000000000000000000000000000000000000000000000815260040180806020018281038252600d8152602001807f77726f6e6720636f6e74656e740000000000000000000000000000000000000081525060200191505060405180910390fd5b60058d67ffffffffffffffff16815481101515611f0e57fe5b90600052602060002090600c020198503373ffffffffffffffffffffffffffffffffffffffff168960020160009054906101000a900473ffffffffffffffffffffffffffffffffffffffff1673ffffffffffffffffffffffffffffffffffffffff161415611f8157886004019750611f88565b8860070197505b611fc988600001548d8d8080601f0160208091040260200160405190810160405280939291908181526020018383808284378201915050505050508c613cfe565b9650861515612040576040517f08c379a00000000000000000000000000000000000000000000000000000000081526004018080602001828103825260148152602001807f77726f6e67206b6579206f7220636f6e74656e7400000000000000000000000081525060200191505060405180910390fd5b8b8b896001019190612053929190613f56565b50898860020160006101000a81548160ff021916908360ff1602179055507f98df0761314acbda7cfd71579a6da1b756ecf9f8de9d61c54a0a3b5c16db78978d338e8e8e604051808667ffffffffffffffff1667ffffffffffffffff1681526020018573ffffffffffffffffffffffffffffffffffffffff1673ffffffffffffffffffffffffffffffffffffffff168152602001806020018360ff1660ff16815260200182810382528585828181526020019250808284378201915050965050505050505060405180910390a160008960040160020160009054906101000a900460ff1660ff1614158015612160575060008960070160020160009054906101000a900460ff1660ff1614155b1561240a576121978960040160020160009054906101000a900460ff168a60070160020160009054906101000a900460ff16613e0e565b955060018660000b1415612219578860020160009054906101000a900473ffffffffffffffffffffffffffffffffffffffff1673ffffffffffffffffffffffffffffffffffffffff166108fc8a600101549081150290604051600060405180830381858888f19350505050158015612213573d6000803e3d6000fd5b506123b0565b7fffffffffffffffffffffffffffffffffffffffffffffffffffffffffffffffff8660000b14156122b8578860030160009054906101000a900473ffffffffffffffffffffffffffffffffffffffff1673ffffffffffffffffffffffffffffffffffffffff166108fc8a600101549081150290604051600060405180830381858888f193505050501580156122b2573d6000803e3d6000fd5b506123af565b8860020160009054906101000a900473ffffffffffffffffffffffffffffffffffffffff1673ffffffffffffffffffffffffffffffffffffffff166108fc60028b6001015481151561230657fe5b049081150290604051600060405180830381858888f19350505050158015612332573d6000803e3d6000fd5b508860030160009054906101000a900473ffffffffffffffffffffffffffffffffffffffff1673ffffffffffffffffffffffffffffffffffffffff166108fc60028b6001015481151561238157fe5b049081150290604051600060405180830381858888f193505050501580156123ad573d6000803e3d6000fd5b505b5b7f3598a14b08a100ac75597e6f8e8309dfd773210d8ff4be917cebe132e82b7e518d87604051808367ffffffffffffffff1667ffffffffffffffff1681526020018260000b60000b81526020019250505060405180910390a15b50505050505050505050505050565b600460009054906101000a900467ffffffffffffffff1681565b61243b613fd6565b612443613fd6565b61244b613ec5565b600160149054906101000a900460ff1615156124f5576040517f08c379a00000000000000000000000000000000000000000000000000000000081526004018080602001828103825260238152602001807f436f6e747261637420686173206265656e2064697361626c6564206279206f7781526020017f6e6572000000000000000000000000000000000000000000000000000000000081525060400191505060405180910390fd5b60606040519081016040528086815260200160206040519081016040528060008152508152602001600060ff1681525092506060604051908101604052806000815260200160206040519081016040528060008152508152602001600060ff16815250915061012060405190810160405280600460009054906101000a900467ffffffffffffffff1667ffffffffffffffff1681526020013481526020013373ffffffffffffffffffffffffffffffffffffffff168152602001600073ffffffffffffffffffffffffffffffffffffffff1681526020016000800b8152602001848152602001838152602001600354420181526020018581525090506004600081819054906101000a900467ffffffffffffffff168092919060010191906101000a81548167ffffffffffffffff021916908367ffffffffffffffff160217905550506005819080600181540180825580915050906001820390600052602060002090600c02016000909192909190915060008201518160000160006101000a81548167ffffffffffffffff021916908367ffffffffffffffff1602179055506020820151816001015560408201518160020160006101000a81548173ffffffffffffffffffffffffffffffffffffffff021916908373ffffffffffffffffffffffffffffffffffffffff16021790555060608201518160030160006101000a81548173ffffffffffffffffffffffffffffffffffffffff021916908373ffffffffffffffffffffffffffffffffffffffff16021790555060808201518160030160146101000a81548160ff021916908360000b60ff16021790555060a082015181600401600082015181600001556020820151816001019080519060200190612780929190613ffb565b5060408201518160020160006101000a81548160ff021916908360ff160217905550505060c0820151816007016000820151816000015560208201518160010190805190602001906127d3929190613ffb565b5060408201518160020160006101000a81548160ff021916908360ff160217905550505060e082015181600a015561010082015181600b01555050507fb24c1e610ae01ecad54f9c5083448cfd27842d35881e5827b43da37961707e50816000015182604001518734604051808567ffffffffffffffff1667ffffffffffffffff1681526020018473ffffffffffffffffffffffffffffffffffffffff1673ffffffffffffffffffffffffffffffffffffffff16815260200183815260200182815260200194505050505060405180910390a15050505050565b6000809054906101000a900473ffffffffffffffffffffffffffffffffffffffff1673ffffffffffffffffffffffffffffffffffffffff163373ffffffffffffffffffffffffffffffffffffffff16141515612971576040517f08c379a000000000000000000000000000000000000000000000000000000000815260040180806020018281038252600e8152602001807f4f776e657220726571756972656400000000000000000000000000000000000081525060200191505060405180910390fd5b6000600160146101000a81548160ff021916908315150217905550600160149054906101000a900460ff1615157f44cd398f157fa2dcc23e1a3238d8ec602ef8ed03c90372c10918d81d69e36ab160405160405180910390a2565b6000809054906101000a900473ffffffffffffffffffffffffffffffffffffffff1681565b6129f9613ec5565b612a01613fd6565b612a09613fd6565b83600460009054906101000a900467ffffffffffffffff1667ffffffffffffffff168167ffffffffffffffff16101515612aab576040517f08c379a000000000000000000000000000000000000000000000000000000000815260040180806020018281038252600d8152602001807f77726f6e672067616d652069640000000000000000000000000000000000000081525060200191505060405180910390fd5b843373ffffffffffffffffffffffffffffffffffffffff1660058267ffffffffffffffff16815481101515612adc57fe5b90600052602060002090600c020160020160009054906101000a900473ffffffffffffffffffffffffffffffffffffffff1673ffffffffffffffffffffffffffffffffffffffff161480612ba557503373ffffffffffffffffffffffffffffffffffffffff1660058267ffffffffffffffff16815481101515612b5b57fe5b90600052602060002090600c020160030160009054906101000a900473ffffffffffffffffffffffffffffffffffffffff1673ffffffffffffffffffffffffffffffffffffffff16145b1515612c19576040517f08c379a00000000000000000000000000000000000000000000000000000000081526004018080602001828103825260108152602001807f6e6565642067616d6520706c617965720000000000000000000000000000000081525060200191505060405180910390fd5b8560018060000b60058367ffffffffffffffff16815481101515612c3957fe5b90600052602060002090600c020160030160149054906101000a900460000b60000b141515612cd0576040517f08c379a00000000000000000000000000000000000000000000000000000000081526004018080602001828103825260118152602001807f77726f6e672067616d652073746174757300000000000000000000000000000081525060200191505060405180910390fd5b87612cda816139d9565b1515612d4e576040517f08c379a00000000000000000000000000000000000000000000000000000000081526004018080602001828103825260128152602001807f6e6565642067616d652074696d65206f7574000000000000000000000000000081525060200191505060405180910390fd5b60058967ffffffffffffffff16815481101515612d6757fe5b90600052602060002090600c020161012060405190810160405290816000820160009054906101000a900467ffffffffffffffff1667ffffffffffffffff1667ffffffffffffffff168152602001600182015481526020016002820160009054906101000a900473ffffffffffffffffffffffffffffffffffffffff1673ffffffffffffffffffffffffffffffffffffffff1673ffffffffffffffffffffffffffffffffffffffff1681526020016003820160009054906101000a900473ffffffffffffffffffffffffffffffffffffffff1673ffffffffffffffffffffffffffffffffffffffff1673ffffffffffffffffffffffffffffffffffffffff1681526020016003820160149054906101000a900460000b60000b60000b8152602001600482016060604051908101604052908160008201548152602001600182018054600181600116156101000203166002900480601f016020809104026020016040519081016040528092919081815260200182805460018160011615610100020316600290048015612f3b5780601f10612f1057610100808354040283529160200191612f3b565b820191906000526020600020905b815481529060010190602001808311612f1e57829003601f168201915b505050505081526020016002820160009054906101000a900460ff1660ff1660ff16815250508152602001600782016060604051908101604052908160008201548152602001600182018054600181600116156101000203166002900480601f0160208091040260200160405190810160405280929190818152602001828054600181600116156101000203166002900480156130195780601f10612fee57610100808354040283529160200191613019565b820191906000526020600020905b815481529060010190602001808311612ffc57829003601f168201915b505050505081526020016002820160009054906101000a900460ff1660ff1660ff16815250508152602001600a8201548152602001600b8201548152505097508760a0015196508760c0015195506000876040015160ff1614151561312357876040015173ffffffffffffffffffffffffffffffffffffffff166108fc89602001519081150290604051600060405180830381858888f193505050501580156130c6573d6000803e3d6000fd5b507f3598a14b08a100ac75597e6f8e8309dfd773210d8ff4be917cebe132e82b7e51896001604051808367ffffffffffffffff1667ffffffffffffffff1681526020018260000b81526020019250505060405180910390a161330d565b6000866040015160ff161415156131fe57876060015173ffffffffffffffffffffffffffffffffffffffff166108fc89602001519081150290604051600060405180830381858888f19350505050158015613182573d6000803e3d6000fd5b507f3598a14b08a100ac75597e6f8e8309dfd773210d8ff4be917cebe132e82b7e51897fffffffffffffffffffffffffffffffffffffffffffffffffffffffffffffffff604051808367ffffffffffffffff1667ffffffffffffffff1681526020018260000b81526020019250505060405180910390a161330c565b876040015173ffffffffffffffffffffffffffffffffffffffff166108fc60028a6020015181151561322c57fe5b049081150290604051600060405180830381858888f19350505050158015613258573d6000803e3d6000fd5b50876060015173ffffffffffffffffffffffffffffffffffffffff166108fc60028a6020015181151561328757fe5b049081150290604051600060405180830381858888f193505050501580156132b3573d6000803e3d6000fd5b507f3598a14b08a100ac75597e6f8e8309dfd773210d8ff4be917cebe132e82b7e51896000604051808367ffffffffffffffff1667ffffffffffffffff1681526020018260000b81526020019250505060405180910390a15b5b505050505050505050565b600080613323613fd6565b84600460009054906101000a900467ffffffffffffffff1667ffffffffffffffff168167ffffffffffffffff161015156133c5576040517f08c379a000000000000000000000000000000000000000000000000000000000815260040180806020018281038252600d8152602001807f77726f6e672067616d652069640000000000000000000000000000000000000081525060200191505060405180910390fd5b8560008060000b60058367ffffffffffffffff168154811015156133e557fe5b90600052602060002090600c020160030160149054906101000a900460000b60000b14151561347c576040517f08c379a00000000000000000000000000000000000000000000000000000000081526004018080602001828103825260118152602001807f77726f6e672067616d652073746174757300000000000000000000000000000081525060200191505060405180910390fd5b60058867ffffffffffffffff1681548110151561349557fe5b90600052602060002090600c0201955060606040519081016040528088815260200160206040519081016040528060008152508152602001600060ff16815250935085600b01543410151515613553576040517f08c379a000000000000000000000000000000000000000000000000000000000815260040180806020018281038252600d8152602001807f77726f6e672062616c616e63650000000000000000000000000000000000000081525060200191505060405180910390fd5b85600101543411156135b8573373ffffffffffffffffffffffffffffffffffffffff166108fc876001015434039081150290604051600060405180830381858888f193505050501580156135ab573d6000803e3d6000fd5b50856001015494506135bc565b3494505b338660030160006101000a81548173ffffffffffffffffffffffffffffffffffffffff021916908373ffffffffffffffffffffffffffffffffffffffff160217905550838660070160008201518160000155602082015181600101908051906020019061362a929190613ffb565b5060408201518160020160006101000a81548160ff021916908360ff16021790555090505060028660010154028660010181905550426003540186600a018190555060018660030160146101000a81548160ff021916908360000b60ff1602179055507f6030de52daebee6c07b2f6f4b2e8ba8707191b786719c3a2ece9cda6278e1e5388338988604051808567ffffffffffffffff1667ffffffffffffffff1681526020018473ffffffffffffffffffffffffffffffffffffffff1673ffffffffffffffffffffffffffffffffffffffff16815260200183815260200182815260200194505050505060405180910390a15050505050505050565b6000809054906101000a900473ffffffffffffffffffffffffffffffffffffffff1673ffffffffffffffffffffffffffffffffffffffff163373ffffffffffffffffffffffffffffffffffffffff161415156137ea576040517f08c379a000000000000000000000000000000000000000000000000000000000815260040180806020018281038252600e8152602001807f4f776e657220726571756972656400000000000000000000000000000000000081525060200191505060405180910390fd5b670de0b6b3a7640000811015151561386a576040517f08c379a000000000000000000000000000000000000000000000000000000000815260040180806020018281038252600c8152602001807f6c696d697420746f206c6f77000000000000000000000000000000000000000081525060200191505060405180910390fd5b806002819055507f44c8ef68dcc036e569158e914a009e3f02c9e933580e31424a1ae67728df7465816040518082815260200191505060405180910390a150565b600160009054906101000a900473ffffffffffffffffffffffffffffffffffffffff1681565b6000809054906101000a900473ffffffffffffffffffffffffffffffffffffffff1673ffffffffffffffffffffffffffffffffffffffff163373ffffffffffffffffffffffffffffffffffffffff16141515613995576040517f08c379a000000000000000000000000000000000000000000000000000000000815260040180806020018281038252600e8152602001807f4f776e657220726571756972656400000000000000000000000000000000000081525060200191505060405180910390fd5b80600160006101000a81548173ffffffffffffffffffffffffffffffffffffffff021916908373ffffffffffffffffffffffffffffffffffffffff16021790555050565b60006139e3613ec5565b60058367ffffffffffffffff168154811015156139fc57fe5b90600052602060002090600c020161012060405190810160405290816000820160009054906101000a900467ffffffffffffffff1667ffffffffffffffff1667ffffffffffffffff168152602001600182015481526020016002820160009054906101000a900473ffffffffffffffffffffffffffffffffffffffff1673ffffffffffffffffffffffffffffffffffffffff1673ffffffffffffffffffffffffffffffffffffffff1681526020016003820160009054906101000a900473ffffffffffffffffffffffffffffffffffffffff1673ffffffffffffffffffffffffffffffffffffffff1673ffffffffffffffffffffffffffffffffffffffff1681526020016003820160149054906101000a900460000b60000b60000b8152602001600482016060604051908101604052908160008201548152602001600182018054600181600116156101000203166002900480601f016020809104026020016040519081016040528092919081815260200182805460018160011615610100020316600290048015613bd05780601f10613ba557610100808354040283529160200191613bd0565b820191906000526020600020905b815481529060010190602001808311613bb357829003601f168201915b505050505081526020016002820160009054906101000a900460ff1660ff1660ff16815250508152602001600782016060604051908101604052908160008201548152602001600182018054600181600116156101000203166002900480601f016020809104026020016040519081016040528092919081815260200182805460018160011615610100020316600290048015613cae5780601f10613c8357610100808354040283529160200191613cae565b820191906000526020600020905b815481529060010190602001808311613c9157829003601f168201915b505050505081526020016002820160009054906101000a900460ff1660ff1660ff16815250508152602001600a8201548152602001600b820154815250509050428160e001511115915050919050565b600082826040516020018083805190602001908083835b602083101515613d3a5780518252602082019150602081019050602083039250613d15565b6001836020036101000a0380198251168184511680821785525050505050509050018260ff1660ff167f0100000000000000000000000000000000000000000000000000000000000000028152600101925050506040516020818303038152906040526040518082805190602001908083835b602083101515613dd25780518252602082019150602081019050602083039250613dad565b6001836020036101000a038019825116818451168082178552505050505050905001915050604051809103902060019004841490509392505050565b600080828403905060018160000b1480613e4a57507ffffffffffffffffffffffffffffffffffffffffffffffffffffffffffffffffe8160000b145b15613e585760019150613ebe565b7fffffffffffffffffffffffffffffffffffffffffffffffffffffffffffffffff8160000b1480613e8c575060028160000b145b15613eb9577fffffffffffffffffffffffffffffffffffffffffffffffffffffffffffffffff9150613ebe565b600091505b5092915050565b6101a060405190810160405280600067ffffffffffffffff16815260200160008152602001600073ffffffffffffffffffffffffffffffffffffffff168152602001600073ffffffffffffffffffffffffffffffffffffffff1681526020016000800b8152602001613f3561407b565b8152602001613f4261407b565b815260200160008152602001600081525090565b828054600181600116156101000203166002900490600052602060002090601f016020900481019282601f10613f9757803560ff1916838001178555613fc5565b82800160010185558215613fc5579182015b82811115613fc4578235825591602001919060010190613fa9565b5b509050613fd291906140a0565b5090565b6060604051908101604052806000815260200160608152602001600060ff1681525090565b828054600181600116156101000203166002900490600052602060002090601f016020900481019282601f1061403c57805160ff191683800117855561406a565b8280016001018555821561406a579182015b8281111561406957825182559160200191906001019061404e565b5b50905061407791906140a0565b5090565b6060604051908101604052806000815260200160608152602001600060ff1681525090565b6140c291905b808211156140be5760008160009055506001016140a6565b5090565b905600a165627a7a72305820195f71a3a00c1acee104c1a5adb5769833121f7560d3411428b22f3690ad8a900029",
  "source": "// SPDX-License-Identifier: MIT\npragma solidity >=0.4.22 <0.9.0;\nimport \"./interfaces/IGame.sol\";\nimport \"./interfaces/IPlayer.sol\";\nimport \"./interfaces/IStarter.sol\";\nimport \"@cpchain-tools/cpchain-dapps-utils/contracts/lifecycle/Enable.sol\";\n\ncontract Game is IGame, IStarter, IPlayer, Enable {\n    uint256 public maxLimit = 1000 ether;\n    uint256 public timeoutLimit = 10 minutes;\n    uint64 public totalGameNumber = 0;\n    uint32 public viewCountLimit = 10;\n\n    struct GameCard {\n        uint256 card;\n        string key;\n        //1 Rock  2 Paper 3 Scissors  0 unknown\n        uint8 content;\n    }\n    struct HandGame {\n        uint64 gameId;\n        uint256 amount;\n        address starter;\n        address player;\n        //-1 cancel,0 started, 1 locked,2,finished\n        int8 status;\n        GameCard starterCard;\n        GameCard playerCard;\n        uint256 timeout;\n        uint256 threshold;\n    }\n\n    HandGame[] public games;\n\n    modifier onlyPlayer(uint64 gameId) {\n        require(\n            games[gameId].starter == msg.sender ||\n                games[gameId].player == msg.sender,\n            \"need game player\"\n        );\n        _;\n    }\n\n    modifier onlyStarter(uint64 gameId) {\n        require(games[gameId].starter == msg.sender, \"need game starter\");\n        _;\n    }\n\n    modifier onlyTimeout(uint64 gameId) {\n        require(_isTimeout(gameId), \"need game time out\");\n        _;\n    }\n\n    modifier onlyGameStarted(uint64 gameId) {\n        require(gameId < totalGameNumber, \"wrong game id\");\n        _;\n    }\n\n    modifier needGameStatus(uint64 gameId, int8 status) {\n        require(games[gameId].status == status, \"wrong game status\");\n        _;\n    }\n\n    modifier needCurrentContent(uint8 content) {\n        require(content < 4 && content > 0, \"wrong content\");\n        _;\n    }\n\n    // contract owner methods\n    function setMaxLimit(uint256 limit) external onlyOwner {\n        require(limit >= 1 ether, \"limit to low\");\n        maxLimit = limit;\n        emit SetMaxLimit(limit);\n    }\n\n    function setTimeoutLimit(uint256 limit) external onlyOwner {\n        timeoutLimit = limit;\n        emit SetTimeoutLimit(limit);\n    } \n\n    // view\n    function viewGame(uint64 gameId)\n        external\n        view\n        onlyGameStarted(gameId)\n        returns (\n            uint256,\n            address,\n            address,\n            int8,\n            uint256\n        )\n    {\n        HandGame memory game = games[gameId];\n        return (\n            game.amount,\n            game.starter,\n            game.player,\n            game.status,\n            game.timeout\n        );\n    }\n\n    /**\n     */\n    function viewLatestGames(uint64 limit) external view returns (uint256[]) {\n        require(limit <= viewCountLimit, \"limit is too high\");\n        uint64 count = limit > totalGameNumber ? totalGameNumber : limit;\n        uint256[] memory _lastestGames = new uint256[](count * 6);\n        for (uint64 i = 0; i < count; i++) {\n            HandGame memory game = games[totalGameNumber - i - 1];\n            _lastestGames[i * 6 + 0] = uint256(game.gameId);\n            _lastestGames[i * 6 + 1] = game.amount;\n            _lastestGames[i * 6 + 2] = uint256(game.starter);\n            _lastestGames[i * 6 + 3] = uint256(game.player);\n            _lastestGames[i * 6 + 4] = uint256(game.player);\n            _lastestGames[i * 6 + 5] = game.timeout;\n        }\n\n        return (_lastestGames);\n    }\n\n    // game starter methods\n    function startGame(uint256 card, uint256 threshold)\n        external\n        payable\n        onlyEnabled\n    {\n        GameCard memory starter = GameCard(card, \"\", 0);\n        GameCard memory player = GameCard(0, \"\", 0);\n        HandGame memory game = HandGame(\n            totalGameNumber,\n            msg.value,\n            msg.sender,\n            address(0),\n            0,\n            starter,\n            player,\n            block.timestamp + timeoutLimit,\n            threshold\n        );\n        totalGameNumber++;\n        games.push(game);\n        emit GameStarted(game.gameId, game.starter, card, msg.value);\n    }\n\n    function cancelGame(uint64 gameId)\n        external\n        onlyGameStarted(gameId)\n        onlyStarter(gameId)\n        needGameStatus(gameId, 0)\n        onlyTimeout(gameId)\n    {\n        HandGame storage game = games[gameId];\n        game.status = -1;\n        msg.sender.transfer(game.amount);\n        emit GameCancelled(gameId);\n    }\n\n    // player methods\n    function joinGame(uint64 gameId, uint256 card)\n        external\n        payable\n        onlyGameStarted(gameId)\n        needGameStatus(gameId, 0)\n    {\n        HandGame storage game = games[gameId];\n        uint256 joinedAmount;\n\n        GameCard memory playerCard = GameCard(card, \"\", 0);\n        require(msg.value >= game.threshold, \"wrong balance\");\n        // \n        if (msg.value > game.amount) {\n            msg.sender.transfer(msg.value - game.amount);\n            joinedAmount = game.amount;\n        } else {\n            joinedAmount = msg.value;\n        }\n\n        game.player = msg.sender;\n        game.playerCard = playerCard;\n        game.amount = game.amount * 2;\n        game.timeout = timeoutLimit + block.timestamp;\n        game.status = 1;\n        emit GameLocked(gameId, msg.sender, card, joinedAmount);\n    }\n\n    function openCard(\n        uint64 gameId,\n        string key,\n        uint8 content\n    )\n        external\n        onlyGameStarted(gameId)\n        onlyPlayer(gameId)\n        needGameStatus(gameId, 1)\n        needCurrentContent(content)\n    {\n        HandGame storage game = games[gameId];\n        GameCard storage card;\n        if (game.starter == msg.sender) {\n            card = game.starterCard;\n        } else {\n            card = game.playerCard;\n        }\n        // emit TestCard(card.card, key, content);\n        bool validate = _validateCard(card.card, key, content);\n        require(validate, \"wrong key or content\");\n        card.key = key;\n        card.content = content;\n\n        emit CardOpened(gameId, msg.sender, key, content);\n\n        if (game.starterCard.content != 0 && game.playerCard.content != 0) {\n            int8 r = _winOrLose(\n                game.starterCard.content,\n                game.playerCard.content\n            );\n            if (r == 1) {\n                game.starter.transfer(game.amount);\n            } else if (r == -1) {\n                game.player.transfer(game.amount);\n            } else {\n                game.starter.transfer(game.amount / 2);\n                game.player.transfer(game.amount / 2);\n            }\n            emit GameFinished(gameId, r);\n        }\n    }\n\n    function timeoutGame(uint64 gameId)\n        external\n        onlyGameStarted(gameId)\n        onlyPlayer(gameId)\n        needGameStatus(gameId, 1)\n        onlyTimeout(gameId)\n    {\n        HandGame memory game = games[gameId];\n        GameCard memory starter = game.starterCard;\n        GameCard memory player = game.playerCard;\n        if (starter.content != 0) {\n            game.starter.transfer(game.amount);\n            emit GameFinished(gameId, 1);\n        } else if (player.content != 0) {\n            game.player.transfer(game.amount);\n            emit GameFinished(gameId, -1);\n        } else {\n            game.starter.transfer(game.amount / 2);\n            game.player.transfer(game.amount / 2);\n            emit GameFinished(gameId, 0);\n        }\n    }\n\n    // private methods\n    function _isTimeout(uint64 gameId) private view returns (bool) {\n        HandGame memory game = games[gameId];\n        return (game.timeout <= block.timestamp);\n    }\n\n    function _validateCard(\n        uint256 card,\n        string key,\n        uint8 content\n    ) private view returns (bool) {\n        return (card == uint256(keccak256(abi.encodePacked(key, content))));\n    }\n\n    function _winOrLose(uint8 playerContent, uint8 otherContent)\n        private\n        view\n        returns (int8)\n    {\n        int8 r = int8(playerContent - otherContent);\n        if (r == 1 || r == -2) {\n            return 1;\n        } else if (r == -1 || r == 2) {\n            return -1;\n        } else {\n            return 0;\n        }\n    }\n}\n",
  "sourcePath": "/home/zhangk/Documents/github/cpchain-dapps-handgame/contracts/Game.sol",
  "compiler": {
    "name": "solc",
    "version": "0.4.25+commit.59dbf8f1.Linux.g++"
  },
  "schemaVersion": "3.4.4",
  "updatedAt": "2022-04-04T07:21:02.098Z",
  "devdoc": {
    "methods": {
      "claimOwnership()": {
        "details": "Allows the pendingOwner address to finalize the transfer."
      },
      "disableContract()": {
        "details": "set contract disable"
      },
      "enableContract()": {
        "details": "set contract enable"
      },
      "transferOwnership(address)": {
        "details": "Allows the current owner to set the pendingOwner address.",
        "params": {
          "newOwner": "The address to transfer ownership to."
        }
      }
    }
  },
  "userdoc": {
    "methods": {}
  }
}