{
  "contractName": "Game",
  "abi": [
    {
      "constant": true,
      "inputs": [
        {
          "name": "",
          "type": "uint256"
        }
      ],
      "name": "games",
      "outputs": [
        {
          "name": "gameId",
          "type": "uint64"
        },
        {
          "name": "amount",
          "type": "uint256"
        },
        {
          "name": "starter",
          "type": "address"
        },
        {
          "name": "player",
          "type": "address"
        },
        {
          "name": "status",
          "type": "uint8"
        },
        {
          "name": "starterProof",
          "type": "uint256"
        },
        {
          "name": "playerProof",
          "type": "uint256"
        },
        {
          "name": "timeout",
          "type": "uint256"
        },
        {
          "name": "threshold",
          "type": "uint256"
        }
      ],
      "payable": false,
      "stateMutability": "view",
      "type": "function"
    },
    {
      "constant": true,
      "inputs": [],
      "name": "maxLimit",
      "outputs": [
        {
          "name": "",
          "type": "uint256"
        }
      ],
      "payable": false,
      "stateMutability": "view",
      "type": "function"
    },
    {
      "constant": true,
      "inputs": [],
      "name": "rpsAddress",
      "outputs": [
        {
          "name": "",
          "type": "address"
        }
      ],
      "payable": false,
      "stateMutability": "view",
      "type": "function"
    },
    {
      "constant": true,
      "inputs": [
        {
          "name": "",
          "type": "uint64"
        }
      ],
      "name": "gameToGroup",
      "outputs": [
        {
          "name": "",
          "type": "uint256"
        }
      ],
      "payable": false,
      "stateMutability": "view",
      "type": "function"
    },
    {
      "constant": true,
      "inputs": [
        {
          "name": "proof",
          "type": "uint256"
        },
        {
          "name": "key",
          "type": "uint256"
        },
        {
          "name": "content",
          "type": "uint256"
        }
      ],
      "name": "validateProof",
      "outputs": [
        {
          "name": "",
          "type": "bool"
        }
      ],
      "payable": false,
      "stateMutability": "pure",
      "type": "function"
    },
    {
      "constant": true,
      "inputs": [],
      "name": "enabled",
      "outputs": [
        {
          "name": "",
          "type": "bool"
        }
      ],
      "payable": false,
      "stateMutability": "view",
      "type": "function"
    },
    {
      "constant": false,
      "inputs": [],
      "name": "enableContract",
      "outputs": [],
      "payable": false,
      "stateMutability": "nonpayable",
      "type": "function"
    },
    {
      "constant": false,
      "inputs": [
        {
          "name": "proof",
          "type": "uint256"
        },
        {
          "name": "key",
          "type": "uint256"
        },
        {
          "name": "content",
          "type": "uint256"
        }
      ],
      "name": "setProof",
      "outputs": [],
      "payable": false,
      "stateMutability": "nonpayable",
      "type": "function"
    },
    {
      "constant": true,
      "inputs": [],
      "name": "timeoutLimit",
      "outputs": [
        {
          "name": "",
          "type": "uint256"
        }
      ],
      "payable": false,
      "stateMutability": "view",
      "type": "function"
    },
    {
      "constant": false,
      "inputs": [],
      "name": "claimOwnership",
      "outputs": [],
      "payable": false,
      "stateMutability": "nonpayable",
      "type": "function"
    },
    {
      "constant": true,
      "inputs": [],
      "name": "groupChatAddress",
      "outputs": [
        {
          "name": "",
          "type": "address"
        }
      ],
      "payable": false,
      "stateMutability": "view",
      "type": "function"
    },
    {
      "constant": true,
      "inputs": [],
      "name": "totalGameNumber",
      "outputs": [
        {
          "name": "",
          "type": "uint64"
        }
      ],
      "payable": false,
      "stateMutability": "view",
      "type": "function"
    },
    {
      "constant": false,
      "inputs": [],
      "name": "renounceOwnership",
      "outputs": [],
      "payable": false,
      "stateMutability": "nonpayable",
      "type": "function"
    },
    {
      "constant": false,
      "inputs": [],
      "name": "disableContract",
      "outputs": [],
      "payable": false,
      "stateMutability": "nonpayable",
      "type": "function"
    },
    {
      "constant": true,
      "inputs": [
        {
          "name": "proof",
          "type": "uint256"
        }
      ],
      "name": "viewContent",
      "outputs": [
        {
          "name": "",
          "type": "uint256"
        },
        {
          "name": "",
          "type": "uint256"
        }
      ],
      "payable": false,
      "stateMutability": "view",
      "type": "function"
    },
    {
      "constant": true,
      "inputs": [],
      "name": "owner",
      "outputs": [
        {
          "name": "",
          "type": "address"
        }
      ],
      "payable": false,
      "stateMutability": "view",
      "type": "function"
    },
    {
      "constant": true,
      "inputs": [],
      "name": "pendingOwner",
      "outputs": [
        {
          "name": "",
          "type": "address"
        }
      ],
      "payable": false,
      "stateMutability": "view",
      "type": "function"
    },
    {
      "constant": true,
      "inputs": [],
      "name": "mintConfig",
      "outputs": [
        {
          "name": "createrMint",
          "type": "uint256"
        },
        {
          "name": "staterLockMint",
          "type": "uint256"
        },
        {
          "name": "playerLockMint",
          "type": "uint256"
        },
        {
          "name": "winnerMint",
          "type": "uint256"
        },
        {
          "name": "loserMint",
          "type": "uint256"
        },
        {
          "name": "drawMint",
          "type": "uint256"
        }
      ],
      "payable": false,
      "stateMutability": "view",
      "type": "function"
    },
    {
      "constant": false,
      "inputs": [
        {
          "name": "newOwner",
          "type": "address"
        }
      ],
      "name": "transferOwnership",
      "outputs": [],
      "payable": false,
      "stateMutability": "nonpayable",
      "type": "function"
    },
    {
      "inputs": [
        {
          "name": "rps",
          "type": "address"
        }
      ],
      "payable": false,
      "stateMutability": "nonpayable",
      "type": "constructor"
    },
    {
      "anonymous": false,
      "inputs": [
        {
          "indexed": true,
          "name": "proof",
          "type": "uint256"
        },
        {
          "indexed": true,
          "name": "key",
          "type": "uint256"
        },
        {
          "indexed": true,
          "name": "content",
          "type": "uint256"
        }
      ],
      "name": "ContentVerified",
      "type": "event"
    },
    {
      "anonymous": false,
      "inputs": [
        {
          "indexed": true,
          "name": "enabled",
          "type": "bool"
        }
      ],
      "name": "EnableStatusChanged",
      "type": "event"
    },
    {
      "anonymous": false,
      "inputs": [
        {
          "indexed": true,
          "name": "previousOwner",
          "type": "address"
        },
        {
          "indexed": true,
          "name": "newOwner",
          "type": "address"
        }
      ],
      "name": "OwnershipTransferred",
      "type": "event"
    },
    {
      "anonymous": false,
      "inputs": [
        {
          "indexed": false,
          "name": "limit",
          "type": "uint256"
        }
      ],
      "name": "SetMaxLimit",
      "type": "event"
    },
    {
      "anonymous": false,
      "inputs": [
        {
          "indexed": false,
          "name": "limit",
          "type": "uint256"
        }
      ],
      "name": "SetTimeoutLimit",
      "type": "event"
    },
    {
      "anonymous": false,
      "inputs": [
        {
          "indexed": false,
          "name": "starterMint",
          "type": "uint256"
        },
        {
          "indexed": false,
          "name": "staterLockMint",
          "type": "uint256"
        },
        {
          "indexed": false,
          "name": "playerLockMint",
          "type": "uint256"
        },
        {
          "indexed": false,
          "name": "winnerMint",
          "type": "uint256"
        },
        {
          "indexed": false,
          "name": "loserMint",
          "type": "uint256"
        },
        {
          "indexed": false,
          "name": "drawMint",
          "type": "uint256"
        }
      ],
      "name": "SetMintConfig",
      "type": "event"
    },
    {
      "anonymous": false,
      "inputs": [
        {
          "indexed": true,
          "name": "gameId",
          "type": "uint64"
        },
        {
          "indexed": false,
          "name": "starter",
          "type": "address"
        },
        {
          "indexed": false,
          "name": "card",
          "type": "uint256"
        },
        {
          "indexed": false,
          "name": "amount",
          "type": "uint256"
        },
        {
          "indexed": false,
          "name": "threshold",
          "type": "uint256"
        }
      ],
      "name": "GameStarted",
      "type": "event"
    },
    {
      "anonymous": false,
      "inputs": [
        {
          "indexed": true,
          "name": "group_id",
          "type": "uint256"
        },
        {
          "indexed": true,
          "name": "gameId",
          "type": "uint64"
        },
        {
          "indexed": false,
          "name": "starter",
          "type": "address"
        },
        {
          "indexed": false,
          "name": "message",
          "type": "string"
        },
        {
          "indexed": false,
          "name": "amount",
          "type": "uint256"
        },
        {
          "indexed": false,
          "name": "threshold",
          "type": "uint256"
        }
      ],
      "name": "CreateGroupHandGame",
      "type": "event"
    },
    {
      "anonymous": false,
      "inputs": [
        {
          "indexed": true,
          "name": "gameId",
          "type": "uint64"
        }
      ],
      "name": "GameCancelled",
      "type": "event"
    },
    {
      "anonymous": false,
      "inputs": [
        {
          "indexed": true,
          "name": "gameId",
          "type": "uint64"
        },
        {
          "indexed": false,
          "name": "player",
          "type": "address"
        },
        {
          "indexed": false,
          "name": "card",
          "type": "uint256"
        },
        {
          "indexed": false,
          "name": "amount",
          "type": "uint256"
        }
      ],
      "name": "GameLocked",
      "type": "event"
    },
    {
      "anonymous": false,
      "inputs": [
        {
          "indexed": true,
          "name": "gameId",
          "type": "uint64"
        },
        {
          "indexed": false,
          "name": "player",
          "type": "address"
        },
        {
          "indexed": false,
          "name": "key",
          "type": "uint256"
        },
        {
          "indexed": false,
          "name": "content",
          "type": "uint256"
        }
      ],
      "name": "CardOpened",
      "type": "event"
    },
    {
      "anonymous": false,
      "inputs": [
        {
          "indexed": true,
          "name": "gameId",
          "type": "uint64"
        },
        {
          "indexed": false,
          "name": "result",
          "type": "int8"
        }
      ],
      "name": "GameFinished",
      "type": "event"
    },
    {
      "constant": false,
      "inputs": [
        {
          "name": "starterMint",
          "type": "uint256"
        },
        {
          "name": "staterLockMint",
          "type": "uint256"
        },
        {
          "name": "playerLockMint",
          "type": "uint256"
        },
        {
          "name": "winnerMint",
          "type": "uint256"
        },
        {
          "name": "loserMint",
          "type": "uint256"
        },
        {
          "name": "drawMint",
          "type": "uint256"
        }
      ],
      "name": "setMintConfig",
      "outputs": [],
      "payable": false,
      "stateMutability": "nonpayable",
      "type": "function"
    },
    {
      "constant": false,
      "inputs": [
        {
          "name": "groupchat",
          "type": "address"
        }
      ],
      "name": "setGroupChat",
      "outputs": [],
      "payable": false,
      "stateMutability": "nonpayable",
      "type": "function"
    },
    {
      "constant": false,
      "inputs": [
        {
          "name": "rps",
          "type": "address"
        }
      ],
      "name": "setRPS",
      "outputs": [],
      "payable": false,
      "stateMutability": "nonpayable",
      "type": "function"
    },
    {
      "constant": false,
      "inputs": [
        {
          "name": "limit",
          "type": "uint256"
        }
      ],
      "name": "setMaxLimit",
      "outputs": [],
      "payable": false,
      "stateMutability": "nonpayable",
      "type": "function"
    },
    {
      "constant": false,
      "inputs": [
        {
          "name": "limit",
          "type": "uint256"
        }
      ],
      "name": "setTimeoutLimit",
      "outputs": [],
      "payable": false,
      "stateMutability": "nonpayable",
      "type": "function"
    },
    {
      "constant": true,
      "inputs": [
        {
          "name": "gameId",
          "type": "uint64"
        }
      ],
      "name": "viewGame",
      "outputs": [
        {
          "name": "",
          "type": "uint256"
        },
        {
          "name": "",
          "type": "uint256"
        },
        {
          "name": "",
          "type": "address"
        },
        {
          "name": "",
          "type": "address"
        },
        {
          "name": "",
          "type": "uint8"
        },
        {
          "name": "",
          "type": "uint256"
        },
        {
          "name": "",
          "type": "uint256[]"
        }
      ],
      "payable": false,
      "stateMutability": "view",
      "type": "function"
    },
    {
      "constant": false,
      "inputs": [
        {
          "name": "proof",
          "type": "uint256"
        },
        {
          "name": "threshold",
          "type": "uint256"
        }
      ],
      "name": "startGame",
      "outputs": [],
      "payable": true,
      "stateMutability": "payable",
      "type": "function"
    },
    {
      "constant": false,
      "inputs": [
        {
          "name": "proof",
          "type": "uint256"
        },
        {
          "name": "threshold",
          "type": "uint256"
        },
        {
          "name": "group_id",
          "type": "uint256"
        },
        {
          "name": "userMessage",
          "type": "string"
        }
      ],
      "name": "startGroupChatGame",
      "outputs": [],
      "payable": true,
      "stateMutability": "payable",
      "type": "function"
    },
    {
      "constant": false,
      "inputs": [
        {
          "name": "gameId",
          "type": "uint64"
        }
      ],
      "name": "cancelGame",
      "outputs": [],
      "payable": false,
      "stateMutability": "nonpayable",
      "type": "function"
    },
    {
      "constant": false,
      "inputs": [
        {
          "name": "gameId",
          "type": "uint64"
        },
        {
          "name": "proof",
          "type": "uint256"
        }
      ],
      "name": "joinGame",
      "outputs": [],
      "payable": true,
      "stateMutability": "payable",
      "type": "function"
    },
    {
      "constant": false,
      "inputs": [
        {
          "name": "gameId",
          "type": "uint64"
        },
        {
          "name": "key",
          "type": "uint256"
        },
        {
          "name": "content",
          "type": "uint256"
        }
      ],
      "name": "openCard",
      "outputs": [],
      "payable": false,
      "stateMutability": "nonpayable",
      "type": "function"
    },
    {
      "constant": false,
      "inputs": [
        {
          "name": "gameId",
          "type": "uint64"
        }
      ],
      "name": "finishTimeoutGame",
      "outputs": [],
      "payable": false,
      "stateMutability": "nonpayable",
      "type": "function"
    }
  ],
  "bytecode": "0x608060405260018060146101000a81548160ff021916908315150217905550683635c9adc5dea00000600355620151806004556000600560006101000a81548167ffffffffffffffff021916908367ffffffffffffffff16021790555034801561006857600080fd5b5060405160208061556e83398101806040528101908080519060200190929190505050336000806101000a81548173ffffffffffffffffffffffffffffffffffffffff021916908373ffffffffffffffffffffffffffffffffffffffff16021790555060c060405190810160405280670de0b6b3a76400008152602001670de0b6b3a76400008152602001670de0b6b3a764000081526020016729a2241af62c0000815260200160008152602001670de0b6b3a76400008152506009600082015181600001556020820151816001015560408201518160020155606082015181600301556080820151816004015560a0820151816005015590505080600660006101000a81548173ffffffffffffffffffffffffffffffffffffffff021916908373ffffffffffffffffffffffffffffffffffffffff16021790555080600860006101000a81548173ffffffffffffffffffffffffffffffffffffffff021916908373ffffffffffffffffffffffffffffffffffffffff16021790555050615379806101f56000396000f30060806040526004361061018b576000357c0100000000000000000000000000000000000000000000000000000000900463ffffffff1680630cd54e1b146101905780630d53be48146101db578063117a5b90146102125780631a861d26146102fd5780631a91cd05146103285780631eb447f91461037f5780631f434095146103b65780632118b7c514610401578063238dafe01461045a578063282c51a814610489578063367edd32146104d55780633b59034f146104ec57806343b8a2b61461060057806349bcaf5f146106415780634a307a841461066e5780634e71e0c8146106995780636baf5189146106b05780636fcfca0414610707578063715018a614610746578063730b83811461075d578063894ba833146107875780638be3e06f1461079e5780638da5cb5b146107e6578063976e08871461083d5780639b438ca6146108805780639d65a67e146108df578063bf8bcee414610913578063e30c397814610940578063e7cc724414610997578063e9e2cdc8146109e5578063f2fde38b14610a28575b600080fd5b34801561019c57600080fd5b506101d9600480360381019080803567ffffffffffffffff1690602001909291908035906020019092919080359060200190929190505050610a6b565b005b3480156101e757600080fd5b50610210600480360381019080803567ffffffffffffffff169060200190929190505050610f36565b005b34801561021e57600080fd5b5061023d6004803603810190808035906020019092919050505061134d565b604051808a67ffffffffffffffff1667ffffffffffffffff1681526020018981526020018873ffffffffffffffffffffffffffffffffffffffff1673ffffffffffffffffffffffffffffffffffffffff1681526020018773ffffffffffffffffffffffffffffffffffffffff1673ffffffffffffffffffffffffffffffffffffffff1681526020018660ff1660ff168152602001858152602001848152602001838152602001828152602001995050505050505050505060405180910390f35b34801561030957600080fd5b5061031261140b565b6040518082815260200191505060405180910390f35b34801561033457600080fd5b5061033d611411565b604051808273ffffffffffffffffffffffffffffffffffffffff1673ffffffffffffffffffffffffffffffffffffffff16815260200191505060405180910390f35b34801561038b57600080fd5b506103b4600480360381019080803567ffffffffffffffff169060200190929190505050611437565b005b3480156103c257600080fd5b506103eb600480360381019080803567ffffffffffffffff169060200190929190505050611973565b6040518082815260200191505060405180910390f35b34801561040d57600080fd5b5061044060048036038101908080359060200190929190803590602001909291908035906020019092919050505061198b565b604051808215151515815260200191505060405180910390f35b34801561046657600080fd5b5061046f611a26565b604051808215151515815260200191505060405180910390f35b6104d3600480360381019080803590602001909291908035906020019092919080359060200190929190803590602001908201803590602001919091929391929390505050611a39565b005b3480156104e157600080fd5b506104ea611fb5565b005b3480156104f857600080fd5b50610521600480360381019080803567ffffffffffffffff1690602001909291905050506120d3565b604051808881526020018781526020018673ffffffffffffffffffffffffffffffffffffffff1673ffffffffffffffffffffffffffffffffffffffff1681526020018573ffffffffffffffffffffffffffffffffffffffff1673ffffffffffffffffffffffffffffffffffffffff1681526020018460ff1660ff16815260200183815260200180602001828103825283818151815260200191508051906020019060200280838360005b838110156105e65780820151818401526020810190506105cb565b505050509050019850505050505050505060405180910390f35b34801561060c57600080fd5b5061063f600480360381019080803590602001909291908035906020019092919080359060200190929190505050612442565b005b34801561064d57600080fd5b5061066c60048036038101908080359060200190929190505050612532565b005b34801561067a57600080fd5b50610683612637565b6040518082815260200191505060405180910390f35b3480156106a557600080fd5b506106ae61263d565b005b3480156106bc57600080fd5b506106c5612845565b604051808273ffffffffffffffffffffffffffffffffffffffff1673ffffffffffffffffffffffffffffffffffffffff16815260200191505060405180910390f35b34801561071357600080fd5b5061071c61286b565b604051808267ffffffffffffffff1667ffffffffffffffff16815260200191505060405180910390f35b34801561075257600080fd5b5061075b612885565b005b6107856004803603810190808035906020019092919080359060200190929190505050612955565b005b34801561079357600080fd5b5061079c612a0e565b005b3480156107aa57600080fd5b506107c960048036038101908080359060200190929190505050612b2d565b604051808381526020018281526020019250505060405180910390f35b3480156107f257600080fd5b506107fb612b7f565b604051808273ffffffffffffffffffffffffffffffffffffffff1673ffffffffffffffffffffffffffffffffffffffff16815260200191505060405180910390f35b34801561084957600080fd5b5061087e600480360381019080803573ffffffffffffffffffffffffffffffffffffffff169060200190929190505050612ba4565b005b34801561088c57600080fd5b506108dd600480360381019080803590602001909291908035906020019092919080359060200190929190803590602001909291908035906020019092919080359060200190929190505050612ced565b005b610911600480360381019080803567ffffffffffffffff16906020019092919080359060200190929190505050612e87565b005b34801561091f57600080fd5b5061093e600480360381019080803590602001909291905050506130b6565b005b34801561094c57600080fd5b5061095561323b565b604051808273ffffffffffffffffffffffffffffffffffffffff1673ffffffffffffffffffffffffffffffffffffffff16815260200191505060405180910390f35b3480156109a357600080fd5b506109ac613261565b60405180878152602001868152602001858152602001848152602001838152602001828152602001965050505050505060405180910390f35b3480156109f157600080fd5b50610a26600480360381019080803573ffffffffffffffffffffffffffffffffffffffff16906020019092919050505061328b565b005b348015610a3457600080fd5b50610a69600480360381019080803573ffffffffffffffffffffffffffffffffffffffff1690602001909291905050506133d4565b005b600080600080600080883373ffffffffffffffffffffffffffffffffffffffff16600f8267ffffffffffffffff16815481101515610aa557fe5b906000526020600020906008020160020160009054906101000a900473ffffffffffffffffffffffffffffffffffffffff1673ffffffffffffffffffffffffffffffffffffffff161480610b6e57503373ffffffffffffffffffffffffffffffffffffffff16600f8267ffffffffffffffff16815481101515610b2457fe5b906000526020600020906008020160030160009054906101000a900473ffffffffffffffffffffffffffffffffffffffff1673ffffffffffffffffffffffffffffffffffffffff16145b1515610be2576040517f08c379a00000000000000000000000000000000000000000000000000000000081526004018080602001828103825260108152602001807f6e6565642067616d6520706c617965720000000000000000000000000000000081525060200191505060405180910390fd5b896001600560009054906101000a900467ffffffffffffffff1667ffffffffffffffff168267ffffffffffffffff16101515610c86576040517f08c379a000000000000000000000000000000000000000000000000000000000815260040180806020018281038252600d8152602001807f77726f6e672067616d652069640000000000000000000000000000000000000081525060200191505060405180910390fd5b8060ff16600f8367ffffffffffffffff16815481101515610ca357fe5b906000526020600020906008020160030160149054906101000a900460ff1660ff16141515610d3a576040517f08c379a00000000000000000000000000000000000000000000000000000000081526004018080602001828103825260118152602001807f77726f6e672067616d652073746174757300000000000000000000000000000081525060200191505060405180910390fd5b600f8c67ffffffffffffffff16815481101515610d5357fe5b906000526020600020906008020198503373ffffffffffffffffffffffffffffffffffffffff168960020160009054906101000a900473ffffffffffffffffffffffffffffffffffffffff1673ffffffffffffffffffffffffffffffffffffffff161415610dc75788600401549750610dcf565b886005015497505b610dda888c8c61198b565b9650861515610e51576040517f08c379a00000000000000000000000000000000000000000000000000000000081526004018080602001828103825260148152602001807f77726f6e67206b6579206f7220636f6e74656e7400000000000000000000000081525060200191505060405180910390fd5b610e5c888c8c612442565b8b67ffffffffffffffff167fc7a139737cd6184b2f7e21f2772a5be4e94abef5bd30ae5723616d19edf906a9338d8d604051808473ffffffffffffffffffffffffffffffffffffffff1673ffffffffffffffffffffffffffffffffffffffff168152602001838152602001828152602001935050505060405180910390a2610ee78960040154612b2d565b965050610ef78960050154612b2d565b95505060008614158015610f0c575060008514155b15610f2857610f1b86866134dc565b9350610f278c85613593565b5b505050505050505050505050565b6000813373ffffffffffffffffffffffffffffffffffffffff16600f8267ffffffffffffffff16815481101515610f6957fe5b906000526020600020906008020160020160009054906101000a900473ffffffffffffffffffffffffffffffffffffffff1673ffffffffffffffffffffffffffffffffffffffff16148061103257503373ffffffffffffffffffffffffffffffffffffffff16600f8267ffffffffffffffff16815481101515610fe857fe5b906000526020600020906008020160030160009054906101000a900473ffffffffffffffffffffffffffffffffffffffff1673ffffffffffffffffffffffffffffffffffffffff16145b15156110a6576040517f08c379a00000000000000000000000000000000000000000000000000000000081526004018080602001828103825260108152602001807f6e6565642067616d6520706c617965720000000000000000000000000000000081525060200191505060405180910390fd5b826000600560009054906101000a900467ffffffffffffffff1667ffffffffffffffff168267ffffffffffffffff1610151561114a576040517f08c379a000000000000000000000000000000000000000000000000000000000815260040180806020018281038252600d8152602001807f77726f6e672067616d652069640000000000000000000000000000000000000081525060200191505060405180910390fd5b8060ff16600f8367ffffffffffffffff1681548110151561116757fe5b906000526020600020906008020160030160149054906101000a900460ff1660ff161415156111fe576040517f08c379a00000000000000000000000000000000000000000000000000000000081526004018080602001828103825260118152602001807f77726f6e672067616d652073746174757300000000000000000000000000000081525060200191505060405180910390fd5b8461120881613972565b151561127c576040517f08c379a00000000000000000000000000000000000000000000000000000000081526004018080602001828103825260128152602001807f6e6565642067616d652074696d65206f7574000000000000000000000000000081525060200191505060405180910390fd5b600f8667ffffffffffffffff1681548110151561129557fe5b9060005260206000209060080201945060038560030160146101000a81548160ff021916908360ff1602179055503373ffffffffffffffffffffffffffffffffffffffff166108fc86600101549081150290604051600060405180830381858888f1935050505015801561130d573d6000803e3d6000fd5b508567ffffffffffffffff167fa77d020ec6193b836dd9686343fd6244891812d0d63f6b8567734bf69298985860405160405180910390a2505050505050565b600f8181548110151561135c57fe5b90600052602060002090600802016000915090508060000160009054906101000a900467ffffffffffffffff16908060010154908060020160009054906101000a900473ffffffffffffffffffffffffffffffffffffffff16908060030160009054906101000a900473ffffffffffffffffffffffffffffffffffffffff16908060030160149054906101000a900460ff16908060040154908060050154908060060154908060070154905089565b60035481565b600660009054906101000a900473ffffffffffffffffffffffffffffffffffffffff1681565b61143f615262565b600080833373ffffffffffffffffffffffffffffffffffffffff16600f8267ffffffffffffffff1681548110151561147357fe5b906000526020600020906008020160020160009054906101000a900473ffffffffffffffffffffffffffffffffffffffff1673ffffffffffffffffffffffffffffffffffffffff16148061153c57503373ffffffffffffffffffffffffffffffffffffffff16600f8267ffffffffffffffff168154811015156114f257fe5b906000526020600020906008020160030160009054906101000a900473ffffffffffffffffffffffffffffffffffffffff1673ffffffffffffffffffffffffffffffffffffffff16145b15156115b0576040517f08c379a00000000000000000000000000000000000000000000000000000000081526004018080602001828103825260108152602001807f6e6565642067616d6520706c617965720000000000000000000000000000000081525060200191505060405180910390fd5b846001600560009054906101000a900467ffffffffffffffff1667ffffffffffffffff168267ffffffffffffffff16101515611654576040517f08c379a000000000000000000000000000000000000000000000000000000000815260040180806020018281038252600d8152602001807f77726f6e672067616d652069640000000000000000000000000000000000000081525060200191505060405180910390fd5b8060ff16600f8367ffffffffffffffff1681548110151561167157fe5b906000526020600020906008020160030160149054906101000a900460ff1660ff16141515611708576040517f08c379a00000000000000000000000000000000000000000000000000000000081526004018080602001828103825260118152602001807f77726f6e672067616d652073746174757300000000000000000000000000000081525060200191505060405180910390fd5b8661171281613972565b1515611786576040517f08c379a00000000000000000000000000000000000000000000000000000000081526004018080602001828103825260128152602001807f6e6565642067616d652074696d65206f7574000000000000000000000000000081525060200191505060405180910390fd5b600f8867ffffffffffffffff1681548110151561179f57fe5b906000526020600020906008020161012060405190810160405290816000820160009054906101000a900467ffffffffffffffff1667ffffffffffffffff1667ffffffffffffffff168152602001600182015481526020016002820160009054906101000a900473ffffffffffffffffffffffffffffffffffffffff1673ffffffffffffffffffffffffffffffffffffffff1673ffffffffffffffffffffffffffffffffffffffff1681526020016003820160009054906101000a900473ffffffffffffffffffffffffffffffffffffffff1673ffffffffffffffffffffffffffffffffffffffff1673ffffffffffffffffffffffffffffffffffffffff1681526020016003820160149054906101000a900460ff1660ff1660ff16815260200160048201548152602001600582015481526020016006820154815260200160078201548152505096506118f68760a00151612b2d565b9650506119068760c00151612b2d565b9550506000861415156119235761191e886001613593565b611969565b60008514151561195c57611957887fffffffffffffffffffffffffffffffffffffffffffffffffffffffffffffffff613593565b611968565b611967886000613593565b5b5b5050505050505050565b60106020528060005260406000206000915090505481565b6000828260405160200180838152602001828152602001925050506040516020818303038152906040526040518082805190602001908083835b6020831015156119ea57805182526020820191506020810190506020830392506119c5565b6001836020036101000a038019825116818451168082178552505050505050905001915050604051809103902060019004841490509392505050565b600160149054906101000a900460ff1681565b600083600073ffffffffffffffffffffffffffffffffffffffff16600560089054906101000a900473ffffffffffffffffffffffffffffffffffffffff1673ffffffffffffffffffffffffffffffffffffffff1614151515611b03576040517f08c379a00000000000000000000000000000000000000000000000000000000081526004018080602001828103825260158152602001807f4e6f2067726f757020636861742061646472657373000000000000000000000081525060200191505060405180910390fd5b600760009054906101000a900473ffffffffffffffffffffffffffffffffffffffff1673ffffffffffffffffffffffffffffffffffffffff166347b84f4182336040518363ffffffff167c0100000000000000000000000000000000000000000000000000000000028152600401808381526020018273ffffffffffffffffffffffffffffffffffffffff1673ffffffffffffffffffffffffffffffffffffffff16815260200192505050602060405180830381600087803b158015611bc857600080fd5b505af1158015611bdc573d6000803e3d6000fd5b505050506040513d6020811015611bf257600080fd5b81019080805190602001909291905050501515611c77576040517f08c379a00000000000000000000000000000000000000000000000000000000081526004018080602001828103825260198152602001807f596f7520617265206e6f7420696e20746869732067726f75700000000000000081525060200191505060405180910390fd5b600760009054906101000a900473ffffffffffffffffffffffffffffffffffffffff1673ffffffffffffffffffffffffffffffffffffffff16638ed5788182336040518363ffffffff167c0100000000000000000000000000000000000000000000000000000000028152600401808381526020018273ffffffffffffffffffffffffffffffffffffffff1673ffffffffffffffffffffffffffffffffffffffff16815260200192505050602060405180830381600087803b158015611d3c57600080fd5b505af1158015611d50573d6000803e3d6000fd5b505050506040513d6020811015611d6657600080fd5b8101908080519060200190929190505050151515611dec576040517f08c379a00000000000000000000000000000000000000000000000000000000081526004018080602001828103825260148152602001807f596f752068617665206265656e2062616e6e656400000000000000000000000081525060200191505060405180910390fd5b600160149054906101000a900460ff161515611e96576040517f08c379a00000000000000000000000000000000000000000000000000000000081526004018080602001828103825260238152602001807f436f6e747261637420686173206265656e2064697361626c6564206279206f7781526020017f6e6572000000000000000000000000000000000000000000000000000000000081525060400191505060405180910390fd5b611ea08787613aef565b915084601060008467ffffffffffffffff1667ffffffffffffffff16815260200190815260200160002081905550611f0b858386868080601f016020809104026020016040519081016040528093929190818152602001838380828437820191505050505050613dc6565b8167ffffffffffffffff16857fcb613bba8ba408214751d7ddec60c59f97abed6bed1c604296cd6c93be647a13338787348c604051808673ffffffffffffffffffffffffffffffffffffffff1673ffffffffffffffffffffffffffffffffffffffff1681526020018060200184815260200183815260200182810382528686828181526020019250808284378201915050965050505050505060405180910390a350505050505050565b6000809054906101000a900473ffffffffffffffffffffffffffffffffffffffff1673ffffffffffffffffffffffffffffffffffffffff163373ffffffffffffffffffffffffffffffffffffffff16141515612079576040517f08c379a00000000000000000000000000000000000000000000000000000000081526004018080602001828103825260208152602001807f4f776e61626c653a2063616c6c6572206973206e6f7420746865206f776e657281525060200191505060405180910390fd5b60018060146101000a81548160ff021916908315150217905550600160149054906101000a900460ff1615157f44cd398f157fa2dcc23e1a3238d8ec602ef8ed03c90372c10918d81d69e36ab160405160405180910390a2565b60008060008060008060606120e6615262565b6000806000806060600560009054906101000a900467ffffffffffffffff1667ffffffffffffffff168e67ffffffffffffffff1610151561218f576040517f08c379a000000000000000000000000000000000000000000000000000000000815260040180806020018281038252600d8152602001807f77726f6e672067616d652069640000000000000000000000000000000000000081525060200191505060405180910390fd5b600f8e67ffffffffffffffff168154811015156121a857fe5b906000526020600020906008020161012060405190810160405290816000820160009054906101000a900467ffffffffffffffff1667ffffffffffffffff1667ffffffffffffffff168152602001600182015481526020016002820160009054906101000a900473ffffffffffffffffffffffffffffffffffffffff1673ffffffffffffffffffffffffffffffffffffffff1673ffffffffffffffffffffffffffffffffffffffff1681526020016003820160009054906101000a900473ffffffffffffffffffffffffffffffffffffffff1673ffffffffffffffffffffffffffffffffffffffff1673ffffffffffffffffffffffffffffffffffffffff1681526020016003820160149054906101000a900460ff1660ff1660ff16815260200160048201548152602001600582015481526020016006820154815260200160078201548152505095506122ff8660a00151612b2d565b945094506123108660c00151612b2d565b9250925060066040519080825280602002602001820160405280156123445781602001602082028038833980820191505090505b5090508560a0015181600081518110151561235b57fe5b90602001906020020181815250508481600181518110151561237957fe5b90602001906020020181815250508381600281518110151561239757fe5b90602001906020020181815250508560c001518160038151811015156123b957fe5b9060200190602002018181525050828160048151811015156123d757fe5b9060200190602002018181525050818160058151811015156123f557fe5b906020019060200201818152505085602001518661010001518760400151886060015189608001518a60e00151869c509c509c509c509c509c509c50505050505050919395979092949650565b600061244f84848461198b565b90508015156124c6576040517f08c379a00000000000000000000000000000000000000000000000000000000081526004018080602001828103825260168152602001807f77726f6e672070726f6f66206f7220636f6e74656e740000000000000000000081525060200191505060405180910390fd5b604080519081016040528084815260200183815250600260008681526020019081526020016000209060026124fc9291906152e8565b508183857f41db0f74adc00cbd49d97d38e90961d851e90a30c3566014c9b3980c9013890860405160405180910390a450505050565b6000809054906101000a900473ffffffffffffffffffffffffffffffffffffffff1673ffffffffffffffffffffffffffffffffffffffff163373ffffffffffffffffffffffffffffffffffffffff161415156125f6576040517f08c379a00000000000000000000000000000000000000000000000000000000081526004018080602001828103825260208152602001807f4f776e61626c653a2063616c6c6572206973206e6f7420746865206f776e657281525060200191505060405180910390fd5b806004819055507f016810b2453fd6fa62348747e56186a28bfab39f0326d594aa954c3421996500816040518082815260200191505060405180910390a150565b60045481565b600160009054906101000a900473ffffffffffffffffffffffffffffffffffffffff1673ffffffffffffffffffffffffffffffffffffffff163373ffffffffffffffffffffffffffffffffffffffff16141515612702576040517f08c379a00000000000000000000000000000000000000000000000000000000081526004018080602001828103825260168152602001807f50656e64696e67206f776e65722072657175697265640000000000000000000081525060200191505060405180910390fd5b600160009054906101000a900473ffffffffffffffffffffffffffffffffffffffff1673ffffffffffffffffffffffffffffffffffffffff166000809054906101000a900473ffffffffffffffffffffffffffffffffffffffff1673ffffffffffffffffffffffffffffffffffffffff167f8be0079c531659141344cd1fd0a4f28419497f9722a3daafe3b4186f6b6457e060405160405180910390a3600160009054906101000a900473ffffffffffffffffffffffffffffffffffffffff166000806101000a81548173ffffffffffffffffffffffffffffffffffffffff021916908373ffffffffffffffffffffffffffffffffffffffff1602179055506000600160006101000a81548173ffffffffffffffffffffffffffffffffffffffff021916908373ffffffffffffffffffffffffffffffffffffffff160217905550565b600560089054906101000a900473ffffffffffffffffffffffffffffffffffffffff1681565b600560009054906101000a900467ffffffffffffffff1681565b6000809054906101000a900473ffffffffffffffffffffffffffffffffffffffff1673ffffffffffffffffffffffffffffffffffffffff163373ffffffffffffffffffffffffffffffffffffffff16141515612949576040517f08c379a00000000000000000000000000000000000000000000000000000000081526004018080602001828103825260208152602001807f4f776e61626c653a2063616c6c6572206973206e6f7420746865206f776e657281525060200191505060405180910390fd5b61295360006142ad565b565b600160149054906101000a900460ff1615156129ff576040517f08c379a00000000000000000000000000000000000000000000000000000000081526004018080602001828103825260238152602001807f436f6e747261637420686173206265656e2064697361626c6564206279206f7781526020017f6e6572000000000000000000000000000000000000000000000000000000000081525060400191505060405180910390fd5b612a098282613aef565b505050565b6000809054906101000a900473ffffffffffffffffffffffffffffffffffffffff1673ffffffffffffffffffffffffffffffffffffffff163373ffffffffffffffffffffffffffffffffffffffff16141515612ad2576040517f08c379a00000000000000000000000000000000000000000000000000000000081526004018080602001828103825260208152602001807f4f776e61626c653a2063616c6c6572206973206e6f7420746865206f776e657281525060200191505060405180910390fd5b6000600160146101000a81548160ff021916908315150217905550600160149054906101000a900460ff1615157f44cd398f157fa2dcc23e1a3238d8ec602ef8ed03c90372c10918d81d69e36ab160405160405180910390a2565b600080600260008481526020019081526020016000206000600281101515612b5157fe5b0154600260008581526020019081526020016000206001600281101515612b7457fe5b015491509150915091565b6000809054906101000a900473ffffffffffffffffffffffffffffffffffffffff1681565b6000809054906101000a900473ffffffffffffffffffffffffffffffffffffffff1673ffffffffffffffffffffffffffffffffffffffff163373ffffffffffffffffffffffffffffffffffffffff16141515612c68576040517f08c379a00000000000000000000000000000000000000000000000000000000081526004018080602001828103825260208152602001807f4f776e61626c653a2063616c6c6572206973206e6f7420746865206f776e657281525060200191505060405180910390fd5b80600560086101000a81548173ffffffffffffffffffffffffffffffffffffffff021916908373ffffffffffffffffffffffffffffffffffffffff16021790555080600760006101000a81548173ffffffffffffffffffffffffffffffffffffffff021916908373ffffffffffffffffffffffffffffffffffffffff16021790555050565b6000809054906101000a900473ffffffffffffffffffffffffffffffffffffffff1673ffffffffffffffffffffffffffffffffffffffff163373ffffffffffffffffffffffffffffffffffffffff16141515612db1576040517f08c379a00000000000000000000000000000000000000000000000000000000081526004018080602001828103825260208152602001807f4f776e61626c653a2063616c6c6572206973206e6f7420746865206f776e657281525060200191505060405180910390fd5b60c060405190810160405280878152602001868152602001858152602001848152602001838152602001828152506009600082015181600001556020820151816001015560408201518160020155606082015181600301556080820151816004015560a082015181600501559050507f89a966b782e1c848ac2283747e49e28d33e3d7033b99ec72803316b2b640d85186868686868660405180878152602001868152602001858152602001848152602001838152602001828152602001965050505050505060405180910390a1505050505050565b6000826000600560009054906101000a900467ffffffffffffffff1667ffffffffffffffff168267ffffffffffffffff16101515612f2d576040517f08c379a000000000000000000000000000000000000000000000000000000000815260040180806020018281038252600d8152602001807f77726f6e672067616d652069640000000000000000000000000000000000000081525060200191505060405180910390fd5b8060ff16600f8367ffffffffffffffff16815481101515612f4a57fe5b906000526020600020906008020160030160149054906101000a900460ff1660ff16141515612fe1576040517f08c379a00000000000000000000000000000000000000000000000000000000081526004018080602001828103825260118152602001807f77726f6e672067616d652073746174757300000000000000000000000000000081525060200191505060405180910390fd5b84612feb81613972565b151515613060576040517f08c379a000000000000000000000000000000000000000000000000000000000815260040180806020018281038252600b8152602001807f74696d65206973206f757400000000000000000000000000000000000000000081525060200191505060405180910390fd5b601060008767ffffffffffffffff1667ffffffffffffffff16815260200190815260200160002054935060008411156130a35761309e868686614371565b6130ae565b6130ad8686614732565b5b505050505050565b6000809054906101000a900473ffffffffffffffffffffffffffffffffffffffff1673ffffffffffffffffffffffffffffffffffffffff163373ffffffffffffffffffffffffffffffffffffffff1614151561317a576040517f08c379a00000000000000000000000000000000000000000000000000000000081526004018080602001828103825260208152602001807f4f776e61626c653a2063616c6c6572206973206e6f7420746865206f776e657281525060200191505060405180910390fd5b670de0b6b3a764000081101515156131fa576040517f08c379a000000000000000000000000000000000000000000000000000000000815260040180806020018281038252600c8152602001807f6c696d697420746f206c6f77000000000000000000000000000000000000000081525060200191505060405180910390fd5b806003819055507f44c8ef68dcc036e569158e914a009e3f02c9e933580e31424a1ae67728df7465816040518082815260200191505060405180910390a150565b600160009054906101000a900473ffffffffffffffffffffffffffffffffffffffff1681565b60098060000154908060010154908060020154908060030154908060040154908060050154905086565b6000809054906101000a900473ffffffffffffffffffffffffffffffffffffffff1673ffffffffffffffffffffffffffffffffffffffff163373ffffffffffffffffffffffffffffffffffffffff1614151561334f576040517f08c379a00000000000000000000000000000000000000000000000000000000081526004018080602001828103825260208152602001807f4f776e61626c653a2063616c6c6572206973206e6f7420746865206f776e657281525060200191505060405180910390fd5b80600660006101000a81548173ffffffffffffffffffffffffffffffffffffffff021916908373ffffffffffffffffffffffffffffffffffffffff16021790555080600860006101000a81548173ffffffffffffffffffffffffffffffffffffffff021916908373ffffffffffffffffffffffffffffffffffffffff16021790555050565b6000809054906101000a900473ffffffffffffffffffffffffffffffffffffffff1673ffffffffffffffffffffffffffffffffffffffff163373ffffffffffffffffffffffffffffffffffffffff16141515613498576040517f08c379a00000000000000000000000000000000000000000000000000000000081526004018080602001828103825260208152602001807f4f776e61626c653a2063616c6c6572206973206e6f7420746865206f776e657281525060200191505060405180910390fd5b80600160006101000a81548173ffffffffffffffffffffffffffffffffffffffff021916908373ffffffffffffffffffffffffffffffffffffffff16021790555050565b600080828403905060018160000b148061351857507ffffffffffffffffffffffffffffffffffffffffffffffffffffffffffffffffe8160000b145b15613526576001915061358c565b7fffffffffffffffffffffffffffffffffffffffffffffffffffffffffffffffff8160000b148061355a575060028160000b145b15613587577fffffffffffffffffffffffffffffffffffffffffffffffffffffffffffffffff915061358c565b600091505b5092915050565b6000600f8367ffffffffffffffff168154811015156135ae57fe5b9060005260206000209060080201905060018260000b14156136a4578060020160009054906101000a900473ffffffffffffffffffffffffffffffffffffffff1673ffffffffffffffffffffffffffffffffffffffff166108fc82600101549081150290604051600060405180830381858888f19350505050158015613638573d6000803e3d6000fd5b5061366c8160020160009054906101000a900473ffffffffffffffffffffffffffffffffffffffff16600960030154614948565b61369f8160030160009054906101000a900473ffffffffffffffffffffffffffffffffffffffff16600960040154614948565b613907565b7fffffffffffffffffffffffffffffffffffffffffffffffffffffffffffffffff8260000b14156137a9578060030160009054906101000a900473ffffffffffffffffffffffffffffffffffffffff1673ffffffffffffffffffffffffffffffffffffffff166108fc82600101549081150290604051600060405180830381858888f1935050505015801561373d573d6000803e3d6000fd5b506137718160030160009054906101000a900473ffffffffffffffffffffffffffffffffffffffff16600960030154614948565b6137a48160020160009054906101000a900473ffffffffffffffffffffffffffffffffffffffff16600960040154614948565b613906565b8060020160009054906101000a900473ffffffffffffffffffffffffffffffffffffffff1673ffffffffffffffffffffffffffffffffffffffff166108fc600283600101548115156137f757fe5b049081150290604051600060405180830381858888f19350505050158015613823573d6000803e3d6000fd5b508060030160009054906101000a900473ffffffffffffffffffffffffffffffffffffffff1673ffffffffffffffffffffffffffffffffffffffff166108fc6002836001015481151561387257fe5b049081150290604051600060405180830381858888f1935050505015801561389e573d6000803e3d6000fd5b506138d28160030160009054906101000a900473ffffffffffffffffffffffffffffffffffffffff16600960050154614948565b6139058160020160009054906101000a900473ffffffffffffffffffffffffffffffffffffffff16600960050154614948565b5b5b60028160030160146101000a81548160ff021916908360ff1602179055508267ffffffffffffffff167f3598a14b08a100ac75597e6f8e8309dfd773210d8ff4be917cebe132e82b7e5183604051808260000b60000b815260200191505060405180910390a2505050565b600061397c615262565b600f8367ffffffffffffffff1681548110151561399557fe5b906000526020600020906008020161012060405190810160405290816000820160009054906101000a900467ffffffffffffffff1667ffffffffffffffff1667ffffffffffffffff168152602001600182015481526020016002820160009054906101000a900473ffffffffffffffffffffffffffffffffffffffff1673ffffffffffffffffffffffffffffffffffffffff1673ffffffffffffffffffffffffffffffffffffffff1681526020016003820160009054906101000a900473ffffffffffffffffffffffffffffffffffffffff1673ffffffffffffffffffffffffffffffffffffffff1673ffffffffffffffffffffffffffffffffffffffff1681526020016003820160149054906101000a900460ff1660ff1660ff1681526020016004820154815260200160058201548152602001600682015481526020016007820154815250509050428160e001511115915050919050565b6000613af9615262565b61012060405190810160405280600560009054906101000a900467ffffffffffffffff1667ffffffffffffffff1681526020013481526020013373ffffffffffffffffffffffffffffffffffffffff168152602001600073ffffffffffffffffffffffffffffffffffffffff168152602001600060ff16815260200185815260200160008152602001600454420181526020018481525090506005600081819054906101000a900467ffffffffffffffff168092919060010191906101000a81548167ffffffffffffffff021916908367ffffffffffffffff16021790555050600f819080600181540180825580915050906001820390600052602060002090600802016000909192909190915060008201518160000160006101000a81548167ffffffffffffffff021916908367ffffffffffffffff1602179055506020820151816001015560408201518160020160006101000a81548173ffffffffffffffffffffffffffffffffffffffff021916908373ffffffffffffffffffffffffffffffffffffffff16021790555060608201518160030160006101000a81548173ffffffffffffffffffffffffffffffffffffffff021916908373ffffffffffffffffffffffffffffffffffffffff16021790555060808201518160030160146101000a81548160ff021916908360ff16021790555060a0820151816004015560c0820151816005015560e082015181600601556101008201518160070155505050613d2a33600960000154614948565b806000015167ffffffffffffffff167f04b3f072ec09d8a8e42d32becc4b8f5907ae8e1840ab37c6698647fd2ecf24458260400151863487604051808573ffffffffffffffffffffffffffffffffffffffff1673ffffffffffffffffffffffffffffffffffffffff16815260200184815260200183815260200182815260200194505050505060405180910390a2806000015191505092915050565b606083600073ffffffffffffffffffffffffffffffffffffffff16600560089054906101000a900473ffffffffffffffffffffffffffffffffffffffff1673ffffffffffffffffffffffffffffffffffffffff1614151515613e90576040517f08c379a00000000000000000000000000000000000000000000000000000000081526004018080602001828103825260158152602001807f4e6f2067726f757020636861742061646472657373000000000000000000000081525060200191505060405180910390fd5b600760009054906101000a900473ffffffffffffffffffffffffffffffffffffffff1673ffffffffffffffffffffffffffffffffffffffff166347b84f4182336040518363ffffffff167c0100000000000000000000000000000000000000000000000000000000028152600401808381526020018273ffffffffffffffffffffffffffffffffffffffff1673ffffffffffffffffffffffffffffffffffffffff16815260200192505050602060405180830381600087803b158015613f5557600080fd5b505af1158015613f69573d6000803e3d6000fd5b505050506040513d6020811015613f7f57600080fd5b81019080805190602001909291905050501515614004576040517f08c379a00000000000000000000000000000000000000000000000000000000081526004018080602001828103825260198152602001807f596f7520617265206e6f7420696e20746869732067726f75700000000000000081525060200191505060405180910390fd5b600760009054906101000a900473ffffffffffffffffffffffffffffffffffffffff1673ffffffffffffffffffffffffffffffffffffffff16638ed5788182336040518363ffffffff167c0100000000000000000000000000000000000000000000000000000000028152600401808381526020018273ffffffffffffffffffffffffffffffffffffffff1673ffffffffffffffffffffffffffffffffffffffff16815260200192505050602060405180830381600087803b1580156140c957600080fd5b505af11580156140dd573d6000803e3d6000fd5b505050506040513d60208110156140f357600080fd5b8101908080519060200190929190505050151515614179576040517f08c379a00000000000000000000000000000000000000000000000000000000081526004018080602001828103825260148152602001807f596f752068617665206265656e2062616e6e656400000000000000000000000081525060200191505060405180910390fd5b61418e8467ffffffffffffffff168433614a82565b9150600760009054906101000a900473ffffffffffffffffffffffffffffffffffffffff1673ffffffffffffffffffffffffffffffffffffffff1663aae8b59286846040518363ffffffff167c01000000000000000000000000000000000000000000000000000000000281526004018083815260200180602001828103825283818151815260200191508051906020019080838360005b83811015614241578082015181840152602081019050614226565b50505050905090810190601f16801561426e5780820380516001836020036101000a031916815260200191505b509350505050600060405180830381600087803b15801561428e57600080fd5b505af11580156142a2573d6000803e3d6000fd5b505050505050505050565b60008060009054906101000a900473ffffffffffffffffffffffffffffffffffffffff169050816000806101000a81548173ffffffffffffffffffffffffffffffffffffffff021916908373ffffffffffffffffffffffffffffffffffffffff1602179055508173ffffffffffffffffffffffffffffffffffffffff168173ffffffffffffffffffffffffffffffffffffffff167f8be0079c531659141344cd1fd0a4f28419497f9722a3daafe3b4186f6b6457e060405160405180910390a35050565b80600073ffffffffffffffffffffffffffffffffffffffff16600560089054906101000a900473ffffffffffffffffffffffffffffffffffffffff1673ffffffffffffffffffffffffffffffffffffffff1614151515614439576040517f08c379a00000000000000000000000000000000000000000000000000000000081526004018080602001828103825260158152602001807f4e6f2067726f757020636861742061646472657373000000000000000000000081525060200191505060405180910390fd5b600760009054906101000a900473ffffffffffffffffffffffffffffffffffffffff1673ffffffffffffffffffffffffffffffffffffffff166347b84f4182336040518363ffffffff167c0100000000000000000000000000000000000000000000000000000000028152600401808381526020018273ffffffffffffffffffffffffffffffffffffffff1673ffffffffffffffffffffffffffffffffffffffff16815260200192505050602060405180830381600087803b1580156144fe57600080fd5b505af1158015614512573d6000803e3d6000fd5b505050506040513d602081101561452857600080fd5b810190808051906020019092919050505015156145ad576040517f08c379a00000000000000000000000000000000000000000000000000000000081526004018080602001828103825260198152602001807f596f7520617265206e6f7420696e20746869732067726f75700000000000000081525060200191505060405180910390fd5b600760009054906101000a900473ffffffffffffffffffffffffffffffffffffffff1673ffffffffffffffffffffffffffffffffffffffff16638ed5788182336040518363ffffffff167c0100000000000000000000000000000000000000000000000000000000028152600401808381526020018273ffffffffffffffffffffffffffffffffffffffff1673ffffffffffffffffffffffffffffffffffffffff16815260200192505050602060405180830381600087803b15801561467257600080fd5b505af1158015614686573d6000803e3d6000fd5b505050506040513d602081101561469c57600080fd5b8101908080519060200190929190505050151515614722576040517f08c379a00000000000000000000000000000000000000000000000000000000081526004018080602001828103825260148152602001807f596f752068617665206265656e2062616e6e656400000000000000000000000081525060200191505060405180910390fd5b61472c8484614732565b50505050565b6000600f8367ffffffffffffffff1681548110151561474d57fe5b90600052602060002090600802019050806007015434101515156147d9576040517f08c379a000000000000000000000000000000000000000000000000000000000815260040180806020018281038252600d8152602001807f77726f6e672062616c616e63650000000000000000000000000000000000000081525060200191505060405180910390fd5b338160030160006101000a81548173ffffffffffffffffffffffffffffffffffffffff021916908373ffffffffffffffffffffffffffffffffffffffff1602179055508181600501819055503481600101540181600101819055504260045401816006018190555060018160030160146101000a81548160ff021916908360ff1602179055506148928160020160009054906101000a900473ffffffffffffffffffffffffffffffffffffffff16600960010154614948565b6148c58160030160009054906101000a900473ffffffffffffffffffffffffffffffffffffffff16600960020154614948565b8267ffffffffffffffff167f6030de52daebee6c07b2f6f4b2e8ba8707191b786719c3a2ece9cda6278e1e53338434604051808473ffffffffffffffffffffffffffffffffffffffff1673ffffffffffffffffffffffffffffffffffffffff168152602001838152602001828152602001935050505060405180910390a2505050565b600073ffffffffffffffffffffffffffffffffffffffff16600660009054906101000a900473ffffffffffffffffffffffffffffffffffffffff1673ffffffffffffffffffffffffffffffffffffffff16141515614a7e57600860009054906101000a900473ffffffffffffffffffffffffffffffffffffffff1673ffffffffffffffffffffffffffffffffffffffff1663b13d96fa83836040518363ffffffff167c0100000000000000000000000000000000000000000000000000000000028152600401808373ffffffffffffffffffffffffffffffffffffffff1673ffffffffffffffffffffffffffffffffffffffff16815260200182815260200192505050600060405180830381600087803b158015614a6557600080fd5b505af1158015614a79573d6000803e3d6000fd5b505050505b5050565b6060806060806060806060614a968a614e24565b95506040805190810160405280601281526020017f7b226d657373616765223a7b22736571223a000000000000000000000000000081525094506040805190810160405280600881526020017f2c226d7367223a2200000000000000000000000000000000000000000000000081525093506040805190810160405280600c81526020017f222c2273656e646572223a2200000000000000000000000000000000000000008152509250606060405190810160405280602681526020017f227d2c2274797065223a2268616e672d67616d65222c2276657273696f6e223a81526020017f22322e31227d000000000000000000000000000000000000000000000000000081525091508486858b86614bad8d614f7b565b876040516020018088805190602001908083835b602083101515614be65780518252602082019150602081019050602083039250614bc1565b6001836020036101000a03801982511681845116808217855250505050505090500187805190602001908083835b602083101515614c395780518252602082019150602081019050602083039250614c14565b6001836020036101000a03801982511681845116808217855250505050505090500186805190602001908083835b602083101515614c8c5780518252602082019150602081019050602083039250614c67565b6001836020036101000a03801982511681845116808217855250505050505090500185805190602001908083835b602083101515614cdf5780518252602082019150602081019050602083039250614cba565b6001836020036101000a03801982511681845116808217855250505050505090500184805190602001908083835b602083101515614d325780518252602082019150602081019050602083039250614d0d565b6001836020036101000a03801982511681845116808217855250505050505090500183805190602001908083835b602083101515614d855780518252602082019150602081019050602083039250614d60565b6001836020036101000a03801982511681845116808217855250505050505090500182805190602001908083835b602083101515614dd85780518252602082019150602081019050602083039250614db3565b6001836020036101000a03801982511681845116808217855250505050505090500197505050505050505060405160208183030381529060405290508096505050505050509392505050565b60606000806060600080861415614e72576040805190810160405280600181526020017f30000000000000000000000000000000000000000000000000000000000000008152509450614f72565b8593505b600084141515614e9c578280600101935050600a84811515614e9457fe5b049350614e76565b826040519080825280601f01601f191660200182016040528015614ecf5781602001602082028038833980820191505090505b5091506001830390505b600086141515614f6e57600a86811515614eef57fe5b066030017f010000000000000000000000000000000000000000000000000000000000000002828280600190039350815181101515614f2a57fe5b9060200101907effffffffffffffffffffffffffffffffffffffffffffffffffffffffffffff1916908160001a905350600a86811515614f6657fe5b049550614ed9565b8194505b50505050919050565b60608060008060008060286040519080825280601f01601f191660200182016040528015614fb85781602001602082028038833980820191505090505b509450600093505b6014841015615183578360130360080260020a8773ffffffffffffffffffffffffffffffffffffffff16811515614ff357fe5b047f01000000000000000000000000000000000000000000000000000000000000000292506010837f0100000000000000000000000000000000000000000000000000000000000000900460ff1681151561504a57fe5b047f0100000000000000000000000000000000000000000000000000000000000000029150817f01000000000000000000000000000000000000000000000000000000000000009004601002837f01000000000000000000000000000000000000000000000000000000000000009004037f01000000000000000000000000000000000000000000000000000000000000000290506150e882615190565b85856002028151811015156150f957fe5b9060200101907effffffffffffffffffffffffffffffffffffffffffffffffffffffffffffff1916908160001a90535061513281615190565b856001866002020181518110151561514657fe5b9060200101907effffffffffffffffffffffffffffffffffffffffffffffffffffffffffffff1916908160001a9053508380600101945050614fc0565b8495505050505050919050565b6000600a827f0100000000000000000000000000000000000000000000000000000000000000900460ff161015615211576030827f01000000000000000000000000000000000000000000000000000000000000009004017f010000000000000000000000000000000000000000000000000000000000000002905061525d565b6057827f01000000000000000000000000000000000000000000000000000000000000009004017f01000000000000000000000000000000000000000000000000000000000000000290505b919050565b61012060405190810160405280600067ffffffffffffffff16815260200160008152602001600073ffffffffffffffffffffffffffffffffffffffff168152602001600073ffffffffffffffffffffffffffffffffffffffff168152602001600060ff168152602001600081526020016000815260200160008152602001600081525090565b8260028101928215615317579160200282015b828111156153165782518255916020019190600101906152fb565b5b5090506153249190615328565b5090565b61534a91905b8082111561534657600081600090555060010161532e565b5090565b905600a165627a7a72305820fb5bcf9d3496a5072de108df24b2bcec319fb302576cae11b77909a641aad1430029",
  "source": "// SPDX-License-Identifier: MIT\npragma solidity >=0.4.22 <0.9.0;\nimport \"./interfaces/IGame.sol\";\nimport \"./interfaces/IPlayer.sol\";\nimport \"./interfaces/IStarter.sol\";\nimport \"./interfaces/IGroupChat.sol\";\nimport \"./interfaces/IRPS.sol\";\nimport \"@cpchain-tools/cpchain-dapps-utils/contracts/lifecycle/Enable.sol\";\nimport \"@cpchain-tools/cpchain-dapps-utils/contracts/security/Verifiable.sol\";\n\n//1 Rock  2 Paper 3 Scissors  0 unknown\n\ncontract Game is IGame, IStarter, IPlayer, Enable, Verifiable {\n    uint256 public maxLimit = 1000 ether;\n    uint256 public timeoutLimit = 24 hours;\n    uint64 public totalGameNumber = 0;\n    address public groupChatAddress;\n    address public rpsAddress;\n    IGroupChat private groupchatInstance;\n    IRPS private RPSInstance;\n    struct MintConfig {\n        uint256 createrMint;\n        uint256 staterLockMint;\n        uint256 playerLockMint;\n        uint256 winnerMint;\n        uint256 loserMint;\n        uint256 drawMint;\n    }\n    struct HandGame {\n        uint64 gameId;\n        uint256 amount;\n        address starter;\n        address player;\n        //0 started, 1 locked,2,finished,3 cancel,\n        uint8 status;\n        uint256 starterProof;\n        uint256 playerProof;\n        uint256 timeout;\n        uint256 threshold;\n    }\n\n    constructor(address rps) public {\n        mintConfig = MintConfig(1 ether,1 ether, 1 ether, 3 ether, 0 ether, 1 ether);\n        rpsAddress = rps;\n        RPSInstance = IRPS(rps);\n    }\n\n    MintConfig public mintConfig;\n    HandGame[] public games;\n    mapping(uint64 => uint256) public gameToGroup;\n\n    modifier onlyActivatedGroupMember(uint256 group_id) {\n        require(groupChatAddress != address(0x0), \"No group chat address\");\n        require(\n            groupchatInstance.has(group_id, msg.sender),\n            \"You are not in this group\"\n        );\n        require(\n            !groupchatInstance.isBanned(group_id, msg.sender),\n            \"You have been banned\"\n        );\n        _;\n    }\n    modifier onlyPlayer(uint64 gameId) {\n        require(\n            games[gameId].starter == msg.sender ||\n                games[gameId].player == msg.sender,\n            \"need game player\"\n        );\n        _;\n    }\n\n    modifier onlyTimeout(uint64 gameId) {\n        require(_isTimeout(gameId), \"need game time out\");\n        _;\n    }\n\n    modifier notTimeout(uint64 gameId) {\n        require(!_isTimeout(gameId), \"time is out\");\n        _;\n    }\n\n    modifier needGameStatus(uint64 gameId, uint8 status) {\n        require(gameId < totalGameNumber, \"wrong game id\");\n        require(games[gameId].status == status, \"wrong game status\");\n        _;\n    }\n\n    // contract owner methods\n    function setMintConfig(\n        uint256 starterMint,\n        uint256 staterLockMint,\n        uint256 playerLockMint,\n        uint256 winnerMint,\n        uint256 loserMint,\n        uint256 drawMint\n    ) public onlyOwner {\n        mintConfig = MintConfig(\n            starterMint,\n            staterLockMint,\n            playerLockMint,\n            winnerMint,\n            loserMint,\n            drawMint\n        );\n        emit SetMintConfig(starterMint,staterLockMint,playerLockMint,winnerMint,loserMint,drawMint);\n    }\n\n    function setGroupChat(address groupchat) public onlyOwner {\n        groupChatAddress = groupchat;\n        groupchatInstance = IGroupChat(groupchat);\n    }\n\n    function setRPS(address rps) public onlyOwner {\n        rpsAddress = rps;\n        RPSInstance = IRPS(rps);\n    }\n\n    function setMaxLimit(uint256 limit) external onlyOwner {\n        require(limit >= 1 ether, \"limit to low\");\n        maxLimit = limit;\n        emit SetMaxLimit(limit);\n    }\n\n    function setTimeoutLimit(uint256 limit) external onlyOwner {\n        timeoutLimit = limit;\n        emit SetTimeoutLimit(limit);\n    }\n\n    // view\n    function viewGame(uint64 gameId)\n        external\n        view\n        returns (\n            uint256,\n            uint256,\n            address,\n            address,\n            uint8,\n            uint256,\n            uint256[]\n        )\n    {\n        require(gameId < totalGameNumber, \"wrong game id\");\n        HandGame memory game = games[gameId];\n        (uint256 starterKey, uint256 starterContent) = viewContent(\n            game.starterProof\n        );\n        (uint256 playerKey, uint256 playerContent) = viewContent(\n            game.playerProof\n        );\n\n        uint256[] memory cardsInfo = new uint256[](6);\n        cardsInfo[0] = game.starterProof;\n        cardsInfo[1] = starterKey;\n        cardsInfo[2] = starterContent;\n        cardsInfo[3] = game.playerProof;\n        cardsInfo[4] = playerKey;\n        cardsInfo[5] = playerContent;\n        return (\n            game.amount,\n            game.threshold,\n            game.starter,\n            game.player,\n            game.status,\n            game.timeout,\n            cardsInfo\n        );\n    }\n\n    function startGame(uint256 proof, uint256 threshold)\n        external\n        payable\n        onlyEnabled\n    {\n        _createGame(proof, threshold);\n    }\n\n    function startGroupChatGame(\n        uint256 proof,\n        uint256 threshold,\n        uint256 group_id,\n        string userMessage\n    ) external payable onlyActivatedGroupMember(group_id) onlyEnabled {\n        uint64 gameId = _createGame(proof, threshold);\n        gameToGroup[gameId] = group_id;\n        _notifyGroup(group_id, gameId, userMessage);\n        emit CreateGroupHandGame(\n            group_id,\n            gameId,\n            msg.sender,\n            userMessage,\n            msg.value,\n            threshold\n        );\n    }\n\n    function cancelGame(uint64 gameId)\n        external\n        onlyPlayer(gameId)\n        needGameStatus(gameId, 0)\n        onlyTimeout(gameId)\n    {\n        HandGame storage game = games[gameId];\n        game.status = 3;\n        msg.sender.transfer(game.amount);\n        emit GameCancelled(gameId);\n    }\n\n    // player methods\n    function joinGame(uint64 gameId, uint256 proof)\n        external\n        payable\n        needGameStatus(gameId, 0)\n        notTimeout(gameId)\n    {\n        uint256 group_id = gameToGroup[gameId];\n        if (group_id > 0) {\n            _lockGroupGame(gameId, proof, group_id);\n        } else {\n            _lockGame(gameId, proof);\n        }\n    }\n\n    function openCard(\n        uint64 gameId,\n        uint256 key,\n        uint256 content\n    ) external onlyPlayer(gameId) needGameStatus(gameId, 1) {\n        HandGame storage game = games[gameId];\n        uint256 proof;\n        if (game.starter == msg.sender) {\n            proof = game.starterProof;\n        } else {\n            proof = game.playerProof;\n        }\n        bool validate = validateProof(proof, key, content);\n        require(validate, \"wrong key or content\");\n        setProof(proof, key, content);\n        emit CardOpened(gameId, msg.sender, key, content);\n\n        (, uint256 starterContent) = viewContent(game.starterProof);\n        (, uint256 playerContent) = viewContent(game.playerProof);\n        if (starterContent != 0 && playerContent != 0) {\n            int8 r = _winOrLose(starterContent, playerContent);\n            _finishGame(gameId, r);\n        }\n    }\n\n    function finishTimeoutGame(uint64 gameId)\n        external\n        onlyPlayer(gameId)\n        needGameStatus(gameId, 1)\n        onlyTimeout(gameId)\n    {\n        HandGame memory game = games[gameId];\n        (, uint256 starterContent) = viewContent(game.starterProof);\n        (, uint256 playerContent) = viewContent(game.playerProof);\n        if (starterContent != 0) {\n            _finishGame(gameId, 1);\n        } else if (playerContent != 0) {\n            _finishGame(gameId, -1);\n        } else {\n            _finishGame(gameId, 0);\n        }\n    }\n\n    function _notifyGroup(\n        uint256 group_id,\n        uint64 gameId,\n        string userMessage\n    ) internal onlyActivatedGroupMember(group_id) {\n        string memory message = _getMessage(gameId, userMessage, msg.sender);\n        groupchatInstance.sendMessage(group_id, message);\n    }\n\n    function _getMessage(\n        uint256 seq,\n        string userMessage,\n        address sender\n    ) private pure returns (string) {\n        string memory _id = uintToString(seq);\n        string memory msg0 = '{\"message\":{\"seq\":';\n        string memory msgUser = ',\"msg\":\"';\n        string memory msgSender = '\",\"sender\":\"';\n        string memory msg1 = '\"},\"type\":\"hang-game\",\"version\":\"2.1\"}';\n        string memory message = string(\n            abi.encodePacked(\n                msg0,\n                _id,\n                msgUser,\n                userMessage,\n                msgSender,\n                _toAsciiString(sender),\n                msg1\n            )\n        );\n        return message;\n    }\n\n    function _lockGroupGame(\n        uint64 gameId,\n        uint256 proof,\n        uint256 group_id\n    ) private onlyActivatedGroupMember(group_id) {\n        _lockGame(gameId, proof);\n    }\n\n    function _lockGame(uint64 gameId, uint256 proof) private {\n        HandGame storage game = games[gameId];\n        require(msg.value >= game.threshold, \"wrong balance\");\n        game.player = msg.sender;\n        game.playerProof = proof;\n        game.amount = game.amount + msg.value;\n        game.timeout = timeoutLimit + block.timestamp;\n        game.status = 1;\n        _mintRPS(game.starter, mintConfig.staterLockMint);\n        _mintRPS(game.player, mintConfig.playerLockMint);\n        emit GameLocked(gameId, msg.sender, proof, msg.value);\n    }\n\n    function _createGame(uint256 proof, uint256 threshold)\n        private\n        returns (uint64)\n    {\n        HandGame memory game = HandGame(\n            totalGameNumber,\n            msg.value,\n            msg.sender,\n            address(0),\n            0,\n            proof,\n            0,\n            block.timestamp + timeoutLimit,\n            threshold\n        );\n        totalGameNumber++;\n        games.push(game);\n        _mintRPS(msg.sender, mintConfig.createrMint);\n        emit GameStarted(\n            game.gameId,\n            game.starter,\n            proof,\n            msg.value,\n            threshold\n        );\n        return game.gameId;\n    }\n\n    function _mintRPS(address account, uint256 amount) private {\n        if(rpsAddress != address(0)){\n            RPSInstance.mintRPS(account, amount);\n        }\n    }\n\n    function _toAsciiString(address x) internal pure returns (string memory) {\n        bytes memory s = new bytes(40);\n        for (uint256 i = 0; i < 20; i++) {\n            bytes1 b = bytes1(uint8(uint256(uint160(x)) / (2**(8 * (19 - i)))));\n            bytes1 hi = bytes1(uint8(b) / 16);\n            bytes1 lo = bytes1(uint8(b) - 16 * uint8(hi));\n            s[2 * i] = _char(hi);\n            s[2 * i + 1] = _char(lo);\n        }\n        return string(s);\n    }\n\n    function _char(bytes1 b) internal pure returns (bytes1 c) {\n        if (uint8(b) < 10) return bytes1(uint8(b) + 0x30);\n        else return bytes1(uint8(b) + 0x57);\n    }\n\n    function uintToString(uint256 i) internal pure returns (string) {\n        if (i == 0) return \"0\";\n        uint256 j = i;\n        uint256 length;\n        while (j != 0) {\n            length++;\n            j /= 10;\n        }\n        bytes memory bstr = new bytes(length);\n        uint256 k = length - 1;\n        while (i != 0) {\n            bstr[k--] = bytes1(48 + (i % 10));\n            i /= 10;\n        }\n        return string(bstr);\n    }\n\n    function _finishGame(uint64 gameId, int8 r) private {\n        HandGame storage game = games[gameId];\n        if (r == 1) {\n            game.starter.transfer(game.amount);\n            _mintRPS(game.starter, mintConfig.winnerMint);\n            _mintRPS(game.player, mintConfig.loserMint);\n        } else if (r == -1) {\n            game.player.transfer(game.amount);\n            _mintRPS(game.player, mintConfig.winnerMint);\n            _mintRPS(game.starter, mintConfig.loserMint);\n        } else {\n            game.starter.transfer(game.amount / 2);\n            game.player.transfer(game.amount / 2);\n            _mintRPS(game.player, mintConfig.drawMint);\n            _mintRPS(game.starter, mintConfig.drawMint);\n        }\n        game.status = 2;\n        emit GameFinished(gameId, r);\n    }\n\n    function _isTimeout(uint64 gameId) private view returns (bool) {\n        HandGame memory game = games[gameId];\n        return (game.timeout <= block.timestamp);\n    }\n\n    function _winOrLose(uint256 playerContent, uint256 otherContent)\n        private\n        pure\n        returns (int8)\n    {\n        int8 r = int8(playerContent - otherContent);\n        if (r == 1 || r == -2) {\n            return 1;\n        } else if (r == -1 || r == 2) {\n            return -1;\n        } else {\n            return 0;\n        }\n    }\n}\n",
  "sourcePath": "/home/zhangk/Documents/github/cpchain-dapps-handgame/contracts/Game.sol",
  "compiler": {
    "name": "solc",
    "version": "0.4.25+commit.59dbf8f1.Linux.g++"
  },
  "schemaVersion": "3.3.4",
  "updatedAt": "2022-06-15T08:08:27.025Z",
  "devdoc": {
    "methods": {
      "claimOwnership()": {
        "details": "Allows the pendingOwner address to finalize the transfer."
      },
      "disableContract()": {
        "details": "set contract disable"
      },
      "enableContract()": {
        "details": "set contract enable"
      },
      "renounceOwnership()": {
        "details": "Leaves the contract without owner. It will not be possible to call `onlyOwner` functions anymore. Can only be called by the current owner.     * NOTE: Renouncing ownership will leave the contract without an owner, thereby removing any functionality that is only available to the owner."
      },
      "setProof(uint256,uint256,uint256)": {
        "details": "Open the card with proof and content"
      },
      "transferOwnership(address)": {
        "details": "Allows the current owner to set the pendingOwner address.",
        "params": {
          "newOwner": "The address to transfer ownership to."
        }
      },
      "viewContent(uint256)": {
        "details": "get the card from contract     * Returns the proof and conttent.     * Note if the card is not opened,returns should be zero"
      }
    }
  },
  "userdoc": {
    "methods": {}
  }
}