{
  "contractName": "Game",
  "abi": [
    {
      "constant": true,
      "inputs": [
        {
          "name": "",
          "type": "uint256"
        }
      ],
      "name": "games",
      "outputs": [
        {
          "name": "gameId",
          "type": "uint64"
        },
        {
          "name": "amount",
          "type": "uint256"
        },
        {
          "name": "starter",
          "type": "address"
        },
        {
          "name": "player",
          "type": "address"
        },
        {
          "name": "status",
          "type": "uint8"
        },
        {
          "components": [
            {
              "name": "card",
              "type": "uint256"
            },
            {
              "name": "key",
              "type": "string"
            },
            {
              "name": "content",
              "type": "uint8"
            }
          ],
          "name": "starterCard",
          "type": "tuple"
        },
        {
          "components": [
            {
              "name": "card",
              "type": "uint256"
            },
            {
              "name": "key",
              "type": "string"
            },
            {
              "name": "content",
              "type": "uint8"
            }
          ],
          "name": "playerCard",
          "type": "tuple"
        },
        {
          "name": "timeout",
          "type": "uint256"
        },
        {
          "name": "threshold",
          "type": "uint256"
        }
      ],
      "payable": false,
      "stateMutability": "view",
      "type": "function"
    },
    {
      "constant": true,
      "inputs": [
        {
          "name": "",
          "type": "uint64"
        }
      ],
      "name": "gameToGroup",
      "outputs": [
        {
          "name": "",
          "type": "uint256"
        }
      ],
      "payable": false,
      "stateMutability": "view",
      "type": "function"
    },
    {
      "constant": true,
      "inputs": [],
      "name": "enabled",
      "outputs": [
        {
          "name": "",
          "type": "bool"
        }
      ],
      "payable": false,
      "stateMutability": "view",
      "type": "function"
    },
    {
      "constant": false,
      "inputs": [],
      "name": "enableContract",
      "outputs": [],
      "payable": false,
      "stateMutability": "nonpayable",
      "type": "function"
    },
    {
      "constant": false,
      "inputs": [],
      "name": "claimOwnership",
      "outputs": [],
      "payable": false,
      "stateMutability": "nonpayable",
      "type": "function"
    },
    {
      "constant": true,
      "inputs": [],
      "name": "groupChatAddress",
      "outputs": [
        {
          "name": "",
          "type": "address"
        }
      ],
      "payable": false,
      "stateMutability": "view",
      "type": "function"
    },
    {
      "constant": true,
      "inputs": [],
      "name": "totalGameNumber",
      "outputs": [
        {
          "name": "",
          "type": "uint64"
        }
      ],
      "payable": false,
      "stateMutability": "view",
      "type": "function"
    },
    {
      "constant": false,
      "inputs": [],
      "name": "renounceOwnership",
      "outputs": [],
      "payable": false,
      "stateMutability": "nonpayable",
      "type": "function"
    },
    {
      "constant": false,
      "inputs": [],
      "name": "disableContract",
      "outputs": [],
      "payable": false,
      "stateMutability": "nonpayable",
      "type": "function"
    },
    {
      "constant": true,
      "inputs": [],
      "name": "owner",
      "outputs": [
        {
          "name": "",
          "type": "address"
        }
      ],
      "payable": false,
      "stateMutability": "view",
      "type": "function"
    },
    {
      "constant": true,
      "inputs": [],
      "name": "pendingOwner",
      "outputs": [
        {
          "name": "",
          "type": "address"
        }
      ],
      "payable": false,
      "stateMutability": "view",
      "type": "function"
    },
    {
      "constant": false,
      "inputs": [
        {
          "name": "newOwner",
          "type": "address"
        }
      ],
      "name": "transferOwnership",
      "outputs": [],
      "payable": false,
      "stateMutability": "nonpayable",
      "type": "function"
    },
    {
      "inputs": [
        {
          "name": "rps",
          "type": "address"
        }
      ],
      "payable": false,
      "stateMutability": "nonpayable",
      "type": "constructor"
    },
    {
      "anonymous": false,
      "inputs": [
        {
          "indexed": true,
          "name": "enabled",
          "type": "bool"
        }
      ],
      "name": "EnableStatusChanged",
      "type": "event"
    },
    {
      "anonymous": false,
      "inputs": [
        {
          "indexed": true,
          "name": "previousOwner",
          "type": "address"
        },
        {
          "indexed": true,
          "name": "newOwner",
          "type": "address"
        }
      ],
      "name": "OwnershipTransferred",
      "type": "event"
    },
    {
      "anonymous": false,
      "inputs": [
        {
          "indexed": false,
          "name": "limit",
          "type": "uint256"
        }
      ],
      "name": "SetMaxLimit",
      "type": "event"
    },
    {
      "anonymous": false,
      "inputs": [
        {
          "indexed": false,
          "name": "limit",
          "type": "uint256"
        }
      ],
      "name": "SetTimeoutLimit",
      "type": "event"
    },
    {
      "anonymous": false,
      "inputs": [
        {
          "indexed": true,
          "name": "gameId",
          "type": "uint64"
        },
        {
          "indexed": false,
          "name": "starter",
          "type": "address"
        },
        {
          "indexed": false,
          "name": "card",
          "type": "uint256"
        },
        {
          "indexed": false,
          "name": "amount",
          "type": "uint256"
        },
        {
          "indexed": false,
          "name": "threshold",
          "type": "uint256"
        }
      ],
      "name": "GameStarted",
      "type": "event"
    },
    {
      "anonymous": false,
      "inputs": [
        {
          "indexed": true,
          "name": "group_id",
          "type": "uint256"
        },
        {
          "indexed": true,
          "name": "gameId",
          "type": "uint64"
        },
        {
          "indexed": false,
          "name": "starter",
          "type": "address"
        },
        {
          "indexed": false,
          "name": "message",
          "type": "string"
        },
        {
          "indexed": false,
          "name": "amount",
          "type": "uint256"
        },
        {
          "indexed": false,
          "name": "threshold",
          "type": "uint256"
        }
      ],
      "name": "CreateGroupHandGame",
      "type": "event"
    },
    {
      "anonymous": false,
      "inputs": [
        {
          "indexed": true,
          "name": "gameId",
          "type": "uint64"
        }
      ],
      "name": "GameCancelled",
      "type": "event"
    },
    {
      "anonymous": false,
      "inputs": [
        {
          "indexed": true,
          "name": "gameId",
          "type": "uint64"
        },
        {
          "indexed": false,
          "name": "player",
          "type": "address"
        },
        {
          "indexed": false,
          "name": "card",
          "type": "uint256"
        },
        {
          "indexed": false,
          "name": "amount",
          "type": "uint256"
        }
      ],
      "name": "GameLocked",
      "type": "event"
    },
    {
      "anonymous": false,
      "inputs": [
        {
          "indexed": true,
          "name": "gameId",
          "type": "uint64"
        },
        {
          "indexed": false,
          "name": "player",
          "type": "address"
        },
        {
          "indexed": false,
          "name": "key",
          "type": "string"
        },
        {
          "indexed": false,
          "name": "content",
          "type": "uint8"
        }
      ],
      "name": "CardOpened",
      "type": "event"
    },
    {
      "anonymous": false,
      "inputs": [
        {
          "indexed": true,
          "name": "gameId",
          "type": "uint64"
        },
        {
          "indexed": false,
          "name": "result",
          "type": "int8"
        }
      ],
      "name": "GameFinished",
      "type": "event"
    },
    {
      "constant": false,
      "inputs": [
        {
          "name": "groupchat",
          "type": "address"
        }
      ],
      "name": "setGroupChat",
      "outputs": [],
      "payable": false,
      "stateMutability": "nonpayable",
      "type": "function"
    },
    {
      "constant": false,
      "inputs": [
        {
          "name": "limit",
          "type": "uint256"
        }
      ],
      "name": "setMaxLimit",
      "outputs": [],
      "payable": false,
      "stateMutability": "nonpayable",
      "type": "function"
    },
    {
      "constant": false,
      "inputs": [
        {
          "name": "limit",
          "type": "uint256"
        }
      ],
      "name": "setTimeoutLimit",
      "outputs": [],
      "payable": false,
      "stateMutability": "nonpayable",
      "type": "function"
    },
    {
      "constant": true,
      "inputs": [
        {
          "name": "gameId",
          "type": "uint64"
        }
      ],
      "name": "viewGame",
      "outputs": [
        {
          "name": "",
          "type": "uint256"
        },
        {
          "name": "",
          "type": "uint256"
        },
        {
          "name": "",
          "type": "address"
        },
        {
          "name": "",
          "type": "address"
        },
        {
          "name": "",
          "type": "uint8"
        },
        {
          "name": "",
          "type": "uint256"
        },
        {
          "name": "",
          "type": "uint256"
        },
        {
          "name": "",
          "type": "string"
        },
        {
          "name": "",
          "type": "uint8"
        },
        {
          "name": "",
          "type": "uint256"
        },
        {
          "name": "",
          "type": "string"
        },
        {
          "name": "",
          "type": "uint8"
        }
      ],
      "payable": false,
      "stateMutability": "view",
      "type": "function"
    },
    {
      "constant": true,
      "inputs": [
        {
          "name": "limit",
          "type": "uint64"
        }
      ],
      "name": "viewLatestGames",
      "outputs": [
        {
          "name": "",
          "type": "uint256[]"
        }
      ],
      "payable": false,
      "stateMutability": "view",
      "type": "function"
    },
    {
      "constant": false,
      "inputs": [
        {
          "name": "card",
          "type": "uint256"
        },
        {
          "name": "threshold",
          "type": "uint256"
        }
      ],
      "name": "startGame",
      "outputs": [],
      "payable": true,
      "stateMutability": "payable",
      "type": "function"
    },
    {
      "constant": false,
      "inputs": [
        {
          "name": "card",
          "type": "uint256"
        },
        {
          "name": "threshold",
          "type": "uint256"
        },
        {
          "name": "group_id",
          "type": "uint256"
        },
        {
          "name": "userMessage",
          "type": "string"
        }
      ],
      "name": "startGroupChatGame",
      "outputs": [],
      "payable": true,
      "stateMutability": "payable",
      "type": "function"
    },
    {
      "constant": false,
      "inputs": [
        {
          "name": "gameId",
          "type": "uint64"
        }
      ],
      "name": "cancelGame",
      "outputs": [],
      "payable": false,
      "stateMutability": "nonpayable",
      "type": "function"
    },
    {
      "constant": false,
      "inputs": [
        {
          "name": "gameId",
          "type": "uint64"
        },
        {
          "name": "card",
          "type": "uint256"
        }
      ],
      "name": "joinGame",
      "outputs": [],
      "payable": true,
      "stateMutability": "payable",
      "type": "function"
    },
    {
      "constant": false,
      "inputs": [
        {
          "name": "gameId",
          "type": "uint64"
        },
        {
          "name": "key",
          "type": "string"
        },
        {
          "name": "content",
          "type": "uint8"
        }
      ],
      "name": "openCard",
      "outputs": [],
      "payable": false,
      "stateMutability": "nonpayable",
      "type": "function"
    },
    {
      "constant": false,
      "inputs": [
        {
          "name": "gameId",
          "type": "uint64"
        }
      ],
      "name": "finishTimeoutGame",
      "outputs": [],
      "payable": false,
      "stateMutability": "nonpayable",
      "type": "function"
    },
    {
      "constant": true,
      "inputs": [
        {
          "name": "account",
          "type": "address"
        }
      ],
      "name": "balanceOf",
      "outputs": [
        {
          "name": "",
          "type": "uint256"
        }
      ],
      "payable": false,
      "stateMutability": "view",
      "type": "function"
    },
    {
      "constant": false,
      "inputs": [
        {
          "name": "recipient",
          "type": "address"
        },
        {
          "name": "amount",
          "type": "uint256"
        }
      ],
      "name": "transfer",
      "outputs": [
        {
          "name": "",
          "type": "bool"
        }
      ],
      "payable": false,
      "stateMutability": "nonpayable",
      "type": "function"
    }
  ],
  "bytecode": "0x608060405260018060146101000a81548160ff021916908315150217905550683635c9adc5dea000006002556102586003556000600460006101000a81548167ffffffffffffffff021916908367ffffffffffffffff160217905550600a600460086101000a81548163ffffffff021916908363ffffffff16021790555034801561008957600080fd5b5060405160208062005be783398101806040528101908080519060200190929190505050336000806101000a81548173ffffffffffffffffffffffffffffffffffffffff021916908373ffffffffffffffffffffffffffffffffffffffff16021790555080600660006101000a81548173ffffffffffffffffffffffffffffffffffffffff021916908373ffffffffffffffffffffffffffffffffffffffff16021790555050615aa8806200013f6000396000f300608060405260043610610149576000357c0100000000000000000000000000000000000000000000000000000000900463ffffffff1680630d53be481461014e578063117a5b90146101855780631eb447f9146102705780631f434095146102a7578063238dafe0146102f2578063282c51a81461032157806329eaa1ab1461036d578063367edd32146103f95780633b59034f1461041057806349bcaf5f146105dc5780634e71e0c81461060957806362212e4b146106205780636baf51891461067c5780636fcfca04146106d357806370a0823114610712578063715018a614610769578063730b838114610780578063894ba833146107aa5780638da5cb5b146107c1578063976e0887146108185780639d65a67e1461085b578063a9059cbb1461088f578063bf8bcee4146108f4578063e30c397814610921578063f2fde38b14610978575b600080fd5b34801561015a57600080fd5b50610183600480360381019080803567ffffffffffffffff1690602001909291905050506109bb565b005b34801561019157600080fd5b506101b060048036038101908080359060200190929190505050610dd2565b604051808a67ffffffffffffffff1667ffffffffffffffff1681526020018981526020018873ffffffffffffffffffffffffffffffffffffffff1673ffffffffffffffffffffffffffffffffffffffff1681526020018773ffffffffffffffffffffffffffffffffffffffff1673ffffffffffffffffffffffffffffffffffffffff1681526020018660ff1660ff168152602001858152602001848152602001838152602001828152602001995050505050505050505060405180910390f35b34801561027c57600080fd5b506102a5600480360381019080803567ffffffffffffffff169060200190929190505050611038565b005b3480156102b357600080fd5b506102dc600480360381019080803567ffffffffffffffff169060200190929190505050611725565b6040518082815260200191505060405180910390f35b3480156102fe57600080fd5b5061030761173d565b604051808215151515815260200191505060405180910390f35b61036b600480360381019080803590602001909291908035906020019092919080359060200190929190803590602001908201803590602001919091929391929390505050611750565b005b34801561037957600080fd5b506103a2600480360381019080803567ffffffffffffffff169060200190929190505050611c99565b6040518080602001828103825283818151815260200191508051906020019060200280838360005b838110156103e55780820151818401526020810190506103ca565b505050509050019250505060405180910390f35b34801561040557600080fd5b5061040e6122c4565b005b34801561041c57600080fd5b50610445600480360381019080803567ffffffffffffffff1690602001909291905050506123e2565b604051808d81526020018c81526020018b73ffffffffffffffffffffffffffffffffffffffff1673ffffffffffffffffffffffffffffffffffffffff1681526020018a73ffffffffffffffffffffffffffffffffffffffff1673ffffffffffffffffffffffffffffffffffffffff1681526020018960ff1660ff168152602001888152602001878152602001806020018660ff1660ff168152602001858152602001806020018460ff1660ff168152602001838103835288818151815260200191508051906020019080838360005b8381101561052f578082015181840152602081019050610514565b50505050905090810190601f16801561055c5780820380516001836020036101000a031916815260200191505b50838103825285818151815260200191508051906020019080838360005b8381101561059557808201518184015260208101905061057a565b50505050905090810190601f1680156105c25780820380516001836020036101000a031916815260200191505b509e50505050505050505050505050505060405180910390f35b3480156105e857600080fd5b506106076004803603810190808035906020019092919050505061282d565b005b34801561061557600080fd5b5061061e612932565b005b34801561062c57600080fd5b5061067a600480360381019080803567ffffffffffffffff169060200190929190803590602001908201803590602001919091929391929390803560ff169060200190929190505050612b3a565b005b34801561068857600080fd5b506106916130b1565b604051808273ffffffffffffffffffffffffffffffffffffffff1673ffffffffffffffffffffffffffffffffffffffff16815260200191505060405180910390f35b3480156106df57600080fd5b506106e86130d7565b604051808267ffffffffffffffff1667ffffffffffffffff16815260200191505060405180910390f35b34801561071e57600080fd5b50610753600480360381019080803573ffffffffffffffffffffffffffffffffffffffff1690602001909291905050506130f1565b6040518082815260200191505060405180910390f35b34801561077557600080fd5b5061077e6131f2565b005b6107a860048036038101908080359060200190929190803590602001909291905050506132c2565b005b3480156107b657600080fd5b506107bf61337b565b005b3480156107cd57600080fd5b506107d661349a565b604051808273ffffffffffffffffffffffffffffffffffffffff1673ffffffffffffffffffffffffffffffffffffffff16815260200191505060405180910390f35b34801561082457600080fd5b50610859600480360381019080803573ffffffffffffffffffffffffffffffffffffffff1690602001909291905050506134bf565b005b61088d600480360381019080803567ffffffffffffffff16906020019092919080359060200190929190505050613608565b005b34801561089b57600080fd5b506108da600480360381019080803573ffffffffffffffffffffffffffffffffffffffff16906020019092919080359060200190929190505050613837565b604051808215151515815260200191505060405180910390f35b34801561090057600080fd5b5061091f60048036038101908080359060200190929190505050613941565b005b34801561092d57600080fd5b50610936613ac6565b604051808273ffffffffffffffffffffffffffffffffffffffff1673ffffffffffffffffffffffffffffffffffffffff16815260200191505060405180910390f35b34801561098457600080fd5b506109b9600480360381019080803573ffffffffffffffffffffffffffffffffffffffff169060200190929190505050613aec565b005b6000813373ffffffffffffffffffffffffffffffffffffffff1660078267ffffffffffffffff168154811015156109ee57fe5b90600052602060002090600c020160020160009054906101000a900473ffffffffffffffffffffffffffffffffffffffff1673ffffffffffffffffffffffffffffffffffffffff161480610ab757503373ffffffffffffffffffffffffffffffffffffffff1660078267ffffffffffffffff16815481101515610a6d57fe5b90600052602060002090600c020160030160009054906101000a900473ffffffffffffffffffffffffffffffffffffffff1673ffffffffffffffffffffffffffffffffffffffff16145b1515610b2b576040517f08c379a00000000000000000000000000000000000000000000000000000000081526004018080602001828103825260108152602001807f6e6565642067616d6520706c617965720000000000000000000000000000000081525060200191505060405180910390fd5b826000600460009054906101000a900467ffffffffffffffff1667ffffffffffffffff168267ffffffffffffffff16101515610bcf576040517f08c379a000000000000000000000000000000000000000000000000000000000815260040180806020018281038252600d8152602001807f77726f6e672067616d652069640000000000000000000000000000000000000081525060200191505060405180910390fd5b8060ff1660078367ffffffffffffffff16815481101515610bec57fe5b90600052602060002090600c020160030160149054906101000a900460ff1660ff16141515610c83576040517f08c379a00000000000000000000000000000000000000000000000000000000081526004018080602001828103825260118152602001807f77726f6e672067616d652073746174757300000000000000000000000000000081525060200191505060405180910390fd5b84610c8d81613bf4565b1515610d01576040517f08c379a00000000000000000000000000000000000000000000000000000000081526004018080602001828103825260128152602001807f6e6565642067616d652074696d65206f7574000000000000000000000000000081525060200191505060405180910390fd5b60078667ffffffffffffffff16815481101515610d1a57fe5b90600052602060002090600c0201945060038560030160146101000a81548160ff021916908360ff1602179055503373ffffffffffffffffffffffffffffffffffffffff166108fc86600101549081150290604051600060405180830381858888f19350505050158015610d92573d6000803e3d6000fd5b508567ffffffffffffffff167fa77d020ec6193b836dd9686343fd6244891812d0d63f6b8567734bf69298985860405160405180910390a2505050505050565b600781815481101515610de157fe5b90600052602060002090600c02016000915090508060000160009054906101000a900467ffffffffffffffff16908060010154908060020160009054906101000a900473ffffffffffffffffffffffffffffffffffffffff16908060030160009054906101000a900473ffffffffffffffffffffffffffffffffffffffff16908060030160149054906101000a900460ff1690806004016060604051908101604052908160008201548152602001600182018054600181600116156101000203166002900480601f016020809104026020016040519081016040528092919081815260200182805460018160011615610100020316600290048015610f275780601f10610efc57610100808354040283529160200191610f27565b820191906000526020600020905b815481529060010190602001808311610f0a57829003601f168201915b505050505081526020016002820160009054906101000a900460ff1660ff1660ff168152505090806007016060604051908101604052908160008201548152602001600182018054600181600116156101000203166002900480601f0160208091040260200160405190810160405280929190818152602001828054600181600116156101000203166002900480156110015780601f10610fd657610100808354040283529160200191611001565b820191906000526020600020905b815481529060010190602001808311610fe457829003601f168201915b505050505081526020016002820160009054906101000a900460ff1660ff1660ff16815250509080600a01549080600b0154905089565b61104061587b565b61104861590d565b61105061590d565b833373ffffffffffffffffffffffffffffffffffffffff1660078267ffffffffffffffff1681548110151561108157fe5b90600052602060002090600c020160020160009054906101000a900473ffffffffffffffffffffffffffffffffffffffff1673ffffffffffffffffffffffffffffffffffffffff16148061114a57503373ffffffffffffffffffffffffffffffffffffffff1660078267ffffffffffffffff1681548110151561110057fe5b90600052602060002090600c020160030160009054906101000a900473ffffffffffffffffffffffffffffffffffffffff1673ffffffffffffffffffffffffffffffffffffffff16145b15156111be576040517f08c379a00000000000000000000000000000000000000000000000000000000081526004018080602001828103825260108152602001807f6e6565642067616d6520706c617965720000000000000000000000000000000081525060200191505060405180910390fd5b846001600460009054906101000a900467ffffffffffffffff1667ffffffffffffffff168267ffffffffffffffff16101515611262576040517f08c379a000000000000000000000000000000000000000000000000000000000815260040180806020018281038252600d8152602001807f77726f6e672067616d652069640000000000000000000000000000000000000081525060200191505060405180910390fd5b8060ff1660078367ffffffffffffffff1681548110151561127f57fe5b90600052602060002090600c020160030160149054906101000a900460ff1660ff16141515611316576040517f08c379a00000000000000000000000000000000000000000000000000000000081526004018080602001828103825260118152602001807f77726f6e672067616d652073746174757300000000000000000000000000000081525060200191505060405180910390fd5b8661132081613bf4565b1515611394576040517f08c379a00000000000000000000000000000000000000000000000000000000081526004018080602001828103825260128152602001807f6e6565642067616d652074696d65206f7574000000000000000000000000000081525060200191505060405180910390fd5b60078867ffffffffffffffff168154811015156113ad57fe5b90600052602060002090600c020161012060405190810160405290816000820160009054906101000a900467ffffffffffffffff1667ffffffffffffffff1667ffffffffffffffff168152602001600182015481526020016002820160009054906101000a900473ffffffffffffffffffffffffffffffffffffffff1673ffffffffffffffffffffffffffffffffffffffff1673ffffffffffffffffffffffffffffffffffffffff1681526020016003820160009054906101000a900473ffffffffffffffffffffffffffffffffffffffff1673ffffffffffffffffffffffffffffffffffffffff1673ffffffffffffffffffffffffffffffffffffffff1681526020016003820160149054906101000a900460ff1660ff1660ff168152602001600482016060604051908101604052908160008201548152602001600182018054600181600116156101000203166002900480601f0160208091040260200160405190810160405280929190818152602001828054600181600116156101000203166002900480156115815780601f1061155657610100808354040283529160200191611581565b820191906000526020600020905b81548152906001019060200180831161156457829003601f168201915b505050505081526020016002820160009054906101000a900460ff1660ff1660ff16815250508152602001600782016060604051908101604052908160008201548152602001600182018054600181600116156101000203166002900480601f01602080910402602001604051908101604052809291908181526020018280546001816001161561010002031660029004801561165f5780601f106116345761010080835404028352916020019161165f565b820191906000526020600020905b81548152906001019060200180831161164257829003601f168201915b505050505081526020016002820160009054906101000a900460ff1660ff1660ff16815250508152602001600a8201548152602001600b8201548152505096508660a0015195508660c0015194506000866040015160ff161415156116ce576116c9886001613f19565b61171b565b6000856040015160ff1614151561170e57611709887fffffffffffffffffffffffffffffffffffffffffffffffffffffffffffffffff613f19565b61171a565b611719886000613f19565b5b5b5050505050505050565b60086020528060005260406000206000915090505481565b600160149054906101000a900460ff1681565b600083600073ffffffffffffffffffffffffffffffffffffffff166004600c9054906101000a900473ffffffffffffffffffffffffffffffffffffffff1673ffffffffffffffffffffffffffffffffffffffff161415151561181a576040517f08c379a00000000000000000000000000000000000000000000000000000000081526004018080602001828103825260158152602001807f4e6f2067726f757020636861742061646472657373000000000000000000000081525060200191505060405180910390fd5b600560009054906101000a900473ffffffffffffffffffffffffffffffffffffffff1673ffffffffffffffffffffffffffffffffffffffff166347b84f4182336040518363ffffffff167c0100000000000000000000000000000000000000000000000000000000028152600401808381526020018273ffffffffffffffffffffffffffffffffffffffff1673ffffffffffffffffffffffffffffffffffffffff16815260200192505050602060405180830381600087803b1580156118df57600080fd5b505af11580156118f3573d6000803e3d6000fd5b505050506040513d602081101561190957600080fd5b8101908080519060200190929190505050151561198e576040517f08c379a00000000000000000000000000000000000000000000000000000000081526004018080602001828103825260198152602001807f596f7520617265206e6f7420696e20746869732067726f75700000000000000081525060200191505060405180910390fd5b600560009054906101000a900473ffffffffffffffffffffffffffffffffffffffff1673ffffffffffffffffffffffffffffffffffffffff16638ed5788182336040518363ffffffff167c0100000000000000000000000000000000000000000000000000000000028152600401808381526020018273ffffffffffffffffffffffffffffffffffffffff1673ffffffffffffffffffffffffffffffffffffffff16815260200192505050602060405180830381600087803b158015611a5357600080fd5b505af1158015611a67573d6000803e3d6000fd5b505050506040513d6020811015611a7d57600080fd5b8101908080519060200190929190505050151515611b03576040517f08c379a00000000000000000000000000000000000000000000000000000000081526004018080602001828103825260148152602001807f596f752068617665206265656e2062616e6e656400000000000000000000000081525060200191505060405180910390fd5b600160149054906101000a900460ff161515611bad576040517f08c379a00000000000000000000000000000000000000000000000000000000081526004018080602001828103825260238152602001807f436f6e747261637420686173206265656e2064697361626c6564206279206f7781526020017f6e6572000000000000000000000000000000000000000000000000000000000081525060400191505060405180910390fd5b611bb78787614282565b915084600860008467ffffffffffffffff1667ffffffffffffffff16815260200190815260200160002081905550611bef8583614652565b8167ffffffffffffffff16857fcb613bba8ba408214751d7ddec60c59f97abed6bed1c604296cd6c93be647a13338787348c604051808673ffffffffffffffffffffffffffffffffffffffff1673ffffffffffffffffffffffffffffffffffffffff1681526020018060200184815260200183815260200182810382528686828181526020019250808284378201915050965050505050505060405180910390a350505050505050565b6060600060606000611ca961587b565b600460089054906101000a900463ffffffff1663ffffffff168667ffffffffffffffff1611151515611d43576040517f08c379a00000000000000000000000000000000000000000000000000000000081526004018080602001828103825260118152602001807f6c696d697420697320746f6f206869676800000000000000000000000000000081525060200191505060405180910390fd5b600460009054906101000a900467ffffffffffffffff1667ffffffffffffffff168667ffffffffffffffff1611611d7a5785611d92565b600460009054906101000a900467ffffffffffffffff165b93506007840267ffffffffffffffff16604051908082528060200260200182016040528015611dd05781602001602082028038833980820191505090505b509250600091505b8367ffffffffffffffff168267ffffffffffffffff1610156122b8576007600183600460009054906101000a900467ffffffffffffffff16030367ffffffffffffffff16815481101515611e2857fe5b90600052602060002090600c020161012060405190810160405290816000820160009054906101000a900467ffffffffffffffff1667ffffffffffffffff1667ffffffffffffffff168152602001600182015481526020016002820160009054906101000a900473ffffffffffffffffffffffffffffffffffffffff1673ffffffffffffffffffffffffffffffffffffffff1673ffffffffffffffffffffffffffffffffffffffff1681526020016003820160009054906101000a900473ffffffffffffffffffffffffffffffffffffffff1673ffffffffffffffffffffffffffffffffffffffff1673ffffffffffffffffffffffffffffffffffffffff1681526020016003820160149054906101000a900460ff1660ff1660ff168152602001600482016060604051908101604052908160008201548152602001600182018054600181600116156101000203166002900480601f016020809104026020016040519081016040528092919081815260200182805460018160011615610100020316600290048015611ffc5780601f10611fd157610100808354040283529160200191611ffc565b820191906000526020600020905b815481529060010190602001808311611fdf57829003601f168201915b505050505081526020016002820160009054906101000a900460ff1660ff1660ff16815250508152602001600782016060604051908101604052908160008201548152602001600182018054600181600116156101000203166002900480601f0160208091040260200160405190810160405280929190818152602001828054600181600116156101000203166002900480156120da5780601f106120af576101008083540402835291602001916120da565b820191906000526020600020905b8154815290600101906020018083116120bd57829003601f168201915b505050505081526020016002820160009054906101000a900460ff1660ff1660ff16815250508152602001600a8201548152602001600b820154815250509050806000015167ffffffffffffffff16836000600785020167ffffffffffffffff1681518110151561214757fe5b90602001906020020181815250508060200151836001600785020167ffffffffffffffff1681518110151561217857fe5b9060200190602002018181525050806101000151836002600785020167ffffffffffffffff168151811015156121aa57fe5b9060200190602002018181525050806040015173ffffffffffffffffffffffffffffffffffffffff16836003600785020167ffffffffffffffff168151811015156121f157fe5b9060200190602002018181525050806060015173ffffffffffffffffffffffffffffffffffffffff16836004600785020167ffffffffffffffff1681518110151561223857fe5b9060200190602002018181525050806080015160ff16836005600785020167ffffffffffffffff1681518110151561226c57fe5b90602001906020020181815250508060e00151836006600785020167ffffffffffffffff1681518110151561229d57fe5b90602001906020020181815250508180600101925050611dd8565b82945050505050919050565b6000809054906101000a900473ffffffffffffffffffffffffffffffffffffffff1673ffffffffffffffffffffffffffffffffffffffff163373ffffffffffffffffffffffffffffffffffffffff16141515612388576040517f08c379a00000000000000000000000000000000000000000000000000000000081526004018080602001828103825260208152602001807f4f776e61626c653a2063616c6c6572206973206e6f7420746865206f776e657281525060200191505060405180910390fd5b60018060146101000a81548160ff021916908315150217905550600160149054906101000a900460ff1615157f44cd398f157fa2dcc23e1a3238d8ec602ef8ed03c90372c10918d81d69e36ab160405160405180910390a2565b60008060008060008060006060600080606060006123fe61587b565b600460009054906101000a900467ffffffffffffffff1667ffffffffffffffff168e67ffffffffffffffff1610151561249f576040517f08c379a000000000000000000000000000000000000000000000000000000000815260040180806020018281038252600d8152602001807f77726f6e672067616d652069640000000000000000000000000000000000000081525060200191505060405180910390fd5b60078e67ffffffffffffffff168154811015156124b857fe5b90600052602060002090600c020161012060405190810160405290816000820160009054906101000a900467ffffffffffffffff1667ffffffffffffffff1667ffffffffffffffff168152602001600182015481526020016002820160009054906101000a900473ffffffffffffffffffffffffffffffffffffffff1673ffffffffffffffffffffffffffffffffffffffff1673ffffffffffffffffffffffffffffffffffffffff1681526020016003820160009054906101000a900473ffffffffffffffffffffffffffffffffffffffff1673ffffffffffffffffffffffffffffffffffffffff1673ffffffffffffffffffffffffffffffffffffffff1681526020016003820160149054906101000a900460ff1660ff1660ff168152602001600482016060604051908101604052908160008201548152602001600182018054600181600116156101000203166002900480601f01602080910402602001604051908101604052809291908181526020018280546001816001161561010002031660029004801561268c5780601f106126615761010080835404028352916020019161268c565b820191906000526020600020905b81548152906001019060200180831161266f57829003601f168201915b505050505081526020016002820160009054906101000a900460ff1660ff1660ff16815250508152602001600782016060604051908101604052908160008201548152602001600182018054600181600116156101000203166002900480601f01602080910402602001604051908101604052809291908181526020018280546001816001161561010002031660029004801561276a5780601f1061273f5761010080835404028352916020019161276a565b820191906000526020600020905b81548152906001019060200180831161274d57829003601f168201915b505050505081526020016002820160009054906101000a900460ff1660ff1660ff16815250508152602001600a8201548152602001600b82015481525050905080602001518161010001518260400151836060015184608001518560e001518660a00151600001518760a00151602001518860a00151604001518960c00151600001518a60c00151602001518b60c00151604001518494508191509c509c509c509c509c509c509c509c509c509c509c509c505091939597999b5091939597999b565b6000809054906101000a900473ffffffffffffffffffffffffffffffffffffffff1673ffffffffffffffffffffffffffffffffffffffff163373ffffffffffffffffffffffffffffffffffffffff161415156128f1576040517f08c379a00000000000000000000000000000000000000000000000000000000081526004018080602001828103825260208152602001807f4f776e61626c653a2063616c6c6572206973206e6f7420746865206f776e657281525060200191505060405180910390fd5b806003819055507f016810b2453fd6fa62348747e56186a28bfab39f0326d594aa954c3421996500816040518082815260200191505060405180910390a150565b600160009054906101000a900473ffffffffffffffffffffffffffffffffffffffff1673ffffffffffffffffffffffffffffffffffffffff163373ffffffffffffffffffffffffffffffffffffffff161415156129f7576040517f08c379a00000000000000000000000000000000000000000000000000000000081526004018080602001828103825260168152602001807f50656e64696e67206f776e65722072657175697265640000000000000000000081525060200191505060405180910390fd5b600160009054906101000a900473ffffffffffffffffffffffffffffffffffffffff1673ffffffffffffffffffffffffffffffffffffffff166000809054906101000a900473ffffffffffffffffffffffffffffffffffffffff1673ffffffffffffffffffffffffffffffffffffffff167f8be0079c531659141344cd1fd0a4f28419497f9722a3daafe3b4186f6b6457e060405160405180910390a3600160009054906101000a900473ffffffffffffffffffffffffffffffffffffffff166000806101000a81548173ffffffffffffffffffffffffffffffffffffffff021916908373ffffffffffffffffffffffffffffffffffffffff1602179055506000600160006101000a81548173ffffffffffffffffffffffffffffffffffffffff021916908373ffffffffffffffffffffffffffffffffffffffff160217905550565b600080600080873373ffffffffffffffffffffffffffffffffffffffff1660078267ffffffffffffffff16815481101515612b7157fe5b90600052602060002090600c020160020160009054906101000a900473ffffffffffffffffffffffffffffffffffffffff1673ffffffffffffffffffffffffffffffffffffffff161480612c3a57503373ffffffffffffffffffffffffffffffffffffffff1660078267ffffffffffffffff16815481101515612bf057fe5b90600052602060002090600c020160030160009054906101000a900473ffffffffffffffffffffffffffffffffffffffff1673ffffffffffffffffffffffffffffffffffffffff16145b1515612cae576040517f08c379a00000000000000000000000000000000000000000000000000000000081526004018080602001828103825260108152602001807f6e6565642067616d6520706c617965720000000000000000000000000000000081525060200191505060405180910390fd5b886001600460009054906101000a900467ffffffffffffffff1667ffffffffffffffff168267ffffffffffffffff16101515612d52576040517f08c379a000000000000000000000000000000000000000000000000000000000815260040180806020018281038252600d8152602001807f77726f6e672067616d652069640000000000000000000000000000000000000081525060200191505060405180910390fd5b8060ff1660078367ffffffffffffffff16815481101515612d6f57fe5b90600052602060002090600c020160030160149054906101000a900460ff1660ff16141515612e06576040517f08c379a00000000000000000000000000000000000000000000000000000000081526004018080602001828103825260118152602001807f77726f6e672067616d652073746174757300000000000000000000000000000081525060200191505060405180910390fd5b60078b67ffffffffffffffff16815481101515612e1f57fe5b90600052602060002090600c020196503373ffffffffffffffffffffffffffffffffffffffff168760020160009054906101000a900473ffffffffffffffffffffffffffffffffffffffff1673ffffffffffffffffffffffffffffffffffffffff161415612e9257866004019550612e99565b8660070195505b612eda86600001548b8b8080601f0160208091040260200160405190810160405280939291908181526020018383808284378201915050505050508a614b36565b9450841515612f51576040517f08c379a00000000000000000000000000000000000000000000000000000000081526004018080602001828103825260148152602001807f77726f6e67206b6579206f7220636f6e74656e7400000000000000000000000081525060200191505060405180910390fd5b8989876001019190612f64929190615932565b50878660020160006101000a81548160ff021916908360ff1602179055508a67ffffffffffffffff167f98df0761314acbda7cfd71579a6da1b756ecf9f8de9d61c54a0a3b5c16db7897338c8c8c604051808573ffffffffffffffffffffffffffffffffffffffff1673ffffffffffffffffffffffffffffffffffffffff168152602001806020018360ff1660ff168152602001828103825285858281815260200192508082843782019150509550505050505060405180910390a260008760040160020160009054906101000a900460ff1660ff1614158015613060575060008760070160020160009054906101000a900460ff1660ff1614155b156130a4576130978760040160020160009054906101000a900460ff168860070160020160009054906101000a900460ff16614c46565b93506130a38b85613f19565b5b5050505050505050505050565b6004600c9054906101000a900473ffffffffffffffffffffffffffffffffffffffff1681565b600460009054906101000a900467ffffffffffffffff1681565b6000600660009054906101000a900473ffffffffffffffffffffffffffffffffffffffff1673ffffffffffffffffffffffffffffffffffffffff1663f5722882836040518263ffffffff167c0100000000000000000000000000000000000000000000000000000000028152600401808273ffffffffffffffffffffffffffffffffffffffff1673ffffffffffffffffffffffffffffffffffffffff168152602001915050602060405180830381600087803b1580156131b057600080fd5b505af11580156131c4573d6000803e3d6000fd5b505050506040513d60208110156131da57600080fd5b81019080805190602001909291905050509050919050565b6000809054906101000a900473ffffffffffffffffffffffffffffffffffffffff1673ffffffffffffffffffffffffffffffffffffffff163373ffffffffffffffffffffffffffffffffffffffff161415156132b6576040517f08c379a00000000000000000000000000000000000000000000000000000000081526004018080602001828103825260208152602001807f4f776e61626c653a2063616c6c6572206973206e6f7420746865206f776e657281525060200191505060405180910390fd5b6132c06000614cfd565b565b600160149054906101000a900460ff16151561336c576040517f08c379a00000000000000000000000000000000000000000000000000000000081526004018080602001828103825260238152602001807f436f6e747261637420686173206265656e2064697361626c6564206279206f7781526020017f6e6572000000000000000000000000000000000000000000000000000000000081525060400191505060405180910390fd5b6133768282614282565b505050565b6000809054906101000a900473ffffffffffffffffffffffffffffffffffffffff1673ffffffffffffffffffffffffffffffffffffffff163373ffffffffffffffffffffffffffffffffffffffff1614151561343f576040517f08c379a00000000000000000000000000000000000000000000000000000000081526004018080602001828103825260208152602001807f4f776e61626c653a2063616c6c6572206973206e6f7420746865206f776e657281525060200191505060405180910390fd5b6000600160146101000a81548160ff021916908315150217905550600160149054906101000a900460ff1615157f44cd398f157fa2dcc23e1a3238d8ec602ef8ed03c90372c10918d81d69e36ab160405160405180910390a2565b6000809054906101000a900473ffffffffffffffffffffffffffffffffffffffff1681565b6000809054906101000a900473ffffffffffffffffffffffffffffffffffffffff1673ffffffffffffffffffffffffffffffffffffffff163373ffffffffffffffffffffffffffffffffffffffff16141515613583576040517f08c379a00000000000000000000000000000000000000000000000000000000081526004018080602001828103825260208152602001807f4f776e61626c653a2063616c6c6572206973206e6f7420746865206f776e657281525060200191505060405180910390fd5b806004600c6101000a81548173ffffffffffffffffffffffffffffffffffffffff021916908373ffffffffffffffffffffffffffffffffffffffff16021790555080600560006101000a81548173ffffffffffffffffffffffffffffffffffffffff021916908373ffffffffffffffffffffffffffffffffffffffff16021790555050565b6000826000600460009054906101000a900467ffffffffffffffff1667ffffffffffffffff168267ffffffffffffffff161015156136ae576040517f08c379a000000000000000000000000000000000000000000000000000000000815260040180806020018281038252600d8152602001807f77726f6e672067616d652069640000000000000000000000000000000000000081525060200191505060405180910390fd5b8060ff1660078367ffffffffffffffff168154811015156136cb57fe5b90600052602060002090600c020160030160149054906101000a900460ff1660ff16141515613762576040517f08c379a00000000000000000000000000000000000000000000000000000000081526004018080602001828103825260118152602001807f77726f6e672067616d652073746174757300000000000000000000000000000081525060200191505060405180910390fd5b8461376c81613bf4565b1515156137e1576040517f08c379a000000000000000000000000000000000000000000000000000000000815260040180806020018281038252600b8152602001807f74696d65206973206f757400000000000000000000000000000000000000000081525060200191505060405180910390fd5b600860008767ffffffffffffffff1667ffffffffffffffff16815260200190815260200160002054935060008411156138245761381f868686614dc1565b61382f565b61382e8686615182565b5b505050505050565b6000600660009054906101000a900473ffffffffffffffffffffffffffffffffffffffff1673ffffffffffffffffffffffffffffffffffffffff166322dd6bf784846040518363ffffffff167c0100000000000000000000000000000000000000000000000000000000028152600401808373ffffffffffffffffffffffffffffffffffffffff1673ffffffffffffffffffffffffffffffffffffffff16815260200182815260200192505050602060405180830381600087803b1580156138fe57600080fd5b505af1158015613912573d6000803e3d6000fd5b505050506040513d602081101561392857600080fd5b8101908080519060200190929190505050905092915050565b6000809054906101000a900473ffffffffffffffffffffffffffffffffffffffff1673ffffffffffffffffffffffffffffffffffffffff163373ffffffffffffffffffffffffffffffffffffffff16141515613a05576040517f08c379a00000000000000000000000000000000000000000000000000000000081526004018080602001828103825260208152602001807f4f776e61626c653a2063616c6c6572206973206e6f7420746865206f776e657281525060200191505060405180910390fd5b670de0b6b3a76400008110151515613a85576040517f08c379a000000000000000000000000000000000000000000000000000000000815260040180806020018281038252600c8152602001807f6c696d697420746f206c6f77000000000000000000000000000000000000000081525060200191505060405180910390fd5b806002819055507f44c8ef68dcc036e569158e914a009e3f02c9e933580e31424a1ae67728df7465816040518082815260200191505060405180910390a150565b600160009054906101000a900473ffffffffffffffffffffffffffffffffffffffff1681565b6000809054906101000a900473ffffffffffffffffffffffffffffffffffffffff1673ffffffffffffffffffffffffffffffffffffffff163373ffffffffffffffffffffffffffffffffffffffff16141515613bb0576040517f08c379a00000000000000000000000000000000000000000000000000000000081526004018080602001828103825260208152602001807f4f776e61626c653a2063616c6c6572206973206e6f7420746865206f776e657281525060200191505060405180910390fd5b80600160006101000a81548173ffffffffffffffffffffffffffffffffffffffff021916908373ffffffffffffffffffffffffffffffffffffffff16021790555050565b6000613bfe61587b565b60078367ffffffffffffffff16815481101515613c1757fe5b90600052602060002090600c020161012060405190810160405290816000820160009054906101000a900467ffffffffffffffff1667ffffffffffffffff1667ffffffffffffffff168152602001600182015481526020016002820160009054906101000a900473ffffffffffffffffffffffffffffffffffffffff1673ffffffffffffffffffffffffffffffffffffffff1673ffffffffffffffffffffffffffffffffffffffff1681526020016003820160009054906101000a900473ffffffffffffffffffffffffffffffffffffffff1673ffffffffffffffffffffffffffffffffffffffff1673ffffffffffffffffffffffffffffffffffffffff1681526020016003820160149054906101000a900460ff1660ff1660ff168152602001600482016060604051908101604052908160008201548152602001600182018054600181600116156101000203166002900480601f016020809104026020016040519081016040528092919081815260200182805460018160011615610100020316600290048015613deb5780601f10613dc057610100808354040283529160200191613deb565b820191906000526020600020905b815481529060010190602001808311613dce57829003601f168201915b505050505081526020016002820160009054906101000a900460ff1660ff1660ff16815250508152602001600782016060604051908101604052908160008201548152602001600182018054600181600116156101000203166002900480601f016020809104026020016040519081016040528092919081815260200182805460018160011615610100020316600290048015613ec95780601f10613e9e57610100808354040283529160200191613ec9565b820191906000526020600020905b815481529060010190602001808311613eac57829003601f168201915b505050505081526020016002820160009054906101000a900460ff1660ff1660ff16815250508152602001600a8201548152602001600b820154815250509050428160e001511115915050919050565b600060078367ffffffffffffffff16815481101515613f3457fe5b90600052602060002090600c0201905060018260000b1415613ff3578060020160009054906101000a900473ffffffffffffffffffffffffffffffffffffffff1673ffffffffffffffffffffffffffffffffffffffff166108fc82600101549081150290604051600060405180830381858888f19350505050158015613fbe573d6000803e3d6000fd5b50613fee8160020160009054906101000a900473ffffffffffffffffffffffffffffffffffffffff166003615474565b614217565b7fffffffffffffffffffffffffffffffffffffffffffffffffffffffffffffffff8260000b14156140c1578060030160009054906101000a900473ffffffffffffffffffffffffffffffffffffffff1673ffffffffffffffffffffffffffffffffffffffff166108fc82600101549081150290604051600060405180830381858888f1935050505015801561408c573d6000803e3d6000fd5b506140bc8160030160009054906101000a900473ffffffffffffffffffffffffffffffffffffffff166003615474565b614216565b8060020160009054906101000a900473ffffffffffffffffffffffffffffffffffffffff1673ffffffffffffffffffffffffffffffffffffffff166108fc6002836001015481151561410f57fe5b049081150290604051600060405180830381858888f1935050505015801561413b573d6000803e3d6000fd5b508060030160009054906101000a900473ffffffffffffffffffffffffffffffffffffffff1673ffffffffffffffffffffffffffffffffffffffff166108fc6002836001015481151561418a57fe5b049081150290604051600060405180830381858888f193505050501580156141b6573d6000803e3d6000fd5b506141e68160020160009054906101000a900473ffffffffffffffffffffffffffffffffffffffff166001615474565b6142158160030160009054906101000a900473ffffffffffffffffffffffffffffffffffffffff166001615474565b5b5b60028160030160146101000a81548160ff021916908360ff1602179055508267ffffffffffffffff167f3598a14b08a100ac75597e6f8e8309dfd773210d8ff4be917cebe132e82b7e5183604051808260000b60000b815260200191505060405180910390a2505050565b600061428c61590d565b61429461590d565b61429c61587b565b60606040519081016040528087815260200160206040519081016040528060008152508152602001600060ff1681525092506060604051908101604052806000815260200160206040519081016040528060008152508152602001600060ff16815250915061012060405190810160405280600460009054906101000a900467ffffffffffffffff1667ffffffffffffffff1681526020013481526020013373ffffffffffffffffffffffffffffffffffffffff168152602001600073ffffffffffffffffffffffffffffffffffffffff168152602001600060ff168152602001848152602001838152602001600354420181526020018681525090506004600081819054906101000a900467ffffffffffffffff168092919060010191906101000a81548167ffffffffffffffff021916908367ffffffffffffffff160217905550506007819080600181540180825580915050906001820390600052602060002090600c02016000909192909190915060008201518160000160006101000a81548167ffffffffffffffff021916908367ffffffffffffffff1602179055506020820151816001015560408201518160020160006101000a81548173ffffffffffffffffffffffffffffffffffffffff021916908373ffffffffffffffffffffffffffffffffffffffff16021790555060608201518160030160006101000a81548173ffffffffffffffffffffffffffffffffffffffff021916908373ffffffffffffffffffffffffffffffffffffffff16021790555060808201518160030160146101000a81548160ff021916908360ff16021790555060a0820151816004016000820151816000015560208201518160010190805190602001906145259291906159b2565b5060408201518160020160006101000a81548160ff021916908360ff160217905550505060c0820151816007016000820151816000015560208201518160010190805190602001906145789291906159b2565b5060408201518160020160006101000a81548160ff021916908360ff160217905550505060e082015181600a015561010082015181600b0155505050806000015167ffffffffffffffff167f04b3f072ec09d8a8e42d32becc4b8f5907ae8e1840ab37c6698647fd2ecf24458260400151883489604051808573ffffffffffffffffffffffffffffffffffffffff1673ffffffffffffffffffffffffffffffffffffffff16815260200184815260200183815260200182815260200194505050505060405180910390a28060000151935050505092915050565b606082600073ffffffffffffffffffffffffffffffffffffffff166004600c9054906101000a900473ffffffffffffffffffffffffffffffffffffffff1673ffffffffffffffffffffffffffffffffffffffff161415151561471c576040517f08c379a00000000000000000000000000000000000000000000000000000000081526004018080602001828103825260158152602001807f4e6f2067726f757020636861742061646472657373000000000000000000000081525060200191505060405180910390fd5b600560009054906101000a900473ffffffffffffffffffffffffffffffffffffffff1673ffffffffffffffffffffffffffffffffffffffff166347b84f4182336040518363ffffffff167c0100000000000000000000000000000000000000000000000000000000028152600401808381526020018273ffffffffffffffffffffffffffffffffffffffff1673ffffffffffffffffffffffffffffffffffffffff16815260200192505050602060405180830381600087803b1580156147e157600080fd5b505af11580156147f5573d6000803e3d6000fd5b505050506040513d602081101561480b57600080fd5b81019080805190602001909291905050501515614890576040517f08c379a00000000000000000000000000000000000000000000000000000000081526004018080602001828103825260198152602001807f596f7520617265206e6f7420696e20746869732067726f75700000000000000081525060200191505060405180910390fd5b600560009054906101000a900473ffffffffffffffffffffffffffffffffffffffff1673ffffffffffffffffffffffffffffffffffffffff16638ed5788182336040518363ffffffff167c0100000000000000000000000000000000000000000000000000000000028152600401808381526020018273ffffffffffffffffffffffffffffffffffffffff1673ffffffffffffffffffffffffffffffffffffffff16815260200192505050602060405180830381600087803b15801561495557600080fd5b505af1158015614969573d6000803e3d6000fd5b505050506040513d602081101561497f57600080fd5b8101908080519060200190929190505050151515614a05576040517f08c379a00000000000000000000000000000000000000000000000000000000081526004018080602001828103825260148152602001807f596f752068617665206265656e2062616e6e656400000000000000000000000081525060200191505060405180910390fd5b614a188367ffffffffffffffff16615555565b9150600560009054906101000a900473ffffffffffffffffffffffffffffffffffffffff1673ffffffffffffffffffffffffffffffffffffffff1663aae8b59285846040518363ffffffff167c01000000000000000000000000000000000000000000000000000000000281526004018083815260200180602001828103825283818151815260200191508051906020019080838360005b83811015614acb578082015181840152602081019050614ab0565b50505050905090810190601f168015614af85780820380516001836020036101000a031916815260200191505b509350505050600060405180830381600087803b158015614b1857600080fd5b505af1158015614b2c573d6000803e3d6000fd5b5050505050505050565b600082826040516020018083805190602001908083835b602083101515614b725780518252602082019150602081019050602083039250614b4d565b6001836020036101000a0380198251168184511680821785525050505050509050018260ff1660ff167f0100000000000000000000000000000000000000000000000000000000000000028152600101925050506040516020818303038152906040526040518082805190602001908083835b602083101515614c0a5780518252602082019150602081019050602083039250614be5565b6001836020036101000a038019825116818451168082178552505050505050905001915050604051809103902060019004841490509392505050565b600080828403905060018160000b1480614c8257507ffffffffffffffffffffffffffffffffffffffffffffffffffffffffffffffffe8160000b145b15614c905760019150614cf6565b7fffffffffffffffffffffffffffffffffffffffffffffffffffffffffffffffff8160000b1480614cc4575060028160000b145b15614cf1577fffffffffffffffffffffffffffffffffffffffffffffffffffffffffffffffff9150614cf6565b600091505b5092915050565b60008060009054906101000a900473ffffffffffffffffffffffffffffffffffffffff169050816000806101000a81548173ffffffffffffffffffffffffffffffffffffffff021916908373ffffffffffffffffffffffffffffffffffffffff1602179055508173ffffffffffffffffffffffffffffffffffffffff168173ffffffffffffffffffffffffffffffffffffffff167f8be0079c531659141344cd1fd0a4f28419497f9722a3daafe3b4186f6b6457e060405160405180910390a35050565b80600073ffffffffffffffffffffffffffffffffffffffff166004600c9054906101000a900473ffffffffffffffffffffffffffffffffffffffff1673ffffffffffffffffffffffffffffffffffffffff1614151515614e89576040517f08c379a00000000000000000000000000000000000000000000000000000000081526004018080602001828103825260158152602001807f4e6f2067726f757020636861742061646472657373000000000000000000000081525060200191505060405180910390fd5b600560009054906101000a900473ffffffffffffffffffffffffffffffffffffffff1673ffffffffffffffffffffffffffffffffffffffff166347b84f4182336040518363ffffffff167c0100000000000000000000000000000000000000000000000000000000028152600401808381526020018273ffffffffffffffffffffffffffffffffffffffff1673ffffffffffffffffffffffffffffffffffffffff16815260200192505050602060405180830381600087803b158015614f4e57600080fd5b505af1158015614f62573d6000803e3d6000fd5b505050506040513d6020811015614f7857600080fd5b81019080805190602001909291905050501515614ffd576040517f08c379a00000000000000000000000000000000000000000000000000000000081526004018080602001828103825260198152602001807f596f7520617265206e6f7420696e20746869732067726f75700000000000000081525060200191505060405180910390fd5b600560009054906101000a900473ffffffffffffffffffffffffffffffffffffffff1673ffffffffffffffffffffffffffffffffffffffff16638ed5788182336040518363ffffffff167c0100000000000000000000000000000000000000000000000000000000028152600401808381526020018273ffffffffffffffffffffffffffffffffffffffff1673ffffffffffffffffffffffffffffffffffffffff16815260200192505050602060405180830381600087803b1580156150c257600080fd5b505af11580156150d6573d6000803e3d6000fd5b505050506040513d60208110156150ec57600080fd5b8101908080519060200190929190505050151515615172576040517f08c379a00000000000000000000000000000000000000000000000000000000081526004018080602001828103825260148152602001807f596f752068617665206265656e2062616e6e656400000000000000000000000081525060200191505060405180910390fd5b61517c8484615182565b50505050565b600061518c61590d565b60078467ffffffffffffffff168154811015156151a557fe5b90600052602060002090600c0201915060606040519081016040528084815260200160206040519081016040528060008152508152602001600060ff16815250905081600b01543410151515615263576040517f08c379a000000000000000000000000000000000000000000000000000000000815260040180806020018281038252600d8152602001807f77726f6e672062616c616e63650000000000000000000000000000000000000081525060200191505060405180910390fd5b81600b01543411156152bd573373ffffffffffffffffffffffffffffffffffffffff166108fc83600b015434039081150290604051600060405180830381858888f193505050501580156152bb573d6000803e3d6000fd5b505b338260030160006101000a81548173ffffffffffffffffffffffffffffffffffffffff021916908373ffffffffffffffffffffffffffffffffffffffff160217905550808260070160008201518160000155602082015181600101908051906020019061532b9291906159b2565b5060408201518160020160006101000a81548160ff021916908360ff16021790555090505081600b01548260010154018260010181905550426003540182600a018190555060018260030160146101000a81548160ff021916908360ff1602179055506153bd8260020160009054906101000a900473ffffffffffffffffffffffffffffffffffffffff166002615474565b6153ec8260030160009054906101000a900473ffffffffffffffffffffffffffffffffffffffff166001615474565b8367ffffffffffffffff167f6030de52daebee6c07b2f6f4b2e8ba8707191b786719c3a2ece9cda6278e1e53338585600b0154604051808473ffffffffffffffffffffffffffffffffffffffff1673ffffffffffffffffffffffffffffffffffffffff168152602001838152602001828152602001935050505060405180910390a250505050565b600660009054906101000a900473ffffffffffffffffffffffffffffffffffffffff1673ffffffffffffffffffffffffffffffffffffffff1663b13d96fa83836040518363ffffffff167c0100000000000000000000000000000000000000000000000000000000028152600401808373ffffffffffffffffffffffffffffffffffffffff1673ffffffffffffffffffffffffffffffffffffffff16815260200182815260200192505050600060405180830381600087803b15801561553957600080fd5b505af115801561554d573d6000803e3d6000fd5b505050505050565b606080606080606061556686615724565b93506040805190810160405280601281526020017f7b226d657373616765223a7b22736571223a00000000000000000000000000008152509250606060405190810160405280602281526020017f7d2c2274797065223a2268616e6767616d65222c2276657273696f6e223a223181526020017f227d00000000000000000000000000000000000000000000000000000000000081525091508284836040516020018084805190602001908083835b60208310151561563a5780518252602082019150602081019050602083039250615615565b6001836020036101000a03801982511681845116808217855250505050505090500183805190602001908083835b60208310151561568d5780518252602082019150602081019050602083039250615668565b6001836020036101000a03801982511681845116808217855250505050505090500182805190602001908083835b6020831015156156e057805182526020820191506020810190506020830392506156bb565b6001836020036101000a0380198251168184511680821785525050505050509050019350505050604051602081830303815290604052905080945050505050919050565b60606000806060600080861415615772576040805190810160405280600181526020017f30000000000000000000000000000000000000000000000000000000000000008152509450615872565b8593505b60008414151561579c578280600101935050600a8481151561579457fe5b049350615776565b826040519080825280601f01601f1916602001820160405280156157cf5781602001602082028038833980820191505090505b5091506001830390505b60008614151561586e57600a868115156157ef57fe5b066030017f01000000000000000000000000000000000000000000000000000000000000000282828060019003935081518110151561582a57fe5b9060200101907effffffffffffffffffffffffffffffffffffffffffffffffffffffffffffff1916908160001a905350600a8681151561586657fe5b0495506157d9565b8194505b50505050919050565b6101a060405190810160405280600067ffffffffffffffff16815260200160008152602001600073ffffffffffffffffffffffffffffffffffffffff168152602001600073ffffffffffffffffffffffffffffffffffffffff168152602001600060ff1681526020016158ec615a32565b81526020016158f9615a32565b815260200160008152602001600081525090565b6060604051908101604052806000815260200160608152602001600060ff1681525090565b828054600181600116156101000203166002900490600052602060002090601f016020900481019282601f1061597357803560ff19168380011785556159a1565b828001600101855582156159a1579182015b828111156159a0578235825591602001919060010190615985565b5b5090506159ae9190615a57565b5090565b828054600181600116156101000203166002900490600052602060002090601f016020900481019282601f106159f357805160ff1916838001178555615a21565b82800160010185558215615a21579182015b82811115615a20578251825591602001919060010190615a05565b5b509050615a2e9190615a57565b5090565b6060604051908101604052806000815260200160608152602001600060ff1681525090565b615a7991905b80821115615a75576000816000905550600101615a5d565b5090565b905600a165627a7a723058203ffc5f9e9235cacd2c4bd777678ec839834f133ab547cd48255a4ed4b844ff720029",
  "source": "// SPDX-License-Identifier: MIT\npragma solidity >=0.4.22 <0.9.0;\nimport \"./interfaces/IGame.sol\";\nimport \"./interfaces/IPlayer.sol\";\nimport \"./interfaces/IStarter.sol\";\nimport \"./interfaces/IGroupChat.sol\";\nimport \"./interfaces/IRPS.sol\";\nimport \"@cpchain-tools/cpchain-dapps-utils/contracts/lifecycle/Enable.sol\";\n\ncontract Game is IGame, IStarter, IPlayer, Enable {\n    uint256 private maxLimit = 1000 ether;\n    uint256 private timeoutLimit = 10 minutes;\n    uint64 public totalGameNumber = 0;\n    uint32 private viewCountLimit = 10; \n\n    address public groupChatAddress;\n    IGroupChat private groupchatInstance;  \n    IRPS private RPSInstance;\n\n    constructor(address rps) public { \n        RPSInstance = IRPS(rps);\n    }\n\n    struct GameCard {\n        uint256 card;\n        string key;\n        //1 Rock  2 Paper 3 Scissors  0 unknown\n        uint8 content;\n    }\n    struct HandGame {\n        uint64 gameId;\n        uint256 amount;\n        address starter;\n        address player;\n        //0 started, 1 locked,2,finished,3 cancel,\n        uint8 status;\n        GameCard starterCard;\n        GameCard playerCard;\n        uint256 timeout;\n        uint256 threshold;\n    }\n\n    HandGame[] public games;\n    mapping(uint64 => uint256) public gameToGroup;\n\n    modifier onlyActivatedGroupMember(uint256 group_id) {\n        require(groupChatAddress != address(0x0), \"No group chat address\");\n        require(\n            groupchatInstance.has(group_id, msg.sender),\n            \"You are not in this group\"\n        );\n        require(\n            !groupchatInstance.isBanned(group_id, msg.sender),\n            \"You have been banned\"\n        );\n        _;\n    }\n    modifier onlyPlayer(uint64 gameId) {\n        require(\n            games[gameId].starter == msg.sender ||\n                games[gameId].player == msg.sender,\n            \"need game player\"\n        );\n        _;\n    }\n\n    modifier onlyTimeout(uint64 gameId) {\n        require(_isTimeout(gameId), \"need game time out\");\n        _;\n    }\n\n    modifier notTimeout(uint64 gameId) {\n        require(!_isTimeout(gameId), \"time is out\");\n        _;\n    }\n\n    modifier needGameStatus(uint64 gameId, uint8 status) {\n        require(gameId < totalGameNumber, \"wrong game id\");\n        require(games[gameId].status == status, \"wrong game status\");\n        _;\n    }\n\n    // contract owner methods\n\n    function setGroupChat(address groupchat) public onlyOwner {\n        groupChatAddress = groupchat;\n        groupchatInstance = IGroupChat(groupchat);\n    }\n\n    function setMaxLimit(uint256 limit) external onlyOwner {\n        require(limit >= 1 ether, \"limit to low\");\n        maxLimit = limit;\n        emit SetMaxLimit(limit);\n    }\n\n    function setTimeoutLimit(uint256 limit) external onlyOwner {\n        timeoutLimit = limit;\n        emit SetTimeoutLimit(limit);\n    }\n\n    // view\n    function viewGame(uint64 gameId)\n        external\n        view\n        returns (\n            uint256,\n            uint256,\n            address,\n            address,\n            uint8,\n            uint256,\n            uint256,\n            string,\n            uint8,\n            uint256,\n            string,\n            uint8\n        )\n    {\n        require(gameId < totalGameNumber, \"wrong game id\");\n        HandGame memory game = games[gameId];\n        return (\n            game.amount,\n            game.threshold,\n            game.starter,\n            game.player,\n            game.status,\n            game.timeout,\n            game.starterCard.card,\n            game.starterCard.key,\n            game.starterCard.content,\n            game.playerCard.card,\n            game.playerCard.key,\n            game.playerCard.content\n        );\n    }\n\n    /**\n     * view the lastest\n     */\n    function viewLatestGames(uint64 limit) external view returns (uint256[]) {\n        require(limit <= viewCountLimit, \"limit is too high\");\n        uint64 count = limit > totalGameNumber ? totalGameNumber : limit;\n        uint256[] memory _lastestGames = new uint256[](count * 7);\n        for (uint64 i = 0; i < count; i++) {\n            HandGame memory game = games[totalGameNumber - i - 1];\n            _lastestGames[i * 7 + 0] = uint256(game.gameId);\n            _lastestGames[i * 7 + 1] = game.amount;\n            _lastestGames[i * 7 + 2] = game.threshold;\n            _lastestGames[i * 7 + 3] = uint256(game.starter);\n            _lastestGames[i * 7 + 4] = uint256(game.player);\n            _lastestGames[i * 7 + 5] = uint256(game.status);\n            _lastestGames[i * 7 + 6] = game.timeout;\n        }\n\n        return (_lastestGames);\n    }\n\n    // game starter methods\n    function startGame(uint256 card, uint256 threshold)\n        external\n        payable\n        onlyEnabled\n    {\n        _createGame(card, threshold);\n    }\n\n    function startGroupChatGame(\n        uint256 card,\n        uint256 threshold,\n        uint256 group_id,\n        string userMessage\n    ) external payable onlyActivatedGroupMember(group_id) onlyEnabled {\n        uint64 gameId = _createGame(card, threshold);\n        gameToGroup[gameId] = group_id;\n        _notifyGroup(group_id, gameId);\n        emit CreateGroupHandGame(\n            group_id,\n            gameId,\n            msg.sender,\n            userMessage,\n            msg.value,\n            threshold\n        );\n    }\n\n    function cancelGame(uint64 gameId)\n        external\n        onlyPlayer(gameId)\n        needGameStatus(gameId, 0)\n        onlyTimeout(gameId)\n    {\n        HandGame storage game = games[gameId];\n        game.status = 3;\n        msg.sender.transfer(game.amount);\n        emit GameCancelled(gameId);\n    }\n\n    // player methods\n    function joinGame(uint64 gameId, uint256 card)\n        external\n        payable\n        needGameStatus(gameId, 0)\n        notTimeout(gameId)\n    {\n        uint256 group_id = gameToGroup[gameId];\n        if (group_id > 0) {\n            _lockGroupGame(gameId, card, group_id);\n        } else {\n            _lockGame(gameId, card);\n        }\n    }\n\n    function openCard(\n        uint64 gameId,\n        string key,\n        uint8 content\n    ) external onlyPlayer(gameId) needGameStatus(gameId, 1) {\n        HandGame storage game = games[gameId];\n        GameCard storage card;\n        if (game.starter == msg.sender) {\n            card = game.starterCard;\n        } else {\n            card = game.playerCard;\n        }\n        bool validate = _validateCard(card.card, key, content);\n        require(validate, \"wrong key or content\");\n        card.key = key;\n        card.content = content;\n\n        emit CardOpened(gameId, msg.sender, key, content);\n\n        if (game.starterCard.content != 0 && game.playerCard.content != 0) {\n            int8 r = _winOrLose(\n                game.starterCard.content,\n                game.playerCard.content\n            );\n            _finishGame(gameId, r);\n        }\n    }\n\n    function finishTimeoutGame(uint64 gameId)\n        external\n        onlyPlayer(gameId)\n        needGameStatus(gameId, 1)\n        onlyTimeout(gameId)\n    {\n        HandGame memory game = games[gameId];\n        GameCard memory starter = game.starterCard;\n        GameCard memory player = game.playerCard;\n        if (starter.content != 0) {\n            _finishGame(gameId, 1);\n        } else if (player.content != 0) {\n            _finishGame(gameId, -1);\n        } else {\n            _finishGame(gameId, 0);\n        }\n    }\n\n    function balanceOf(address account) public view returns (uint256) {\n        return RPSInstance.balanceOfRPS(account);\n    }\n\n    function transfer(address recipient, uint256 amount) public returns (bool) {\n        return RPSInstance.transferRPS(recipient, amount);\n    }\n\n    // private methods\n\n    function _notifyGroup(uint256 group_id, uint64 gameId)\n        internal\n        onlyActivatedGroupMember(group_id)\n    {\n        string memory message = _getMessageWithSeq(gameId);\n        groupchatInstance.sendMessage(group_id, message);\n    }\n\n    function _getMessageWithSeq(uint256 seq) private pure returns (string) {\n        string memory _id = uintToString(seq);\n        string memory msg0 = '{\"message\":{\"seq\":';\n        string memory msg1 = '},\"type\":\"hanggame\",\"version\":\"1\"}';\n        string memory message = string(abi.encodePacked(msg0, _id, msg1));\n        return message;\n    }\n\n    function _lockGroupGame(\n        uint64 gameId,\n        uint256 card,\n        uint256 group_id\n    ) private onlyActivatedGroupMember(group_id) {\n        _lockGame(gameId, card);\n    }\n\n    function _lockGame(uint64 gameId, uint256 card) private {\n        HandGame storage game = games[gameId];\n        GameCard memory playerCard = GameCard(card, \"\", 0);\n        require(msg.value >= game.threshold, \"wrong balance\");\n        // \n        if (msg.value > game.threshold) {\n            msg.sender.transfer(msg.value - game.threshold);\n        }\n        game.player = msg.sender;\n        game.playerCard = playerCard;\n        game.amount = game.amount + game.threshold;\n        game.timeout = timeoutLimit + block.timestamp;\n        game.status = 1;\n        _mintRPS(game.starter, 2);\n        _mintRPS(game.player, 1);\n        emit GameLocked(gameId, msg.sender, card, game.threshold);\n    }\n\n    function _createGame(uint256 card, uint256 threshold)\n        private\n        returns (uint64)\n    {\n        GameCard memory starter = GameCard(card, \"\", 0);\n        GameCard memory player = GameCard(0, \"\", 0);\n        HandGame memory game = HandGame(\n            totalGameNumber,\n            msg.value,\n            msg.sender,\n            address(0),\n            0,\n            starter,\n            player,\n            block.timestamp + timeoutLimit,\n            threshold\n        );\n        totalGameNumber++;\n        games.push(game);\n        emit GameStarted(game.gameId, game.starter, card, msg.value, threshold);\n        return game.gameId;\n    }\n\n    function _mintRPS(address account, uint256 amount) private {\n        RPSInstance.mintRPS(account, amount);\n    }\n\n    function uintToString(uint256 i) internal pure returns (string) {\n        if (i == 0) return \"0\";\n        uint256 j = i;\n        uint256 length;\n        while (j != 0) {\n            length++;\n            j /= 10;\n        }\n        bytes memory bstr = new bytes(length);\n        uint256 k = length - 1;\n        while (i != 0) {\n            bstr[k--] = bytes1(48 + (i % 10));\n            i /= 10;\n        }\n        return string(bstr);\n    }\n\n    function _finishGame(uint64 gameId, int8 r) private {\n        HandGame storage game = games[gameId];\n        if (r == 1) {\n            game.starter.transfer(game.amount);\n            _mintRPS(game.starter, 3);\n        } else if (r == -1) {\n            game.player.transfer(game.amount);\n            _mintRPS(game.player, 3);\n        } else {\n            game.starter.transfer(game.amount / 2);\n            game.player.transfer(game.amount / 2);\n            _mintRPS(game.starter, 1);\n            _mintRPS(game.player, 1);\n        }\n        game.status = 2;\n        emit GameFinished(gameId, r);\n    }\n\n    function _isTimeout(uint64 gameId) private view returns (bool) {\n        HandGame memory game = games[gameId];\n        return (game.timeout <= block.timestamp);\n    }\n\n    function _validateCard(\n        uint256 card,\n        string key,\n        uint8 content\n    ) private view returns (bool) {\n        return (card == uint256(keccak256(abi.encodePacked(key, content))));\n    }\n\n    function _winOrLose(uint8 playerContent, uint8 otherContent)\n        private\n        view\n        returns (int8)\n    {\n        int8 r = int8(playerContent - otherContent);\n        if (r == 1 || r == -2) {\n            return 1;\n        } else if (r == -1 || r == 2) {\n            return -1;\n        } else {\n            return 0;\n        }\n    }\n}\n",
  "sourcePath": "/home/zhangk/Documents/github/cpchain-dapps-handgame/contracts/Game.sol",
  "compiler": {
    "name": "solc",
    "version": "0.4.25+commit.59dbf8f1.Linux.g++"
  },
  "schemaVersion": "3.4.7",
  "updatedAt": "2022-04-28T07:23:37.808Z",
  "devdoc": {
    "methods": {
      "claimOwnership()": {
        "details": "Allows the pendingOwner address to finalize the transfer."
      },
      "disableContract()": {
        "details": "set contract disable"
      },
      "enableContract()": {
        "details": "set contract enable"
      },
      "renounceOwnership()": {
        "details": "Leaves the contract without owner. It will not be possible to call `onlyOwner` functions anymore. Can only be called by the current owner.     * NOTE: Renouncing ownership will leave the contract without an owner, thereby removing any functionality that is only available to the owner."
      },
      "transferOwnership(address)": {
        "details": "Allows the current owner to set the pendingOwner address.",
        "params": {
          "newOwner": "The address to transfer ownership to."
        }
      }
    }
  },
  "userdoc": {
    "methods": {
      "viewLatestGames(uint64)": {
        "notice": "view the lastest"
      }
    }
  }
}